:100000000C94E0000C9408010C9408010C94080175
:100010000C9408010C9408010C9408010C9408013C
:100020000C9408010C9408010C9408010C94B5057B
:100030000C9408010C9408010C9408010C9408011C
:100040000C946B050C9408010C9439050C94130561
:100050000C9408010C9408010C9408010C940801FC
:100060000C9408010C94080100407A10F35A00A087
:10007000724E18090010A5D4E80000E87648170071
:1000800000E40B54020000CA9A3B000000E1F505B1
:10009000000080969800000040420F000000A086FB
:1000A00001000000102700000000E803000000002D
:1000B0006400000000000A000000000001000000D1
:1000C00000002C76D888DC674F0823DFC1DFAE59EB
:1000D000E1B1B796E5E3E453C63AE651997696E87E
:1000E000E6C28426EB898C9B62ED407C6FFCEFBC02
:1000F0009C9F40F2BAA56FA5F490055A2AF75C932D
:100100006B6CF9676DC11BFCE0E40D47FEF520E662
:10011000B500D0ED902E0300943577050080841E45
:10012000080000204E0A000000C80C333333330FA0
:10013000986E12831141EF8D2114893BE65516CF3D
:10014000FEE6DB18D1844B381BF77C1D901DA4BB49
:10015000E424203284725E228100C9F124ECA1E5FE
:100160003D270000000023002600290000000008B1
:10017000000201000003040700000000000000006E
:1001800000000000250028002B00000000002400D3
:1001900027002A00040404040404040402020202E6
:1001A000020203030303030301020408102040803A
:1001B0000102040810200102040810207106F00951
:1001C00011241FBECFEFD8E0DEBFCDBF11E0A0E00D
:1001D000B1E0E2E3F2E202C005900D92A436B1076D
:1001E000D9F722E0A4E6B1E001C01D92A436B2071F
:1001F000E1F710E0CFEDD0E004C02197FE010E94AE
:100200000B0FCE3DD107C9F70E94F2060C940C11DA
:100210000C9400008F929F92AF92BF92FF920F9327
:100220001F93CF93DF93F09039022BE02F1508F442
:100230004CC020913B0208E512E0021B110927FD8A
:100240001395000F111F000F111F20913A02C8E8EB
:10025000D0E0C21BD10927FDD395CC0FDD1FCC0FF9
:10026000DD1F4E010D2E000CAA08BB089801012EBF
:10027000000C440B550B281939094A095B09DC01AC
:100280000E94AB0D24EB30E040E050E00E94810D75
:10029000820E931EA41EB51E8C169D062CF0E8013E
:1002A000801691060CF4E4012297CC0FDD1F2FB7C6
:1002B000F8948F2D90E0FC01EE0FFF1FE80FF91F5F
:1002C000EC5EFD4FD283C1832FBFDF91CF911F9191
:1002D0000F91FF90BF90AF909F908F90089590E006
:1002E000FC01E855FE4F24918C569E4FFC018491F1
:1002F000882399F090E0880F991FFC01E657FE4F84
:10030000A591B491FC01E058FE4F859194918FB76F
:10031000F894EC91E22BEC938FBF0895AF92BF92CB
:10032000CF92DF92EF92FF920F931F93CF93DF93C1
:100330006C017B018B01040F151FEB015E01AE18F0
:10034000BF08C017D10759F06991D601ED91FC9112
:100350000190F081E02DC6010995892B79F7C5013F
:10036000DF91CF911F910F91FF90EF90DF90CF9091
:10037000BF90AF900895FC014481558160817181E7
:1003800087E791E00C948E01FC01538D448D252F5D
:1003900030E0842F90E0821B930B541710F0CF961F
:1003A000089501970895FC01918D828D981761F051
:1003B000A28DAE0FBF2FB11D5D968C91928D9F5F68
:1003C0009F73928F90E008958FEF9FEF08952FB75E
:1003D000F8948091730190917401A0917501B0918E
:1003E00076012FBF80937F0190938001A0938101BC
:1003F000B093820187E791E00E94D30197FF26C066
:100400002FB7F8948091730190917401A0917501B8
:10041000B09176012FBF40917F0150918001609192
:10042000810170918201841B950BA60BB70B409143
:100430007B0150917C0160917D0170917E01841758
:100440009507A607B707B0F28FEF9FEF0895FC015D
:10045000918D828D981731F0828DE80FF11D858D79
:1004600090E008958FEF9FEF0895FC01918D228D0C
:10047000892F90E0805C9F4F821B91098F73992791
:10048000089587E791E00E94350221E0892B09F465
:1004900020E0822F089580E090E0892B29F00E94CF
:1004A000410281110C9400000895FC01A48DA80F55
:1004B000B92FB11DA35ABF4F2C91848D90E00196A6
:1004C0008F739927848FA689B7892C93A089B189C6
:1004D0008C91837080648C93938D848D981306C067
:1004E0000288F389E02D80818F7D80830895EF92CB
:1004F000FF920F931F93CF93DF93EC0181E0888FDE
:100500009B8D8C8D98131AC0E889F989808185FFAD
:1005100015C09FB7F894EE89FF896083E889F9894F
:1005200080818370806480839FBF81E090E0DF9151
:10053000CF911F910F91FF90EF900895F62E0B8DA4
:1005400010E00F5F1F4F0F731127E02E8C8D8E115F
:100550000CC00FB607FCFACFE889F989808185FFC6
:10056000F5CFCE010E945502F1CFEB8DEC0FFD2FA0
:10057000F11DE35AFF4FF0829FB7F8940B8FEA8981
:10058000FB8980818062CFCFCF93DF93EC01888D90
:100590008823B9F0AA89BB89E889F9898C9185FDFE
:1005A00003C0808186FD0DC00FB607FCF7CF8C918C
:1005B00085FFF2CF808185FFEDCFCE010E945502ED
:1005C000E9CFDF91CF910895833081F028F4813015
:1005D00099F08230A9F008958730A9F08830C9F0E9
:1005E0008430B1F4809180008F7D03C080918000C1
:1005F0008F7780938000089584B58F7784BD0895A8
:1006000084B58F7DFBCF8091B0008F778093B00051
:1006100008958091B0008F7DF9CFCF93DF93282F7D
:1006200030E0F901E459FE4F8491F901E855FE4F9D
:10063000D491F901EC56FE4FC491CC23A1F0811165
:100640000E94E402EC2FF0E0EE0FFF1FEE59FE4F88
:10065000A591B491EC91ED2381E090E009F480E064
:10066000DF91CF91089580E090E0FACF1F93CF9370
:10067000DF93282F30E0F901E459FE4F8491F9010E
:10068000E855FE4FD491F901EC56FE4FC491CC23AE
:10069000A9F0162F81110E94E402EC2FF0E0EE0F7A
:1006A000FF1FE058FE4FA591B4918FB7F894EC91DD
:1006B000111108C0D095DE23DC938FBFDF91CF915D
:1006C0001F910895DE2BF8CF3FB7F8948091660113
:1006D00090916701A0916801B091690126B5A89B2E
:1006E00005C02F3F19F00196A11DB11D3FBFBA2FC4
:1006F000A92F982F8827BC01CD01620F711D811D84
:10070000911D42E0660F771F881F991F4A95D1F708
:1007100008958F929F92AF92BF92CF92DF92EF9205
:10072000FF924B015C010E9464036B017C010E94FB
:1007300064036C197D098E099F09683E7340810529
:100740009105A8F321E0821A9108A108B10888EE6A
:10075000C80E83E0D81EE11CF11C81149104A10491
:10076000B10429F7FF90EF90DF90CF90BF90AF904A
:100770009F908F900895FC0180819181009711F0E6
:100780000C94AD0F08950F931F93CF93DF93EC015B
:1007900088819981009759F02A813B812617370774
:1007A00030F081E0DF91CF911F910F9108958B017F
:1007B0006F5F7F4F0E943610009759F099838883AE
:1007C0001B830A832C813D81232B59F7FC01108266
:1007D000E8CF80E0E7CFEF92FF920F931F93CF9384
:1007E000DF93EC017B01FB0101900020E9F73197D9
:1007F0008F01061B170BB8010E94C30328813981A2
:10080000811113C02115310519F0C9010E94AD0FE6
:10081000198218821D821C821B821A82DF91CF915D
:100820001F910F91FF90EF9008951D830C83B701E6
:10083000C901DF91CF911F910F91FF90EF900C9420
:100840000511EF92FF920F931F93CF93DF936115E2
:10085000710541F480E0DF91CF911F910F91FF90DE
:10086000EF90089541155105B1F07B01EC010C8129
:100870001D81040F151FB8010E94C303882351F383
:10088000288139818C819D81B701820F931F0E943D
:1008900005111D830C8381E0DECFFB010190002058
:1008A000E9F73197AF01461B570B0C942104CF9306
:1008B000DF9300D0CDB7DEB769831A8241E050E004
:1008C000BE016F5F7F4F0E9421040F900F90DF9158
:1008D000CF910895FB0144815581608171810C9411
:1008E00021042091400230914102C90101978217F1
:1008F000930740F4E0913C02F0913D02E80FF91FAC
:100900008DE580836CE372E082E492E00E946A04E9
:1009100063E671E08CE392E00C94EB03CF93DF93FA
:10092000EC0169E171E08CE392E00E944D04BE01AC
:100930008CE392E00E946A0469E171E08CE392E04A
:100940000E944D046CE28CE392E0DF91CF910C9415
:100950005704CF93DF93EC018091460290914702B8
:10096000892B31F06BE171E082E492E00E944D044A
:1009700063E671E08CE392E00E94EB0369E171E0D1
:100980008CE392E00E944D04BE018CE392E00E9451
:100990006A0469E171E08CE392E00E944D046DE12C
:1009A00071E08CE392E0DF91CF910C944D04EF92D3
:1009B000FF920F931F93CF93DF93EC017B0119827A
:1009C00018821B821A821D821C82FB01019000206A
:1009D000E9F731978F01061B170BB8010E94C3037B
:1009E00028813981811113C02115310519F0C90100
:1009F0000E94AD0F198218821D821C821B821A82EE
:100A0000DF91CF911F910F91FF90EF9008951D837B
:100A10000C83B701C901DF91CF911F910F91FF9016
:100A2000EF900C9405111F920F920FB60F921124A4
:100A30002F933F934F935F936F937F938F939F93E6
:100A4000AF93BF93EF93FF9387E791E00E94550226
:100A5000FF91EF91BF91AF919F918F917F916F9196
:100A60005F914F913F912F910F900FBE0F901F906C
:100A700018951F920F920FB60F9211242F938F93F8
:100A80009F93EF93FF93E0918701F091880180811C
:100A9000E0918D01F0918E0182FD1BC090818091CB
:100AA00090018F5F8F7320919101821741F0E09147
:100AB0009001F0E0E958FE4F958F80939001FF91EF
:100AC000EF919F918F912F910F900FBE0F901F90DC
:100AD00018958081F4CF1F920F920FB60F921124B8
:100AE0002F933F938F939F93AF93BF938091730105
:100AF00090917401A0917501B091760130916501DA
:100B000023E0230F2D3758F50196A11DB11D209329
:100B100065018093730190937401A0937501B09364
:100B200076018091660190916701A0916801B09172
:100B300069010196A11DB11D809366019093670123
:100B4000A0936801B0936901BF91AF919F918F917C
:100B50003F912F910F900FBE0F901F90189526E890
:100B6000230F0296A11DB11DD2CF1F920F920FB677
:100B70000F9211242F933F934F935F936F937F9323
:100B80008F939F93AF93BF93CF93DF93EF93FF9395
:100B900080916401C0913802D0E087FF24C0109298
:100BA000850010928400809164018F5F80936401BE
:100BB00080916401082E000C990B8C179D0724F47A
:100BC000809164018C30C4F1809184009091850003
:100BD000049680349C4908F47AC0809184009091F6
:100BE0008500049676C080916401082E000C990B54
:100BF0008C179D07C4F6E09164018E2FEE0F990BC0
:100C0000FC01EE0FFF1FE80FF91FEC5EFD4F808126
:100C100086FFC9CFE09164018E2FEE0F990BFC0186
:100C2000EE0FFF1FE80FF91FEC5EFD4F808160E0C3
:100C30008F730E943603B7CF2091840030918500D6
:100C4000E09164018E2FEE0F990BFC01EE0FFF1F58
:100C5000E80FF91FEC5EFD4F81819281820F931F97
:100C60009093890080938800E09164018E2FEE0FAD
:100C7000990BFC01EE0FFF1FE80FF91FEC5EFD4F13
:100C8000808186FF11C0E09164018E2FEE0F990BD9
:100C9000FC01EE0FFF1FE80FF91FEC5EFD4F808196
:100CA00061E08F730E943603FF91EF91DF91CF9146
:100CB000BF91AF919F918F917F916F915F914F9174
:100CC0003F912F910F900FBE0F901F90189580E4C9
:100CD0009CE990938900809388008FEF8093640152
:100CE000E3CF10927A011092790188EE93E0A0E0B0
:100CF000B0E080937B0190937C01A0937D01B09341
:100D00007E018BE091E0909378018093770185ECF0
:100D100090E0909384018093830184EC90E0909321
:100D200086018093850180EC90E090938801809308
:100D3000870181EC90E090938A018093890182EC95
:100D400090E090938C0180938B0186EC90E09093DF
:100D50008E0180938D01109290011092910110925A
:100D600092011092930163E671E08CE392E00E949D
:100D7000D70463E671E082E492E00E94D70460E267
:100D800071E088E492E00E94D70463E271E08EE4AF
:100D900092E00E94D70466E271E084E592E00E944E
:100DA000D70463E671E08AE592E00E94D70480915F
:100DB00038028C3098F491E0980F90933802809329
:100DC000390290E0FC01EE0FFF1FE80FF91FEC5E07
:100DD000FD4F88EB9BE09283818308958FEF809392
:100DE00039020895CF93DF93CDB7DEB7A7970FB63B
:100DF000F894DEBF0FBECDBF789484B5826084BD09
:100E000084B5816084BD85B5826085BD85B581600E
:100E100085BD80916E00816080936E00109281008C
:100E20008091810082608093810080918100816047
:100E30008093810080918000816080938000809108
:100E4000B10084608093B1008091B0008160809394
:100E5000B00080917A00846080937A0080917A005B
:100E6000826080937A0080917A00816080937A001A
:100E700080917A00806880937A001092C1008DE0A2
:100E80000E946F018AE00E946F018BE00E946F0157
:100E90008CE00E946F0183E00E946F018091390213
:100EA0008C3008F050C083E00E946F0180913902BD
:100EB000282F30E0F901EE0FFF1FE20FF31FEC5E69
:100EC000FD4F9081907C9360908310923A02109233
:100ED0003B022CE0622F0E94FF0E829FB001112482
:100EE00030E020E0AB01420F531FFA01EE0FFF1F6D
:100EF000E40FF51FEC5EFD4F908196FD16C02F5F4D
:100F00003F4F2C30310571F781110FC010928000D6
:100F100082E0809381001092850010928400B19A43
:100F200080916F00826080936F00E09139028E2F74
:100F300090E0FC01EE0FFF1FE80FF91FEC5EFD4F84
:100F40008081806480838AE590E00E940A01E091BC
:100F50008701F091880182E08083E0918301F09124
:100F600084011082E0918501F09186018FEC8083ED
:100F700010928F01E0918B01F0918C0186E08083CB
:100F8000E0918901F0918A01808180618083E09104
:100F90008901F0918A01808188608083E0918901D4
:100FA000F0918A01808180688083E0918901F091CD
:100FB0008A0180818F7D808368E873E180E090E022
:100FC0000E94890380E4582E9AE0892E912CA12C4E
:100FD000B12C20E0622E20E0722E87E791E00E9483
:100FE000350218161906A4F563E671E0CE010196E4
:100FF0000E94D7040E94E70197FD06C0682FCE012A
:1010000001960E945704F6CF8D819E81892B99F01D
:1010100069E271E089819A810E94FC10892B59F460
:101020008DE00E940D03892B59F060E08DE00E9455
:10103000360310927201CE0101960E94BB03CDCF00
:1010400061E08DE00E94360381E080937201F3CF6E
:1010500050927C0080917A00806480937A00809125
:101060007A0086FDFCCF8091780060917900762F20
:10107000682F072E000C880B990B0E94640C20E04F
:1010800030EC4FE754E40E94880E20E030E048EC5A
:1010900052E40E94C30C20E030E040EA51E40E9498
:1010A0001C0E6B017C01C0926E01D0926F01E09228
:1010B0007001F09271018CE00E940D038C0120E020
:1010C00030E048EC52E4C701B6010E94FA0E18164F
:1010D0000CF047C1012B09F044C160E08AE00E9496
:1010E000360360E08BE00E94360361E08CE00E94F2
:1010F000360380917201882309F440C020E030E07B
:101100004CED52E4C701B6010E945D0C87FF36C06A
:101110002FB7F8948091730190917401A09175019B
:10112000B09176012FBF40916A0150916B0160919F
:101130006C0170916D018C019D01041B150B260B38
:10114000370BB901A801483C510561057105B0F0A4
:1011500080936A0190936B01A0936C01B0936D0131
:101160001091000188E290E0111102C084EB90E040
:101170000E940A0181E018271093000165E371E0E5
:10118000CE0101960E94D704CE0101960E94A904C7
:10119000CE0101960E94BB0360916E0170916F01B8
:1011A00080917001909171011BA21AA21DA21CA234
:1011B0001FA21EA28E010F5F1F4F23E045E00E9479
:1011C000080A009709F4FFC0BC01CE0182960E9474
:1011D000EB03BE016E5D7F4F8CE392E00E946A04D8
:1011E000CE0182960E94BB036CE28CE392E00E94E7
:1011F00057040E94710461E471E0CE0101960E94DF
:10120000D704CE0101960E94A904CE0101960E9446
:10121000BB038DE00E940D036DE471E0892B11F496
:1012200060E571E0CE0101960E94D704CE010196DF
:101230000E948E04CE0101960E94BB030E9471049D
:1012400020E030E048EC52E460916E0170916F0153
:1012500080917001909171010E94FA0E1816F4F4B9
:1012600064E571E0CE0101960E94D704CE0101969B
:101270000E94A904CE0101960E94BB036BE571E0B8
:10128000CE0101960E94D704CE0101960E948E04E1
:10129000CE0101960E94BB030E94710488E492E093
:1012A0000E94BB0120914602309147022E5F3F4FC2
:1012B00050E040E019A28E010F5D1F4FCA01B90135
:1012C000A50194010E94EA0D605DF80162938F010F
:1012D000211531054105510589F7309761F00190DD
:1012E0000020E9F73197AF01401B510BB80187E7A8
:1012F00091E00E948E018EE492E00E94BB016BE7B8
:1013000087E791E00E94770282E492E00E94BB01AD
:101310006DE787E791E00E94770284E592E00E9402
:10132000BB0142E050E061E671E087E791E00E9496
:101330008E0163E671E082E492E00E94EB0364EFC9
:1013400071E080E090E00E9489036114710409F467
:1013500044CE0E944102882309F43FCE0E9400003F
:101360003CCE8BE00E940D038C0120E030E04CE885
:1013700052E4C701B6010E94FA0E181664F4012B5C
:1013800051F460E08AE00E94360361E08BE00E9445
:10139000360360E0ABCE8AE00E940D038C0120E0B2
:1013A00030E04CE852E4C701B6010E945D0C18160B
:1013B0000CF49FCE012B09F09CCE61E08AE00E94E4
:1013C000360360E0E3CF8AA19BA1009711F00E9451
:1013D000AD0F1BA21AA21FA21EA21DA21CA2F9CE13
:1013E0008AE592E00E94BB0384E592E00E94BB0381
:1013F0008EE492E00E94BB0388E492E00E94BB036B
:1014000082E492E00E94BB038CE392E00C94BB0365
:10141000EF920F931F93CF93DF93E80134E047FDE2
:1014200034E1042E000C550B57FF03C05195419534
:101430005109E32E022F242FAE010E94260ACE016D
:10144000DF91CF911F910F91EF900895A9E0B0E047
:10145000ECE2FAE00C94B90D6A01F22EB02E102FD6
:10146000FBE3AF2EA01608F41BE31F5F012F27E05C
:10147000AE014F5F5F4F0E94850BBC018981982FA1
:101480009970913009F43FC09BE2E1FC04C09E2DAD
:101490009170E0FC3AC05E2D5071E82FE87083FF38
:1014A00046C084E0911101C083E0EF2DE81B8F1549
:1014B00008F0E0E0D6018E2F20E2552351F1992368
:1014C00029F0D6019C93C60101966C0196012D5F0F
:1014D0003F4FE2FE24C08EE4D6018C9391E4119636
:1014E0009C93119712968C93D9018E2F90E28111C3
:1014F0001BC0E20FF32FF11D10828EEF9FEF299694
:10150000ECE00C94D50D9DE2C6CF90E2C4CF2D93B4
:1015100081508111FCCFCE0ED11CE0E0D0CF8EE601
:10152000D6018C9391E6DBCF9D938150E0CF482F7D
:10153000447082FF3DC084E0911101C083E08F15AB
:1015400010F4EF2DE81BD6018E2F20E2552309F170
:10155000992329F0D6019C93C60101966C0196014E
:101560002D5F3F4FE2FE1BC089E4D6018C938EE4D1
:1015700011968C93119786E412968C93D9018E2F35
:1015800090E2882309F4B5CF9D938150FACF2D9333
:1015900081508111FCCFCE0ED11CE0E0D9CF89E67D
:1015A000D6018C938EE611968C93119786E6E4CF44
:1015B0009B0177FF02C030E020E0A1E0B0E0911194
:1015C00002C0B0E0A0E0F9013196AE0FBF1F8B2C36
:1015D000912CBB2009F461C05401EFEFAE1ABE0A92
:1015E000AA0DBB1DFA161B0619F014F04F2D4A1B4D
:1015F000511188C0E3FC59C07601A42FB0E2A111BB
:101600004FC0C40ED11C992309F45BC040E0D60141
:101610001196F60190836D01552309F448C0012FFE
:10162000060F9A81582F507184FF03C0913309F43B
:10163000015010160CF047C0093008F008E0EEE247
:10164000FE2E5B01A01AB108850191948194910846
:101650002F3F320729F4D601FC92F60131966F0133
:101660006217730794F1021713077CF5DB01A21BC5
:10167000B30BAA24A394B12CAC0EBD1EAA0DBB1DA6
:1016800011968C9121503109D601119628153905F2
:10169000F4F0F60180836D01DBCFB12CA12CA0CF3B
:1016A000F701B1937F01A150AACF9111B0CFD6011C
:1016B000942F50E302C05D9391509111FCCFC40E62
:1016C000D11C40E0ACCF01E0BACF80E3DBCF6217A2
:1016D000730731F4963388F4953311F4552369F088
:1016E000F6018083FD01842F90E2811108C0A40FD0
:1016F000B11D1C9290E080E002CF81E3F1CF919385
:101700008150F3CF911183CF8ACF283008F027E0A2
:101710003327DA01990F311D87FD9160009661052D
:10172000710539F432602E5F3D9330E32A95E1F77D
:1017300008959F3F30F080387105610509F03C5FE6
:101740003C5F3D93913008F08068911DDF93CF930B
:101750001F930F93FF92EF92192F987F9695E92F81
:1017600096959695E90FFF27EE53FF4F992733275C
:10177000EE24FF24A701E70105900894079428F4BC
:10178000360FE71EF81E491F511D660F771F881F71
:10179000991F0694A1F70590079428F4E70EF81E08
:1017A000491F561FC11D770F881F991F661F06947A
:1017B000A1F70590079428F4F80E491F561FC71F7C
:1017C000D11D880F991F661F771F0694A1F70590FA
:1017D000079420F4490F561FC71FD81F990F661F83
:1017E000771F881F0694A9F784911095177041F010
:1017F000D695C79557954795F794E7941A95C1F7ED
:10180000E8E6F0E068941590159135916591959111
:1018100005907FE27395E118F10A430B560BC90B53
:10182000D009C0F7E10CF11E431F561FC91FD01D80
:101830007EF4703311F48A95E6CFE894015030F0CD
:10184000080F0AF40027021708F4202F2395022F0F
:101850007A3328F079E37D932A95E9F710C07D93D8
:101860002A9589F606949795679537951795179455
:10187000E118F10A430B560BC90BD00998F02395D8
:101880007E9173957A3308F070E37C932013B8F758
:101890007E9170617D9330F0839571E37D9370E369
:1018A0002A95E1F71124EF90FF900F911F91CF91AE
:1018B000DF91992787FD909508950E949F0C08F469
:1018C00081E00895E89409C097FB3EF490958095D7
:1018D000709561957F4F8F4F9F4F9923A9F0F92FF6
:1018E00096E9BB279395F695879577956795B79574
:1018F000F111F8CFFAF4BB0F11F460FF1BC06F5F5A
:101900007F4F8F4F9F4F16C0882311F096E911C06B
:10191000772321F09EE8872F762F05C0662371F08C
:1019200096E8862F70E060E02AF09A95660F771FA0
:10193000881FDAF7880F9695879597F90895990F7C
:101940000008550FAA0BE0E8FEEF16161706E80789
:10195000F907C0F012161306E407F50798F0621BAA
:10196000730B840B950B39F40A2661F0232B242B7F
:10197000252B21F408950A2609F4A140A6958FEF9E
:10198000811D811D08950E94D60C0C94470D0E9464
:10199000390D38F00E94400D20F0952311F00C9481
:1019A000300D0C94360D11240C947B0D0E94580DB3
:1019B00070F3959FC1F3950F50E0551F629FF001A2
:1019C000729FBB27F00DB11D639FAA27F00DB11DBB
:1019D000AA1F649F6627B00DA11D661F829F222744
:1019E000B00DA11D621F739FB00DA11D621F839FCB
:1019F000A00D611D221F749F3327A00D611D231FA1
:101A0000849F600D211D822F762F6A2F11249F57EE
:101A100050409AF0F1F088234AF0EE0FFF1FBB1FF1
:101A2000661F771F881F91505040A9F79E3F5105B0
:101A300080F00C94300D0C947B0D5F3FE4F3983EE6
:101A4000D4F3869577956795B795F795E7959F5F5A
:101A5000C1F7FE2B880F911D9695879597F90895EC
:101A600097F99F6780E870E060E008959FEF80EC51
:101A7000089500240A9416161706180609060895F4
:101A800000240A9412161306140605060895092E5A
:101A90000394000C11F4882352F0BB0F40F4BF2BC9
:101AA00011F460FF04C06F5F7F4F8F4F9F4F089509
:101AB00057FD9058440F551F59F05F3F71F04795FF
:101AC000880F97FB991F61F09F3F79F087950895E4
:101AD000121613061406551FF2CF4695F1DF08C003
:101AE000161617061806991FF1CF86957105610520
:101AF00008940895E894BB2766277727CB0197F9C8
:101B00000895052E97FB1EF400940E94980D57FD32
:101B100007D00E94EA0D07FC03D04EF40C94980DF8
:101B200050954095309521953F4F4F4F5F4F089509
:101B300090958095709561957F4F8F4F9F4F089539
:101B40000E940C0EA59F900DB49F900DA49F800D38
:101B5000911D11240895B7FF0C94A00D0E94A00DB3
:101B6000821B930B08952F923F924F925F926F9238
:101B70007F928F929F92AF92BF92CF92DF92EF921D
:101B8000FF920F931F93CF93DF93CDB7DEB7CA1B9E
:101B9000DB0B0FB6F894DEBF0FBECDBF09942A88C9
:101BA000398848885F846E847D848C849B84AA8471
:101BB000B984C884DF80EE80FD800C811B81AA81FE
:101BC000B981CE0FD11D0FB6F894DEBF0FBECDBFC9
:101BD000ED010895A1E21A2EAA1BBB1BFD010DC049
:101BE000AA1FBB1FEE1FFF1FA217B307E407F507CD
:101BF00020F0A21BB30BE40BF50B661F771F881FA9
:101C0000991F1A9469F760957095809590959B013E
:101C1000AC01BD01CF010895A29FB001B39FC001E7
:101C2000A39F700D811D1124911DB29F700D811D08
:101C30001124911D08955058BB27AA270E94330EE6
:101C40000C94470D0E94390D38F00E94400D20F091
:101C500039F49F3F19F426F40C94360D0EF4E095F8
:101C6000E7FB0C94300DE92F0E94580D58F3BA177A
:101C7000620773078407950720F079F4A6F50C94A2
:101C80007A0D0EF4E0950B2EBA2FA02D0B01B901A1
:101C900090010C01CA01A0011124FF27591B99F0E2
:101CA000593F50F4503E68F11A16F040A22F232FEE
:101CB000342F4427585FF3CF469537952795A7953E
:101CC000F0405395C9F77EF41F16BA0B620B730BE5
:101CD000840BBAF09150A1F0FF0FBB1F661F771F56
:101CE000881FC2F70EC0BA0F621F731F841F48F40B
:101CF000879577956795B795F7959E3F08F0B0CF94
:101D00009395880F08F09927EE0F9795879508957A
:101D10000E949C0E0C94470D0E94400D58F00E94AA
:101D2000390D40F029F45F3F29F00C94300D51112A
:101D30000C947B0D0C94360D0E94580D68F399237A
:101D4000B1F3552391F3951B550BBB27AA276217B7
:101D50007307840738F09F5F5F4F220F331F441FC4
:101D6000AA1FA9F335D00E2E3AF0E0E832D09150F8
:101D70005040E695001CCAF72BD0FE2F29D0660FE5
:101D8000771F881FBB1F261737074807AB07B0E828
:101D900009F0BB0B802DBF01FF2793585F4F3AF02E
:101DA0009E3F510578F00C94300D0C947B0D5F3FF5
:101DB000E4F3983ED4F3869577956795B795F795B4
:101DC0009F5FC9F7880F911D9695879597F908959C
:101DD000E1E0660F771F881FBB1F62177307840738
:101DE000BA0720F0621B730B840BBA0BEE1F88F747
:101DF000E09508950E949F0C08F48FEF0895991BB9
:101E000079E004C0991F961708F0961B881F7A95F1
:101E1000C9F780950895EE0FFF1F0590F491E02D0E
:101E200009940F931F93CF93DF938230910510F4A1
:101E300082E090E0E0916202F091630230E020E005
:101E4000B0E0A0E0309799F42115310509F44AC0BB
:101E5000281B390B24303105D8F58A819B81611507
:101E6000710589F1FB0193838283FE0111C04081DA
:101E700051810281138148175907E0F0481759072B
:101E800099F4109761F012960C93129713961C9385
:101E90003296CF01DF91CF911F910F91089500935A
:101EA000620210936302F4CF2115310551F04217FD
:101EB000530738F0A901DB019A01BD01DF01F801E8
:101EC000C1CFEF01F9CF9093630280936202CDCF2F
:101ED000FE01E20FF31F8193919322503109398360
:101EE0002883D7CF2091600230916102232B41F4E7
:101EF000209103013091040130936102209360022C
:101F000020910101309102012115310541F42DB7D5
:101F10003EB74091050150910601241B350BE0911D
:101F20006002F0916102E217F307A0F42E1B3F0B51
:101F30002817390778F0AC014E5F5F4F241735073B
:101F400048F04E0F5F1F50936102409360028193EF
:101F500091939FCFF0E0E0E09CCFCF93DF93009789
:101F6000E9F0FC01329713821282A0916202B091D3
:101F70006302ED0130E020E01097A1F4208131816F
:101F8000820F931F20916002309161022817390758
:101F900009F061C0F0936102E0936002DF91CF919C
:101FA0000895EA01CE17DF07E8F54A815B819E01BB
:101FB00041155105B1F7E901FB83EA834991599134
:101FC000C40FD51FEC17FD0761F480819181029643
:101FD000840F951FE90199838883828193819B8374
:101FE0008A83F0E0E0E012968D919C911397009720
:101FF000B9F52D913C911197CD010296820F931F57
:1020000020916002309161022817390739F6309724
:1020100051F51092630210926202B0936102A09394
:102020006002BCCFD383C28340815181840F951F4E
:10203000C817D90761F44E5F5F4F88819981480FB7
:10204000591F518340838A819B8193838283211509
:10205000310509F0B0CFF0936302E09362029ECFA6
:10206000FD01DC01C0CF13821282D7CFB0E0A0E027
:10207000ECE3F0E10C94B50D8C01009751F4CB0129
:102080000E94110F8C01C801CDB7DEB7E0E10C94BE
:10209000D10DFC01E60FF71F9C0122503109E21718
:1020A000F30708F49DC0D901CD91DC911197C617B3
:1020B000D70798F0C530D10530F3CE0104978617C5
:1020C000970708F3C61BD70B2297C193D1936D9343
:1020D0007C93CF010E94AD0FD6CF5B01AC1ABD0A35
:1020E0004C018C0E9D1EA0916202B0916302512C96
:1020F000412CF12CE12C109731F5809160029091E8
:1021000061028815990509F05CC04616570608F06B
:1021100058C08091010190910201009741F48DB760
:102120009EB74091050150910601841B950BE8175D
:10213000F90708F055C0F0936102E0936002F901DD
:1021400071836083A0CF8D919C91119712966C90B2
:10215000129713967C901397A815B90559F56C0141
:1021600042E0C40ED11CCA14DB0420F1AC014A19B0
:102170005B09DA011296159780F0628273825183AF
:102180004083D9016D937C93E114F10471F0D70180
:102190001396FC93EE93129776CF22968C0F9D1F89
:1021A000F90191838083F301EFCFF0936302E09311
:1021B000620269CF4816590608F42C017D01D3014B
:1021C0009ACFCB010E94110F7C01009749F0AE011C
:1021D000B8010E94F310C8010E94AD0F870153CFD0
:1021E00010E000E050CFFB01DC0102C001900D9235
:1021F00041505040D8F70895FB01DC018D910190CA
:1022000080190110D9F3990B0895FB01DC010190AD
:102210000D920020E1F7089510E0CFEDD0E004C06A
:10222000FE010E940B0F2196C03ED107C9F7F8941A
:02223000FFCFDE
:10223200010000640280000000000077028E01C4E9
:1022420001C4023502D301270222002C003A5B00AE
:102252003D3D003A3A002D2D00544F47474C455022
:102262004F5745520074656D706572617475726581
:1022720000706F776572537461747573004F6E00EE
:102282004F666600737461747573006275726E7462
:04229200000D0A0031
:00000001FF
