:100000000C9463000C948B000C948B000C948B006C
:100010000C948B000C948B000C948B000C948B0034
:100020000C948B000C948B000C948B000C94E903C3
:100030000C948B000C948B000C948B000C948B0014
:100040000C949F030C948B000C946D030C94470349
:100050000C948B000C948B000C948B000C948B00F4
:100060000C948B000C948B000000000023002600F1
:10007000290000000008000201000003040700003E
:1000800000000000000000000000250028002B00F8
:1000900000000000240027002A00040404040404D3
:1000A0000404020202020202030303030303010227
:1000B00004081020408001020408102001020408F6
:1000C0001020A504760811241FBECFEFD8E0DEBFB4
:1000D000CDBF11E0A0E0B1E0E6EFFAE102C005908B
:1000E0000D92A438B107D9F722E0A4E8B1E001C02D
:1000F0001D92A636B207E1F710E0C2E6D0E004C0D8
:100100002197FE010E946D0BC136D107C9F70E94ED
:1001100015050C946E0D0C9400008F929F92AF9277
:10012000BF92FF920F931F93CF93DF93F0905F02E4
:100130002BE02F1508F451C02091610208E512E070
:10014000021B110927FD1395000F111F000F111F2E
:1001500020916002C8E8D0E0C21BD10927FDD395E9
:10016000CC0FDD1FCC0FDD1F4E010D2E000CAA0899
:10017000BB08DC01853B910514F0A4EBB0E09801CD
:10018000012E000C440B550B281939094A095B094B
:100190000E94D90924EB30E040E050E00E94AF0912
:1001A000820E931EA41EB51E8C169D062CF0E8012F
:1001B000801691060CF4E4012297CC0FDD1F2FB7B7
:1001C000F8948F2D90E0FC01EE0FFF1FE80FF91F50
:1001D000EC5CFD4FD283C1832FBFDF91CF911F9184
:1001E0000F91FF90BF90AF909F908F90089590E0F7
:1001F000FC01E255FF4F249186569F4FFC018491EC
:10020000882399F090E0880F991FFC01E057FF4F79
:10021000A591B491FC01EA57FF4F859194918FB756
:10022000F894EC91E22BEC938FBF0895AF92BF92BC
:10023000CF92DF92EF92FF920F931F93CF93DF93B2
:100240006C017B018B01040F151FEB015E01AE18E1
:10025000BF08C017D10759F06991D601ED91FC9103
:100260000190F081E02DC6010995892B79F7C50130
:10027000DF91CF911F910F91FF90EF90DF90CF9082
:10028000BF90AF900895FC01538D448D252F30E031
:10029000842F90E0821B930B541710F0CF96089593
:1002A00001970895FC01918D828D981761F0A28DC0
:1002B000AE0FBF2FB11D5D968C91928D9F5F9F7386
:1002C000928F90E008958FEF9FEF0895FC01918D3C
:1002D000828D981731F0828DE80FF11D858D90E0A9
:1002E00008958FEF9FEF0895FC01918D228D892F46
:1002F00090E0805C9F4F821B91098F73992708952E
:1003000087E991E00E94740121E0892B09F420E043
:10031000822F089580E090E0892B29F00E948001CF
:1003200081110C9400000895FC01A48DA80FB92F31
:10033000B11DA35ABF4F2C91848D90E001968F730D
:100340009927848FA689B7892C93A089B1898C912C
:10035000837080648C93938D848D981306C002887B
:10036000F389E02D80818F7D80830895EF92FF9245
:100370000F931F93CF93DF93EC0181E0888F9B8DC8
:100380008C8D98131AC0E889F989808185FF15C082
:100390009FB7F894EE89FF896083E889F9898081A5
:1003A0008370806480839FBF81E090E0DF91CF9174
:1003B0001F910F91FF90EF900895F62E0B8D10E096
:1003C0000F5F1F4F0F731127E02E8C8D8E110CC005
:1003D0000FB607FCFACFE889F989808185FFF5CF50
:1003E000CE010E949401F1CFEB8DEC0FFD2FF11D9A
:1003F000E35AFF4FF0829FB7F8940B8FEA89FB898D
:1004000080818062CFCFCF93DF93EC01888D8823EA
:10041000B9F0AA89BB89E889F9898C9185FD03C067
:10042000808186FD0DC00FB607FCF7CF8C9185FF4C
:10043000F2CF808185FFEDCFCE010E949401E9CFFC
:10044000DF91CF910895833081F028F4813099F0C5
:100450008230A9F008958730A9F08830C9F084303F
:10046000B1F4809180008F7D03C0809180008F77F0
:1004700080938000089584B58F7784BD089584B5F6
:100480008F7DFBCF8091B0008F778093B00008956F
:100490008091B0008F7DF9CFCF93DF93282F30E08C
:1004A000F901EE58FF4F8491F901E255FF4FD491C5
:1004B000F901E656FF4FC491CC23A1F081110E94AF
:1004C0002302EC2FF0E0EE0FFF1FE859FF4FA5913C
:1004D000B491EC91ED2381E090E009F480E0DF91AC
:1004E000CF91089580E090E0FACF1F93CF93DF93F0
:1004F000282F30E0F901EE58FF4F8491F901E255C1
:10050000FF4FD491F901E656FF4FC491CC23A9F0D7
:10051000162F81110E942302EC2FF0E0EE0FFF1F37
:10052000EA57FF4FA591B4918FB7F894EC91111150
:1005300008C0D095DE23DC938FBFDF91CF911F9150
:100540000895DE2BF8CFFC0101900020E9F73197E8
:10055000AF01481B590BBC0187E991E00C941601CF
:100560008F929F92AF92BF920F931F93CF93DF937F
:10057000CDB7DEB7A1970FB6F894DEBF0FBECDBFE3
:1005800019A2423008F44AE08E010F5D1F4F842EFD
:10059000912CB12CA12CA50194010E94180AE62FE0
:1005A000B901CA01EA30F4F4E05DD801EE938D019F
:1005B000232B242B252B79F790E080E0109719F05E
:1005C000CD010E94A302A1960FB6F894DEBF0FBE24
:1005D000CDBFDF91CF911F910F91BF90AF909F90B2
:1005E0008F900895E95CE1CF0F931F93CF93DF9332
:1005F000EC0188819981009759F02A813B81261767
:10060000370730F081E0DF91CF911F910F9108956E
:100610008B016F5F7F4F0E94980C009759F0998370
:1006200088831B830A832C813D81232B59F7FC018E
:100630001082E8CF80E0E7CFEF92FF920F931F93F5
:10064000CF93DF93EC017B018A01BA010E94F4028F
:1006500028813981811114C02115310519F0C90192
:100660000E940F0C198218821D821C821B821A8222
:10067000CE01DF91CF911F910F91FF90EF900895E0
:100680001D830C83B701C9010E94670DF1CF1F9232
:100690000F920FB60F9211242F933F934F935F93B6
:1006A0006F937F938F939F93AF93BF93EF93FF933A
:1006B00087E991E00E949401FF91EF91BF91AF9182
:1006C0009F918F917F916F915F914F913F912F916A
:1006D0000F900FBE0F901F9018951F920F920FB69C
:1006E0000F9211242F938F939F93EF93FF93E09199
:1006F000A701F091A8018081E091AD01F091AE01D8
:1007000082FD1BC090818091B0018F5F8F7320911B
:10071000B101821741F0E091B001F0E0E956FE4FDF
:10072000958F8093B001FF91EF919F918F912F91C1
:100730000F900FBE0F901F9018958081F4CF1F92DD
:100740000F920FB60F9211242F933F938F939F9385
:10075000AF93BF9380918A0190918B01A0918C01FE
:10076000B0918D013091890123E0230F2D3758F589
:100770000196A11DB11D2093890180938A01909358
:100780008B01A0938C01B0938D0180918501909194
:100790008601A0918701B09188010196A11DB11D2C
:1007A0008093850190938601A0938701B09388017F
:1007B000BF91AF919F918F913F912F910F900FBE5D
:1007C0000F901F90189526E8230F0296A11DB11DCA
:1007D000D2CF1F920F920FB60F9211242F933F93F7
:1007E0004F935F936F937F938F939F93AF93BF9339
:1007F000CF93DF93EF93FF9380918401C0915802D0
:10080000D0E087FF24C01092850010928400809170
:1008100084018F5F8093840180918401082E000CF5
:10082000990B8C179D0724F4809184018C30C4F1BE
:100830008091840090918500049680349C4908F44E
:100840007AC08091840090918500049676C0809152
:100850008401082E000C990B8C179D07C4F6E091BB
:1008600084018E2FEE0F990BFC01EE0FFF1FE80F96
:10087000F91FEC5CFD4F808186FFC9CFE0918401B8
:100880008E2FEE0F990BFC01EE0FFF1FE80FF91FE3
:10089000EC5CFD4F808160E08F730E947502B7CFE2
:1008A0002091840030918500E09184018E2FEE0F1D
:1008B000990BFC01EE0FFF1FE80FF91FEC5CFD4FD9
:1008C00081819281820F931F909389008093880089
:1008D000E09184018E2FEE0F990BFC01EE0FFF1FAC
:1008E000E80FF91FEC5CFD4F808186FF11C0E0919D
:1008F00084018E2FEE0F990BFC01EE0FFF1FE80F06
:10090000F91FEC5CFD4F808161E08F730E947502DE
:10091000FF91EF91DF91CF91BF91AF919F918F9117
:100920007F916F915F914F913F912F910F900FBEEB
:100930000F901F90189580E49CE990938900809314
:1009400088008FEF80938401E3CF10929A01109278
:10095000990188EE93E0A0E0B0E080939B01909332
:100960009C01A0939D01B0939E018BE091E0909338
:1009700098018093970185EC90E09093A401809377
:10098000A30184EC90E09093A6018093A50180ECF4
:1009900090E09093A8018093A70181EC90E0909360
:1009A000AA018093A90182EC90E09093AC0180931E
:1009B000AB0186EC90E09093AE018093AD01109274
:1009C000B0011092B1011092B2011092B301809166
:1009D00058028C3030F591E0980F90935802809334
:1009E0005F0290E0FC01EE0FFF1FE80FF91FEC5CC7
:1009F000FD4F88EB9BE09283818310925A02109204
:100A0000590210925C0210925B0210925E021092E8
:100A10005D0250E040E063E671E089E592E00C940D
:100A20001C038FEF80935F02E8CFCF93DF9300D05A
:100A300000D000D0CDB7DEB7789484B5826084BD95
:100A400084B5816084BD85B5826085BD85B58160D2
:100A500085BD80916E00816080936E001092810050
:100A6000809181008260809381008091810081600B
:100A700080938100809180008160809380008091CC
:100A8000B10084608093B1008091B0008160809358
:100A9000B00080917A00846080937A0080917A001F
:100AA000826080937A0080917A00816080937A00DE
:100AB00080917A00806880937A001092C1008DE066
:100AC0000E94F7008AE00E94F7008BE00E94F70086
:100AD0008CE00E94F70083E00E94F70080915F02A3
:100AE0008C3008F050C083E00E94F70080915F02D4
:100AF000282F30E0F901EE0FFF1FE20FF31FEC5C2F
:100B0000FD4F9081907C93609083109260021092D0
:100B100061022CE0622F0E94610B829FB0011124C0
:100B200030E020E0AB01420F531FFA01EE0FFF1F30
:100B3000E40FF51FEC5CFD4F908196FD16C02F5F12
:100B40003F4F2C30310571F781110FC0109280009A
:100B500082E0809381001092850010928400B19A07
:100B600080916F00826080936F00E0915F028E2F12
:100B700090E0FC01EE0FFF1FE80FF91FEC5CFD4F4A
:100B80008081806480838AE590E00E948D00E091FE
:100B9000A701F091A80182E08083E091A301F09188
:100BA000A4011082E091A501F091A6018FEC808351
:100BB0001092AF01E091AB01F091AC0186E080832F
:100BC000E091A901F091AA01808180618083E09188
:100BD000A901F091AA01808188608083E091A90138
:100BE000F091AA01808180688083E091A901F09151
:100BF000AA0180818F7D808380E4382E90E0A92E29
:100C000090E0B92E87E991E00E947401892B09F4E4
:100C100098C187E991E00E9452018A3009F06AC1C7
:100C20001A8219821C821B821E821D8260915902C7
:100C300070915A026115710541F040915D02509129
:100C40005E02CE0101960E941C03C980DA80C114A5
:100C5000D10439F00D811E8176010115110509F0CD
:100C600041C08D819E81892B69F109811A8169E1D9
:100C700071E0C8010E945E0D892B09F019C120E0C6
:100C800030E048EC52E460919301709194018091BE
:100C90009501909196010E94570B18160CF058C0C0
:100CA00085E291E00E94A3028DE00E944C02892B14
:100CB00009F4FBC08FE491E00E94A30281E691E079
:100CC0000E94A30289819A81009711F00E940F0C63
:100CD00050E040E063E671E089E592E00E941C0389
:100CE00091CF740147012FEF821A920AF701808198
:100CF000082E000C990B0E947F08892B91F7015058
:100D000011090C0D1D1DF8018081082E000C990B96
:100D10000E947F08892B31F00E151F0518F0015035
:100D20001109F1CFA8014F5F5F4F4E195F095E8334
:100D30004D83CE14DF0420F4B701C6010E94550D87
:100D4000E981FA818D819E81E80FF91F108289CF98
:100D500086E391E00E94A302C0909301D090940199
:100D6000E0909501F0909601A7019601C701B601A8
:100D70000E945C0B882339F083E491E00E94A30277
:100D800083E391E08FCF26013701E89477F82FEFC6
:100D90003FEF4FE75FE7C301B2010E945C0B811197
:100DA0000DC02FEF3FEF4FE75FE7C301B2010E9495
:100DB000880818161CF487E491E0E0CF2FEF3FEF8E
:100DC0004FE75FE4C701B6010E94570B18161CF4E9
:100DD0008BE491E0D3CF2FEF3FEF4FE75FECC701FC
:100DE000B6010E94880887FDF3CF20E030E0A9011A
:100DF000C701B6010E94880887FF09C06DE287E934
:100E000091E00E94B601F7FAF094F7F8F0942AE026
:100E100037ED43EA5BE3C701B6010E944A0A2B01A2
:100E20003C010E94280B6B017C010E948D089B01F4
:100E3000AC01C301B2010E94490A2B013C014AE006
:100E4000C701B6010E94B0026EE287E991E00E94FC
:100E5000B60120E030E040E251E4C301B2010E945B
:100E6000EE082B013C010E94280B6B01F12CE12CB8
:100E70004AE0C701B6010E94B002C701B6010E9454
:100E80008D089B01AC01C301B2010E94490A20E018
:100E900030E040E251E40E94EE080E94280B90E00E
:100EA00080E04AE00E94B0026BCF84E691E004CF7C
:100EB00067E771E0C8010E945E0D892B09F002CF3F
:100EC0008DE00E944C02892B59F060E08DE00E9479
:100ED0007502109292018AE590E00E948D00F2CE98
:100EE00061E08DE00E94750281E08093920184E1CF
:100EF00090E0F3CF8D3009F485CE89831A8200917A
:100F00005D0210915E020F5F1F4FB80189E592E00C
:100F10000E94F402882309F475CE20915902309181
:100F20005A0280915D0290915E02BE016F5F7F4F19
:100F3000820F931F0E94670D10935E0200935D0263
:100F400061CE30927C0080917A00806480937A0038
:100F500080917A0086FDFCCF8091780060917900C5
:100F6000762F682F072E000C880B990B0E948F0894
:100F700020E030EC4FE754E40E94B60A20E030E075
:100F800048EC52E40E94EE0820E030E040EA51E4F0
:100F90000E944A0A6B017C01C0929301D092940195
:100FA000E0929501F092960120E030E048EC52E4A6
:100FB0000E94570B18160CF069C08CE00E944C027E
:100FC000892B09F063C060E08AE00E94750260E04E
:100FD0008BE00E94750261E08CE00E9475028091B6
:100FE0009201882309F446C020E030E04CED52E441
:100FF0006091930170919401809195019091960177
:101000000E94880887FF36C02FB7F89480918A0124
:1010100090918B01A0918C01B0918D012FBF4091D7
:101020008E0150918F0160919001709191018C011E
:101030009D01041B150B260B370BB901A801483C79
:10104000510561057105B0F080938E0190938F0179
:10105000A0939001B09391011091000184E190E080
:10106000111102C08CED90E00E948D0081E01827E4
:1010700010930001A114B10409F4C4CD0E948001B1
:10108000882309F4BFCD0E940000BCCD20E030E0F1
:101090004CE852E4C701B6010E94570B1816BCF089
:1010A00020E030E04CE852E4C701B6010E94880815
:1010B00018160CF494CF8AE00E944C02892B09F098
:1010C0008ECF61E08AE00E94750260E00AC08BE08A
:1010D0000E944C02892B21F760E08AE00E94750291
:1010E00061E08BE00E94750260E076CF809159024A
:1010F00090915A02009711F00C940F0C08959111E1
:101100000C945B09803219F089508550C8F7089516
:101110000E94CA0808F481E00895E89409C097FB8A
:101120003EF490958095709561957F4F8F4F9F4FBE
:101130009923A9F0F92F96E9BB279395F695879502
:1011400077956795B795F111F8CFFAF4BB0F11F4C5
:1011500060FF1BC06F5F7F4F8F4F9F4F16C088236C
:1011600011F096E911C0772321F09EE8872F762FA2
:1011700005C0662371F096E8862F70E060E02AF0E3
:101180009A95660F771F881FDAF7880F96958795CF
:1011900097F90895990F0008550FAA0BE0E8FEEFA4
:1011A00016161706E807F907C0F012161306E4072B
:1011B000F50798F0621B730B840B950B39F40A2624
:1011C00061F0232B242B252B21F408950A2609F402
:1011D000A140A6958FEF811D811D08950E940109F0
:1011E0000C9475090E94670938F00E946E0920F07E
:1011F000952311F00C945E090C94640911240C944D
:10120000A9090E94860970F3959FC1F3950F50E0DC
:10121000551F629FF001729FBB27F00DB11D639FA8
:10122000AA27F00DB11DAA1F649F6627B00DA11D4E
:10123000661F829F2227B00DA11D621F739FB00DF4
:10124000A11D621F839FA00D611D221F749F332764
:10125000A00D611D231F849F600D211D822F762FFD
:101260006A2F11249F5750409AF0F1F088234AF0DA
:10127000EE0FFF1FBB1F661F771F881F9150504046
:10128000A9F79E3F510580F00C945E090C94A909C2
:101290005F3FE4F3983ED4F3869577956795B795CD
:1012A000F795E7959F5FC1F7FE2B880F911D9695E7
:1012B000879597F9089599278827089597F99F6743
:1012C00080E870E060E008959FEF80EC08950024CE
:1012D0000A941616170618060906089500240A949B
:1012E00012161306140605060895092E0394000C21
:1012F00011F4882352F0BB0F40F4BF2B11F460FFB0
:1013000004C06F5F7F4F8F4F9F4F089557FD9058D8
:10131000440F551F59F05F3F71F04795880F97FBB9
:10132000991F61F09F3F79F0879508951216130673
:101330001406551FF2CF4695F1DF08C016161706A2
:101340001806991FF1CF86957105610508940895D7
:10135000E894BB2766277727CB0197F90895052ED8
:1013600097FB1EF400940E94C60957FD07D00E9407
:10137000180A07FC03D04EF40C94C609509540950A
:10138000309521953F4F4F4F5F4F08959095809531
:10139000709561957F4F8F4F9F4F08950E943A0A35
:1013A000A59F900DB49F900DA49F800D911D1124B9
:1013B0000895B7FF0C94CE090E94CE09821B930BAF
:1013C00008952F923F924F925F926F927F928F92E9
:1013D0009F92AF92BF92CF92DF92EF92FF920F93C4
:1013E0001F93CF93DF93CDB7DEB7CA1BDB0B0FB6CE
:1013F000F894DEBF0FBECDBF09942A88398848888B
:101400005F846E847D848C849B84AA84B984C88420
:10141000DF80EE80FD800C811B81AA81B981CE0F17
:10142000D11D0FB6F894DEBF0FBECDBFED010895FC
:10143000A1E21A2EAA1BBB1BFD010DC0AA1FBB1FD8
:10144000EE1FFF1FA217B307E407F50720F0A21B4A
:10145000B30BE40BF50B661F771F881F991F1A94B7
:1014600069F760957095809590959B01AC01BD01E1
:10147000CF010895A29FB001B39FC001A39F700D3B
:10148000811D1124911DB29F700D811D1124911D8C
:1014900008955058BB27AA270E94610A0C94750929
:1014A0000E94670938F00E946E0920F039F49F3FCE
:1014B00019F426F40C9464090EF4E095E7FB0C94FF
:1014C0005E09E92F0E94860958F3BA17620773076D
:1014D0008407950720F079F4A6F50C94A8090EF47A
:1014E000E0950B2EBA2FA02D0B01B90190010C0134
:1014F000CA01A0011124FF27591B99F0593F50F44C
:10150000503E68F11A16F040A22F232F342F4427A3
:10151000585FF3CF469537952795A795F04053959B
:10152000C9F77EF41F16BA0B620B730B840BBAF06B
:101530009150A1F0FF0FBB1F661F771F881FC2F7D6
:101540000EC0BA0F621F731F841F48F487957795EA
:101550006795B795F7959E3F08F0B0CF9395880FA4
:1015600008F09927EE0F9795879508950E94CA0A6B
:101570000C9475090E946E0958F00E94670940F0AA
:1015800029F45F3F29F00C945E0951110C94A909CC
:101590000C9464090E94860968F39923B1F35523DA
:1015A00091F3951B550BBB27AA2762177307840776
:1015B00038F09F5F5F4F220F331F441FAA1FA9F30C
:1015C00035D00E2E3AF0E0E832D091505040E695FA
:1015D000001CCAF72BD0FE2F29D0660F771F881F5B
:1015E000BB1F261737074807AB07B0E809F0BB0B4E
:1015F000802DBF01FF2793585F4F3AF09E3F510562
:1016000078F00C945E090C94A9095F3FE4F3983ECE
:10161000D4F3869577956795B795F7959F5FC9F74A
:10162000880F911D9695879597F90895E1E0660FCB
:10163000771F881FBB1F621773078407BA0720F044
:10164000621B730B840BBA0BEE1F88F7E0950895AD
:101650000E948E0988F09F5798F0B92F9927B751AB
:10166000B0F0E1F0660F771F881F991F1AF0BA9546
:10167000C9F714C0B13091F00E94A809B1E00895F3
:101680000C94A809672F782F8827B85F39F0B93FE5
:10169000CCF3869577956795B395D9F73EF49095F9
:1016A0008095709561957F4F8F4F9F4F08950E9451
:1016B000CA0808F48FEF08950E94CA08880B990B96
:1016C0000895991B79E004C0991F961708F0961B9E
:1016D000881F7A95C9F780950895EE0FFF1F059032
:1016E000F491E02D09940F931F93CF93DF938230F1
:1016F000910510F482E090E0E0916402F0916502BF
:1017000030E020E0B0E0A0E0309799F421153105F9
:1017100009F44AC0281B390B24303105D8F58A81D9
:101720009B816115710589F1FB0193838283FE0121
:1017300011C0408151810281138148175907E0F09F
:101740004817590799F4109761F012960C93129765
:1017500013961C933296CF01DF91CF911F910F9179
:1017600008950093640210936502F4CF21153105AA
:1017700051F04217530738F0A901DB019A01BD016E
:10178000DF01F801C1CFEF01F9CF9093650280939B
:101790006402CDCFFE01E20FF31F8193919322509B
:1017A000310939832883D7CF2091620230916302B7
:1017B000232B41F420910301309104013093630203
:1017C000209362022091010130910201211531051F
:1017D00041F42DB73EB74091050150910601241BFD
:1017E000350BE0916202F0916302E217F307A0F477
:1017F0002E1B3F0B2817390778F0AC014E5F5F4F67
:101800002417350748F04E0F5F1F50936302409333
:101810006202819391939FCFF0E0E0E09CCFCF9361
:10182000DF930097E9F0FC01329713821282A091B6
:101830006402B0916502ED0130E020E01097A1F460
:1018400020813181820F931F2091620230916302C7
:101850002817390709F061C0F0936302E093620230
:10186000DF91CF910895EA01CE17DF07E8F54A81AD
:101870005B819E0141155105B1F7E901FB83EA83C4
:1018800049915991C40FD51FEC17FD0761F4808170
:1018900091810296840F951FE90199838883828143
:1018A00093819B838A83F0E0E0E012968D919C9176
:1018B00013970097B9F52D913C911197CD010296A0
:1018C000820F931F2091620230916302281739071B
:1018D00039F6309751F51092650210926402B09378
:1018E0006302A0936202BCCFD383C2834081518143
:1018F000840F951FC817D90761F44E5F5F4F888129
:101900009981480F591F518340838A819B8193831A
:1019100082832115310509F0B0CFF0936502E09381
:1019200064029ECFFD01DC01C0CF13821282D7CFAB
:10193000B0E0A0E0EEE9FCE00C94E3098C01009734
:1019400051F4CB010E94730B8C01C801CDB7DEB7F7
:10195000E0E10C94FF09FC01E60FF71F9C01225007
:101960003109E217F30708F49DC0D901CD91DC914C
:101970001197C617D70798F0C530D10530F3CE01BF
:1019800004978617970708F3C61BD70B2297C193B6
:10199000D1936D937C93CF010E940F0CD6CF5B0146
:1019A000AC1ABD0A4C018C0E9D1EA0916402B09130
:1019B0006502512C412CF12CE12C109731F58091CE
:1019C0006202909163028815990509F05CC0461681
:1019D000570608F058C080910101909102010097CC
:1019E00041F48DB79EB74091050150910601841BCB
:1019F000950BE817F90708F055C0F0936302E093E0
:101A00006202F90171836083A0CF8D919C9111973F
:101A100012966C90129713967C901397A815B9059F
:101A200059F56C0142E0C40ED11CCA14DB0420F14C
:101A3000AC014A195B09DA011296159780F06282AF
:101A4000738251834083D9016D937C93E114F10437
:101A500071F0D7011396FC93EE93129776CF2296EE
:101A60008C0F9D1FF90191838083F301EFCFF093D9
:101A70006502E093640269CF4816590608F42C0108
:101A80007D01D3019ACFCB010E94730B7C0100979B
:101A900049F0AE01B8010E94550DC8010E940F0C1B
:101AA000870153CF10E000E050CFFB01DC0102C002
:101AB00001900D9241505040D8F70895FB01DC0190
:101AC0008D91019080190110D9F3990B0895FB01B4
:101AD000DC0101900D920020E1F7089510E0C2E6CC
:101AE000D0E004C0FE010E946D0B2196C336D107E1
:061AF000C9F7F894FFCFD6
:101AF6000100006602800000000000B601160143E6
:101B060001030274015201660167657450657263D0
:101B160065707473007374617475732822627572CC
:101B26006E7422293B0074656D70657261747572FE
:101B36006528006E616E00696E66006F76660070DD
:101B46006F77657253746174757328224F6E2229FC
:101B5600000D0A00706F776572537461747573288F
:101B6600224F6666222900746F67676C65506F772F
:041B76006572000094
:00000001FF
