:100000000C9463000C948B000C948B000C948B006C
:100010000C948B000C948B000C948B000C948B0034
:100020000C948B000C948B000C948B000C948B0024
:100030000C948B000C948B000C948B000C948B0014
:100040000C948E040C948B000C945C040C94360479
:100050000C948B000C948B000C948B000C948B00F4
:100060000C948B000C948B000000000024002700EF
:100070002A0000000000250028002B0000000000DE
:1000800023002600290004040404040404040202DA
:100090000202020203030303030301020408102007
:1000A0004080010204081020010204081020000012
:1000B0000008000201000003040700000000000027
:1000C0000000D804A50611241FBECFEFD8E0DEBF84
:1000D000CDBF22E0AEE3B1E001C01D92A131B20775
:1000E000E1F711E0A0E0B1E0E2E3FBE102C005903E
:1000F0000D92AE33B107D9F710E0C2E6D0E004C0EC
:100100002197FE010E94DD08C136D107C9F70E9480
:1001100031050C948C0D0C940000AF92BF92CF92DD
:10012000DF92EF92FF920F931F93CF93DF936C01B7
:100130007B018B01040F151FEB015E01AE18BF0898
:10014000C017D10759F06991D601ED91FC9101904A
:10015000F081E02DC6010995892B79F7C501DF9162
:10016000CF911F910F91FF90EF90DF90CF90BF90B4
:10017000AF900895FC01538D448D252F30E0842FDE
:1001800090E0821B930B541710F0CF9608950197BF
:100190000895FC01918D828D981761F0A28DAE0FAC
:1001A000BF2FB11D5D968C91928D9F5F9F73928F33
:1001B00090E008958FEF9FEF0895FC01918D828D5F
:1001C000981731F0828DE80FF11D858D90E008952C
:1001D0008FEF9FEF0895FC01918D228D892F90E084
:1001E000805C9F4F821B91098F739927089587E444
:1001F00091E00E94EB0021E0892B09F420E0822F9E
:100200000895FC01A48DA80FB92FB11DA35ABF4FAB
:100210002C91848D90E001968F739927848FA68905
:10022000B7892C93A089B1898C91837080648C9359
:10023000938D848D981306C00288F389E02D808108
:100240008F7D80830895EF92FF920F931F93CF933A
:10025000DF93EC0181E0888F9B8D8C8D98131AC001
:10026000E889F989808185FF15C09FB7F894EE89E8
:10027000FF896083E889F989808183708064808345
:100280009FBF81E090E0DF91CF911F910F91FF9090
:10029000EF900895F62E0B8D10E00F5F1F4F0F7338
:1002A0001127E02E8C8D8E110CC00FB607FCFACFF3
:1002B000E889F989808185FFF5CFCE010E9401018F
:1002C000F1CFEB8DEC0FFD2FF11DE35AFF4FF082C4
:1002D0009FB7F8940B8FEA89FB8980818062CFCF2A
:1002E000CF93DF93EC01888D8823B9F0AA89BB896D
:1002F000E889F9898C9185FD03C0808186FD0DC058
:100300000FB607FCF7CF8C9185FFF2CF808185FF78
:10031000EDCFCE010E940101E9CFDF91CF91089589
:10032000833081F028F4813099F08230A9F008956B
:100330008730A9F08830C9F08430B1F48091800012
:100340008F7D03C0809180008F7780938000089517
:1003500084B58F7784BD089584B58F7DFBCF809160
:10036000B0008F778093B00008958091B0008F7DAA
:10037000F9CFCF93DF93EBEBF0E08491E7EAF0E085
:10038000D491E3E9F0E0C491CC23A1F081110E9463
:100390009001EC2FF0E0EE0FFF1FE458FF4FA59106
:1003A000B491EC91ED2381E090E009F480E0DF91DD
:1003B000CF91089580E090E0FACFCF93DF93EC01E6
:1003C00088819981009711F00E947F091982188213
:1003D0001D821C821B821A82DF91CF910895FC013D
:1003E00080819181009711F00C947F0908950F93FB
:1003F0001F93CF93DF93EC0188819981009759F087
:100400002A813B812617370730F081E0DF91CF91B9
:100410001F910F9108958B016F5F7F4F0E94080A13
:10042000009759F0998388831B830A832C813D812F
:10043000232B59F7FC011082E8CF80E0E7CFEF9241
:10044000FF920F931F93CF93DF936115710541F4D2
:1004500080E0DF91CF911F910F91FF90EF90089571
:1004600041155105B1F07B01EC010C811D81040F98
:10047000151FB8010E94F701882351F328813981A3
:100480008C819D81B701820F931F0E94D70A1D8323
:100490000C8381E0DECFCF93DF93EC01FB0144813D
:1004A0005581608171810E941F02811103C0CE01BC
:1004B0000E94DD01CE01DF91CF910895CF93DF93AC
:1004C00000D0CDB7DEB769831A8241E050E0BE01AB
:1004D0006F5F7F4F0E941F020F900F90DF91CF91AF
:1004E0000895EF92FF920F931F93CF93DF93EC0148
:1004F0007B018A01BA010E94F70181110BC0CE0174
:100500000E94DD01CE01DF91CF911F910F91FF90ED
:10051000EF9008951D830C83B701888199810E9413
:10052000D70AF0CFCF93DF93EC01FB018617970733
:1005300049F0608171816115710541F044815581F7
:100540000E947102CE01DF91CF9108950E94DD01DA
:10055000F9CFCF93DF93EC01198218821B821A82A4
:100560001D821C820E949202CE01DF91CF910895DC
:10057000FB0101900020E9F73197AF01461B570BB3
:100580000C947102FC011182108213821282158276
:100590001482FB0101900020E9F73197AF01461B5F
:1005A000570B0C947102EF92FF920F931F93CF930E
:1005B000DF93CDB7DEB72F970FB6F894DEBF0FBE2F
:1005C000CDBF8C01FC0185818F9384818F9388E15D
:1005D00091E09F938F931F9283E08F937E01FDE0C4
:1005E000EF0EF11CFF92EF920E94DE0AB701CE01DE
:1005F00007960E94C2026DE171E0CE0101960E9451
:10060000C202BE01695F7F4FCE0101960E944B027C
:10061000B8010E944B02FC014481558160817181C7
:1006200087E491E00E948D00CE0101960E94EF01C7
:10063000CE0107960E94EF010FB6F894DEBF0FBE01
:10064000CDBF2F960FB6F894DEBF0FBECDBFDF91A2
:10065000CF911F910F91FF90EF900895CF93C1E03C
:1006600087E491E00E94EB00892B09F4F7C08091A8
:10067000EE019091EF01892B09F054C02FB7F89447
:100680008091430190914401A0914501B0914601B0
:100690002FBF8093050290930602A0930702B093A8
:1006A000080269E371E083EF91E00E94B80287E4F9
:1006B00091E00E94C900682F8091EE019091EF01B6
:1006C0009C012F5F3F4F3093EF012093EE01833069
:1006D000910508F0BDC051E0663609F450E02430C1
:1006E000310519F441E0653609F440E0511103C0C9
:1006F000442309F45EC01092EF011092EE011092B3
:10070000F1011092F00169E371E083EF91E00E9442
:10071000B80269E371E089EF91E00E94B80210929B
:10072000F2019ECF8091050290910602A0910702EE
:10073000B0910802845D9E4FAF4FBF4F2FB7F89422
:1007400040914301509144016091450170914601EF
:100750002FBF84179507A607B70708F0A8CF69E34E
:1007600071E089EF91E00E94B8021092EF011092BF
:10077000EE011092F1011092F00169E371E083EF54
:1007800091E00E94B8021092F2012FB7F894809184
:10079000430190914401A0914501B09146012FBFC2
:1007A0008093050290930602A0930702B09308027B
:1007B0007ECF0497029720F51092F20189EF91E025
:1007C0000E945E028091EE019091EF01069709F080
:1007D00047CF40E150E070E060E08091F9019091F6
:1007E000FA010E9402076A5F7F4F7093F1016093E4
:1007F000F00169E371E089EF91E00E94B80230CF27
:100800002730310508F42CCF8091F0019091F1014F
:100810002817390738F41092F20183EF91E00E9413
:100820005E021ECF9093EF018093EE01892B09F4B5
:1008300017CF83EF91E00E945E021092EF011092B9
:10084000EE011092F1011092F001C093F20108CF75
:100850002430310509F0ADCF50E044CFCF91089559
:100860000E94F70081110C942E0308951F920F929D
:100870000FB60F9211242F933F934F935F936F9373
:100880007F938F939F93AF93BF93EF93FF9387E4EF
:1008900091E00E940101FF91EF91BF91AF919F9173
:1008A0008F917F916F915F914F913F912F910F9019
:1008B0000FBE0F901F9018951F920F920FB60F92B8
:1008C00011242F938F939F93EF93FF93E091570100
:1008D000F09158018081E0915D01F0915E0182FD0F
:1008E0001BC09081809160018F5F8F7320916101A7
:1008F000821741F0E0916001F0E0E95BFE4F958FD7
:1009000080936001FF91EF919F918F912F910F90B4
:100910000FBE0F901F9018958081F4CF1F920F92F9
:100920000FB60F9211242F933F938F939F93AF9302
:10093000BF938091430190914401A0914501B091F2
:1009400046013091420123E0230F2D3758F50196DF
:10095000A11DB11D20934201809343019093440156
:10096000A0934501B093460180913E0190913F01D3
:10097000A0914001B09141010196A11DB11D80934C
:100980003E0190933F01A0934001B0934101BF917C
:10099000AF919F918F913F912F910F900FBE0F902C
:1009A0001F90189526E8230F0296A11DB11DD2CFE6
:1009B000CF93DF93E7E4F1E01382128288EE93E0B5
:1009C000A0E0B0E084839583A683B7838AE091E0BA
:1009D0009183808385EC90E09587848784EC90E018
:1009E0009787868780EC90E0918B808B81EC90E0FC
:1009F000938B828B82EC90E0958B848B86EC90E0DD
:100A0000978B868B118E128E138E148EC4EED1E0CE
:100A10001E821D8286E090E00E94E308FC011182A4
:100A2000108213821282158214829A8389839C8396
:100A30008B8389EA92E09987888769E371E083EF85
:100A400091E00E94C20269E371E089EF91E00E94A7
:100A5000C20269E371E08FEF91E0DF91CF910C94D6
:100A6000C202CF93DF93CDB7DEB76E970FB6F8947F
:100A7000DEBF0FBECDBF789484B5826084BD84B5DF
:100A8000816084BD85B5826085BD85B5816085BD89
:100A900080916E00816080936E0010928100809141
:100AA00081008260809381008091810081608093C9
:100AB0008100809180008160809380008091B100EE
:100AC00084608093B1008091B00081608093B00019
:100AD00080917A00846080937A0080917A008260AD
:100AE00080937A0080917A00816080937A0080916F
:100AF0007A00806880937A001092C10007EA10E0C3
:100B0000F801249143E9E42E40E0F42EF7018491AA
:100B1000882399F090E0880F991FFC01E859FF4F56
:100B2000A591B491FC01EE58FF4F859194918FB738
:100B3000F8949C91292B2C938FBF6FEF70E083EF7B
:100B400091E00E94F70169E371E089EF91E00E9472
:100B5000B80269E371E083EF91E00E94B80269E3B3
:100B600071E08FEF91E00E94B8021092F2011092B2
:100B7000F1011092F0011092EF011092EE0110922B
:100B80000502109206021092070210920802E091EC
:100B90005701F091580182E08083E0915301F09178
:100BA00054011082E0915501F09156018FEC808341
:100BB00010925F01E0915B01F0915C0186E080831F
:100BC000E0915901F0915A01808180618083E09128
:100BD0005901F0915A01808188608083E091590128
:100BE000F0915A01808180688083E0915901F091F1
:100BF0005A0180818F7D80839BEBC92E90E0D92E96
:100C00008091F2011092F201882309F494C01A82B3
:100C100019821C821B821E821D826091F3017091D9
:100C2000F4016115710541F04091F7015091F8010F
:100C3000CE0101960E9471028D819E81892B51F017
:100C400062E271E089819A810E94CE0ABB24B3944A
:100C5000892B09F0B12CCE0101960E94EF01BB2037
:100C600009F469C00E94B9015C01F6018491F801A0
:100C70009490F70184908820A9F081110E9490013E
:100C8000E82DF0E0EE0FFF1FEE58FF4FA591B49155
:100C90008FB7F8949C91AB2809F455C09094992291
:100CA0009C928FBF0E94B9011C8A1B8A1E8A1D8AD2
:100CB000188E1F8A4AE0BE016F5F7F4F0E94220894
:100CC000BE016F5F7F4FCE0143960E94B8026EE275
:100CD00071E0CE0101960E94C202BE016D5E7F4F9F
:100CE000CE0101960E944B025C0142E050E06AE3B3
:100CF00071E00E941F02811103C0C5010E94DD0145
:100D00001A8E198E1C8E1B8E1E8E1D8EB501CE0165
:100D100049960E949202CE0149960E94D302CE01CA
:100D200049960E94EF01CE0101960E94EF01CE018B
:100D300043960E94EF010E94F700882309F460CFD8
:100D40000E942E035DCF992AABCFCF93DF938FEF15
:100D500091E00E94EF0189EF91E00E94EF0183EFA3
:100D600091E00E94EF01E091E501F091E6018091B0
:100D7000E9019091EA01892B71F10280F381E02D64
:100D8000F093E601E093E5010190F081E02DC4814C
:100D9000D581209731F0CE010E94EF01CE010E9453
:100DA0007F09E091E501F091E60180819181009752
:100DB00011F00E947F09E091E501F091E6011182B6
:100DC00010828091E9019091EA0101979093EA01E4
:100DD0008093E901C8CFC481D581209731F0CE013D
:100DE0000E94EF01CE010E947F098091E501909160
:100DF000E601009721F0DF91CF910C947F09DF91FC
:100E0000CF910895B0E0A0E0E8E0F7E00C949808F6
:100E10005C016B017A016115710519F0FB01918389
:100E20008083E114F10451F0C7010297839730F0F9
:100E300040E030E020E090E072C05E01E5012196E4
:100E4000F5011081812F90E00E941908892BA9F7E4
:100E50001D3201F52196F501118101E0E114F10443
:100E600009F4DAC0F0E1EF16F10409F082C01033A2
:100E700059F488818F7D883509F076C019812296D2
:100E80000260F0E1EF2EF12C812C912CA12C88E056
:100E9000B82E8CC01B3221F4E5012296F501118198
:100EA00000E0DCCFEAE0EE16F10409F4BBC0F0E1AB
:100EB000EF16F10409F06DC0E7CF78E0E72EF12CD2
:100EC000812C912CA12C60E1B62E70C03FE9310F2E
:100ED0003A3128F439EA332E80C021E09AC0302F0D
:100EE0003170C114D10431F0222309F12197F601A8
:100EF000D183C08327FF21C060E070E080E090E8EC
:100F0000311104C06FEF7FEF8FEF9FE722E230E0F7
:100F100030930C0220930B02462F372F282F642F7B
:100F2000732F822FCDB7DEB7E1E10C94B40801FF37
:100F300004C02297F601D183C083332341F09095FA
:100F40008095709561957F4F8F4F9F4FE5CF97FFAD
:100F5000E3CF82E290E090930C0280930B026FEF5C
:100F60007FEF8FEF9FE7D8CF10E3E114F10409F48E
:100F7000A4CF28E0E216F10409F4A2CF0CF092CF3E
:100F8000812C912CA12CE0E4BE2E82E0E816F10425
:100F900069F060E070E080E090E897010F2C000CB1
:100FA000440B550B0E946A0849015A0120E060E099
:100FB00070E0CB0127010F2C000C66087708FE01BA
:100FC00050ED352E310E39E0331540F43FEB310F43
:100FD0003A3108F07BCF49EC342E310E3E141F0419
:100FE0000CF07DCF27FD15C086169706A806B9061A
:100FF00078F0A30192010E945A08630D711D811DB2
:10100000911D61307105810520E8920708F465CFD4
:101010002FEF21961081D3CF103309F42ACF2AE085
:10102000E22EF12C9CEC892E982CA82C9CE0B92E59
:10103000BDCF91110C944708803219F0895085502A
:10104000C8F70895BB274A3031F4992322F4BDE252
:10105000909581959F4F0C942E08BB27FB01552737
:10106000AA27880F991FAA1FA41710F0A41B839505
:101070005051B9F7A05DAA3308F0A95DA19300977C
:1010800079F7B111B1931192CB010C944A089927C9
:1010900088270895DC01FC01672F71917723E1F720
:1010A000329704C07C916D9370836291AE17BF0735
:1010B000C8F30895DB018F939F930E948C08BF9122
:1010C000AF91A29F800D911DA39F900DB29F900D97
:1010D00011240895A1E21A2EAA1BBB1BFD010DC00D
:1010E000AA1FBB1FEE1FFF1FA217B307E407F507D8
:1010F00020F0A21BB30BE40BF50B661F771F881FB4
:10110000991F1A9469F760957095809590959B0149
:10111000AC01BD01CF0108950E94CE08A59F900D9E
:10112000B49F900DA49F800D911D112408952F92BE
:101130003F924F925F926F927F928F929F92AF9267
:10114000BF92CF92DF92EF92FF920F931F93CF93B4
:10115000DF93CDB7DEB7CA1BDB0B0FB6F894DEBF4B
:101160000FBECDBF09942A88398848885F846E8471
:101170007D848C849B84AA84B984C884DF80EE80BB
:10118000FD800C811B81AA81B981CE0FD11D0FB6C4
:10119000F894DEBF0FBECDBFED010895A29FB00150
:1011A000B39FC001A39F700D811D1124911DB29F9B
:1011B000700D811D1124911D0895EE0FFF1F0590E4
:1011C000F491E02D09940F931F93CF93DF93823016
:1011D000910510F482E090E0E0910F02F09110028E
:1011E00030E020E0B0E0A0E0309799F4211531051F
:1011F00009F44AC0281B390B24303105D8F58A81FF
:101200009B816115710589F1FB0193838283FE0146
:1012100011C0408151810281138148175907E0F0C4
:101220004817590799F4109761F012960C9312978A
:1012300013961C933296CF01DF91CF911F910F919E
:10124000089500930F0210931002F4CF2115310579
:1012500051F04217530738F0A901DB019A01BD0193
:10126000DF01F801C1CFEF01F9CF90931002809315
:101270000F02CDCFFE01E20FF31F81939193225015
:10128000310939832883D7CF20910D0230910E0286
:10129000232B41F4209102013091030130930E027F
:1012A00020930D022091000130910101211531059B
:1012B00041F42DB73EB74091040150910501241B24
:1012C000350BE0910D02F0910E02E217F307A0F446
:1012D0002E1B3F0B2817390778F0AC014E5F5F4F8C
:1012E0002417350748F04E0F5F1F50930E024093AE
:1012F0000D02819391939FCFF0E0E0E09CCFCF93DC
:10130000DF930097E9F0FC01329713821282A091DB
:101310000F02B0911002ED0130E020E01097A1F42F
:1013200020813181820F931F20910D0230910E0296
:101330002817390709F061C0F0930E02E0930D02FF
:10134000DF91CF910895EA01CE17DF07E8F54A81D2
:101350005B819E0141155105B1F7E901FB83EA83E9
:1013600049915991C40FD51FEC17FD0761F4808195
:1013700091810296840F951FE90199838883828168
:1013800093819B838A83F0E0E0E012968D919C919B
:1013900013970097B9F52D913C911197CD010296C5
:1013A000820F931F20910D0230910E0228173907EA
:1013B00039F6309751F51092100210920F02B09347
:1013C0000E02A0930D02BCCFD383C2834081518112
:1013D000840F951FC817D90761F44E5F5F4F88814E
:1013E0009981480F591F518340838A819B81938340
:1013F00082832115310509F0B0CFF0931002E093FC
:101400000F029ECFFD01DC01C0CF13821282D7CF25
:10141000B0E0A0E0EEE0FAE00C9499088C010097AF
:1014200051F4CB010E94E3088C01C801CDB7DEB7AF
:10143000E0E10C94B508FC01E60FF71F9C01225077
:101440003109E217F30708F49DC0D901CD91DC9171
:101450001197C617D70798F0C530D10530F3CE01E4
:1014600004978617970708F3C61BD70B2297C193DB
:10147000D1936D937C93CF010E947F09D6CF5B01FE
:10148000AC1ABD0A4C018C0E9D1EA0910F02B091AA
:101490001002512C412CF12CE12C109731F5809148
:1014A0000D0290910E028815990509F05CC0461650
:1014B000570608F058C080910001909101010097F3
:1014C00041F48DB79EB74091040150910501841BF2
:1014D000950BE817F90708F055C0F0930E02E0935A
:1014E0000D02F90171836083A0CF8D919C911197BA
:1014F00012966C90129713967C901397A815B905C5
:1015000059F56C0142E0C40ED11CCA14DB0420F171
:10151000AC014A195B09DA011296159780F06282D4
:10152000738251834083D9016D937C93E114F1045C
:1015300071F0D7011396FC93EE93129776CF229613
:101540008C0F9D1FF90191838083F301EFCFF093FE
:101550001002E0930F0269CF4816590608F42C01D7
:101560007D01D3019ACFCB010E94E3087C01009753
:1015700049F0AE01B8010E94C50AC8010E947F0966
:10158000870153CF10E000E050CFFB01DC0102C027
:1015900001900D9241505040D8F70895FB01DC01B5
:1015A0008D91019080190110D9F3990B0895FB01D9
:1015B000DC0101900D920020E1F70895AEE0B0E06B
:1015C000E4EEFAE00C94A5080D891E898F89988DA8
:1015D00026E02C831A83098397FF02C080E090E8FD
:1015E00001979E838D83AE01455E5F4F698D7A8D35
:1015F000CE0101960E940E0B4D815E8157FD0AC0FF
:101600002F813885421753070CF49A01020F131FDC
:10161000F80110822E96E4E00C94C108ABE0B0E033
:10162000E4E1FBE00C9497087C013B018A01FC019A
:1016300017821682838181FFC8C1CE0101965C01A9
:10164000F7019381F30193FD859193FF81913F0110
:10165000882309F453C1853239F493FD859193FFB2
:1016600081913F01853229F4B70190E00E94FE0C80
:10167000E7CF912C212C312CFFE1F31538F08B3280
:1016800011F190F4803209F1833229F137FC3CC02A
:1016900020ED280F2A3050F536FE20C08AE0989EB3
:1016A000200D1124922E06C08D3291F0803371F7F7
:1016B000689430F8F30193FD859193FF81913F0188
:1016C0008111DACF21C0689431F8689432F8F2CFF2
:1016D000689433F8EFCF689434F8ECCFEAE02E9EAC
:1016E000200D1124222E689435F8E4CF8E3229F48F
:1016F00036FC04C1689436F8DDCF8C3619F4689452
:1017000037F8D8CF8836B1F2982F9F7D9554933013
:10171000E0F08336A1F18337C1F1833509F063C06E
:101720002801F2E04F0E511CF801C080D180692DD4
:1017300070E036FC02C06FEF7FEFC6010E94E80C3C
:101740004C01689437F882010AC00C5F1F4FFFE319
:10175000F98388248394912C6501E89437F833FE4B
:101760002DC0522C8114910471F5552009F468CFD5
:10177000B70180E290E00E94FE0C5A94F6CFF80187
:10178000808189830E5F1F4FE4CF2801F2E04F0E66
:10179000511CF801C080D180692D70E036FC02C078
:1017A0006FEF7FEFC6010E94F30C4C018201D5CF91
:1017B000B70180E290E00E94FE0C2A9428141904DC
:1017C00009F0B0F7CECFF60137FC859137FE819155
:1017D0006F01B70190E00E94FE0C51105A94F1E0A5
:1017E0008F1A9108BFCF843619F0893609F077C077
:1017F000F80137FE6BC060817181828193810C5F3B
:101800001F4FF32DFF763F2E97FF09C090958095CF
:10181000709561957F4F8F4F9F4F689437F82AE0FE
:1018200030E0A5010E942E0DC82ECA188C2C432C26
:1018300036FE0CC0E89440F8C91440F434FE05C0EC
:1018400032FC03C0F32DFE7E4F2E892C44FE95C042
:10185000FE01EC0DF11D8081803309F087C0242D3D
:10186000297E422E842D8870582E43FC95C040FE60
:101870008FC09C2C821418F42C0C922C981844FEC7
:1018800091C0B70180E390E00E94FE0C42FE09C0C7
:1018900088E790E041FE02C088E590E0B7010E9431
:1018A000FE0CC91408F48AC0CA94D12C9FEFC91A3F
:1018B000D90ACA0CDB1CF60182916F01B70190E0D6
:1018C0000E94FE0CAC14BD04B1F74FCF6081718152
:1018D000072E000C880B990B0E5F1F4F92CFD32C55
:1018E000E894D4F82AE030E0853739F1232D297FB8
:1018F000D22E8F3601F148F48835A9F0F7018681A0
:1019000097812B96E2E10C94B308803749F0883731
:10191000A9F7D4FE02C06894D2F820E130E00DC0EF
:101920006894D4F8F6CF34FE03C0822F8660D82E98
:1019300020E132E002C028E030E0F801D7FE0FC01D
:1019400060817181828193810C5F1F4FA5010E948C
:101950002E0DC82ECA183D2CE89437F867CF608149
:10196000718190E080E00E5F1F4FF0CF42FC02C01B
:10197000839478CF8394839475CF842D867809F4EB
:1019800071CFF6CFB70180E290E00E94FE0C839405
:101990008214C0F3512C73CF522C5818821408F4BF
:1019A0006ECFF8CF842D867809F47BCF8BE241FE91
:1019B00080E247FC8DE2B70190E071CFB70180E390
:1019C00090E00E94FE0C9A946CCF8FEF9FEF99CF1E
:1019D000FC010590615070400110D8F780959095FA
:1019E0008E0F9F1F0895FC016150704001900110FF
:1019F000D8F7809590958E0F9F1F08950F931F9392
:101A0000CF93DF93182F092FEB018B8181FD09C044
:101A10001FEF0FEF812F902FDF91CF911F910F912B
:101A2000089582FF14C02E813F818C819D812817EB
:101A300039073CF4E881F981CF01019699838883C5
:101A400010838E819F8101969F838E83E3CFE885EB
:101A5000F985812F0995892BA1F3DACFFA01AA27FD
:101A6000283051F1203181F1E8946F936E7F6E5FE1
:101A70007F4F8F4F9F4FAF4FB1E03ED0B4E03CD08F
:101A8000670F781F891F9A1FA11D680F791F8A1F72
:101A9000911DA11D6A0F711D811D911DA11D20D0D9
:101AA00009F468943F912AE0269F11243019305D93
:101AB0003193DEF6CF010895462F4770405D419384
:101AC000B3E00FD0C9F7F6CF462F4F70405D4A33D1
:101AD00018F0495D31FD4052419302D0A9F7EACF99
:101AE000B4E0A6959795879577956795BA95C9F7C8
:101AF00000976105710508959B01AC010A2E0694BB
:101B00005795479537952795BA95C9F7620F731F73
:101B1000841F951FA01D089510E0C2E6D0E004C008
:101B2000FE010E94DD082196C336D107C9F7F8945B
:021B3000FFCFE5
:101B32000000110280000000000023018D00BA00A5
:101B42007001EB00C900DD00253032580066666680
:101B520065006765745065726365707473006C6FBD
:0E1B6200636F6D6F74696F6E2800293B000081
:00000001FF
