:100000000C9462000C9440020C9419020C948A0027
:100010000C948A000C948A000C948A000C948A0038
:100020000C948A000C948A000C948A000C94670249
:100030000C948A000C948A000C948A000C948A0018
:100040000C94CF010C948A000C948A000C948A00C2
:100050000C948A000C948A000C948A000C948A00F8
:100060000C948A000C948A000000000024002700F1
:100070002A0000000000250028002B0000000000DE
:1000800023002600290004040404040404040202DA
:100090000202020203030303030301020408102007
:1000A0004080010204081020010204081020000012
:1000B0000008000201000003040700000000000027
:1000C00000000C0511241FBECFEFD8E0DEBFCDBF6E
:1000D00011E0A0E0B1E0EAE3FBE002C005900D9280
:1000E000A430B107D9F721E0A4E0B1E001C01D922E
:1000F000A134B207E1F710E0C2E6D0E004C02197D6
:10010000FE010E949505C136D107C9F70E94680318
:100110000C949B050C940000E0911A01EC3088F5DA
:1001200040911B0128E830E0241B310947FD33953D
:10013000220F331F220F331F8217930784F0409141
:100140001C0128E532E0241B310947FD3395220FBD
:10015000331F220F331F821793070CF49C01225088
:100160003109220F331F4FB7F8948E2F90E0FC0116
:10017000EE0FFF1FE80FF91FE35EFE4F328321836E
:100180004FBF0895833081F028F4813099F0823098
:10019000A9F008958730A9F08830C9F08430B1F40F
:1001A000809180008F7D03C0809180008F77809345
:1001B0008000089584B58F7784BD089584B58F7DC0
:1001C000FBCF8091B0008F778093B000089580912D
:1001D000B0008F7DF9CF1F93CF93DF93282F30E0AE
:1001E000F901E255FF4F8491F901E656FF4FD49192
:1001F000F901EA57FF4FC491CC23A9F0162F8111C2
:100200000E94C200EC2FF0E0EE0FFF1FEE58FF4FF0
:10021000A591B4918FB7F894EC91111108C0D095C5
:10022000DE23DC938FBFDF91CF911F910895DE2BEA
:10023000F8CFCF93DF9390E0FC01E656FF4F249177
:100240008A579F4FFC0184918823D1F090E0880F5A
:10025000991FFC01E859FF4FA591B491FC01EE589C
:10026000FF4FC591D49161110EC09FB7F8948C9146
:10027000E22FE0958E238C932881E223E8839FBFB1
:10028000DF91CF9108958FB7F894EC91E22BEC9326
:100290008FBFF6CF0895CF93DF93E1EBF0E0849129
:1002A000EDE9F0E0D491E9E8F0E0C49130E020E03D
:1002B000CC2399F081110E94C200EC2FF0E0EE0FE8
:1002C000FF1FE458FF4FA591B491EC91ED2391E00D
:1002D00080E009F490E0292F382F5FB7F8948091DF
:1002E0000B0190910C01A0910D01B0910E0146B54A
:1002F000A89B05C04F3F19F00196A11DB11D5FBF1E
:10030000BA2FA92F982F8827840F911DA11DB11DE9
:1003100062E0880F991FAA1FBB1F6A95D1F7232B94
:1003200071F08093050190930601A0930701B093AB
:10033000080181E080930401DF91CF91089520911D
:1003400004012223C9F340910501509106016091F7
:10035000070170910801841B950BA60BB70B893B15
:100360002BE09207A105B105B8F490931901809391
:1003700018012FB7F8948091100190911101A0916C
:100380001201B09113012FBF8093140190931501B6
:10039000A0931601B093170110920401CDCF1F92C4
:1003A0000F920FB60F9211242F933F938F939F9329
:1003B000AF93BF938091100190911101A091120110
:1003C000B091130130910F0123E0230F2D3758F521
:1003D0000196A11DB11D20930F01809310019093F0
:1003E0001101A0931201B093130180910B01909120
:1003F0000C01A0910D01B0910E010196A11DB11D3E
:1004000080930B0190930C01A0930D01B0930E010A
:10041000BF91AF919F918F913F912F910F900FBE00
:100420000F901F90189526E8230F0296A11DB11D6D
:10043000D2CF1F920F920FB60F9211242F933F939A
:100440004F935F936F937F938F939F93AF93BF93DC
:10045000EF93FF93E0910201F09103010995FF9161
:10046000EF91BF91AF919F918F917F916F915F912C
:100470004F913F912F910F900FBE0F901F901895A5
:100480001F920F920FB60F9211242F933F934F9309
:100490005F936F937F938F939F93AF93BF93EF93EC
:1004A000FF93E0910001F09101010995FF91EF9117
:1004B000BF91AF919F918F917F916F915F914F917C
:1004C0003F912F910F900FBE0F901F9018951F9284
:1004D0000F920FB60F9211242F933F934F935F9378
:1004E0006F937F938F939F93AF93BF93CF93DF933C
:1004F000EF93FF9380910A01C0910901D0E087FF3B
:1005000024C0109285001092840080910A018F5FB0
:1005100080930A0180910A01082E000C990B8C1718
:100520009D0724F480910A018C30C4F180918400ED
:1005300090918500049680349C4908F47AC080919B
:10054000840090918500049676C080910A01082E5F
:10055000000C990B8C179D07C4F6E0910A018E2FB1
:10056000EE0F990BFC01EE0FFF1FE80FF91FE35E82
:10057000FE4F808186FFC9CFE0910A018E2FEE0FDA
:10058000990BFC01EE0FFF1FE80FF91FE35EFE4F12
:10059000808160E08F730E94EB00B7CF20918400D0
:1005A00030918500E0910A018E2FEE0F990BFC012E
:1005B000EE0FFF1FE80FF91FE35EFE4F818192816E
:1005C000820F931F9093890080938800E0910A0125
:1005D0008E2FEE0F990BFC01EE0FFF1FE80FF91F96
:1005E000E35EFE4F808186FF11C0E0910A018E2FED
:1005F000EE0F990BFC01EE0FFF1FE80FF91FE35EF2
:10060000FE4F808161E08F730E94EB00FF91EF91BC
:10061000DF91CF91BF91AF919F918F917F916F911A
:100620005F914F913F912F910F900FBE0F901F90B0
:10063000189580E49CE990938900809388008FEF5F
:1006400080930A01E3CFCF92DF92EF92FF920F9354
:100650001F93E82FF92F05C0015011092109310915
:1006600061F1908196239417B9F305C001501109E7
:100670002109310911F1908196239413F7CFC12CF0
:10068000D12CE12CF12C0AC08FEFC81AD80AE80A45
:10069000F80A0C151D052E053F0579F0808186238B
:1006A000841791F36C2D7D2D8E2D9F2D1F910F9111
:1006B000FF90EF90DF90CF90089560E070E080E0D1
:1006C00090E01F910F91FF90EF90DF90CF900895F1
:1006D000789484B5826084BD84B5816084BD85B51D
:1006E000826085BD85B5816085BD80916E00816029
:1006F00080936E00109281008091810082608093CF
:1007000081008091810081608093810080918000D0
:100710008160809380008091B10084608093B100FB
:100720008091B00081608093B00080917A008460F5
:1007300080937A0080917A00826080937A00809121
:100740007A00816080937A0080917A00806880933B
:100750007A001092C10060E085E00E94190160E01B
:1007600083E00E94190161E08BE00E94190161E0C1
:100770008BE00E94190160E08BE00E94EB00809109
:100780001A018C3008F051C061E086E00E94190126
:1007900080911A01282F30E0F901EE0FFF1FE20FC0
:1007A000F31FE35EFE4F9081907C966090831092E1
:1007B0001B0110921C012CE0622F0E948205829F77
:1007C000B001112430E020E0AB01420F531FFA01C9
:1007D000EE0FFF1FE40FF51FE35EFE4F908196FDC5
:1007E00016C02F5F3F4F2C30310571F781110FC0BC
:1007F0001092800082E08093810010928500109218
:100800008400B19A80916F00826080936F00E091C4
:100810001A018E2F90E0FC01EE0FFF1FE80FF91F69
:10082000E35EFE4F8081806480838CED95E00E94C2
:100830008C008BE491E090930301809302018091FE
:100840006900837F846080936900E99A90E4892E2F
:1008500097E0992EA12CB12C24EB422E512C612C27
:10086000712C39EB232E30E0332EC0E0D0E0EFE9DD
:10087000F0E06491EBE8F0E08491E82FF0E0EE0F17
:10088000FF1FE458FF4F8591949100E315E720E0A6
:1008900030E0462F0E942303611571058105910503
:1008A00029F06F5F7F4F8F4F9F4F9F706B017C01CF
:1008B000F4EFCF1AF1E0DF0AE108F10821EDC216EA
:1008C00027E0D206E104F10418F4CB010E948C0069
:1008D000F894A0911801B0911901C0901401D09022
:1008E0001501E0901601F090170178948FB7F894F5
:1008F000409110015091110160911201709113010A
:100900008FBF4C195D096E097F094D335105610593
:10091000710508F052C0CD01845F9140813D974040
:1009200008F04BC0A136F9E0BF0714F0A0E6B9E02B
:10093000A03222E0B20714F4A0E2B2E0A052B2402A
:1009400024EB30E00E948E05A50194010E9427054A
:10095000A0ECB0E00E944605A30192010E94270589
:1009600069017A0180E2C80ED11CE11CF11C61E032
:100970008BE00E941901F1018491833099F168F4B0
:10098000813009F1823049F161E0F0E8CF16D104FD
:10099000C4F08BE00E94EB001AC0873069F1883008
:1009A00099F1843089F78091800080628093800083
:1009B000D0928B00C0928A000AC061E08BE00E9456
:1009C000190160E0E6CF84B5806884BDC7BC20977C
:1009D00009F44DCF0E9400004ACF84B5806284BDE7
:1009E000C8BCF5CF80918000806880938000D09251
:1009F0008900C0928800EBCF8091B000806880931E
:100A0000B000C092B300E3CF8091B00080628093C9
:100A1000B000C092B400DBCF809109018C3098F413
:100A200091E0980F9093090180931A0190E0FC01E6
:100A3000EE0FFF1FE80FF91FE35EFE4F88EB9BE010
:100A40009283818308958FEF80931A010895052E74
:100A500097FB1EF400940E943E0557FD07D00E94AC
:100A6000510507FC03D04EF40C943E05509540957B
:100A7000309521953F4F4F4F5F4F0895909580954A
:100A8000709561957F4F8F4F9F4F08950E9473051A
:100A9000A59F900DB49F900DA49F800D911D1124D2
:100AA0000895A1E21A2EAA1BBB1BFD010DC0AA1FAF
:100AB000BB1FEE1FFF1FA217B307E407F50720F0C7
:100AC000A21BB30BE40BF50B661F771F881F991F42
:100AD0001A9469F760957095809590959B01AC018B
:100AE000BD01CF010895A29FB001B39FC001A39F94
:100AF000700D811D1124911DB29F700D811D112457
:100B0000911D0895991B79E004C0991F961708F06C
:100B1000961B881F7A95C9F7809508950E947305E2
:100B2000B7FF0895821B930B0895EE0FFF1F0590EA
:0A0B3000F491E02D0994F894FFCF32
:040B3A004A014A0121
:00000001FF
