:100000000C94C5000C94ED000C94ED000C94ED00E4
:100010000C94ED000C94ED000C94ED000C94ED00AC
:100020000C94ED000C94ED000C94ED000C94E11E8A
:100030000C94ED000C94ED000C94ED000C94ED008C
:100040000C94971E0C94ED000C94651E0C943F1EAE
:100050000C94ED000C94ED000C94ED000C94ED006C
:100060000C94ED000C94ED00756E6368616E67652D
:100070006400756E617661696C61626C65007065C3
:10008000726365707465640065787465726F63652A
:100090007074696F6E0070726F7072696F636570F3
:1000A00074696F6E00696E7465726F6365707469F0
:1000B0006F6E00696E76616C69640072656A656373
:1000C00074656400616C726561647900756E61626B
:1000D0006C650000000000240027002A00000000DA
:1000E00000250028002B0004040404040404040276
:1000F00002020202020303030303030102040810C5
:100100002040800102040810200102040810200091
:1001100000000800020100000304070000000000C6
:10012000000000756E6B6E6F776E007065726365B0
:10013000707465640070726F7072696F636570745B
:10014000696F6E00756E6B6E6F776E0065786563B4
:100150007574656400CDCCCC3D0AD7233C17B7D16C
:100160003877CC2B329595E6241FB14F0A0000203A
:10017000410000C84200401C4620BCBE4CCA1B0EB9
:100180005AAEC59D7400B81F9C2A11241FBECFEF24
:10019000D8E0DEBFCDBF12E0A0E0B1E0E2E3F0E6E0
:1001A00002C005900D92AE33B107D9F724E0AEE35B
:1001B000B2E001C01D92A532B207E1F710E0C4EC35
:1001C000D0E004C02197FE010E94ED2DC33CD10771
:1001D000C9F70E94E3200C9408300C940000CF93E0
:1001E000C82F80911D0390911E03DC01ED91FC91BD
:1001F0000084F185E02D0995181619067CF480918C
:100200001D0390911E03DC01ED91FC910284F385A6
:10021000E02D099521E0C817190609F020E0822F8A
:10022000CF91089580912A0381110FC080911D0301
:1002300090911E03DC01ED91FC910190F081E02D85
:1002400060EC099581E080932A03089580912A0348
:100250008823C9F080911D0390911E03DC01ED916C
:10026000FC910190F081E02D60EC099580911D03D7
:1002700090911E03DC01ED91FC910680F781E02D49
:10028000099510922A030895FF920F931F93CF931D
:10029000DF938C01F12C60914003709141038091B8
:1002A0004203F816C8F484E0F89EE0011124C60F5A
:1002B000D71F6A817B816115710541F0D801ED91ED
:1002C000FC910280F381E02DC80109951B821A82FE
:1002D00018821982F394DFCF109242038FEF80933C
:1002E0004403B3E060337B0789F0D801ED91FC91C2
:1002F0000280F381E02DC801099580E393E090939B
:1003000041038093400384E080934303DF91CF91C6
:100310001F910F91FF9008952F923F924F925F92FD
:100320006F927F928F929F92AF92BF92CF92DF9205
:10033000EF92FF920F931F93CF93DF9300D000D0E3
:1003400000D01F92CDB7DEB79A8389834A015B0143
:1003500020E836E948E15BE4CB01B4010E94B82D06
:1003600087FD89C004E110E080E290E09C838B83EC
:10037000312C212CF801E359FE4F259135914591FF
:100380005491C501B4010E94B82D87FD11C0F80138
:10039000EB5AFE4F2591359145915491C501B40119
:1003A0000E944B2B4B015C01AB81BC812A0E3B1E92
:1003B000EB81FC81F595E795FC83EB8304501109F3
:1003C0000C3FFFEF1F07B1F677247A9420E030E06E
:1003D000A901C501B4010E94B82D18160CF054C033
:1003E0002CEA35EC47E257E3C501B4010E94E52A47
:1003F00018160CF449C0972DA4E09A02800111242C
:10040000F12CE12CF801EB5AFE4F6F0103591E4FFE
:10041000FFEF7F1609F438C0F601EE0DFF1D659160
:1004200075918591949120E030E040E251E40E9482
:100430004B2BA50194010E94B82D18168CF4F801DD
:10044000EE0DFF1D2591359145915491C501B401E3
:100450000E944B2B4B015C018B819C81281A390A2D
:10046000AB81BC81B595A795BC83AB837A94B4E08E
:10047000EB1AF108CDCF80E290E09C838B8335E0CE
:10048000732E312C212CA2CFC501B4010E94892DDD
:100490006B017C012B013C0180E492E4AFE0B0E011
:1004A0008B839C83AD83BE8396E09F83AAE04A162C
:1004B000510461047104E0F06B817C818D819E8127
:1004C0002AE030E040E050E00E94722C2B833C8315
:1004D0004D835E83BF81B150BF83C301B2012AE067
:1004E00030E040E050E00E94722C29013A01DECF5A
:1004F000C701B6010E94EA2A9B01AC01C501B40103
:100500000E94A32C4B015C016B817C818D819E81BB
:100510000E94EA2A9B01AC01C501B4010E944B2B49
:100520002B013C010E94892D4B015C010E94EA2AAB
:100530009B01AC01C301B2010E94A32C9B01AC0141
:100540000E94A42C0E94892D860E971EA81EB91EFB
:100550008B819C81AD81BE8188169906AA06BB0657
:10056000C0F09FEFC91AD90AE90AF90A2114310427
:1005700039F1AAE0CA16D104E104F10408F1BFEF91
:100580002B1A3B0A812C912C5401C12CD12C7601C1
:10059000C3948AE0482E512C612C712CC501B40102
:1005A000A30192010E94722C672B682B692B61F4C6
:1005B000EF811E164CF449015A01E150EF83EECF52
:1005C000812C912C5401E5CFA981BA81CD92DD9285
:1005D000ED92FC921397FD0184829582A682B782E8
:1005E000318620868F818287CD0127960FB6F894B9
:1005F000DEBF0FBECDBFDF91CF911F910F91FF9056
:10060000EF90DF90CF90BF90AF909F908F907F90B2
:100610006F905F904F903F902F9008950895AF9204
:10062000BF92CF92DF92EF92FF920F931F93CF93DF
:10063000DF936C017B018B01040F151FEB015E0141
:10064000AE18BF08C017D10759F06991D601ED91D6
:10065000FC910190F081E02DC6010995892B79F775
:10066000C501DF91CF911F910F91FF90EF90DF9027
:10067000CF90BF90AF900895FC01538D448D252FEE
:1006800030E0842F90E0821B930B541710F0CF962C
:10069000089501970895FC01918D828D981761F05E
:1006A000A28DAE0FBF2FB11D5D968C91928D9F5F75
:1006B0009F73928F90E008958FEF9FEF0895FC0154
:1006C000918D828D981731F0828DE80FF11D858D07
:1006D00090E008958FEF9FEF0895FC01918D228D9A
:1006E000892F90E0805C9F4F821B91098F7399271F
:1006F00008958EE692E00E946D0321E0892B09F4B3
:1007000020E0822F089580E090E0892B29F00E945C
:10071000790381110C9400000895FC01A48DA80FA9
:10072000B92FB11DA35ABF4F2C91848D90E0019633
:100730008F739927848FA689B7892C93A089B18953
:100740008C91837080648C93938D848D981306C0F4
:100750000288F389E02D80818F7D80830895EF9258
:10076000FF920F931F93CF93DF93EC0181E0888F6B
:100770009B8D8C8D98131AC0E889F989808185FF3B
:1007800015C09FB7F894EE89FF896083E889F989DD
:1007900080818370806480839FBF81E090E0DF91DF
:1007A000CF911F910F91FF90EF900895F62E0B8D32
:1007B00010E00F5F1F4F0F731127E02E8C8D8E11ED
:1007C0000CC00FB607FCFACFE889F989808185FF54
:1007D000F5CFCE010E948D03F1CFEB8DEC0FFD2FF5
:1007E000F11DE35AFF4FF0829FB7F8940B8FEA890F
:1007F000FB8980818062CFCFCF93DF93EC01888D1E
:100800008823B9F0AA89BB89E889F9898C9185FD8B
:1008100003C0808186FD0DC00FB607FCF7CF8C9119
:1008200085FFF2CF808185FFEDCFCE010E948D0341
:10083000E9CFDF91CF91089590E0FC01E15FFE4F99
:100840002491FC01E550FF4F3491FC01E951FF4F29
:10085000E491EE23C9F0222339F0233001F1A8F40A
:10086000213019F1223029F1F0E0EE0FFF1FE352A1
:10087000FF4FA591B4918FB7F894EC91611126C008
:1008800030953E233C938FBF08952730A9F0283040
:10089000C9F0243049F7809180008F7D03C080919A
:1008A00080008F7780938000DFCF84B58F7784BD01
:1008B000DBCF84B58F7DFBCF8091B0008F778093A5
:1008C000B000D2CF8091B0008F7DF9CF3E2BDACF30
:1008D000CF93DF9390E0FC01E550FF4F24918951C5
:1008E0009F4FFC0184918823D1F090E0880F991FDD
:1008F000FC01ED52FF4FA591B491FC01E352FF4F73
:10090000C591D49161110EC09FB7F8948C91E22FDC
:10091000E0958E238C932881E223E8839FBFDF91AB
:10092000CF9108958FB7F894EC91E22BEC938FBFA1
:10093000F6CF3FB7F8948091690290916A02A09136
:100940006B02B0916C0226B5A89B05C02F3F19F031
:100950000196A11DB11D3FBFBA2FA92F982F88273F
:10096000BC01CD01620F711D811D911D42E0660F1A
:10097000771F881F991F4A95D1F708958F929F92EC
:10098000AF92BF92CF92DF92EF92FF924B015C0148
:100990000E9499046B017C010E9499046C197D09E5
:1009A0008E099F09683E734081059105A8F321E0F7
:1009B000821A9108A108B10888EEC80E83E0D81EFB
:1009C000E11CF11C81149104A104B10429F7FF90EA
:1009D000EF90DF90CF90BF90AF909F908F90089551
:1009E0002FB7F8946091650270916602809167025A
:1009F000909168022FBF08950F931F93CF93DF93B9
:100A0000EC010E94F004688779878A879B87E881D8
:100A1000F9810284F385E02DCE01099597FF15C079
:100A20000E94F004088519852A853B85601B710B9F
:100A3000820B930B0C811D812E813F816017710702
:100A40008207930720F38FEF9FEFDF91CF911F91E4
:100A50000F9108958F929F92AF92BF92CF92DF92A3
:100A6000EF92FF92FC01828158E5C52E52E0D52E0F
:100A7000C81AD10887FDD394CC0CDD1CCC0CDD1C2E
:100A80000D2C000CEE08FF08818178E8872E912C50
:100A9000881A910887FD9394880C991C880C991CDE
:100AA000092C000CAA08BB0880818F3FD1F190E08F
:100AB000FC01EE0FFF1FE80FF91FE05CFD4F818185
:100AC000928133E0880F991F3A95E1F7B0E0A0E0FA
:100AD00044E0B595A795979587954A95D1F70296E5
:100AE0009C012F5F3F4F032E000C440B550B281920
:100AF00039094A095B09A4EBB0E00E94282CA70140
:100B00009601281939094A095B090E94092CC90173
:100B1000FF90EF90DF90CF90BF90AF909F908F901D
:100B2000089590E080E0DCCFCF92DF92EF92FF92C9
:100B3000CF93DF93EC01603282E07807CCF5653B20
:100B4000710514F064EB70E0898128E830E0281B1F
:100B5000310987FD3395220F331F220F331F69019F
:100B6000330FEE08FF088A8128E532E0281B31099F
:100B700087FD3395220F331F220F331F032E000CE6
:100B8000440B550B2C193D094E095F09DB0177FF1A
:100B900002C0B0E0A0E00E94332C24EB30E040E043
:100BA00050E00E94092CC20ED31EE41EF51EB601B1
:100BB000E881EC3070F5298188E890E0821B91098A
:100BC00027FD9395880F991F880F991F681779073C
:100BD0007CF02A8188E592E0821B910927FD93959C
:100BE000880F991F880F991F681779070CF4CB019C
:100BF0000297880F991F4FB7F8942E2F30E0F90114
:100C0000EE0FFF1FE20FF31FE05CFD4F9283818325
:100C10004FBFDF91CF91FF90EF90DF90CF9008957D
:100C20001F93CF93DF93EC01162F88818C3008F04F
:100C30004EC061E0812F0E9468048881282F30E037
:100C4000F901EE0FFF1FE20FF31FE05CFD4F1F7372
:100C50006081607C612B608319821A822CE0622F94
:100C60000E94CD2D829FB001112430E020E0AB0125
:100C7000420F531FFA01EE0FFF1FE40FF51FE05C58
:100C8000FD4F908196FD16C02F5F3F4F2C303105F0
:100C900071F781110FC01092800082E08093810073
:100CA0001092850010928400B19A80916F0082604A
:100CB00080936F00E8818E2F90E0FC01EE0FFF1F04
:100CC000E80FF91FE05CFD4F80818064808388819C
:100CD000DF91CF911F9108956F3FA9F0E62FE29524
:100CE000EF7044E0E49F90011124DC01ED91FC9150
:100CF000E20FF31F6F7082819381B6E06B9F800DCE
:100D0000911D1124089590E080E00895CF93C82F9D
:100D1000CB016C2F45960E946C062FEF009711F0C7
:100D2000FC012581BC018C2F922FCF910895982F23
:100D300080336CF08A3324F08F3524F08B3724F421
:100D400081E0089581341CF081E09B350CF080E057
:100D50000895CF93DF93EC0188819981DC01ED91B7
:100D6000FC910190F081E02D09952A813B81820F51
:100D7000931F9B838A83DF91CF910895CF93DF9355
:100D8000EC0188819981DC01ED91FC910280F38175
:100D9000E02D09952A813B81820F931F9B838A83D3
:100DA000DF91CF9108958F929F92AF92BF92CF9291
:100DB000DF92EF92FF920F931F93CF93DF93CDB704
:100DC000DEB766970FB6F894DEBF0FBECDBF6C01DD
:100DD0008E01095E1F4F78018AE0882E912CA12C8C
:100DE000B12CCB01BA01A50194010E94722C942F61
:100DF000852F605DF80162938F01A901692F782F1B
:100E0000411551056105710561F7A7014E1B5F0B87
:100E1000BF01C6010E94BE0666960FB6F894DEBFFB
:100E20000FBECDBFDF91CF911F910F91FF90EF903B
:100E3000DF90CF90BF90AF909F908F900895FC016E
:100E40008485811114C0A781B085818592852FEF9B
:100E50003FEFA817B90730F4CD010196908787833B
:100E60002C9130E037FD20E0238781E08487838563
:100E700008951F93CF93DF93EC01162F0E941F0755
:100E8000811306C01C8681E0DF91CF911F910895E8
:100E900080E0FACF0F931F93CF93DF938C01EB0188
:100EA0008991882369F0C8010E941F07882379F07F
:100EB000FE013197908198130DC0F8011486F0CF90
:100EC00090E080E0DF91CF911F910F91089582E033
:100ED00090E0F8CF83E090E0F5CFCF93DF93EC0183
:100EE000CE010E941F078B304CF489305CF48823BC
:100EF00059F081E08E8390E080E00BC08D3011F0DE
:100F00008032B9F71C86ECCF8E81811105C081E05B
:100F100090E0DF91CF91089582E090E0FACFCF93F7
:100F2000DF93DB01FC01808191810097E1F0129653
:100F30002C91129713964C911397342F3F77FC0105
:100F400043814217130671F7ED91FC911197EC0163
:100F500024962E0F3F1FE217F30729F05191499174
:100F60005417C9F3DFCFDF91CF910895DC0152967A
:100F70009C915297915084E0989F90011124509633
:100F8000ED91FC91E20FF31F228133812115310590
:100F900079F041818081481758F481E0840F818382
:100FA00086E0489F200D311D11242115310521F4C3
:100FB00060E070E08FEF0895B901892F8295807FFE
:100FC000840F089560E087E00E941C0464E670E0EE
:100FD00080E090E00C94BE0461E087E00E941C0475
:100FE00062E370E080E090E00C94BE048E50806478
:100FF00080937C0080917A00806480937A00809155
:101000007A0086FDFCCF8091780020917900322F04
:10101000282FC9018054910981389340A0F4032EF0
:10102000000C440B550B2058310941095109A4EB20
:10103000B0E00E94282C20E033E040E050E00E9425
:10104000092CC90108958FEF9FEF08952F923F92C9
:101050004F925F926F927F928F929F92AF92BF92C8
:10106000CF92DF92EF92FF920F931F93CF93DF9374
:10107000CDB7DEB7A2970FB6F894DEBF0FBECDBFD7
:1010800098878F831B015A8749873AA329A3470171
:1010900058018AE193E00E942A058C0187E193E0E0
:1010A0000E942A059A83898384E193E00E942A059D
:1010B0009C838B8381E193E00E942A059E838D832C
:1010C0000E94F0042B013C01C10129813A81821B5D
:1010D000930B9C01990F440B550B298B3A8B4B8B2F
:1010E0005C8B89859A854B815C81841B950B9C0167
:1010F000990F440B550B2D8B3E8B4F8B588F89A12D
:101100009AA14D815E81841B950B9C01990F440B24
:10111000550B298F3A8F4B8F5C8F8F819885801B61
:10112000910B9C01990F440B550B2D8F3E8F4F8FC8
:1011300058A30E94F0046419750986099709681577
:1011400079058A059B0508F077C00E94F0046419B0
:101150007509860997090E94EA2A6B017C01C5017D
:10116000B4010E94EA2A9B01AC01C701B6010E94AA
:10117000102D6B017C0169897A898B899C890E9479
:10118000EC2AA70196010E944B2B0E94822D4981D7
:101190005A81460F571F5C874B876D897E898F89DF
:1011A000988D0E94EC2AA70196010E944B2B0E9469
:1011B000822D2B813C81260F371F3E872D87698D1D
:1011C0007A8D8B8D9C8D0E94EC2AA70196010E943E
:1011D0004B2B0E94822D4D815E81460F571F588BED
:1011E0004F876D8D7E8D8F8D98A10E94EC2AA7016F
:1011F00096010E944B2B0E94822D600F711F8AE185
:1012000093E00E9494056B857C8587E193E00E94C2
:1012100094056D857E8584E193E00E9494056F8539
:10122000788981E193E00E9494056AE070E080E0B3
:1012300090E00E94BE047DCF6F8178858AE193E0C3
:101240000E949405B10187E193E00E9494056985AD
:101250007A8584E193E00E94940569A17AA181E1F5
:1012600093E00E9494058FE090E00E94F6079101C0
:10127000281B390B2B35310554F160E088E00E94C2
:101280001C0460E08BE00E941C0461E08CE00E9482
:101290001C0460E08DE00E941C0480E0A2960FB662
:1012A000F894DEBF0FBECDBFDF91CF911F910F919C
:1012B000FF90EF90DF90CF90BF90AF909F908F9076
:1012C0007F906F905F904F903F902F9008958EE0A9
:1012D00090E00E94F60749A15AA1481B590B4B35D3
:1012E00051055CF681E0DACF4F925F926F927F9268
:1012F0008F929F92AF92BF92CF92DF92EF92FF9226
:101300000F931F93CF93DF9300D000D01F92CDB7E0
:10131000DEB7DC012C912B32E1F12D32D9F50196AB
:10132000EE24E394FC01208130ED320F3A3010F0CE
:101330002E3291F58C0160E070E0CB01F801219133
:1013400030ED832E820E39E0381508F444C06A3936
:1013500049E97407840749E1940708F046C0AAE008
:10136000B0E09B01AC010E94282C912CB12CA12C47
:1013700024013501409450946094709446165706A9
:101380006806790690F1680D791D8A1D9B1D8F01F5
:10139000D5CF0196E12CC6CF198229813A814B81A4
:1013A0005C816D8170E080E090E00F900F900F9075
:1013B0000F900F90DF91CF911F910F91FF90EF90C1
:1013C000DF90CF90BF90AF909F908F907F906F9065
:1013D0005F904F900895211108C0EE2051F16130C7
:1013E0007105810550E89507A0F0F12CBAE08B2E2D
:1013F000912CA12CB12C6115710530E88307910562
:10140000F8F0A50194010E94722CCA01B901F3946D
:10141000F2CF22E029839B01AC0188279927DC01C8
:10142000821B930BA40BB50B8A839B83AC83BD8378
:10143000B4CF23E029836A837B838C839D83ADCFE4
:10144000F801D8012D918D0130ED320F3A3010F4B2
:10145000F394F6CF2E3201F58F010F5F1F4FF80185
:101460000F5F1F4F2081A0EDDA2ED20EB9E0BD151F
:1014700098F06C3CECEC7E07ECE08E07910578F779
:10148000AAE0B0E09B01AC010E94282C6D0D711DFB
:10149000811D911DFA94E3CF20812F7D10E000E0A3
:1014A000253409F050C021812D32B1F53296CC247B
:1014B000C394DF0110E000E02F2D0F2C000C330B44
:1014C0005AE0B52EFD01DD9040ED4D0D4A30B0F5EE
:1014D000B09EA001B19E500D11240D2DDD0C110BFD
:1014E00000531109040F151FA801420F531F473263
:1014F000510544F3CC20B9F080E090E0A0E0B0E8E2
:10150000E11003C080E090E0DC0121E029838A83C0
:101510009B83AC83BD8341CF2B3219F03196C12C14
:10152000C8CF3296FCCF80E090E0A0E8BFEFE1109A
:10153000ECCF80E090E0A0E8BFE7E7CFCC2019F047
:101540001195019511092081211126CF0F0D111D33
:10155000F7FC1A950E94EA2A3DE6C32E31E0D32E0D
:10156000101611063CF011950195110945E5C42EA0
:1015700041E0D42EF12C0115110591F000FF0CC0B3
:1015800024E0F29EF0011124EC0DFD1D2591359112
:10159000459154910E944B2B15950795F394EBCFF1
:1015A000E110905821E029836A837B838C839D839B
:1015B000F4CECF93DF9300D000D01F92CDB7DEB72B
:1015C000FC01A081B181109709F43DC01496EC9103
:1015D0001497E250ED3008F036C0F0E0EE50F54FD1
:1015E0000C94ED2D120B230B270B2A0BFF0A230B58
:1015F000230B230B060B230B0B0B230B2E0B6C91D6
:1016000070E090E080E00E94EA2A2CC06D917D910C
:101610008D919C91F8CF6D917D918D919C910E94BF
:10162000EC2A20C0CD010E9474093A834B835C836D
:101630006D836A817B818C819D81223081F323308F
:1016400011F3213079F060E070E0CB010BC08D9197
:101650009C91E9CF8D919C910496E5CF6D917D9100
:101660008D919C910F900F900F900F900F90DF91A4
:10167000CF9108951F93CF93DF93EC01CB011B8192
:10168000612F45960E946C06998388831A83009780
:1016900019F0FC0185818B83DF91CF911F91089513
:1016A000CF92DF92EF92FF920F931F93CF93DF932E
:1016B0007C016B018A01FC01C081D1814F3F510542
:1016C00009F0B0F4E881F9810480F581E02D4B5FE9
:1016D0005F4FCE010995009759F0FC010383DF911C
:1016E000CF911F910F91FF90EF90DF90CF900895D1
:1016F000E881F9810280F381E02DB601CE010995E0
:1017000081E0F701828390E080E0E9CF1F93CF93DF
:10171000DF93EC01162F6A817B816115710589F0D9
:101720004C815D81FB0183818417150651F4440FC0
:10173000551F4F5F5F4F888199810E94500B9B839B
:101740008A838A819B81009759F02C813D81A90170
:101750004F5F5F4F5D834C83820F931FFC011483A7
:10176000DF91CF911F9108959F92AF92BF92CF9238
:10177000DF92EF92FF920F931F93CF93DF9300D0EE
:1017800000D01F92CDB7DEB78C010E941F07D82E64
:10179000F8011486F12CE12C60EFC62EC8010E94DE
:1017A0001F07F8011486D81609F4B3C0811113C0BD
:1017B00082E090E00F900F900F900F900F90DF91CC
:1017C000CF911F910F91FF90EF90DF90CF90BF903E
:1017D000AF909F9008958C3509F099C0C8010E9480
:1017E0001F07882329F3E1E5F1E0853709F083C07D
:1017F000F801148654E0952EB12CA12CC8010E944A
:101800001F078823A9F2813434F48053803130F0EB
:1018100083E090E0CFCF8F7D8753F8CF44E0AA0CD0
:10182000BB1C4A95E1F7A82AF80114869A949110F6
:10183000E5CFC501985D8115944020F47501F3E072
:10184000FF22ACCFC5019C5D81159440A8F483E0D4
:10185000B822B701762F6627770F770F6A297B2981
:1018600090E080E00196603871058105910540F4B3
:10187000C8010E94860B92CFB50190E080E0F3CFC3
:101880001982262F2F7320682A8326E09695879544
:10189000779567952A95D1F76032710580F4606C71
:1018A0006B835E01E4E0AE0EB11CF50162915F0155
:1018B000662309F473CFC8010E94860BF6CF262F4A
:1018C0002F7320682B8386E0769567958A95E1F7DC
:1018D0006031710538F4606E6C835E01F5E0AF0E27
:1018E000B11CE3CF60686C83CD825E0126E0A20E5E
:1018F000B11CDBCF32969081992309F489CF8913EB
:10190000F9CF8181882309F483CFF8011486682FE9
:10191000AFCF82819381892B19F484E090E04ACF84
:1019200090E080E047CFAF92BF92CF92DF92EF92EC
:10193000FF920F931F93CF93DF9300D000D0CDB7CA
:10194000DEB7DC0112962D913C9113972C5F3F4F2F
:1019500014964D915C914430510580F57901D9017F
:10196000E0E0142F022FFA2FF21BF11730F4DD9074
:10197000F1E0D110F0E0EF2BF6CFE1111FC082E0D3
:10198000FB0184838E2D801B811728F4D7018D9154
:101990007D018193F7CF640F751FFB0110820F90BB
:1019A0000F900F900F90DF91CF911F910F91FF90AB
:1019B000EF90DF90CF90BF90AF9008957B018C01A6
:1019C000420F531FDA011C92FC01C080D180A48019
:1019D000B5803A832983AB828B2D8F778C83BE01B0
:1019E0006F5F7F4FC60103960E948F070097D9F45F
:1019F000D80112966D917C91A501C6010E94500BF1
:101A0000D801ED91FC9123813481DC012D933C932D
:101A100094838383F8011382128225E0F7012483E3
:101A200091838083BCCFDC0112962C9112972F5F9B
:101A300012962C93F2CFDB01ED91FC91119702806D
:101A4000F381E02DBC01CD010994CF93DF93809108
:101A50002B0390912C030E94440110922D03C091FE
:101A60002B03D0912C0380912E0390912F0300978C
:101A700059F0FC012081318130932F0320932E03F4
:101A8000BE010E941B0DEFCF10924903DF91CF9151
:101A90000895AF92BF92CF92DF92EF92FF920F9391
:101AA0001F93CF93DF93EC018B018C8180FF24C0C7
:101AB000A881B981FB018381948130E020E0009707
:101AC000D9F0A817B907D1F5F80160817181129694
:101AD0008C911297815012968C93129781110CC0A1
:101AE0008D919C9111972115310529F1F90191836F
:101AF0008083CD010E941B0D8C81807631F120976F
:101B000021F1F8805801F5E1AF0EB11C8FEFF81606
:101B1000D1F06F2DC5010E946C066C01FC01E580BF
:101B2000B8010E94490DF801818DF6018083F8010A
:101B3000F18EFE2CEBCF94838383DBCF9C01FC01E1
:101B400080819181BCCFF882F9821C82DF91CF9194
:101B50001F910F91FF90EF90DF90CF90BF90AF90CB
:101B60000895CF93DF93EC01CB01CF3FD10509F06E
:101B7000B0F4BE016B5F7F4F6C177D0780F0DC0116
:101B8000ED91FC910190F081E02D0995009721F0F5
:101B9000FC01C38321E02283DF91CF91089590E07F
:101BA00080E0FACF8F929F92AF92BF92CF92DF9256
:101BB000EF92FF920F931F93CF93DF9300D000D04B
:101BC000CDB7DEB7DC0169014A014115510509F4C1
:101BD00056C077FF08C084E014968C9314974D93F9
:101BE0005C9381E04DC07F777B016430710518F50F
:101BF000FA0190E0242F8E2F8819861730F48191F6
:101C000031E0811130E0932BF6CF911114C082E0C6
:101C100014968C9314978D01842F821B861738F4A9
:101C2000FA018191AF01F80181938F01F5CFA60FE1
:101C3000B11D1C92D6CF8D01F601A080B1809A8291
:101C400089826B837C83BE016F5F7F4FC6010396E1
:101C50000E948F07009751F0FC0122812F5F2283A1
:101C600025E0F801248391838083BBCFB501C701B0
:101C70000E94B10D0097A9F481E0F601828380E013
:101C80000F900F900F900F90DF91CF911F910F91B8
:101C9000FF90EF90DF90CF90BF90AF909F908F908C
:101CA0000895E981FA81DC011496A7014E0F5F1FA8
:101CB000E417F50719F021912D93FACFFC01EE0DF1
:101CC000FF1D1482F60123813481FC0131832083BE
:101CD000F60194838383C4CFCF92DF92EF92FF9279
:101CE0000F931F93CF93DF930097A9F089016A01A7
:101CF0007B01EC01B9010E94490D9801B701A601D1
:101D0000CE01DF91CF911F910F91FF90EF90DF9067
:101D1000CF900C94D20DDF91CF911F910F91FF9036
:101D2000EF90DF90CF90089580916D028230F9F0AE
:101D300062E370E080E090E00E94BE048FE090E0FB
:101D40000E94F6070196A9F481E080936D0260E09D
:101D500088E00E941C0460E08BE00E941C0461E0AB
:101D60008CE00E941C0460E08DE00E941C0481E075
:101D700008958EE090E00E94F607019629F31092F4
:101D80006D0260E088E00E941C0460E08BE00E942D
:101D90001C0460E08CE00E941C0461E08DE00E9465
:101DA0001C0480E00895CB010C94F32DEF92FF9278
:101DB0000F931F93CF93DF93009779F0EB018C0182
:101DC0006FE770E00E94DA2A7C01AC01B801CE0115
:101DD0000E94C82ACE0DDF1D1882DF91CF911F917E
:101DE0000F91FF90EF900895FB0101900020E9F71B
:101DF0003197AF01461B570B0C94BE06CF92DF9272
:101E0000EF92FF920F931F93CF93DF938C016B019F
:101E10007A0162E20E94A906E601EC0CFD1CEC16B8
:101E2000FD0699F06991E1E5F1E0D480DD20C9F08B
:101E3000329683816813F9CF6CE5C8010E94A90628
:101E40006D2DC8010E94A906EACF62E2C801DF91A8
:101E5000CF911F910F91FF90EF90DF90CF900C9456
:101E6000A9066111EECF64E671E0C8010E94F40E8C
:101E7000D6CFFC0130E020E06115710549F0DB01AF
:101E80000D900020E9F79D0121503109261B370BE9
:101E9000718360832283832F8F7793819078982B2F
:101EA00040FB97F9938308952F923F924F925F9250
:101EB0006F927F928F929F92AF92BF92CF92DF925A
:101EC000EF92FF920F931F93CF93DF93CDB7DEB7BF
:101ED000A1970FB6F894DEBF0FBECDBF7C018B017A
:101EE000DC0114968C911497863009F471C1E0F4EA
:101EF000833009F45DC158F440E0B701823009F441
:101F00002FC16BE671E0C8010E94F40EF3C084306B
:101F100009F423C18530A9F7ED91FC91438150E08C
:101F2000BF016C5F7F4F25C18E3009F443C0E0F4E0
:101F30008A3009F448C18C3021F7CD90DD90ED90C6
:101F4000FC90B701A601F7FE0BC06DE2C8010E942C
:101F5000A90644275527BA014C195D096E097F0966
:101F6000C8010E94D30608C1803209F4CDC0803474
:101F700041F66BE5C8010E94A906F701F080FFEF6A
:101F8000FF1609F4BCC0D80114968D919C916F2D59
:101F900045960E946C067C01B8010E94540FF7011F
:101FA000F580FFEFFF1609F4AAC06CE2C8010E9499
:101FB000A906E5CFF701C080D180E280F380A701B8
:101FC0009601C701B6010E94E52A81119ACF20E04F
:101FD00030E0A901C701B6010E94E52A882379F003
:101FE000A7019601C701B6010E94A42C9B01AC0178
:101FF000C701B6010E94E52A882309F482CF20E0B8
:1020000030E0A901C701B6010E94E52A87FF08C098
:102010006DE2C8010E94A906F7FAF094F7F8F0946F
:102020005E01F7E1AF0EB11CB701A601C5010E9428
:102030008C01EF8CF8A0D9A04F89588D698D7A8DCD
:10204000C8010E94D306DD2091F16B8D7C8D8D8DB2
:102050009E8D3E0121E1620E711CCD2C43012AE0D0
:10206000222E312C412C512CCA94AFEFCA1659F0B4
:10207000A20191010E94722C605DF30162933F0105
:10208000B901CA01F1CF8D2D90E0BC01609570952A
:10209000F401E81BF90B31978EE280834427552722
:1020A000461B570B680D791DC8010E94BE06E1143E
:1020B000F10401F165E6C8010E94A906F7FE07C018
:1020C0006DE2C8010E94A906F194E194F108F501BE
:1020D0002AE030E0C701B9010E94D92D805D8293CA
:1020E0007B01672BB9F7A5014E1B5F0BBF01C80130
:1020F0000E94BE06D80112968D919C9140C06DE55C
:10210000C8010E94A906F6CF6BE7C8010E94A90684
:10211000F701F080EE24E394BB24B394FFEFFF16A5
:10212000D1F0D80114968D919C916F2D45960E9407
:102130006C066C01B8010E94540FF601F580FFEFA8
:10214000FF1639F06AE3E11001C06CE2C8010E9499
:10215000A906EB24E3CF6DE7D3CF6D917C9141E0ED
:10216000CE0101960E94390F4B815C815F776981B6
:102170007A81C8010E94FE0EF80182819381A196A6
:102180000FB6F894DEBF0FBECDBFDF91CF911F9188
:102190000F91FF90EF90DF90CF90BF90AF909F9006
:1021A0008F907F906F905F904F903F902F90089509
:1021B000ED91FC91438150E0BF016C5F7F4FC801FE
:1021C0000E94BE06D9CF4D915D916D917C91C8CE94
:1021D0008C9160E771E0811102C065E771E0C80190
:1021E0000E94F40EC9CF0F931F93CF93DF9300D0BB
:1021F00000D000D0CDB7DEB70DE113E0D8018D914E
:102200009C91DC01ED91FC910190F081E02D6EE15B
:102210000995F801808191819A8389831C821B82B0
:102220008BE293E09E838D83BE016F5F7F4F85E4D9
:1022300093E00E94540FD8018D919C91DC01ED91A7
:10224000FC910190F081E02D6AE0099526960FB689
:10225000F894DEBF0FBECDBFDF91CF911F910F91DC
:102260000895CF93DF9300D000D0CDB7DEB7FC0147
:102270008481843061F08530E1F040E0BF0182303C
:1022800049F060E070E080E090E090680BC0608111
:10229000718141E0CE0101960E94390F69817A81F6
:1022A0008B819C810F900F900F900F90DF91CF91B9
:1022B000089580819181FC01238130E00496BC0166
:1022C000C9019F779F77EECF9F92AF92BF92CF9237
:1022D000DF92EF92FF920F931F93CF93DF9300D083
:1022E00000D0CDB7DEB77901C62EB72E8A01452BB7
:1022F00009F450C0B901FC0180810E9486066983FF
:102300007A838B839C83DD24D3949924939489814D
:102310009A810097F9F0DD20B1F00E9431112C2D47
:102320003B2D3F77AC015F772417350761F4D80167
:10233000E62FF72F200F311FA217B30779F19D91D8
:1023400081919817C9F3D924B701CE0101960E9453
:102350003A0BDDCF2FEF89839A832B83AC8289815F
:102360009A81009739F0B701CE0101960E943A0B8D
:1023700089819A810F900F900F900F90DF91CF91EC
:102380001F910F91FF90EF90DF90CF90BF90AF9093
:102390009F9008952FEF90E080E0DDCFAC808981A1
:1023A0009A812B81D8CFFC0120813181C9014A96C5
:1023B0004281538164817581009759F0D9015E96FD
:1023C000EC91E03211F090E080E0009711F00C9475
:1023D000641190E080E008950F931F93CF93DF93F3
:1023E000EC0188819981009759F02A813B81261759
:1023F000370730F081E0DF91CF911F910F91089561
:102400008B016F5F7F4F0E94182F009759F09983BF
:1024100088831B830A832C813D81232B59F7FC0180
:102420001082E8CF80E0E7CFCF92DF92EF92FF9269
:102430000F931F93CF93DF938C01DC019296ED9164
:10244000FC91E80FF91F12826C01B2E0CB0ED11C97
:10245000C114D10449F1F60101900020E9F7319748
:10246000EC19FD09F1F0DC01ED90FC90D701149618
:10247000CD91DC91CE0FDF1FBE01C7010E94EC1190
:10248000882391F0F7012081318184819581B60103
:10249000820F931F0E94E72FD7011596DC93CE93EE
:1024A0001497F80113A212A2D80192968D919C91D3
:1024B000DF91CF911F910F91FF90EF90DF90CF9020
:1024C00008951F93CF93DF93EC01162F8AA19BA150
:1024D00001968097B8F48AA19BA19C012F5F3F4F82
:1024E0003BA32AA38C0F9D1FFC01128321E030E047
:1024F0008CA19DA1820F931F9DA38CA3DF91CF91EF
:102500001F910895CE010E941412892B21F330E00F
:1025100020E0EECFBF92CF92DF92EF92FF920F9327
:102520001F93CF93DF93EC016A018B017B01E40ED3
:10253000F51EE016F106D1F0F801B1908F018AA1E5
:102540009BA10196809760F48AA19BA19C012F5FBB
:102550003F4F3BA32AA38C0F9D1FFC01B282E9CF02
:10256000CE010E941412892B79F3E3CF4CA15DA117
:102570004C0D5D1D5DA34CA3DF91CF911F910F9179
:10258000FF90EF90DF90CF90BF9008958F929F9231
:10259000AF92BF92CF92DF92EF92FF920F931F9371
:1025A000CF93DF93CDB7DEB766970FB6F894DEBF53
:1025B0000FBECDBF6C018E01095E1F4F78018AE00E
:1025C000882E912CA12CB12CCB01BA01A50194012C
:1025D0000E94722C942F852F605DF80162938F0109
:1025E000A901692F782F411551056105710561F722
:1025F000A7014E1B5F0BBF01C6010E948A1266969F
:102600000FB6F894DEBF0FBECDBFDF91CF911F9103
:102610000F91FF90EF90DF90CF90BF90AF909F9081
:102620008F900895FB0101900020E9F73197AF01E9
:10263000461B570B0C948A12CF92DF92EF92FF92B7
:102640000F931F93CF93DF938C016B017A0162E2AA
:102650000E946112E601EC0CFD1CEC16FD0699F0DF
:102660006991E1E5F1E0D480DD20C9F03296838103
:102670006813F9CF6CE5C8010E9461126D2DC80185
:102680000E946112EACF62E2C801DF91CF911F91EF
:102690000F91FF90EF90DF90CF900C946112611139
:1026A000EECF64E671E0C8010E941213D6CF2F92DC
:1026B0003F924F925F926F927F928F929F92AF92D2
:1026C000BF92CF92DF92EF92FF920F931F93CF931F
:1026D000DF93CDB7DEB7A1970FB6F894DEBF0FBE7C
:1026E000CDBF7C018B01DC0114968C911497863050
:1026F00009F471C1E0F4833009F45DC158F440E09D
:10270000B701823009F42FC16BE671E0C8010E9465
:102710001213F3C0843009F423C18530A9F7ED9179
:10272000FC91438150E0BF016C5F7F4F25C18E302B
:1027300009F443C0E0F48A3009F448C18C3021F731
:10274000CD90DD90ED90FC90B701A601F7FE0BC097
:102750006DE2C8010E94611244275527BA014C1945
:102760005D096E097F09C8010E94C61208C1803246
:1027700009F4CDC0803441F66BE5C8010E946112B6
:10278000F701F080FFEFFF1609F4BCC0D801969660
:102790008D919C916F2D45960E946C067C01B8012D
:1027A0000E945713F701F580FFEFFF1609F4AAC046
:1027B0006CE2C8010E946112E5CFF701C080D180B0
:1027C000E280F380A7019601C701B6010E94E52AC5
:1027D00081119ACF20E030E0A901C701B6010E9423
:1027E000E52A882379F0A7019601C701B6010E9466
:1027F000A42C9B01AC01C701B6010E94E52A8823E5
:1028000009F482CF20E030E0A901C701B6010E949F
:10281000E52A87FF08C06DE2C8010E946112F7FA3D
:10282000F094F7F8F0945E01F7E1AF0EB11CB70138
:10283000A601C5010E948C01EF8CF8A0D9A04F8998
:10284000588D698D7A8DC8010E94C612DD2091F1E4
:102850006B8D7C8D8D8D9E8D3E0121E1620E711CF4
:10286000CD2C43012AE0222E312C412C512CCA942C
:10287000AFEFCA1659F0A20191010E94722C605D5F
:10288000F30162933F01B901CA01F1CF8D2D90E0B0
:10289000BC0160957095F401E81BF90B31978EE24D
:1028A000808344275527461B570B680D791DC801A7
:1028B0000E948A12E114F10401F165E6C8010E9448
:1028C0006112F7FE07C06DE2C8010E946112F19427
:1028D000E194F108F5012AE030E0C701B9010E9456
:1028E000D92D805D82937B01672BB9F7A5014E1B23
:1028F0005F0BBF01C8010E948A12D80194968D9186
:102900009C9140C06DE5C8010E946112F6CF6BE753
:10291000C8010E946112F701F080EE24E394BB2409
:10292000B394FFEFFF16D1F0D80196968D919C914C
:102930006F2D45960E946C066C01B8010E945713DA
:10294000F601F580FFEFFF1639F06AE3E11001C0F0
:102950006CE2C8010E946112EB24E3CF6DE7D3CF94
:102960006D917C9141E0CE0101960E94390F4B811F
:102970005C815F7769817A81C8010E941C13F8012C
:1029800084A195A1A1960FB6F894DEBF0FBECDBF6E
:10299000DF91CF911F910F91FF90EF90DF90CF903B
:1029A000BF90AF909F908F907F906F905F904F906F
:1029B0003F902F900895ED91FC91438150E0BF012D
:1029C0006C5F7F4FC8010E948A12D9CF4D915D91F3
:1029D0006D917C91C8CE8C9160E771E0811102C04D
:1029E00065E771E0C8010E941213C9CFCB01BA019B
:1029F0000C94182FCF93DF93EC0188819981009775
:102A000011F00E948F2E198218821D821C821B8257
:102A10001A82DF91CF910895EF92FF920F931F9347
:102A2000CF93DF93EC017B018A01BA010E94EC1184
:102A300081110BC0CE010E94FA14CE01DF91CF911B
:102A40001F910F91FF90EF9008951D830C83B701A4
:102A5000888199810E94E72FF0CFFB01019000202F
:102A6000E9F73197AF01461B570B0C940C15FC018D
:102A700011821082138212821582148261157105EF
:102A800051F0FB0101900020E9F73197AF01461B9F
:102A9000570B0C940C150895FF920F931F93CF932F
:102AA000DF93EC018C01085A1F4FFF24F394F88246
:102AB00063E671E0CE0105960E94371519821A82ED
:102AC0001B821C822B96C017D10789F71882DF91D1
:102AD000CF911F910F91FF900895CF92DF92EF92C7
:102AE000FF920F931F93CF93DF93CDB7DEB7C85BF1
:102AF000D1090FB6F894DEBF0FBECDBF6B017C01CC
:102B0000CA01CB56DF4F59834883C559D040C954B9
:102B1000DF4F19821882C75BD0400E94FA1484E20A
:102B2000FE01EB56FF4FDE01AF58BF4F01900D92F3
:102B30008A95E1F784E2FE01EF58FF4FDE01A35BC7
:102B4000BF4F01900D928A95E1F784E2FE01E35BAD
:102B5000FF4FDE01999601900D928A95E1F784E28C
:102B6000FE01B996DE01119601900D928A95E1F76A
:102B70001EA21DA2CE0189960E941412F8A6EFA2F1
:102B8000CE01835B9F4F0E941412C114D10431F116
:102B9000BE016F5F7F4FC6010E9457137C01CE01BB
:102BA00001960E941412CE018F589F4F0E9414125A
:102BB000CE018B569F4F0E941412C701C854DF4F9D
:102BC0000FB6F894DEBF0FBECDBFDF91CF911F913E
:102BD0000F91FF90EF90DF90CF9008956BE671E03A
:102BE000CE0101960E941213EDA0FEA0D8CFEF9265
:102BF000FF920F931F93CF93DF93EC01CB01FB0167
:102C0000E080F1800E94D3118C0163E671E0CE0177
:102C10000E9437150115110589F0C8010E94311174
:102C20006115710559F0CE010E942D15CE01DF917D
:102C3000CF911F910F91FF90EF900895B801C701B8
:102C4000AE010E946D15F2CFFC0180819181009749
:102C500011F00C948F2E0895EF92FF920F931F9313
:102C6000CF93DF9300D000D000D0CDB7DEB70E9465
:102C7000940E882309F462C082E080936D0261E0C3
:102C800088E00E941C0461E08BE00E941C0460E06C
:102C90008CE00E941C0460E08DE00E941C0464EB48
:102CA00070E08AE193E00E94940564EB70E087E1B4
:102CB00093E00E94940564EB70E084E193E00E944D
:102CC000940564EB70E081E193E00E9494050E941A
:102CD000940E80916D026EE771E0813051F06BE7E8
:102CE00071E0813030F064E871E0823011F069E821
:102CF00071E0CE0101960E9437158D819E81892B4E
:102D000049F06BE771E089819A810E94DE2F11E022
:102D1000892B09F010E0CE0101960E94241681E073
:102D2000812726960FB6F894DEBF0FBECDBFDF9188
:102D3000CF911F910F91FF90EF9008950E94E207AD
:102D40000E94EC0718ECE12EF12C00E010E020E5E9
:102D500030E04AE550E064E670E08AE590E00E94E9
:102D60002608882309F4B3CF20E530E041E450E0A1
:102D700064E670E08AE590E00E942608882309F462
:102D8000A6CF20E530E040E550E064E670E08AE55B
:102D900090E00E942608882309F499CF24E630E0C9
:102DA0004AE550E060E570E08AE590E00E94260880
:102DB000882309F48CCF24E630E04AE550E060E552
:102DC00070E081E490E00E942608882309F47FCF18
:102DD00014E6E12EF12C00E010E02AE530E04AE5AF
:102DE00050E06AE570E08AE590E00E9426088823BA
:102DF00009F46DCF0E94940E6ACFAF92BF92CF922A
:102E0000DF92EF92FF920F931F93CF93DF9300D047
:102E100000D000D0CDB7DEB78C017C0188E5E80E8C
:102E2000F11CF701908180E09830F0F5F8018BE01B
:102E3000989FE00DF11D112483E0808361157105D9
:102E400011F463E671E0CE0101960E943715F70197
:102E50008081A82EB12C6801FBE08F9FC00CD11C93
:102E60001124F60185819681009789F169817A8123
:102E70006115710551F1478150852D813E814217C1
:102E8000530718F10E94E72F8D819E81F6019287EA
:102E900081871E821D82CE0101960E942416F701B1
:102EA00080818F5F808381E026960FB6F894DEBF25
:102EB0000FBECDBFDF91CF911F910F91FF90EF908B
:102EC000DF90CF90BF90AF9008950E948F2E8BE03F
:102ED0008A9DF0018B9DF00D1124E00FF11F898177
:102EE0009A81968385838B819C81908787838D814E
:102EF0009E81928781871A8219821C821B82C9CF88
:102F00000F931F93CF93DF93EC018C010E5F1F4F44
:102F100080916D02823089F4188281E08983C80132
:102F20000E944C1564E871E0C8010E94FD16CE01B4
:102F3000DF91CF911F910F9108950E94E2070E94A7
:102F4000EC070E94940E1882882341F081E0898367
:102F5000C8010E944C156EE771E0E6CF81E08983DD
:102F6000C8010E944C156BE771E0DECFCB010C94D9
:102F70008F2EBF92CF92DF92EF92FF920F931F930B
:102F8000CF93DF93EC01198D1F3F81F0612F4596A0
:102F90000E946C06FC018081898F309709F477C00C
:102FA00014828FEF8583BF01812F76C06C0135E0DD
:102FB000C30ED11CE880F9808F89882341F0C601B7
:102FC0000E94B607E62FF72F182F309749F71F8971
:102FD000988D191324C0103109F459C0110F6D894F
:102FE0007E89D701ED91FC91B4E01B9FA0011124D3
:102FF000C616D70609F044C00190F081E02DBA0151
:10300000C7010995009709F442C020E1F601DC01EF
:1030100001900D922A95E1F79E8B8D8B188F0D896B
:103020001E898F8921E0280F2F8BE4E08E9FC0013D
:103030001124080F191F90E1B92E203111F48FE0EF
:10304000B82EF6E0BF9EB0011124D701ED91FC919E
:103050000190F081E02DC7010995F80193838283E7
:10306000892B09F4B12CD801BC9211961C92012B2A
:1030700071F0C6010E94B607E62FF72F182F8DCFEB
:103080000480F581E02DC7010995009729F681E0BC
:103090008A8360E070E08FEFDF91CF911F910F91F5
:1030A000FF90EF90DF90CF90BF9008956F927F9246
:1030B0008F929F92AF92BF92CF92DF92EF92FF9248
:1030C0000F931F93CF93DF93EC014115510589F4C2
:1030D00090E080E0DF91CF911F910F91FF90EF90F2
:1030E000DF90CF90BF90AF909F908F907F906F9028
:1030F00008958C8181111AC080E28C83209741F35E
:103100008FEF8883898379014A015B01CE010E9498
:1031100064110097F9F6C7010E94B917682E6B0178
:10312000672B49F410E000E0C801D4CF803281F66B
:10313000209749F7CDCFC7010E94B917782E962F57
:10314000092F172F0115110569F39701B501A40186
:10315000C6010E94D20D882329F3F6017582698188
:103160006F3F41F0C70145960E946C06FC016582E5
:103170007982DACF6882FCCFCF93DF93DC01CD91E7
:10318000DC911197FE017A9659F012964D915D915E
:103190006D917C9115979E01CF010E945618FC01FC
:1031A000BF01CE01DF91CF9108956F927F928F92F0
:1031B0009F92AF92BF92CF92DF92EF92FF920F93C6
:1031C0001F93CF93DF933C01EB010E94BC184B018E
:1031D0005C01088119816B010115110501F1C8011C
:1031E0000E94D12AEC0181149104F9F07501B50116
:1031F000C4010E94490DC430D10508F044C090E0DC
:1032000080E020E03C2F831740F5F801E80FF91F1C
:10321000E49141E0E11140E0242B0196F4CF672BCB
:1032200021F0BC01C4010E94490DD301ED91FC9134
:1032300080E0309719F0828191E08927DF91CF916A
:103240001F910F91FF90EF90DF90CF90BF90AF90C4
:103250009F908F907F906F900895211114C082E00D
:10326000D60114968C93D40190E080E0831738F453
:10327000F801E80FF91FE491ED930196F7CFC80D1F
:10328000D91D1882D2CFF701A380B480A114B10454
:1032900071F1D50113968C918C171D0641F4AE0186
:1032A000B801C50104960E94BB2A892BD9F0F5010B
:1032B000A080B180EBCFAE01B801C50104960E9499
:1032C000C82ACA0DDB1D1C82F70183819481D501B8
:1032D0008D939C93B482A38285E0F6018483B182AE
:1032E000A082A3CFF50182818F5F8283F5CFD701C2
:1032F0006D917C91CE010E94B10D5C01892BD9F6B4
:1033000081E0D70112968C9390CF0F931F93CF93A8
:10331000DF93EC018B010E94BC18DC01CB0170E053
:1033200070689D01A8016AE00E946C0EE881F98135
:1033300080E0309719F0828191E08927DF91CF9169
:103340001F910F910895CF92DF92EF92FF92CF934A
:10335000DF937B010E94BC18DC01CB01EB010097DD
:10336000B1F0F701C080D180E280F380BD010E94FE
:10337000490D8AE08C83C882D982EA82FB8281E08F
:10338000DF91CF91FF90EF90DF90CF90089580E094
:10339000F7CF0F931F93CF93DF938C01EB010E9424
:1033A000BC18DC01CB0170E060E0209749F0FE0121
:1033B00001900020E9F7BF01615071096C1B7D0B82
:1033C0007F777F779D01AE010E946C0ED801ED9151
:1033D000FC9180E0309719F0828191E08927DF919C
:1033E000CF911F910F910895EF92FF920F931F932A
:1033F000CF93DF937C018B010E94BC18DC01CB01D1
:10340000E801E881F98170E060E0309749F0EF0170
:1034100009900020E9F7BE01615071096E1B7F0B16
:103420007F777F779D01AF010E946C0ED701ED91F0
:10343000FC9180E0309719F0828191E08927DF913B
:10344000CF911F910F91FF90EF9008956F927F920F
:103450008F929F92AF92BF92CF92DF92EF92FF92A4
:103460000F931F93CF93DF93CDB7DEB728970FB697
:10347000F894DEBF0FBECDBF7C010E9412010E94F6
:10348000250D0BE213E01A83098381E991E09C8307
:103490008B8389E08D838E81807880688E836BE456
:1034A00073E0CE0101960E94F4198CE491E09887B4
:1034B0008F831A8309838BE991E09C838B838CE053
:1034C0008D838E81807880688E83BE01695F7F4F97
:1034D000CE0101960E94D5181A83098388EA91E0EB
:1034E0009C838B8387E08D838E81807880688E8338
:1034F00060EB71E0CE0101960E9485191A83098361
:103500008BEB91E09C838B838BE08D838E81807825
:1035100080688E836DE174E0CE0101960E94A3194C
:103520000E94F31000915003109151038BE2C82EBA
:1035300083E0D82E97ECA92E91E0B92E26E0722ECA
:103540003EEC832E31E0932E47E0642E01151105E9
:1035500089F1E114F10441F0B701F8018081918112
:103560000E94DE2F892B11F50E94250DDA82C98277
:10357000BC82AB827D828E81807880688E83B80128
:103580006E5F7F4FCE0101960E94F419DA82C982E4
:103590009C828B826D828E81807880688E83B80158
:1035A000CE0101960E94F4190E94F310F8010681E1
:1035B0001781CCCF0E94260128960FB6F894DEBF63
:1035C0000FBECDBFDF91CF911F910F91FF90EF9074
:1035D000DF90CF90BF90AF909F908F907F906F9033
:1035E0000895FF920F931F93CF93DF93CDB7DEB76C
:1035F0002C970FB6F894DEBF0FBECDBF9A87898790
:103600007C876B87142F0E94250D8BE293E09A83B1
:10361000898381E991E09C838B8389E08D838E810E
:10362000807880688E836BE473E0CE0101960E94FF
:10363000F41984E491E0163040F4E12FF0E0EE0F4D
:10364000FF1FE25EFE4F8081918198878F830BE29E
:1036500013E01A8309838BE991E09C838B838CE0D0
:103660008D838E81807880688E83BE01695F7F4FF5
:10367000CE0101960E94D5181A83098388EA91E049
:103680009C838B8387E0F82EFD828E818078806812
:103690008E83BE01655F7F4FCE0101960E94F419B3
:1036A0001A8309838BEB91E09C838B838BE08D8362
:1036B0008E81807880688E836DE174E0CE01019602
:1036C0000E94A3191A8309838EEC91E09C838B835B
:1036D000FD828E81807880688E83BE01675F7F4F18
:1036E000CE0101960E94F4190E94F3102C960FB699
:1036F000F894DEBF0FBECDBFDF91CF911F910F9128
:10370000FF900895CF92DF92FF920F931F93CF9374
:10371000DF938C016B01CB010E94B917F82EEB01EE
:10372000209761F0F80161816F3F89F0C6014596ED
:103730000E946C06FC01F582F801F182CE01DF9156
:10374000CF911F910F91FF90DF90CF9008958083CC
:10375000F4CF3F924F925F926F927F928F929F929F
:10376000AF92BF92CF92DF92EF92FF920F931F938F
:10377000CF93DF9300D000D01F92CDB7DEB78C017E
:103780006B01B42E0E946D077C01892B09F050C09B
:10379000C8010E941F07863609F4AEC164F587325E
:1037A00029F08B35A1F1823209F0AFC1F801158201
:1037B000148282819381892B99F4E080F180D70172
:1037C0006D917C918FE190E00E94B10D009719F40A
:1037D00021E0F7012283D80113969C938E931297D0
:1037E000C8010E94B40B7C01892B11F5B601C801F8
:1037F0000E94930C1DC0843709F45EC18B3709F415
:1038000066C08E3609F081C16BE671E05CC180E470
:10381000D60114968C931497C114D10421F08FEF24
:103820008C9311968C93B1101BC025E0E22EF12CE5
:10383000C7010F900F900F900F900F90DF91CF91D5
:103840001F910F91FF90EF90DF90CF90BF90AF90BE
:103850009F908F907F906F905F904F903F900895D2
:10386000F8011486C8010E946D07009709F09DC1F8
:103870006DE5C8010E9439078111DACFBA94D801E9
:103880001D966D917C91C6010E94821B009709F4E0
:103890007BC04B2DBC01C8010E94A91B009709F0F9
:1038A00084C1C8010E946D07009709F07EC16DE5D3
:1038B000C8010E9439078111BBCF6CE2C8010E9488
:1038C00039078111DCCF93E0E92EF12CB1CF80E2F2
:1038D000F6018483C114D10419F08FEF80838183B2
:1038E000BB2009F4A2CFD8011C961C92C8010E94EB
:1038F0006D07009709F059C16DE7C8010E943907AB
:10390000811196CF5524539477247A947B0CF80137
:103910001582148282819381892B91F4E080F18059
:10392000D7016D917C918FE190E00E94B10D0097DD
:1039300011F4F7015282D80113969C938E9312973B
:10394000C8010E941F07873219F1823209F1C801AC
:103950000E941F07F82E0E949706882309F4B3CF10
:10396000F80114866F2DC8010E94860BC8010E94C1
:103970001F07F82E0E9497068111F2CFD8011296E8
:103980008D919C91892B59F484E0E82EF12C50CF35
:10399000C8010E94B40B7C01892B09F049CFC801F2
:1039A0000E946D077C01892B09F042CF6AE3C801B0
:1039B0000E943907882309F486CFD8011296ED9129
:1039C000FC91139714968D919C911597E80FF91F10
:1039D000148214966D917C9115977F771D962D9189
:1039E0003C911E9712968D919C910496472F4F778C
:1039F000B62DB0786B2E642AE89467F8AC01762D6A
:103A0000C6010E9464117C01F801858496840097A8
:103A100059F5C4010E94B917382E5B01672B09F4D0
:103A2000B3CFC4010E94B917482E962FE92EF72E66
:103A3000E114F10409F4A8CFD50115964C92F601D2
:103A400061816F3F71F0C40145960E946C06DC01F4
:103A500015963C92F6014182B501C8010E94930C73
:103A600006C030824182F8CFB4010E94490D472D33
:103A7000B701C8010E94A91B7C01892B09F0D8CE8F
:103A8000C8010E946D077C01892B09F0D1CE6DE73A
:103A9000C8010E9439078111CBCE6CE2C8010E9497
:103AA0003907882309F40FCFC8010E946D077C01F4
:103AB000892B09F42CCFBCCE86E0F601848381E00B
:103AC000808360E771E0C8010F900F900F900F9016
:103AD0000F90DF91CF911F910F91FF90EF90DF90AA
:103AE000CF90BF90AF909F908F907F906F905F909E
:103AF0004F903F900C944A0786E0D60114968C9321
:103B000014971C9265E771E0DECFC8010E941F0781
:103B10004801BFE08B0E911CB12C782CA92C80336E
:103B200084F08A3384F4EFE3BE16A9F0D8011C9622
:103B30001C92B394F40181934F01C8010E941F07A6
:103B4000EECF8B3281F393ED980F923060F3982F84
:103B50009F7D953441F30B0D111DD8011F961C92CA
:103B6000872D9A2D0E9474093A834B835C836D8361
:103B70008A819B81AC81BD812230A9F0233059F02C
:103B8000213009F0A0CE2EE0F601248380839183BA
:103B9000A283B3834DCE2AE0F601248380839183F0
:103BA000A283B38345CE2CE0F7CF7C0141CECF92E8
:103BB000DF92EF92FF920F931F93CF93DF9300D08A
:103BC00000D0CDB7DEB7FC01DC0111962181328136
:103BD000C9014A9679F490E080E00F900F900F9021
:103BE0000F90DF91CF911F910F91FF90EF90DF9099
:103BF000CF9008957F0112964D915D916D917C91CA
:103C000015970E9456188C01009729F3F701C1807F
:103C1000D280E780F084FC01848181111EC080E4A1
:103C200084838FEF80838183B601F80180810E94B5
:103C3000860669837A838B839C8389819A81009726
:103C400079F0E114F10449F2B601CE0101960E9427
:103C50003A0BF1E0EF1AF108F0CF803429F3BBCF33
:103C60002FEFE216F20609F4B8CFB601C8010E94A0
:103C7000821BE1E0EE1AF108009791F7AECF1F9298
:103C80000F920FB60F9211242F933F934F935F9390
:103C90006F937F938F939F93AF93BF93EF93FF9314
:103CA0008EE692E00E948D03FF91EF91BF91AF915C
:103CB0009F918F917F916F915F914F913F912F9144
:103CC0000F900FBE0F901F9018951F920F920FB676
:103CD0000F9211242F938F939F93EF93FF93E09173
:103CE0007E02F0917F028081E0918402F091850252
:103CF00082FD1BC09081809187028F5F8F7320911E
:103D00008802821741F0E0918702F0E0E259FD4F0E
:103D1000958F80938702FF91EF919F918F912F91C3
:103D20000F900FBE0F901F9018958081F4CF1F92B7
:103D30000F920FB60F9211242F933F938F939F935F
:103D4000AF93BF938091650290916602A091670244
:103D5000B09168023091640223E0230F2D3758F5AB
:103D60000196A11DB11D209364028093650290937A
:103D70006602A0936702B0936802809169029091F5
:103D80006A02A0916B02B0916C020196A11DB11D57
:103D90008093690290936A02A0936B02B0936C02C5
:103DA000BF91AF919F918F913F912F910F900FBE37
:103DB0000F901F90189526E8230F0296A11DB11DA4
:103DC000D2CF1F920F920FB60F9211242F933F93D1
:103DD0004F935F936F937F938F939F93AF93BF9313
:103DE000CF93DF93EF93FF9380913E02C0913F0208
:103DF000D0E087FF24C0109285001092840080914B
:103E00003E028F5F80933E0280913E02082E000C9E
:103E1000990B8C179D0724F480913E028C30C4F1DD
:103E20008091840090918500049680349C4908F428
:103E30007AC08091840090918500049676C080912C
:103E40003E02082E000C990B8C179D07C4F6E091DA
:103E50003E028E2FEE0F990BFC01EE0FFF1FE80FB5
:103E6000F91FE05CFD4F808186FFC9CFE0913E02E3
:103E70008E2FEE0F990BFC01EE0FFF1FE80FF91FBD
:103E8000E05CFD4F808160E08F730E941C04B7CF1F
:103E90002091840030918500E0913E028E2FEE0F3C
:103EA000990BFC01EE0FFF1FE80FF91FE05CFD4FBF
:103EB00081819281820F931F909389008093880063
:103EC000E0913E028E2FEE0F990BFC01EE0FFF1FCB
:103ED000E80FF91FE05CFD4F808186FF11C0E09183
:103EE0003E028E2FEE0F990BFC01EE0FFF1FE80F25
:103EF000F91FE05CFD4F808161E08F730E941C041C
:103F0000FF91EF91DF91CF91BF91AF919F918F91F1
:103F10007F916F915F914F913F912F910F900FBEC5
:103F20000F901F90189580E49CE9909389008093EE
:103F300088008FEF80933E02E3CFFC0190913F0217
:103F40009C3098F481E0890F80933F029083892F01
:103F500090E0FC01EE0FFF1FE80FF91FE05CFD4F42
:103F600088EB9BE09283818308958FEF808308958F
:103F7000EF92FF920F931F93CF93DF9310927102F2
:103F80001092700288EE93E0A0E0B0E0809372029D
:103F900090937302A0937402B09375028EE291E045
:103FA00090936F0280936E0285EC90E090937B0279
:103FB00080937A0284EC90E090937D0280937C025F
:103FC00080EC90E090937F0280937E0281EC90E001
:103FD000909381028093800282EC90E09093830220
:103FE0008093820286EC90E0909385028093840215
:103FF00010928702109288021092890210928A020F
:1040000088E998E0A0E0B0E0809321039093220338
:10401000A0932303B0932403109225031092260348
:1040200010922703109228031092290310922A035A
:104030008EE692E090931E0380931D0380E091E052
:1040400090932C0380932B0310922D0310922F0337
:1040500010922E0380E393E09093410380934003FA
:104060001092420384E0809343038FEF80934403D4
:104070001092490380934A0386ED91E090934C039C
:1040800080934B0310924D0310924F0310924E03F6
:104090001092510310925003109253031092520346
:1040A00010921C04ECE3F1E065EC7DE98CE191E811
:1040B0002191222359F07B01E226AC01970163E9AB
:1040C00071E080E091E00E94BD2DF2CFE6EDF1E0DD
:1040D0002191222359F07B01E226AC01970163E98B
:1040E00071E080E091E00E94BD2DF2CF60931D044D
:1040F00070931E0480931F04909320048AE193E040
:104100000E949D1F87E193E00E949D1F84E193E040
:104110000E949D1F81E193E00E949D1FCDEDD1E0A3
:10412000D0930C03C0930B038DE193E090930E03A7
:1041300080930D0380914E0390914F039093100351
:1041400080930F038BE093E090934F0380934E0393
:1041500088E090E00E94F32DFC01D183C08382EEC1
:1041600091E0938382838CE296E1958384838091AE
:1041700050039091510397838683F0935103E0930A
:10418000500389E090E00E94F32DFC0181E08483DC
:10419000D183C0838EEE91E09383828380E897E1A0
:1041A00096838583809152039091530390878783F0
:1041B000F0935303E0935203DF91CF911F910F913E
:1041C000FF90EF900895CF93DF93CDB7DEB7CF5B2D
:1041D000D1090FB6F894DEBF0FBECDBF789484B579
:1041E000826084BD84B5816084BD85B5826085BDF3
:1041F00085B5816085BD80916E00816080936E0081
:104200001092810080918100826080938100809172
:104210008100816080938100809180008160809323
:1042200080008091B10084608093B1008091B000E3
:1042300081608093B00080917A00846080937A00DE
:1042400080917A00826080937A0080917A00816008
:1042500080937A0080917A00806880937A0010922F
:10426000C10061E088E00E94680461E08BE00E9488
:10427000680461E08CE00E94680461E08DE00E94C7
:10428000680460E08FE00E94680460E08EE00E94B5
:10429000680461E087E00E9468046AE070E08AE1F7
:1042A00093E00E94100669E070E087E193E00E94CD
:1042B000100665E070E084E193E00E94100666E07D
:1042C00070E081E193E00E94100664EF71E080E00D
:1042D00090E00E94BE0410926D0260E088E00E94AF
:1042E0001C0460E08BE00E941C0460E08CE00E94F3
:1042F0001C0461E08DE00E941C046AE570E08AE124
:1043000093E00E9494056AE570E087E193E00E94E3
:1043100094056AE570E084E193E00E9494056AE503
:1043200070E081E193E00E9494050E94EC070E94F6
:10433000940E82E390E68A5290469C0143E03695C3
:1043400027954A95E1F7C254DF4F39832883CE5B26
:10435000D040AE014D5F5F4FCA54DF4F5983488351
:10436000C65BD0402BE1822E22E0922E80914D033D
:10437000811138C0E0917E02F0917F0282E080835B
:10438000E0917A02F0917B021082E0917C02F09140
:104390007D0280E1808310928602E0918202F0919A
:1043A000830286E08083E0918002F0918102808127
:1043B00080618083E0918002F09181028081886039
:1043C0008083E0918002F091810280818068808307
:1043D000E0918002F091810280818F7D808381E075
:1043E00080934D038091290381116BC080EC0E9462
:1043F000EF00882309F484C081E0809329030E94A0
:10440000F004609325037093260380932703909311
:10441000280380912903882309F472C08EE10E9449
:10442000EF00B82E882309F46BC00E94250D0E946E
:10443000F0046093250370932603809327039093E1
:104440002803E0901D03F0901E0363E671E0CE01A7
:104450008F579F4F0E943715C7010E94FC04CB570E
:10446000DF4F08811981C558D04097FD84C08A303C
:10447000910509F480C089831A820F5F1F4FB8012C
:10448000CE018F579F4F0E94EC11882329F3CF57FD
:10449000DF4F28813981C158D040CB57DF4F888109
:1044A0009981C558D040BE016F5F7F4F820F931F27
:1044B0000E94E72FCB57DF4F19830883C558D040A0
:1044C000CBCF0E94F004AB01BC01809125039091F9
:1044D0002603A0912703B091280300912103109196
:1044E00022032091230330912403800F911FA21FE8
:1044F000B31F481759076A077B0778F01092290302
:1045000080E090E0892B09F431CF0E947903882361
:1045100009F42CCF0E94000025CF80911D039091BB
:104520001E03DC01ED91FC910084F185E02D0995DD
:10453000181619060CF06DCF80911D0390911E0383
:10454000DC01ED91FC910484F585E02D0995803C1A
:10455000910509F05ECF80911D0390911E03DC014F
:10456000ED91FC910284F385E02D0995803C910545
:1045700009F04FCFC3CFCF57DF4FE880F980C15844
:10458000D0400E0D1F1D0E94250D8BE293E09A83F3
:1045900089831C821B821E821D821F82F986E88607
:1045A0001B870A871D869F878E874AE065E473E034
:1045B0008E010F5F1F4FC8010E94A91B7C01892B30
:1045C00051F48C85882339F08091490383FF03C01F
:1045D00093E0E92EF12C8B819C81009731F0E981E9
:1045E000FA81608171810E941B0DF0922003E0929C
:1045F0001F03CE018F579F4F0E94241680911F03E7
:1046000090912003892B09F07BCF8BE2E82E83E089
:10461000F82EFA82E98287EF91E09C838B8383E016
:104620008D838E81807880688E83C8010E94D3112B
:10463000009709F465CF0E9431112B01FB013097DF
:1046400009F45ECF8081882309F45ACF6BEF71E0C3
:10465000C2010E94EE2F892B09F497C20E94120119
:104660000E94250DFA82E98281E991E09C838B8387
:1046700089E08D838E81807880688E836BE473E01F
:10468000C8010E94F4198CE491E0CF57DF4F998361
:104690008883C158D040FA82E9828BE991E09C83FB
:1046A0008B838CE08D838E81807880688E83BE01C1
:1046B0006F577F4FC8010E94D518FA82E98288EAB5
:1046C00091E09C838B8387E08D838E8180788068E6
:1046D0008E83C8010E94BC18DC01CB01EBEFF1E036
:1046E000C854DF4FF983E883C85BD040FBE0C65471
:1046F000DF4FF883CA5BD040C554DF4F2881CB5BC6
:10470000D0402078322F3068C554DF4F3883CB5BE0
:10471000D0409D01C854DF4F488159816A817B8117
:10472000C85BD0400E946C0EFA82E9828BEB91E06C
:104730009C838B838BE08D838E81807880688E83D1
:104740006DE174E0C8010E94A3190E94F310A090CB
:104750005203B09053031701A114B10409F412C21B
:10476000D5011596ED91FC91C80109950E94250D82
:10477000CF57DF4F39822882C158D040E7E0F2E0BE
:10478000CD57DF4FF983E883C358D040B7E0FB2E05
:10479000CB57DF4FF882C558D040CA57DF4F8881CA
:1047A000C658D04080788068CA57DF4F8883C65883
:1047B000D040B5016E5F7F4FCE018F579F4F0E9453
:1047C000F419CF57DF4F39822882C158D0402EECE0
:1047D00031E0CD57DF4F39832883C358D040CB57C2
:1047E000DF4FF882C558D040CA57DF4F8881C6587E
:1047F000D04080788068CA57DF4F8883C658D04041
:10480000B501CE018F579F4F0E94F419D501149620
:10481000EC9185E391E0E33038F4F0E0EE0FFF1F18
:10482000E85EFE4F80819181CA56DF4F998388836D
:10483000C659D040CF57DF4F39822882C158D04067
:10484000EFE0F2E0CD57DF4FF983E883C358D04063
:1048500084E0CB57DF4F8883C558D040CA57DF4F1D
:104860008881C658D04080788068CA57DF4F8883D7
:10487000C658D040BE016A567F4FCE018F579F4F1A
:104880000E94D518E9818BE291E0E33038F4F0E042
:10489000EE0FFF1FEE5EFE4F80819181CA56DF4F03
:1048A00099838883C659D040CF57DF4F39822882F9
:1048B000C158D04084E192E0CD57DF4F998388837F
:1048C000C358D04086E0CB57DF4F8883C558D040CF
:1048D000CA57DF4F8881C658D04080788068CA5751
:1048E000DF4F8883C658D040BE016A567F4FCE0145
:1048F0008F579F4F0E94D5188A81882309F427C1BA
:10490000F12C64E0E62E6C968FAD6C97F81608F0EB
:104910001EC18F2D90E03801FBE0FF9D600C711CE3
:104920001124D30112962C91213009F441C040F09A
:10493000223009F47CC0233009F4B5C0F394E3CFEE
:10494000CE57DF4F39822882C258D040CC57DF4F34
:1049500099828882C458D040CA57DF4FE882C6582F
:10496000D040C957DF4F2881C758D04020782068F1
:10497000C957DF4F2883C758D040C857DF4F9983A6
:104980008883C858D040CE018F579F4F0E94D71DB3
:104990006C01009799F2F30173806BE273E00E945F
:1049A000490DE6E0D6011496EC9314977C92C6CF9D
:1049B000CE57DF4F39822882C258D040CC57DF4FC4
:1049C00099828882C458D040CA57DF4FE882C658BF
:1049D000D040C957DF4F2881C758D0402078206881
:1049E000C957DF4F2883C758D040C857DF4F998336
:1049F0008883C858D040CE018F579F4F0E94D71D43
:104A00006C01009709F49ACFD30113964D905D90F5
:104A10006D907C9016976BE273E00E94490D2CE03C
:104A2000F6012483408251826282738287CFCE57FF
:104A3000DF4F39822882C258D040CC57DF4F99824D
:104A40008882C458D040CA57DF4FE882C658D04049
:104A5000C957DF4F2881C758D04020782068C957F0
:104A6000DF4F2883C758D040C857DF4F99838883CA
:104A7000C858D040CE018F579F4F0E94D71D6C0160
:104A8000009709F45BCF6BE273E00E94490D2CE0C4
:104A9000F601248386E090E0A0E0B0E0808391837B
:104AA000A283B3834BCF9801FBE0FF9E200D311D05
:104AB0001124A901495F5F4F6A01CE57DF4F398248
:104AC0002882C258D040CC57DF4F99828882C45880
:104AD000D040CA57DF4FE882C658D040C957DF4F91
:104AE0002881C758D04020782068C957DF4F2883D5
:104AF000C758D040C857DF4F99838883C858D040E3
:104B0000CE018F579F4F0E94D71DD60114966D91ED
:104B10007C9115977F774C9111965C91272F2F7779
:104B2000C354DF4F3881CD5BD0403078322B3F7794
:104B3000C354DF4F3883CD5BD0402BE233E0C35406
:104B4000DF4F7881CD5BD0400E946C0EF7CE0E9483
:104B5000F310FE01E55AFF4F7F01FBE0EF1AF10869
:104B6000C70105960E942416CA54DF4F2881398157
:104B7000C65BD040E216F30681F7D5011796AD90DB
:104B8000BC90EACD0E942601BBCC60E272E0C2017B
:104B90000E94EE2F892B09F425C10E9412010E9468
:104BA000250DFA82E98281E991E09C838B8389E07B
:104BB0008D838E81807880688E836BE473E0C8017A
:104BC0000E94F4198CE491E0CF57DF4F99838883DA
:104BD000C158D040FA82E9828BE991E09C838B83B3
:104BE0008CE08D838E81807880688E83BE016F57C4
:104BF0007F4FC8010E94D518FA82E98288EA91E0C5
:104C00009C838B8387E08D838E81807880688E8300
:104C100060E272E0C8010E948519FA82E9828BEB9A
:104C200091E09C838B838BE08D838E81807880687C
:104C30008E836DE174E0C8010E94A3190E94F310F5
:104C4000EAE2F0E620E6E233F20708F09BCF7F01CC
:104C5000312C212C5BE2652E53E0752EC254DF4FC0
:104C600048815981CE5BD0404215530509F48ACF63
:104C7000F70185919491F701329645905490F70190
:104C80003496A590B490F7013696C590D4900097CD
:104C900009F4A1C04114510409F49DC0C114D10408
:104CA00009F499C0A0914B03B0914C03109709F4FB
:104CB00092C08A1B9B0BFC01EA0FFB1FE4912D9114
:104CC000E21389C0E111F7CF0E94250DB801C2019E
:104CD0000E94D60ECF57DF4F79826882C158D040EC
:104CE0008BE292E0CD57DF4F99838883C358D04041
:104CF00095E0CB57DF4F9883C558D040CA57DF4F58
:104D00008881C658D04080788068CA57DF4F888332
:104D1000C658D040B801CE018F579F4F0E94C91985
:104D200060E070E0A114B10429F0B801C5010E944F
:104D3000D60EB801CF57DF4F79826882C158D04074
:104D4000A1E3B2E0CD57DF4FB983A883C358D04069
:104D5000B7E0CB57DF4FB883C558D040CA57DF4FB5
:104D60008881C658D04080788068CA57DF4F8883D2
:104D7000C658D040CE018F579F4F0E94C919B80125
:104D8000C6010E94D60ECF57DF4F79826882C15884
:104D9000D040E9E3F2E0CD57DF4FF983E883C35811
:104DA000D040F4E0CB57DF4FF883C558D040CA5706
:104DB000DF4F8881C658D04080788068CA57DF4F5F
:104DC0008883C658D040B801CE018F579F4F0E94AC
:104DD000C9190E94F3102FEF221A320A38E0E30EAD
:104DE000F11C3CCF60EB71E0C2010E94EE2F892BD9
:104DF00099F1FA82E9828EEC91E09C838B8387E0C3
:104E00008D838E81807880688E83B801CE018F5724
:104E10009F4F0E94F715CB57DF4F88819981C55866
:104E2000D040892B69F0CF57DF4F08811981C158D5
:104E3000D0406BE671E0C8010E94DE2F892B51F44F
:104E400090E080E00E94261ACE018F579F4F0E946B
:104E5000241656CBC801F6CFC255DF4FF982E8823F
:104E6000CE5AD040C055DF4F99828882C05BD04077
:104E700084E0CE54DF4F8883C25BD040CD54DF4FF7
:104E80008881C35BD04080788068CD54DF4F8883B1
:104E9000C35BD040CE0182559F4F0E94D3116C015D
:104EA000C8010E944C15C114D10409F46FC1D60188
:104EB00014968C911497803409F068C16BE273E00A
:104EC0008C910E948606CF57DF4F688379838A834F
:104ED0009B83C158D040CB57DF4FF982E882C55839
:104EE000D04086E0FE01EF57FF4FDE01A657BF4FCF
:104EF00001900D928A95E1F7CF57DF4F28813981D4
:104F0000C158D040CD57DF4F8881C358D040C657D5
:104F1000DF4F39832883CA58D040C457DF4F888376
:104F2000CC58D040C257DF4FF982E882CE58D040EB
:104F300086E0FE01E657FF4FDE01A057BF4F01900C
:104F40000D928A95E1F786E0FE01E057FF4FDE0102
:104F5000AA56BF4F01900D928A95E1F72BE0F22EF1
:104F6000EE24E39433E0D32E42E0C42ECA56DF4F42
:104F7000E881F981C659D040309709F407C1C65677
:104F8000DF4F88819981CA59D040C456DF4FF983D9
:104F9000E883CC59D040C256DF4F99838883CE59DD
:104FA000D0409481963039F19A3009F44CC09C304D
:104FB00009F469C09A3031F4408151816281738172
:104FC00077FF71C093FF91C0CE0184569F4F0E941E
:104FD000D90A6A962FAD6A97283048F5F29E90015B
:104FE0001124F801E20FF31FC0826183728383836F
:104FF0009483C9010EC020816A968FAD6A9788306C
:10500000B0F4F89EC0011124F801E80FF91F1082D6
:105010002183059663E671E0800F911F0E942D1594
:105020006A968FAD6A978F5F6A968FAF6A97C656FA
:10503000DF4F68817981CA59D040CE018A569F4F8F
:105040000E943A0B93CF4081518162817381411557
:10505000B0E85B076105710508F0AECF6A968FADC9
:105060006A97883020F7F89EC0011124F801E80FF4
:10507000F91FE082052E000C660B770B41835283EB
:1050800063837483C6CF80819181A281B381AC0197
:10509000BD0150586F4F7F4F41155105614071055B
:1050A000F8F4AC01DBCFE42F352F262F472F6A967B
:1050B0008FAD6A97883008F0BACFF89EC0011124EE
:1050C000D801A80FB91FEC921196EC931197129684
:1050D0003C93129713962C93139714964C9399CF55
:1050E000E82F392F2A2F4B2FE2CF8CEF890F8230F8
:1050F00038F4CF010E943111C8010E94FD1697CFEC
:105100009230B9F363E671E0CE018F579F4F0E9452
:105110003715C456DF4F688179818A819B81CC59CC
:10512000D040AE014F575F4F0E946D156A968FAD0C
:105130006A97883010F5F89EC0011124F801E80F35
:10514000F91FD0820596800F911FCF57DF4F6881DE
:105150007981C158D04061157105A9F0CB57DF4F57
:1051600048815981C558D0400E940C156A968FAD70
:105170006A978F5F6A968FAF6A97CE018F579F4F5E
:105180000E94241654CF0E94FA14F0CF9BE2E92E1D
:1051900093E0F92ECE55DF4FF982E882C25AD04013
:1051A0008EEC91E0CC55DF4F99838883C45AD04070
:1051B00087E0CA55DF4F8883C65AD040C955DF4FB4
:1051C0008881C75AD04080788068C955DF4F88836E
:1051D000C75AD040BE016E557F4FCE0188559F4FB4
:1051E0000E94F715CA56DF4FF982E882C659D040AF
:1051F00087EF91E0C856DF4F99838883C859D04024
:1052000083E0C656DF4F8883CA59D040C556DF4F6A
:105210008881CB59D04080788068C556DF4F88831D
:10522000CB59D040BE016A567F4FCE0184569F4F66
:105230000E94F7150E941201C056DF4F88819981A4
:10524000C05AD040892B09F44DC0C455DF4F888126
:105250009981CC5AD040892B09F465C0C855DF4FDD
:10526000C880D980C85AD0406BE671E0C6010E9460
:10527000DE2F892B09F457C0C456DF4FA880B980B0
:10528000CC59D040E0905003F0905103E114F10468
:1052900009F447C0B601D7018D919C910E94DE2F81
:1052A000892BD9F5B501F701828193810E94DE2F08
:1052B000892B99F5D7011496ED91FC9181E03097F7
:1052C00011F0C8010995C456DF4F68817981CC5926
:1052D000D040482FC855DF4F88819981C85AD040A7
:1052E0000E94F11A0E942601CE0184569F4F0E940F
:1052F0002416CE0188559F4F0E9424167E01B9E5E1
:10530000EB0EF11CEBE0EE1AF108C70105960E94C6
:1053100024160E151F05B1F7F3C8F701E680F780D4
:10532000B5CF85E0D0CF61E08CE00E941C04C4566C
:10533000DF4FC880D980CC59D040E0905003F09026
:105340005103A12CE114F104F9F0B601D701129632
:105350008D919C910E94DE2F892B89F4D7011496A0
:10536000ED91FC9181E0309711F0C8010995482F2B
:10537000B601F701808191810E94F11AAB2CD7010F
:105380001696ED90FC90DECFA110ACCF0E94250DBB
:105390008BE2E82E83E0F82ECF57DF4FF982E882C8
:1053A000C158D04081E991E0CD57DF4F9983888380
:1053B000C358D04089E0CB57DF4F8883C558D040D1
:1053C000CA57DF4F8881C658D04080788068CA5756
:1053D000DF4F8883C658D0406BE473E0CE018F570F
:1053E0009F4F0E94F41983E291E0CC54DF4F9983E0
:1053F0008883C45BD040CF57DF4FF982E882C15821
:10540000D0408BE991E0CD57DF4F99838883C35813
:10541000D0408CE0CB57DF4F8883C558D040CA5767
:10542000DF4F8881C658D04080788068CA57DF4FE8
:105430008883C658D040BE016C547F4FCE018F5731
:105440009F4F0E94D518CF57DF4FF982E882C1588D
:10545000D04088EA91E0CD57DF4F99838883C358C5
:10546000D04087E0CB57DF4F8883C558D040CA571C
:10547000DF4F8881C658D04080788068CA57DF4F98
:105480008883C658D040CE018F579F4F0E94BC18CA
:10549000DC01CB01C056DF4F68817981C05AD04012
:1054A0007F77C456DF4F4881CC59D040C356DF4F79
:1054B0005881CD59D040272F2F77C454DF4F3881E2
:1054C000CC5BD0403078322B3F77C454DF4F3883E9
:1054D000CC5BD0409D01C454DF4F7881CC5BD04081
:1054E0000E946C0ECF57DF4FF982E882C158D0403E
:1054F0008BEB91E0CD57DF4F99838883C358D04021
:105500008BE0CB57DF4F8883C558D040CA57DF4F59
:105510008881C658D04080788068CA57DF4F88831A
:10552000C658D0406DE174E0CE018F579F4F0E9466
:10553000A3190E94F310D6CECF93DF93C0912B0313
:10554000D0912C0380912E0390912F03009759F056
:10555000FC012081318130932F0320932E03BE0163
:105560000E941B0DEFCF80912B0390912C03DF91B4
:10557000CF910C944401FB01DC0104C08D91059096
:10558000801921F441505040C8F7881B990B0895A9
:10559000FB01DC0102C005900D9241505040D8F74C
:1055A0000895FC0105900020E9F7809590958E0FF5
:1055B0009F1F0895FC010590615070400110D8F7BD
:1055C000809590958E0F9F1F08950E94272B08F4B9
:1055D00081E00895E89409C097FB3EF4909580958A
:1055E000709561957F4F8F4F9F4F9923A9F0F92FA9
:1055F00096E9BB279395F695879577956795B79527
:10560000F111F8CFFAF4BB0F11F460FF1BC06F5F0C
:105610007F4F8F4F9F4F16C0882311F096E911C01E
:10562000772321F09EE8872F762F05C0662371F03F
:1056300096E8862F70E060E02AF09A95660F771F53
:10564000881FDAF7880F9695879597F90895990F2F
:105650000008550FAA0BE0E8FEEF16161706E8073C
:10566000F907C0F012161306E407F50798F0621B5D
:10567000730B840B950B39F40A2661F0232B242B32
:10568000252B21F408950A2609F4A140A6958FEF51
:10569000811D811D08950E945E2B0C94CF2B0E94CA
:1056A000C12B38F00E94C82B20F0952311F00C94E8
:1056B000B82B0C94BE2B11240C94032C0E94E02BCD
:1056C00070F3959FC1F3950F50E0551F629FF00155
:1056D000729FBB27F00DB11D639FAA27F00DB11D6E
:1056E000AA1F649F6627B00DA11D661F829F2227F7
:1056F000B00DA11D621F739FB00DA11D621F839F7E
:10570000A00D611D221F749F3327A00D611D231F53
:10571000849F600D211D822F762F6A2F11249F57A1
:1057200050409AF0F1F088234AF0EE0FFF1FBB1FA4
:10573000661F771F881F91505040A9F79E3F510563
:1057400080F00C94B82B0C94032C5F3FE4F3983E4C
:10575000D4F3869577956795B795F795E7959F5F0D
:10576000C1F7FE2B880F911D9695879597F908959F
:1057700097F99F6780E870E060E008959FEF80EC04
:10578000089500240A9416161706180609060895A7
:1057900000240A9412161306140605060895092E0D
:1057A0000394000C11F4882352F0BB0F40F4BF2B7C
:1057B00011F460FF04C06F5F7F4F8F4F9F4F0895BC
:1057C00057FD9058440F551F59F05F3F71F04795B2
:1057D000880F97FB991F61F09F3F79F08795089597
:1057E000121613061406551FF2CF4695F1DF08C0B6
:1057F000161617061806991FF1CF869571056105D3
:1058000008940895E894BB2766277727CB0197F97A
:105810000895052E97FB1EF400940E94202C57FD3E
:1058200007D00E94722C07FC03D04EF40C94202C5D
:1058300050954095309521953F4F4F4F5F4F0895BC
:1058400090958095709561957F4F8F4F9F4F0895EC
:105850000E94942CA59F900DB49F900DA49F800D45
:10586000911D11240895B7FF0C94282C0E94282C18
:10587000821B930B08952F923F924F925F926F92EB
:105880007F928F929F92AF92BF92CF92DF92EF92D0
:10589000FF920F931F93CF93DF93CDB7DEB7CA1B51
:1058A000DB0B0FB6F894DEBF0FBECDBF09942A887C
:1058B000398848885F846E847D848C849B84AA8424
:1058C000B984C884DF80EE80FD800C811B81AA81B1
:1058D000B981CE0FD11D0FB6F894DEBF0FBECDBF7C
:1058E000ED010895A1E21A2EAA1BBB1BFD010DC0FC
:1058F000AA1FBB1FEE1FFF1FA217B307E407F50780
:1059000020F0A21BB30BE40BF50B661F771F881F5B
:10591000991F1A9469F760957095809590959B01F1
:10592000AC01BD01CF010895A29FB001B39FC0019A
:10593000A39F700D811D1124911DB29F700D811DBB
:105940001124911D08955058BB27AA270E94BB2CF3
:105950000C94CF2B0E94C12B38F00E94C82B20F052
:1059600039F49F3F19F426F40C94BE2B0EF4E09505
:10597000E7FB0C94B82BE92F0E94E02B58F3BA17E1
:10598000620773078407950720F079F4A6F50C9455
:10599000022C0EF4E0950B2EBA2FA02D0B01B901AD
:1059A00090010C01CA01A0011124FF27591B99F095
:1059B000593F50F4503E68F11A16F040A22F232FA1
:1059C000342F4427585FF3CF469537952795A795F1
:1059D000F0405395C9F77EF41F16BA0B620B730B98
:1059E000840BBAF09150A1F0FF0FBB1F661F771F09
:1059F000881FC2F70EC0BA0F621F731F841F48F4BE
:105A0000879577956795B795F7959E3F08F0B0CF46
:105A10009395880F08F09927EE0F9795879508952D
:105A20000E94242D0C94CF2B0E94C82B58F00E946A
:105A3000C12B40F029F45F3F29F00C94B82B511191
:105A40000C94032C0C94BE2B0E94E02B68F399233A
:105A5000B1F3552391F3951B550BBB27AA2762176A
:105A60007307840738F09F5F5F4F220F331F441F77
:105A7000AA1FA9F335D00E2E3AF0E0E832D09150AB
:105A80005040E695001CCAF72BD0FE2F29D0660F98
:105A9000771F881FBB1F261737074807AB07B0E8DB
:105AA00009F0BB0B802DBF01FF2793585F4F3AF0E1
:105AB0009E3F510578F00C94B82B0C94032C5F3F5B
:105AC000E4F3983ED4F3869577956795B795F79567
:105AD0009F5FC9F7880F911D9695879597F908954F
