:100000000C9463000C948B000C948B000C948B006C
:100010000C948B000C948B000C948B000C948B0034
:100020000C948B000C948B000C948B000C948B0024
:100030000C948B000C948B000C948B000C948B0014
:100040000C9453040C948B000C9421040C94FB032B
:100050000C948B000C948B000C948B000C948B00F4
:100060000C948B000C948B000000000024002700EF
:100070002A000000000023002600290000000000E4
:10008000250028002B0004040404040404040202D4
:100090000202020203030303030301020408102007
:1000A0004080010204081020010204081020000012
:1000B0000008000201000003040700000000000027
:1000C00000009D04070611241FBECFEFD8E0DEBF5D
:1000D000CDBF22E0A6E3B1E001C01D92A430B2077B
:1000E000E1F711E0A0E0B1E0E4E6F1E102C0059043
:1000F0000D92A633B107D9F710E0C2E6D0E004C0F4
:100100002197FE010E94AD06C136D107C9F70E94B2
:10011000ED040C94A5080C940000AF92BF92CF920E
:10012000DF92EF92FF920F931F93CF93DF936C01B7
:100130007B018B01040F151FEB015E01AE18BF0898
:10014000C017D10759F06991D601ED91FC9101904A
:10015000F081E02DC6010995892B79F7C501DF9162
:10016000CF911F910F91FF90EF90DF90CF90BF90B4
:10017000AF900895FC0144815581608171818FE3C6
:1001800091E00C948D00FC01538D448D252F30E0BF
:10019000842F90E0821B930B541710F0CF96089594
:1001A00001970895FC01918D828D981761F0A28DC1
:1001B000AE0FBF2FB11D5D968C91928D9F5F9F7387
:1001C000928F90E008958FEF9FEF0895FC01918D3D
:1001D000828D981731F0828DE80FF11D858D90E0AA
:1001E00008958FEF9FEF0895FC01918D228D892F47
:1001F00090E0805C9F4F821B91098F73992708952F
:100200008FE391E00E94F40021E0892B09F420E0C3
:10021000822F089580E090E0892B29F00E94000150
:1002200081110C9400000895FC01A48DA80FB92F32
:10023000B11DA35ABF4F2C91848D90E001968F730E
:100240009927848FA689B7892C93A089B1898C912D
:10025000837080648C93938D848D981306C002887C
:10026000F389E02D80818F7D80830895EF92FF9246
:100270000F931F93CF93DF93EC0181E0888F9B8DC9
:100280008C8D98131AC0E889F989808185FF15C083
:100290009FB7F894EE89FF896083E889F9898081A6
:1002A0008370806480839FBF81E090E0DF91CF9175
:1002B0001F910F91FF90EF900895F62E0B8D10E097
:1002C0000F5F1F4F0F731127E02E8C8D8E110CC006
:1002D0000FB607FCFACFE889F989808185FFF5CF51
:1002E000CE010E941401F1CFEB8DEC0FFD2FF11D1B
:1002F000E35AFF4FF0829FB7F8940B8FEA89FB898E
:1003000080818062CFCFCF93DF93EC01888D8823EB
:10031000B9F0AA89BB89E889F9898C9185FD03C068
:10032000808186FD0DC00FB607FCF7CF8C9185FF4D
:10033000F2CF808185FFEDCFCE010E941401E9CF7D
:10034000DF91CF910895833081F028F4813099F0C6
:100350008230A9F008958730A9F08830C9F0843040
:10036000B1F4809180008F7D03C0809180008F77F1
:1003700080938000089584B58F7784BD089584B5F7
:100380008F7DFBCF8091B0008F778093B000089570
:100390008091B0008F7DF9CF1F93CF93DF93EBEB6C
:1003A000F0E09491E7EAF0E0D491E3E9F0E0C49161
:1003B000CC23B9F0182F992319F0892F0E94A3019B
:1003C000EC2FF0E0EE0FFF1FE458FF4FA591B49122
:1003D0008FB7F894EC91111108C0D095DE23DC930F
:1003E0008FBFDF91CF911F910895DE2BF8CF3FB7DC
:1003F000F89480913B0190913C01A0913D01B09116
:100400003E0126B5A89B05C02F3F19F00196A11DFE
:10041000B11D3FBFBA2FA92F982F8827BC01CD014E
:10042000620F711D811D911D42E0660F771F881FAD
:10043000991F4A95D1F70895FC0180819181009719
:1004400011F00C944F0708950F931F93CF93DF93F0
:10045000EC0188819981009759F02A813B81261708
:10046000370730F081E0DF91CF911F910F91089510
:100470008B016F5F7F4F0E94D807009759F09983D7
:1004800088831B830A832C813D81232B59F7FC0130
:100490001082E8CF80E0E7CFEF92FF920F931F9397
:1004A000CF93DF93EC017B01198218821B821A82A1
:1004B0001D821C82FB0101900020E9F731978F011A
:1004C000061B170BB8010E94240228813981811173
:1004D00013C02115310519F0C9010E944F07198277
:1004E00018821D821C821B821A82DF91CF911F917C
:1004F0000F91FF90EF9008951D830C83B701C90100
:10050000DF91CF911F910F91FF90EF900C949E0877
:10051000EF92FF920F931F93CF93DF93EC017B0138
:10052000FB0101900020E9F731978F01061B170BA3
:10053000B8010E94240228813981811113C021153C
:10054000310519F0C9010E944F07198218821D82D6
:100550001C821B821A82DF91CF911F910F91FF9015
:10056000EF9008951D830C83B701C901DF91CF91EE
:100570001F910F91FF90EF900C949E08CF92DF9205
:10058000EF92FF920F931F93CF93DF93CDB7DEB718
:10059000A1970FB6F894DEBF0FBECDBF88EE91E0F5
:1005A0000E94BA002091E6013091E7012E5F3F4F93
:1005B00050E040E019A28E010F5D1F4F8AE0C82E67
:1005C000D12CE12CF12CCA01B901A70196010E949E
:1005D0008B06605DF80162938F012115310541059D
:1005E000510589F7309761F001900020E9F73197C4
:1005F000AF01401B510BB8018FE391E00E948D00C9
:100600008EEE91E00E94BA006BE78FE391E00E94CA
:10061000360182EE91E00E94BA006DE78FE391E02F
:100620000E94360184EF91E00E94BA0042E050E05F
:1006300068E171E08FE391E00E948D006AE171E072
:1006400082EE91E00E948802A1960FB6F894DEBF78
:100650000FBECDBFDF91CF911F910F91FF90EF9013
:10066000DF90CF900895EF92FF920F931F93CF9357
:10067000DF936115710541F480E0DF91CF911F9107
:100680000F91FF90EF90089541155105B1F07B0156
:10069000EC010C811D81040F151FB8010E9424027A
:1006A000882351F3288139818C819D81B701820F84
:1006B000931F0E949E081D830C8381E0DECFCF93A1
:1006C000DF93CDB7DEB768970FB6F894DEBF0FBEE5
:1006D000CDBF1C8A1B8A1E8A1D8A188E1F8A4AE07B
:1006E000BE016F5F7F4F0E941F06BE016F5F7F4F8D
:1006F000CE0143960E9488024F89588D6B897C8970
:100700008CED91E00E943303CE0143960E941C02BF
:100710008CE289831A8241E050E0BE016F5F7F4F17
:100720008CED91E00E94330368960FB6F894DEBF1B
:100730000FBECDBFDF91CF9108952091E0013091A0
:10074000E101C90101978217930740F4E091DC01B0
:10075000F091DD01E80FF91F8DE580834091E00104
:100760005091E1016091DC017091DD0182EE91E038
:100770000E9433036AE171E08CED91E00C948802F1
:10078000FB0101900020E9F73197AF01461B570BA1
:100790000C943303CF93DF93EC018091E6019091A9
:1007A000E701892B31F06BE171E082EE91E00E946C
:1007B000C0036AE171E08CED91E00E9488026DE176
:1007C00071E08CED91E00E94C0034C815D816881F5
:1007D00079818CED91E00E9433036DE171E08CED45
:1007E00091E00E94C0036FE171E08CED91E0DF9138
:1007F000CF910C94C0031F920F920FB60F92112449
:100800002F933F934F935F936F937F938F939F9318
:10081000AF93BF93EF93FF938FE391E00E94140196
:10082000FF91EF91BF91AF919F918F917F916F91C8
:100830005F914F913F912F910F900FBE0F901F909E
:1008400018951F920F920FB60F9211242F938F932A
:100850009F93EF93FF93E0914F01F09150018081BE
:10086000E0915501F091560182FD1BC0908180916D
:1008700058018F5F8F7320915901821741F0E091E9
:100880005801F0E0E15CFE4F958F80935801FF9195
:10089000EF919F918F912F910F900FBE0F901F900E
:1008A00018958081F4CF1F920F920FB60F921124EA
:1008B0002F933F938F939F93AF93BF938091370173
:1008C00090913801A0913901B0913A0130913601EF
:1008D00023E0230F2D3758F50196A11DB11D20935C
:1008E00036018093370190933801A0933901B0937A
:1008F0003A0180913B0190913C01A0913D01B09162
:100900003E010196A11DB11D80933B0190933C01D6
:10091000A0933D01B0933E01BF91AF919F918F9104
:100920003F912F910F900FBE0F901F90189526E8C2
:10093000230F0296A11DB11DD2CFEFE3F1E0138288
:10094000128288EE93E0A0E0B0E084839583A683D2
:10095000B7838AE091E09183808385EC90E095876E
:10096000848784EC90E09787868780EC90E0918B79
:10097000808B81EC90E0938B828B82EC90E0958B66
:10098000848B86EC90E0978B868B118E128E138E63
:10099000148E6AE171E08CED91E00E944C026AE1F4
:1009A00071E082EE91E00E944C0262E271E088EE1A
:1009B00091E00E944C0265E271E08EEE91E00E94AF
:1009C0004C0268E271E084EF91E00E944C026AE11F
:1009D00071E08AEF91E00C944C02CF93DF9300D04A
:1009E00000D000D0CDB7DEB7789484B5826084BDE6
:1009F00084B5816084BD85B5826085BD85B5816023
:100A000085BD80916E00816080936E0010928100A0
:100A1000809181008260809381008091810081605B
:100A2000809381008091800081608093800080911C
:100A3000B10084608093B1008091B00081608093A8
:100A4000B00080917A00846080937A0080917A006F
:100A5000826080937A0080917A00816080937A002E
:100A600080917A00806880937A001092C10007EA32
:100A700010E0F801249153E9E52E50E0F52EF7013E
:100A80008491882399F090E0880F991FFC01E85920
:100A9000FF4FA591B491FC01E458FF4F85919491CB
:100AA0008FB7F8949C91292B2C938FBFE0914F0125
:100AB000F091500182E08083E0914B01F0914C0174
:100AC0001082E0914D01F0914E018FEC80831092E5
:100AD0005701E0915301F091540186E08083E09149
:100AE0005101F0915201808180618083E091510138
:100AF000F0915201808188608083E0915101F091F2
:100B00005201808180688083E0915101F09152010F
:100B100080818F7D80832BEB222E20E0322E30E0EF
:100B2000C32E30E0D32E0E94F7012B013C0194EF3D
:100B3000892E99249394A12CB12C0E94F701641959
:100B4000750986099709683E734081059105A8F3E8
:100B5000F1E08F1A9108A108B10828EE420E23E0B7
:100B6000521E611C711C81149104A104B10429F767
:100B7000F1018491F801B490F701A490AA2099F1B1
:100B800081110E94A301EA2DF0E0EE0FFF1FEE5845
:100B9000FF4FA591B4918C91B82229F180E00E9479
:100BA000CC016BE271E0CE0101960E944C02CE01B5
:100BB00001960E94CA03CE0101960E941C0290E099
:100BC00080E00E945F030E949D030E94BE02C11448
:100BD000D10409F4A8CF0E940001882309F4A3CF0F
:100BE0000E940000A0CF81E00E94CC016BE271E086
:100BF000CE0101960E944C02CE0101960E94CA03CA
:100C0000CE0101960E941C0281E090E0DACF8AEFCB
:100C100091E00E941C0284EF91E00E941C028EEE83
:100C200091E00E941C0288EE91E00E941C0282EE7C
:100C300091E00E941C028CED91E00C941C02BB27F9
:100C40004A3031F4992322F4BDE2909581959F4F6B
:100C50000C942B06BB27FB015527AA27880F991F49
:100C6000AA1FA41710F0A41B83955051B9F7A05DDB
:100C7000AA3308F0A95DA193009779F7B111B19358
:100C80001192CB010C944406DC01FC01672F719199
:100C90007723E1F7329704C07C916D937083629162
:100CA000AE17BF07C8F308952F923F924F925F92FD
:100CB0006F927F928F929F92AF92BF92CF92DF926C
:100CC000EF92FF920F931F93CF93DF93CDB7DEB7D1
:100CD000CA1BDB0B0FB6F894DEBF0FBECDBF099465
:100CE0002A88398848885F846E847D848C849B84BC
:100CF000AA84B984C884DF80EE80FD800C811B81CA
:100D0000AA81B981CE0FD11D0FB6F894DEBF0FBEF8
:100D1000CDBFED010895A1E21A2EAA1BBB1BFD0158
:100D20000DC0AA1FBB1FEE1FFF1FA217B307E407CA
:100D3000F50720F0A21BB30BE40BF50B661F771F22
:100D4000881F991F1A9469F7609570958095909502
:100D50009B01AC01BD01CF010895EE0FFF1F05906F
:100D6000F491E02D09940F931F93CF93DF9382307A
:100D7000910510F482E090E0E0910202F09103020C
:100D800030E020E0B0E0A0E0309799F42115310583
:100D900009F44AC0281B390B24303105D8F58A8163
:100DA0009B816115710589F1FB0193838283FE01AB
:100DB00011C0408151810281138148175907E0F029
:100DC0004817590799F4109761F012960C931297EF
:100DD00013961C933296CF01DF91CF911F910F9103
:100DE00008950093020210930302F4CF21153105F8
:100DF00051F04217530738F0A901DB019A01BD01F8
:100E0000DF01F801C1CFEF01F9CF90930302809386
:100E10000202CDCFFE01E20FF31F81939193225086
:100E2000310939832883D7CF209100023091010204
:100E3000232B41F4209102013091030130930102F0
:100E4000209300022091000130910101211531050C
:100E500041F42DB73EB74091040150910501241B88
:100E6000350BE0910002F0910102E217F307A0F4C4
:100E70002E1B3F0B2817390778F0AC014E5F5F4FF0
:100E80002417350748F04E0F5F1F5093010240931F
:100E90000002819391939FCFF0E0E0E09CCFCF934D
:100EA000DF930097E9F0FC01329713821282A09140
:100EB0000202B0910302ED0130E020E01097A1F4AE
:100EC00020813181820F931F209100023091010215
:100ED0002817390709F061C0F0930102E09300027E
:100EE000DF91CF910895EA01CE17DF07E8F54A8137
:100EF0005B819E0141155105B1F7E901FB83EA834E
:100F000049915991C40FD51FEC17FD0761F48081F9
:100F100091810296840F951FE901998388838281CC
:100F200093819B838A83F0E0E0E012968D919C91FF
:100F300013970097B9F52D913C911197CD01029629
:100F4000820F931F20910002309101022817390768
:100F500039F6309751F51092030210920202B093C5
:100F60000102A0930002BCCFD383C2834081518190
:100F7000840F951FC817D90761F44E5F5F4F8881B2
:100F80009981480F591F518340838A819B819383A4
:100F900082832115310509F0B0CFF0930302E0936D
:100FA00002029ECFFD01DC01C0CF13821282D7CF97
:100FB000B0E0A0E0EEEDF7E00C9456068C0100974F
:100FC00051F4CB010E94B3068C01C801CDB7DEB746
:100FD000E0E10C947206FC01E60FF71F9C01225021
:100FE0003109E217F30708F49DC0D901CD91DC91D6
:100FF0001197C617D70798F0C530D10530F3CE0149
:1010000004978617970708F3C61BD70B2297C1933F
:10101000D1936D937C93CF010E944F07D6CF5B0194
:10102000AC1ABD0A4C018C0E9D1EA0910202B0911B
:101030000302512C412CF12CE12C109731F58091B9
:101040000002909101028815990509F05CC04616CE
:10105000570608F058C08091000190910101009757
:1010600041F48DB79EB74091040150910501841B56
:10107000950BE817F90708F055C0F0930102E093CB
:101080000002F90171836083A0CF8D919C9111972B
:1010900012966C90129713967C901397A815B90529
:1010A00059F56C0142E0C40ED11CCA14DB0420F1D6
:1010B000AC014A195B09DA011296159780F0628239
:1010C000738251834083D9016D937C93E114F104C1
:1010D00071F0D7011396FC93EE93129776CF229678
:1010E0008C0F9D1FF90191838083F301EFCFF09363
:1010F0000302E093020269CF4816590608F42C0156
:101100007D01D3019ACFCB010E94B3067C010097E9
:1011100049F0AE01B8010E949508C8010E944F072E
:10112000870153CF10E000E050CFFB01DC0102C08B
:1011300001900D9241505040D8F70895FB01DC0119
:1011400001900D920020E1F7089510E0C2E6D0E092
:1011500004C0FE010E94AD062196C336D107C9F72F
:04116000F894FFCF31
:101164000000040280000000000036018D00C3006E
:101174008301F400D200E6000D0A002C0022003A9C
:101184005B003D3D003A3A002D2D006C6F636F6D9E
:061194006F74696F6E002C
:00000001FF
