:100000000C94CA000C94F2000C94F2000C94F200D0
:100010000C94F2000C94F2000C94F2000C94F20098
:100020000C94F2000C94F2000C94F2000C94E01C7E
:100030000C94F2000C94F2000C94F2000C94F20078
:100040000C94961C0C94F2000C94641C0C943E1CB2
:100050000C94F2000C94F2000C94F2000C94F20058
:100060000C94F2000C94F200756E6368616E676523
:100070006400756E617661696C61626C65007065C3
:10008000726365707465640065787465726F63652A
:100090007074696F6E0070726F7072696F636570F3
:1000A00074696F6E00696E7465726F6365707469F0
:1000B0006F6E00696E76616C69640072656A656373
:1000C00074656400616C726561647900756E61626B
:1000D0006C650000000000230026002900000000DD
:1000E00008000201000003040700000000000000F7
:1000F00000756E6B6E6F776E0070657263657074FD
:1001000065640070726F7072696F63657074696F97
:100110006E00756E6B6E6F776E00657865637574D3
:10012000656400CDCCCC3D0AD7233C17B7D13877D6
:10013000CC2B329595E6241FB14F0A0000204100D8
:1001400000C84200401C4620BCBE4CCA1B0E5AAE22
:10015000C59D7400000000250028002B0000000051
:1001600000240027002A00040404040404040402F8
:100170000202020202030303030303010204081044
:100180002040800102040810200102040810200011
:100190009C1D642911241FBECFEFD8E0DEBFCDBF68
:1001A00012E0A0E0B1E0E2EBFDE502C005900D92A7
:1001B000A635B107D9F723E0A6E5B2E001C01D924C
:1001C000A138B207E1F710E0C9ECD0E004C02197F4
:1001D000FE010E94AE2CC83CD107C9F70E94381F0F
:1001E0000C94C92E0C9400008F929F92AF92BF92F4
:1001F000FF920F931F93CF93DF93F0902B032BE08D
:100200002F1508F451C020912D0308E512E0021BC0
:10021000110927FD1395000F111F000F111F2091C9
:100220002C03C8E8D0E0C21BD10927FDD395CC0F21
:10023000DD1FCC0FDD1F4E010D2E000CAA08BB08E0
:10024000DC01853B910514F0A4EBB0E09801012E90
:10025000000C440B550B281939094A095B090E9407
:10026000FB2A24EB30E040E050E00E94D12A820ECD
:10027000931EA41EB51E8C169D062CF0E801801658
:1002800091060CF4E4012297CC0FDD1F2FB7F894F0
:100290008F2D90E0FC01EE0FFF1FE80FF91FE759CB
:1002A000FD4FD283C1832FBFDF91CF911F910F915B
:1002B000FF90BF90AF909F908F900895CF93C82FDD
:1002C00080913C0390913D03DC01ED91FC91008411
:1002D000F185E02D0995181619067CF480913C03F0
:1002E00090913D03DC01ED91FC910284F385E02DBA
:1002F000099521E0C817190609F020E0822FCF9157
:1003000008958091490381110FC080913C03909121
:100310003D03DC01ED91FC910190F081E02D60EC5A
:10032000099581E0809349030895809149038823CA
:10033000C9F080913C0390913D03DC01ED91FC916B
:100340000190F081E02D60EC099580913C03909143
:100350003D03DC01ED91FC910680F781E02D0995CC
:1003600010924903089590E0FC01E558FE4F249156
:1003700089599E4FFC018491882399F090E0880F61
:10038000991FFC01E35AFE4FA591B491FC01ED5A6F
:10039000FE4F859194918FB7F894EC91E22BEC93FA
:1003A0008FBF0895FF920F931F93CF93DF938C011C
:1003B000F12C60915F037091600380916103F816E6
:1003C000C8F484E0F89EE0011124C60FD71F6A81AB
:1003D0007B816115710541F0D801ED91FC9102809E
:1003E000F381E02DC80109951B821A8218821982B7
:1003F000F394DFCF109261038FEF80936303B3E038
:100400006F347B0789F0D801ED91FC910280F38174
:10041000E02DC80109958FE493E0909360038093E9
:100420005F0384E080936203DF91CF911F910F916E
:10043000FF9008952F923F924F925F926F927F921A
:100440008F929F92AF92BF92CF92DF92EF92FF92E4
:100450000F931F93CF93DF9300D000D000D01F9253
:10046000CDB7DEB79A8389834A015B0120E836E97C
:1004700048E15BE4CB01B4010E94792C87FD89C07F
:1004800004E110E080E290E09C838B83312C212CEE
:10049000F801E55CFE4F2591359145915491C501D8
:1004A000B4010E94792C87FD11C0F801ED5DFE4F6B
:1004B0002591359145915491C501B4010E94132AAB
:1004C0004B015C01AB81BC812A0E3B1EEB81FC81A0
:1004D000F595E795FC83EB83045011090C3FFFEF82
:1004E0001F07B1F677247A9420E030E0A901C50116
:1004F000B4010E94792C18160CF054C02CEA35EC8B
:1005000047E257E3C501B4010E94AD2918160CF467
:1005100049C0972DA4E09A0280011124F12CE12C0E
:10052000F801ED5DFE4F6F01055C1E4FFFEF7F167A
:1005300009F438C0F601EE0DFF1D659175918591A6
:10054000949120E030E040E251E40E94132AA5019A
:1005500094010E94792C18168CF4F801EE0DFF1D01
:100560002591359145915491C501B4010E94132AFA
:100570004B015C018B819C81281A390AAB81BC81BB
:10058000B595A795BC83AB837A94B4E0EB1AF108D8
:10059000CDCF80E290E09C838B8335E0732E312CAD
:1005A000212CA2CFC501B4010E944A2C6B017C0111
:1005B0002B013C0180E492E4AFE0B0E08B839C83AC
:1005C000AD83BE8396E09F83AAE04A16510461047E
:1005D0007104E0F06B817C818D819E812AE030E0A6
:1005E00040E050E00E943A2B2B833C834D835E8396
:1005F000BF81B150BF83C301B2012AE030E040E0C7
:1006000050E00E943A2B29013A01DECFC701B60122
:100610000E94B2299B01AC01C501B4010E946B2B61
:100620004B015C016B817C818D819E810E94B2298E
:100630009B01AC01C501B4010E94132A2B013C01AE
:100640000E944A2C4B015C010E94B2299B01AC0123
:10065000C301B2010E946B2B9B01AC010E946C2B69
:100660000E944A2C860E971EA81EB91E8B819C8163
:10067000AD81BE8188169906AA06BB06C0F09FEF21
:10068000C91AD90AE90AF90A2114310439F1AAE090
:10069000CA16D104E104F10408F1BFEF2B1A3B0A9A
:1006A000812C912C5401C12CD12C7601C3948AE069
:1006B000482E512C612C712CC501B401A30192016B
:1006C0000E943A2B672B682B692B61F4EF811E1671
:1006D0004CF449015A01E150EF83EECF812C912C6B
:1006E0005401E5CFA981BA81CD92DD92ED92FC92C1
:1006F0001397FD0184829582A682B7823186208677
:100700008F818287CD0127960FB6F894DEBF0FBE8A
:10071000CDBFDF91CF911F910F91FF90EF90DF90B0
:10072000CF90BF90AF909F908F907F906F905F9091
:100730004F903F902F9008950895AF92BF92CF921F
:10074000DF92EF92FF920F931F93CF93DF936C0191
:100750007B018B01040F151FEB015E01AE18BF0872
:10076000C017D10759F06991D601ED91FC91019024
:10077000F081E02DC6010995892B79F7C501DF913C
:10078000CF911F910F91FF90EF90DF90CF90BF908E
:10079000AF900895FC01538D448D252F30E0842FB8
:1007A00090E0821B930B541710F0CF960895019799
:1007B0000895FC01918D828D981761F0A28DAE0F86
:1007C000BF2FB11D5D968C91928D9F5F9F73928F0D
:1007D00090E008958FEF9FEF0895FC01918D828D39
:1007E000981731F0828DE80FF11D858D90E0089506
:1007F0008FEF9FEF0895FC01918D228D892F90E05E
:10080000805C9F4F821B91098F73992708958EE812
:1008100092E00E94FB0321E0892B09F420E0822F63
:10082000089580E090E0892B29F00E94070481114F
:100830000C9400000895FC01A48DA80FB92FB11DE0
:10084000A35ABF4F2C91848D90E001968F73992706
:10085000848FA689B7892C93A089B1898C918370E4
:1008600080648C93938D848D981306C00288F389DD
:10087000E02D80818F7D80830895EF92FF920F930A
:100880001F93CF93DF93EC0181E0888F9B8D8C8D3C
:1008900098131AC0E889F989808185FF15C09FB730
:1008A000F894EE89FF896083E889F98980818370F3
:1008B000806480839FBF81E090E0DF91CF911F91A2
:1008C0000F91FF90EF900895F62E0B8D10E00F5FC3
:1008D0001F4F0F731127E02E8C8D8E110CC00FB699
:1008E00007FCFACFE889F989808185FFF5CFCE0131
:1008F0000E941B04F1CFEB8DEC0FFD2FF11DE35A8D
:10090000FF4FF0829FB7F8940B8FEA89FB898081B3
:100910008062CFCFCF93DF93EC01888D8823B9F02D
:10092000AA89BB89E889F9898C9185FD03C08081FA
:1009300086FD0DC00FB607FCF7CF8C9185FFF2CF77
:10094000808185FFEDCFCE010E941B04E9CFDF91AE
:10095000CF910895833081F028F4813099F082306E
:10096000A9F008958730A9F08830C9F08430B1F437
:10097000809180008F7D03C0809180008F7780936D
:100980008000089584B58F7784BD089584B58F7DE8
:10099000FBCF8091B0008F778093B0000895809155
:1009A000B0008F7DF9CFCF93DF93282F30E0F9018E
:1009B000E352FF4F8491F901E558FE4FD491F901BC
:1009C000E959FE4FC491CC23A1F081110E94AA04E1
:1009D000EC2FF0E0EE0FFF1FED52FF4FA591B49109
:1009E000EC91ED2381E090E009F480E0DF91CF917C
:1009F000089580E090E0FACF1F93CF93DF93282FE4
:100A000030E0F901E352FF4F8491F901E558FE4FC0
:100A1000D491F901E959FE4FC491CC23A9F0162FC6
:100A200081110E94AA04EC2FF0E0EE0FFF1FED5A97
:100A3000FE4FA591B4918FB7F894EC91111108C0B5
:100A4000D095DE23DC938FBFDF91CF911F91089566
:100A5000DE2BF8CF2FB7F894609165027091660293
:100A600080916702909168022FBF08950F931F93A2
:100A7000CF93DF93EC010E942A05688779878A87E4
:100A80009B87E881F9810284F385E02DCE010995E9
:100A900097FF15C00E942A05088519852A853B8580
:100AA000601B710B820B930B0C811D812E813F818A
:100AB000601771078207930720F38FEF9FEFDF9195
:100AC000CF911F910F9108956F3FA9F0E62FE29506
:100AD000EF7044E0E49F90011124DC01ED91FC9162
:100AE000E20FF31F6F7082819381B6E06B9F800DE0
:100AF000911D1124089590E080E00895CF93C82FB0
:100B0000CB016C2F45960E9464052FEF009711F0E2
:100B1000FC012581BC018C2F922FCF910895982F35
:100B200080336CF08A3324F08F3524F08B3724F433
:100B300081E0089581341CF081E09B350CF080E069
:100B40000895CF93DF93EC0188819981DC01ED91C9
:100B5000FC910190F081E02D09952A813B81820F63
:100B6000931F9B838A83DF91CF910895CF93DF9367
:100B7000EC0188819981DC01ED91FC910280F38187
:100B8000E02D09952A813B81820F931F9B838A83E5
:100B9000DF91CF9108958F929F92AF92BF92CF92A3
:100BA000DF92EF92FF920F931F93CF93DF93CDB716
:100BB000DEB766970FB6F894DEBF0FBECDBF6C01EF
:100BC0008E01095E1F4F78018AE0882E912CA12C9E
:100BD000B12CCB01BA01A50194010E943A2B942FAC
:100BE000852F605DF80162938F01A901692F782F2D
:100BF000411551056105710561F7A7014E1B5F0B9A
:100C0000BF01C6010E94B60566960FB6F894DEBF16
:100C10000FBECDBFDF91CF911F910F91FF90EF904D
:100C2000DF90CF90BF90AF909F908F900895FC0180
:100C30008485811114C0A781B085818592852FEFAD
:100C40003FEFA817B90730F4CD010196908787834D
:100C50002C9130E037FD20E0238781E08487838575
:100C600008951F93CF93DF93EC01162F0E94170670
:100C7000811306C01C8681E0DF91CF911F910895FA
:100C800080E0FACF0F931F93CF93DF938C01EB019A
:100C90008991882369F0C8010E941706882379F09A
:100CA000FE013197908198130DC0F8011486F0CFA2
:100CB00090E080E0DF91CF911F910F91089582E045
:100CC00090E0F8CF83E090E0F5CFCF93DF93EC0195
:100CD000CE010E9417068B304CF489305CF48823D7
:100CE00059F081E08E8390E080E00BC08D3011F0F0
:100CF0008032B9F71C86ECCF8E81811105C081E06E
:100D000090E0DF91CF91089582E090E0FACFCF9309
:100D1000DF93DB01FC01808191810097E1F0129665
:100D20002C91129713964C911397342F3F77FC0117
:100D300043814217130671F7ED91FC911197EC0175
:100D400024962E0F3F1FE217F30729F05191499186
:100D50005417C9F3DFCFDF91CF910895DC0152968C
:100D60009C915297915084E0989F90011124509645
:100D7000ED91FC91E20FF31F2281338121153105A2
:100D800079F041818081481758F481E0840F818394
:100D900086E0489F200D311D11242115310521F4D5
:100DA00060E070E08FEF0895B901892F8295807F10
:100DB000840F08950F931F93CF93DF9300D000D03B
:100DC00000D0CDB7DEB7DB01ED91FC911197129603
:100DD0000D911D912D913C911597DC011296FC937C
:100DE000EE931197FC010383148325833683508788
:100DF000478326960FB6F894DEBF0FBECDBFDF91B6
:100E0000CF911F910F910895CF92DF92EF92FF92B1
:100E10000F931F93CF9320E030E04CED52E46091AC
:100E20005A0270915B0280915C0290915D020E9477
:100E3000AD2987FF31C080915E02882369F10E944D
:100E40002A050091560210915702209158023091C4
:100E500059026B017C01C01AD10AE20AF30A970118
:100E60008601083C110521053105B0F0609356025A
:100E7000709357028093580290935902C0910001D9
:100E800084E190E0C11102C08CED90E00E94F4007A
:100E900081E0C827C0930001CF911F910F91FF906F
:100EA000EF90DF90CF9008958DE00E94D30461E031
:100EB000892B09F060E08DE00E94FC0480915E02C5
:100EC00091E0892780935E0280E00895CF92DF92BF
:100ED000EF92FF920F931F93CF93DF93C0905A022C
:100EE000D0905B02E0905C02F0905D028CE00E948A
:100EF000D3048C01C1E0D0E020E030E048EC52E4C3
:100F0000C701B6010E94792C181614F0D0E0C0E099
:100F1000C023D123CD2B09F070C08BE00E94D304F5
:100F20008C01C1E0D0E020E030E04CE852E4C701A1
:100F3000B6010E94792C181614F0D0E0C0E0C0234E
:100F4000D123CD2B09F059C08AE00E94D3048C0133
:100F5000C1E0D0E020E030E04CE852E4C701B60147
:100F60000E94AD29181614F4D0E0C0E0C023D123AC
:100F7000CD2B09F042C020E030E048EC52E4C7013C
:100F8000B6010E94792C1816A4F460E08AE00E9451
:100F9000FC0460E08BE00E94FC0461E08CE0DF91E7
:100FA000CF911F910F91FF90EF90DF90CF900C9415
:100FB000FC0420E030E04CE852E4C701B6010E9496
:100FC000792C181654F460E08AE00E94FC0461E079
:100FD0008BE00E94FC0460E0E1CF20E030E04CE8D0
:100FE00052E4C701B6010E94AD29181634F061E041
:100FF0008AE00E94FC0460E0EBCFDF91CF911F916B
:101000000F91FF90EF90DF90CF90089580E4809350
:101010007C0080917A00806480937A0080917A00CD
:1010200086FDFCCF8091780060917900762F682F43
:10103000072E000C880B990B0E94B42920E030EC9D
:101040004FE754E40E94D82B20E030E048EC52E413
:101050000E94132A20E030E040EA51E40E946C2B09
:1010600060935A0270935B0280935C0290935D02DE
:1010700008954F925F926F927F928F929F92AF925C
:10108000BF92CF92DF92EF92FF920F931F93CF9375
:10109000DF9300D000D01F92CDB7DEB7DC012C91DA
:1010A0002B32E1F12D32D9F50196EE24E394FC01C7
:1010B000208130ED320F3A3010F02E3291F58C0154
:1010C00060E070E0CB01F801219130ED832E820EBB
:1010D00039E0381508F444C06A3949E974078407CF
:1010E00049E1940708F046C0AAE0B0E09B01AC01DA
:1010F0000E94F02A912CB12CA12C2401350140949E
:10110000509460947094461657066806790690F1DC
:10111000680D791D8A1D9B1D8F01D5CF0196E12C8D
:10112000C6CF198229813A814B815C816D8170E043
:1011300080E090E00F900F900F900F900F90DF9154
:10114000CF911F910F91FF90EF90DF90CF90BF90C4
:10115000AF909F908F907F906F905F904F90089589
:10116000211108C0EE2051F161307105810550E870
:101170009507A0F0F12CBAE08B2E912CA12CB12C6C
:101180006115710530E883079105F8F0A501940118
:101190000E943A2BCA01B901F394F2CF22E02983CD
:1011A0009B01AC0188279927DC01821B930BA40BC0
:1011B000B50B8A839B83AC83BD83B4CF23E02983A3
:1011C0006A837B838C839D83ADCFF801D8012D91F9
:1011D0008D0130ED320F3A3010F4F394F6CF2E3209
:1011E00001F58F010F5F1F4FF8010F5F1F4F208127
:1011F000A0EDDA2ED20EB9E0BD1598F06C3CECEC07
:101200007E07ECE08E07910578F7AAE0B0E09B013D
:10121000AC010E94F02A6D0D711D811D911DFA9483
:10122000E3CF20812F7D10E000E0253409F050C08D
:1012300021812D32B1F53296CC24C394DF0110E028
:1012400000E02F2D0F2C000C330B5AE0B52EFD01C2
:10125000DD9040ED4D0D4A30B0F5B09EA001B19E3D
:10126000500D11240D2DDD0C110B00531109040F2D
:10127000151FA801420F531F4732510544F3CC20DC
:10128000B9F080E090E0A0E0B0E8E11003C080E0B9
:1012900090E0DC0121E029838A839B83AC83BD83BA
:1012A00041CF2B3219F03196C12CC8CF3296FCCFEA
:1012B00080E090E0A0E8BFEFE110ECCF80E090E0AC
:1012C000A0E8BFE7E7CFCC2019F0119501951109EF
:1012D0002081211126CF0F0D111DF7FC1A950E94B8
:1012E000B2293BE3C32E31E0D32E101611063CF099
:1012F00011950195110943E2C42E41E0D42EF12C41
:101300000115110591F000FF0CC024E0F29EF001E0
:101310001124EC0DFD1D25913591459154910E94AC
:10132000132A15950795F394EBCFE110905821E01F
:1013300029836A837B838C839D83F4CECF93DF9351
:1013400000D000D01F92CDB7DEB7FC01A081B181E3
:10135000109709F43DC01496EC911497E250ED30CB
:1013600008F036C0F0E0E954F64F0C94AE2CD709E3
:10137000E809EC09EF09C409E809E809E809CB091B
:10138000E809D009E809F3096C9170E090E080E089
:101390000E94B2292CC06D917D918D919C91F8CFC6
:1013A0006D917D918D919C910E94B42920C0CD01B9
:1013B0000E9439083A834B835C836D836A817B8109
:1013C0008C819D81223081F3233011F3213079F01B
:1013D00060E070E0CB010BC08D919C91E9CF8D91C5
:1013E0009C910496E5CF6D917D918D919C910F908C
:1013F0000F900F900F900F90DF91CF9108951F9352
:10140000CF93DF93EC01CB011B81612F45960E94A6
:101410006405998388831A83009719F0FC018581FC
:101420008B83DF91CF911F910895CF92DF92EF923E
:10143000FF920F931F93CF93DF937C016B018A017F
:10144000FC01C081D1814F3F510509F0B0F4E88122
:10145000F9810480F581E02D4B5F5F4FCE01099546
:10146000009759F0FC010383DF91CF911F910F91F9
:10147000FF90EF90DF90CF900895E881F98102808E
:10148000F381E02DB601CE01099581E0F701828359
:1014900090E080E0E9CF1F93CF93DF93EC01162F0C
:1014A0006A817B816115710589F04C815D81FB0149
:1014B00083818417150651F4440F551F4F5F5F4F0A
:1014C000888199810E94150A9B838A838A819B81E6
:1014D000009759F02C813D81A9014F5F5F4F5D83DB
:1014E0004C83820F931FFC011483DF91CF911F91D6
:1014F00008959F92AF92BF92CF92DF92EF92FF92A8
:101500000F931F93CF93DF9300D000D01F92CDB7DE
:10151000DEB78C010E941706D82EF8011486F12C34
:10152000E12C60EFC62EC8010E941706F801148650
:10153000D81609F4B3C0811113C082E090E00F9077
:101540000F900F900F900F90DF91CF911F910F91FF
:10155000FF90EF90DF90CF90BF90AF909F90089555
:101560008C3509F099C0C8010E941706882329F319
:10157000E2E5F1E0853709F083C0F801148654E014
:10158000952EB12CA12CC8010E9417068823A9F220
:10159000813434F48053803130F083E090E0CFCF59
:1015A0008F7D8753F8CF44E0AA0CBB1C4A95E1F726
:1015B000A82AF80114869A949110E5CFC501985D88
:1015C0008115944020F47501F3E0FF22ACCFC501F2
:1015D0009C5D81159440A8F483E0B822B701762F72
:1015E0006627770F770F6A297B2990E080E00196C4
:1015F000603871058105910540F4C8010E944B0ACD
:1016000092CFB50190E080E0F3CF1982262F2F739F
:1016100020682A8326E096958795779567952A9581
:10162000D1F76032710580F4606C6B835E01E4E099
:10163000AE0EB11CF50162915F01662309F473CF10
:10164000C8010E944B0AF6CF262F2F7320682B83E8
:1016500086E0769567958A95E1F76031710538F4F3
:10166000606E6C835E01F5E0AF0EB11CE3CF606885
:101670006C83CD825E0126E0A20EB11CDBCF3296D8
:101680009081992309F489CF8913F9CF8181882327
:1016900009F483CFF8011486682FAFCF828193813C
:1016A000892B19F484E090E04ACF90E080E047CFA6
:1016B000AF92BF92CF92DF92EF92FF920F931F9360
:1016C000CF93DF9300D000D0CDB7DEB7DC01129608
:1016D0002D913C9113972C5F3F4F14964D915C9147
:1016E0004430510580F57901D901E0E0142F022F33
:1016F000FA2FF21BF11730F4DD90F1E0D110F0E099
:10170000EF2BF6CFE1111FC082E0FB0184838E2D09
:10171000801B811728F4D7018D917D018193F7CF2C
:10172000640F751FFB0110820F900F900F900F90A8
:10173000DF91CF911F910F91FF90EF90DF90CF90AD
:10174000BF90AF9008957B018C01420F531FDA01C7
:101750001C92FC01C080D180A480B5803A8329838B
:10176000AB828B2D8F778C83BE016F5F7F4FC6015D
:1017700003960E9487060097D9F4D80112966D91BE
:101780007C91A501C6010E94150AD801ED91FC913A
:1017900023813481DC012D933C9394838383F8016E
:1017A0001382128225E0F701248391838083BCCFCA
:1017B000DC0112962C9112972F5F12962C93F2CF88
:1017C000DB01ED91FC9111970280F381E02DBC01CA
:1017D000CD010994CF93DF9380914A0390914B03FD
:1017E0000E94D20110924C03C0914A03D0914B0346
:1017F00080914D0390914E03009759F0FC01208198
:10180000318130934E0320934D03BE010E94E00BC3
:10181000EFCF10926803DF91CF910895AF92BF92FE
:10182000CF92DF92EF92FF920F931F93CF93DF93AC
:10183000EC018B018C8180FF24C0A881B981FB0160
:101840008381948130E020E00097D9F0A817B90790
:10185000D1F5F8016081718112968C9112978150B7
:1018600012968C93129781110CC08D919C911197B7
:101870002115310529F1F90191838083CD010E9461
:10188000E00B8C81807631F1209721F1F8805801AE
:10189000F5E1AF0EB11C8FEFF816D1F06F2DC50139
:1018A0000E9464056C01FC01E580B8010E940E0CE9
:1018B000F801818DF6018083F801F18EFE2CEBCFCB
:1018C00094838383DBCF9C01FC0180819181BCCF19
:1018D000F882F9821C82DF91CF911F910F91FF90C6
:1018E000EF90DF90CF90BF90AF900895CF93DF93AC
:1018F000EC01CB01CF3FD10509F0B0F4BE016B5F25
:101900007F4F6C177D0780F0DC01ED91FC91019019
:10191000F081E02D0995009721F0FC01C38321E0BF
:101920002283DF91CF91089590E080E0FACF8F92EB
:101930009F92AF92BF92CF92DF92EF92FF920F935E
:101940001F93CF93DF9300D000D0CDB7DEB7DC017B
:1019500069014A014115510509F456C077FF08C0D5
:1019600084E014968C9314974D935C9381E04DC062
:101970007F777B016430710518F5FA0190E0242F20
:101980008E2F8819861730F4819131E0811130E073
:10199000932BF6CF911114C082E014968C93149778
:1019A0008D01842F821B861738F4FA018191AF01D3
:1019B000F80181938F01F5CFA60FB11D1C92D6CFF0
:1019C0008D01F601A080B1809A8289826B837C832D
:1019D000BE016F5F7F4FC60103960E948706009786
:1019E00051F0FC0122812F5F228325E0F80124833E
:1019F00091838083BBCFB501C7010E94760C00970D
:101A0000A9F481E0F601828380E00F900F900F909F
:101A10000F90DF91CF911F910F91FF90EF90DF908A
:101A2000CF90BF90AF909F908F900895E981FA81F9
:101A3000DC011496A7014E0F5F1FE417F50719F09C
:101A400021912D93FACFFC01EE0DFF1D1482F601BA
:101A500023813481FC0131832083F60194838383C5
:101A6000C4CFCF92DF92EF92FF920F931F93CF9349
:101A7000DF930097A9F089016A017B01EC01B901AC
:101A80000E940E0C9801B701A601CE01DF91CF9103
:101A90001F910F91FF90EF90DF90CF900C94970CD7
:101AA000DF91CF911F910F91FF90EF90DF90CF903A
:101AB0000895CB010C94B42CEF92FF920F931F93D7
:101AC000CF93DF937C01EB016FE770E00E94A229C6
:101AD0008C01AC01B701CE010E949029C00FD11F2B
:101AE0001882DF91CF911F910F91FF90EF90089591
:101AF000FB0101900020E9F73197AF01461B570B1E
:101B00000C94B605CF92DF92EF92FF920F931F9342
:101B1000CF93DF938C016B017A0162E20E94A105F1
:101B2000E601EC0CFD1CEC16FD0699F06991E2E56E
:101B3000F1E0D480DD20C9F0329683816813F9CFBB
:101B40006CE5C8010E94A1056D2DC8010E94A10588
:101B5000EACF62E2C801DF91CF911F910F91FF9010
:101B6000EF90DF90CF900C94A1056111EECF65E668
:101B700071E0C8010E94780DD6CFFC0130E020E072
:101B80006115710549F0DB010D900020E9F79D0119
:101B900021503109261B370B718360832283832FE9
:101BA0008F7793819078982B40FB97F993830895D2
:101BB0002F923F924F925F926F927F928F929F925D
:101BC000AF92BF92CF92DF92EF92FF920F931F934B
:101BD000CF93DF93CDB7DEB7A1970FB6F894DEBFF2
:101BE0000FBECDBF7C018B01DC0114968C91149744
:101BF000863009F471C1E0F4833009F45DC158F412
:101C000040E0B701823009F42FC16CE671E0C801F1
:101C10000E94780DF3C0843009F423C18530A9F700
:101C2000ED91FC91438150E0BF016C5F7F4F25C176
:101C30008E3009F443C0E0F48A3009F448C18C3096
:101C400021F7CD90DD90ED90FC90B701A601F7FE55
:101C50000BC06DE2C8010E94A10544275527BA01B7
:101C60004C195D096E097F09C8010E94CB0508C1A6
:101C7000803209F4CDC0803441F66BE5C8010E9482
:101C8000A105F701F080FFEFFF1609F4BCC0D801F1
:101C900014968D919C916F2D45960E9464057C0150
:101CA000B8010E94D80DF701F580FFEFFF1609F487
:101CB000AAC06CE2C8010E94A105E5CFF701C0806F
:101CC000D180E280F380A7019601C701B6010E948E
:101CD000AD2981119ACF20E030E0A901C701B601FA
:101CE0000E94AD29882379F0A7019601C701B601AA
:101CF0000E946C2B9B01AC01C701B6010E94AD296B
:101D0000882309F482CF20E030E0A901C701B601A1
:101D10000E94AD2987FF08C06DE2C8010E94A1059D
:101D2000F7FAF094F7F8F0945E01F7E1AF0EB11C0A
:101D3000B701A601C5010E941A02EF8CF8A0D9A034
:101D40004F89588D698D7A8DC8010E94CB05DD20A1
:101D500091F16B8D7C8D8D8D9E8D3E0121E1620E0A
:101D6000711CCD2C43012AE0222E312C412C512C08
:101D7000CA94AFEFCA1659F0A20191010E943A2B02
:101D8000605DF30162933F01B901CA01F1CF8D2D6E
:101D900090E0BC0160957095F401E81BF90B319758
:101DA0008EE2808344275527461B570B680D791D0B
:101DB000C8010E94B605E114F10401F165E6C8010D
:101DC0000E94A105F7FE07C06DE2C8010E94A105AF
:101DD000F194E194F108F5012AE030E0C701B9017E
:101DE0000E949A2C805D82937B01672BB9F7A50135
:101DF0004E1B5F0BBF01C8010E94B605D8011296A9
:101E00008D919C9140C06DE5C8010E94A105F6CF5F
:101E10006BE7C8010E94A105F701F080EE24E3946E
:101E2000BB24B394FFEFFF16D1F0D80114968D9127
:101E30009C916F2D45960E9464056C01B8010E942B
:101E4000D80DF601F580FFEFFF1639F06AE3E110D7
:101E500001C06CE2C8010E94A105EB24E3CF6DE74D
:101E6000D3CF6D917C9141E0CE0101960E94BD0DD2
:101E70004B815C815F7769817A81C8010E94820D04
:101E8000F80182819381A1960FB6F894DEBF0FBE50
:101E9000CDBFDF91CF911F910F91FF90EF90DF9019
:101EA000CF90BF90AF909F908F907F906F905F90FA
:101EB0004F903F902F900895ED91FC91438150E019
:101EC000BF016C5F7F4FC8010E94B605D9CF4D910D
:101ED0005D916D917C91C8CE8C9161E771E081112B
:101EE00002C066E771E0C8010E94780DC9CF0F9368
:101EF0001F93CF93DF9300D000D000D0CDB7DEB7D3
:101F00000CE313E0D8018D919C91DC01ED91FC91E3
:101F10000190F081E02D6EE10995F80180819181B9
:101F20009A8389831C821B828AE493E09E838D833B
:101F3000BE016F5F7F4F84E693E00E94D80DD80109
:101F40008D919C91DC01ED91FC910190F081E02D4F
:101F50006AE0099526960FB6F894DEBF0FBECDBF96
:101F6000DF91CF911F910F910895CF93DF9300D010
:101F700000D0CDB7DEB7FC018481843061F08530BC
:101F8000E1F040E0BF01823049F060E070E080E0C5
:101F900090E090680BC06081718141E0CE010196B4
:101FA0000E94BD0D69817A818B819C810F900F9079
:101FB0000F900F90DF91CF91089580819181FC0166
:101FC000238130E00496BC01C9019F779F77EECF53
:101FD0009F92AF92BF92CF92DF92EF92FF920F93B8
:101FE0001F93CF93DF9300D000D0CDB7DEB7790138
:101FF000C62EB72E8A01452B09F450C0B901FC0149
:1020000080810E947E0569837A838B839C83DD2493
:10201000D3949924939489819A810097F9F0DD20D3
:10202000B1F00E94B50F2C2D3B2D3F77AC015F77AF
:102030002417350761F4D801E62FF72F200F311F41
:10204000A217B30779F19D9181919817C9F3D9240B
:10205000B701CE0101960E94FF09DDCF2FEF8983E2
:102060009A832B83AC8289819A81009739F0B701DA
:10207000CE0101960E94FF0989819A810F900F90ED
:102080000F900F90DF91CF911F910F91FF90EF90E4
:10209000DF90CF90BF90AF909F9008952FEF90E08A
:1020A00080E0DDCFAC8089819A812B81D8CFFC0183
:1020B00020813181C9014A964281538164817581B1
:1020C000009759F0D9015E96EC91E03211F090E062
:1020D00080E0009711F00C94E80F90E080E0089504
:1020E0000F931F93CF93DF93EC0188819981009721
:1020F00059F02A813B812617370730F081E0DF91C4
:10210000CF911F910F9108958B016F5F7F4F0E94B8
:10211000D92D009759F0998388831B830A832C81DA
:102120003D81232B59F7FC011082E8CF80E0E7CFF7
:10213000CF92DF92EF92FF920F931F93CF93DF9393
:102140008C01DC019296ED91FC91E80FF91F12824F
:102150006C01B2E0CB0ED11CC114D10449F1F601DF
:1021600001900020E9F73197EC19FD09F1F0DC014D
:10217000ED90FC90D7011496CD91DC91CE0FDF1F2E
:10218000BE01C7010E947010882391F0F7012081E1
:10219000318184819581B601820F931F0E94A82E00
:1021A000D7011596DC93CE931497F80113A212A2CF
:1021B000D80192968D919C91DF91CF911F910F91B3
:1021C000FF90EF90DF90CF9008951F93CF93DF9310
:1021D000EC01162F8AA19BA101968097B8F48AA1E1
:1021E0009BA19C012F5F3F4F3BA32AA38C0F9D1FF8
:1021F000FC01128321E030E08CA19DA1820F931F8E
:102200009DA38CA3DF91CF911F910895CE010E94D1
:102210009810892B21F330E020E0EECFBF92CF92CF
:10222000DF92EF92FF920F931F93CF93DF93EC0116
:102230006A018B017B01E40EF51EE016F106D1F078
:10224000F801B1908F018AA19BA10196809760F45B
:102250008AA19BA19C012F5F3F4F3BA32AA38C0F18
:102260009D1FFC01B282E9CFCE010E949810892BFC
:1022700079F3E3CF4CA15DA14C0D5D1D5DA34CA393
:10228000DF91CF911F910F91FF90EF90DF90CF9052
:10229000BF9008958F929F92AF92BF92CF92DF929C
:1022A000EF92FF920F931F93CF93DF93CDB7DEB7DB
:1022B00066970FB6F894DEBF0FBECDBF6C018E01DE
:1022C000095E1F4F78018AE0882E912CA12CB12C39
:1022D000CB01BA01A50194010E943A2B942F852FBE
:1022E000605DF80162938F01A901692F782F411574
:1022F00051056105710561F7A7014E1B5F0BBF0119
:10230000C6010E940E1166960FB6F894DEBF0FBE8E
:10231000CDBFDF91CF911F910F91FF90EF90DF9094
:10232000CF90BF90AF909F908F900895FB01019048
:102330000020E9F73197AF01461B570B0C940E11A3
:10234000CF92DF92EF92FF920F931F93CF93DF9381
:102350008C016B017A0162E20E94E510E601EC0C4F
:10236000FD1CEC16FD0699F06991E2E5F1E0D480E0
:10237000DD20C9F0329683816813F9CF6CE5C8017E
:102380000E94E5106D2DC8010E94E510EACF62E2BF
:10239000C801DF91CF911F910F91FF90EF90DF90D7
:1023A000CF900C94E5106111EECF65E671E0C801A5
:1023B0000E949611D6CF2F923F924F925F926F92CA
:1023C0007F928F929F92AF92BF92CF92DF92EF92C5
:1023D000FF920F931F93CF93DF93CDB7DEB7A197F3
:1023E0000FB6F894DEBF0FBECDBF7C018B01DC01C0
:1023F00014968C911497863009F471C1E0F48330FF
:1024000009F45DC158F440E0B701823009F42FC1EE
:102410006CE671E0C8010E949611F3C0843009F4A3
:1024200023C18530A9F7ED91FC91438150E0BF01B4
:102430006C5F7F4F25C18E3009F443C0E0F48A30D1
:1024400009F448C18C3021F7CD90DD90ED90FC90DF
:10245000B701A601F7FE0BC06DE2C8010E94E510AE
:1024600044275527BA014C195D096E097F09C80137
:102470000E944A1108C1803209F4CDC0803441F66F
:102480006BE5C8010E94E510F701F080FFEFFF1631
:1024900009F4BCC0D80196968D919C916F2D4596FC
:1024A0000E9464057C01B8010E94DB11F701F580F0
:1024B000FFEFFF1609F4AAC06CE2C8010E94E51004
:1024C000E5CFF701C080D180E280F380A7019601BB
:1024D000C701B6010E94AD2981119ACF20E030E0FA
:1024E000A901C701B6010E94AD29882379F0A7018F
:1024F0009601C701B6010E946C2B9B01AC01C7017C
:10250000B6010E94AD29882309F482CF20E030E093
:10251000A901C701B6010E94AD2987FF08C06DE27D
:10252000C8010E94E510F7FAF094F7F8F0945E0104
:10253000F7E1AF0EB11CB701A601C5010E941A0256
:10254000EF8CF8A0D9A04F89588D698D7A8DC8017C
:102550000E944A11DD2091F16B8D7C8D8D8D9E8DB9
:102560003E0121E1620E711CCD2C43012AE0222E96
:10257000312C412C512CCA94AFEFCA1659F0A2014C
:1025800091010E943A2B605DF30162933F01B90112
:10259000CA01F1CF8D2D90E0BC0160957095F401DA
:1025A000E81BF90B31978EE2808344275527461BA1
:1025B000570B680D791DC8010E940E11E114F1043A
:1025C00001F165E6C8010E94E510F7FE07C06DE263
:1025D000C8010E94E510F194E194F108F5012AE0A8
:1025E00030E0C701B9010E949A2C805D82937B0183
:1025F000672BB9F7A5014E1B5F0BBF01C8010E94F5
:102600000E11D80194968D919C9140C06DE5C80142
:102610000E94E510F6CF6BE7C8010E94E510F701B4
:10262000F080EE24E394BB24B394FFEFFF16D1F0C7
:10263000D80196968D919C916F2D45960E946405C8
:102640006C01B8010E94DB11F601F580FFEFFF1667
:1026500039F06AE3E11001C06CE2C8010E94E510A4
:10266000EB24E3CF6DE7D3CF6D917C9141E0CE01B8
:1026700001960E94BD0D4B815C815F7769817A81F3
:10268000C8010E94A011F80184A195A1A1960FB6DE
:10269000F894DEBF0FBECDBFDF91CF911F910F9198
:1026A000FF90EF90DF90CF90BF90AF909F908F9072
:1026B0007F906F905F904F903F902F900895ED9195
:1026C000FC91438150E0BF016C5F7F4FC8010E94C5
:1026D0000E11D9CF4D915D916D917C91C8CE8C91A9
:1026E00061E771E0811102C066E771E0C8010E94F4
:1026F0009611C9CFCB01BA010C94D92DCF93DF939A
:10270000EC0188819981009711F00E94502D198267
:1027100018821D821C821B821A82DF91CF9108953C
:10272000EF92FF920F931F93CF93DF93EC017B0106
:102730008A01BA010E94701081110BC0CE010E9463
:102740007E13CE01DF91CF911F910F91FF90EF90FB
:1027500008951D830C83B701888199810E94A82E5A
:10276000F0CFFB0101900020E9F73197AF01461B44
:10277000570B0C949013FC01118210821382128269
:10278000158214826115710551F0FB010190002042
:10279000E9F73197AF01461B570B0C94901308953E
:1027A000FF920F931F93CF93DF93EC018C01085A94
:1027B0001F4FFF24F394F88264E671E0CE01059682
:1027C0000E94BB1319821A821B821C822B96C0178F
:1027D000D10789F71882DF91CF911F910F91FF9058
:1027E00008958F929F92AF92BF92EF92FF920F93B4
:1027F0001F93CF93DF93EC0180905A0290905B027D
:10280000A0905C02B0905D02188281E089837E0115
:1028100022E0E20EF11CC7010E94D0138E01065A7D
:102820001F4FF80180818830C0F4FBE08F9FC0010A
:102830001124FE01E80FF91F23E022838382948292
:10284000A582B682059664E671E08E0D9F1D0E94FA
:10285000B113F80180818F5F8083CE01DF91CF912A
:102860001F910F91FF90EF90BF90AF909F908F902E
:102870000895CF92DF92EF92FF920F931F93CF9321
:10288000DF93CDB7DEB7C85BD1090FB6F894DEBFD2
:102890000FBECDBF6B017C01CA01CB56DF4F598300
:1028A0004883C559D040C954DF4F19821882C75B8D
:1028B000D0400E947E1384E2FE01EB56FF4FDE0102
:1028C000AF58BF4F01900D928A95E1F784E2FE0167
:1028D000EF58FF4FDE01A35BBF4F01900D928A9529
:1028E000E1F784E2FE01E35BFF4FDE019996019080
:1028F0000D928A95E1F784E2FE01B996DE01119608
:1029000001900D928A95E1F71EA21DA2CE01899633
:102910000E949810F8A6EFA2CE01835B9F4F0E9401
:102920009810C114D10431F1BE016F5F7F4FC60111
:102930000E94DB117C01CE0101960E949810CE010D
:102940008F589F4F0E949810CE018B569F4F0E9428
:102950009810C701C854DF4F0FB6F894DEBF0FBE02
:10296000CDBFDF91CF911F910F91FF90EF90DF903E
:10297000CF9008956CE671E0CE0101960E94961109
:10298000EDA0FEA0D8CFEF92FF920F931F93CF93AD
:10299000DF93EC01CB01FB01E080F1800E94571036
:1029A0008C0164E671E0CE010E94BB130115110594
:1029B00089F0C8010E94B50F6115710559F0CE016B
:1029C0000E94B113CE01DF91CF911F910F91FF9023
:1029D000EF900895B801C701AE010E943914F2CFFB
:1029E000FC0180819181009711F00C94502D089585
:1029F000AF92BF92CF92DF92EF92FF920F931F930D
:102A0000CF93DF9300D000D000D0CDB7DEB78C01DC
:102A10007C0188E5E80EF11CF701908180E0983098
:102A2000F0F5F8018BE0989FE00DF11D112484E092
:102A300080836115710511F464E671E0CE010196A1
:102A40000E94BB13F7018081A82EB12C6801FBE026
:102A50008F9FC00CD11C1124F601858196810097AF
:102A600089F169817A816115710551F1478150853C
:102A70002D813E814217530718F10E94A82E8D81A7
:102A80009E81F601928781871E821D82CE0101966A
:102A90000E94F014F70180818F5F808381E0269689
:102AA0000FB6F894DEBF0FBECDBFDF91CF911F915F
:102AB0000F91FF90EF90DF90CF90BF90AF9008956F
:102AC0000E94502D8BE08A9DF0018B9DF00D11240A
:102AD000E00FF11F89819A81968385838B819C8188
:102AE000908787838D819E81928781871A82198240
:102AF0001C821B82C9CFEF92FF920F931F93CF933B
:102B0000DF93EC018DE00E94D304892BC9F49FE789
:102B1000E92E91E0F92E188281E089838E010E5F03
:102B20001F4FC8010E94D013B701C8010E94F814BA
:102B3000CE01DF91CF911F910F91FF90EF900895FB
:102B40008CE7E82E81E0F82EE6CFCB010C94502DD7
:102B5000BF92CF92DF92EF92FF920F931F93CF938A
:102B6000DF93EC01198D1F3F81F0612F45960E9484
:102B70006405FC018081898F309709F477C0148245
:102B80008FEF8583BF01812F76C06C0135E0C30EC6
:102B9000D11CE880F9808F89882341F0C6010E940A
:102BA000AE06E62FF72F182F309749F71F89988D1B
:102BB000191324C0103109F459C0110F6D897E8991
:102BC000D701ED91FC91B4E01B9FA0011124C61622
:102BD000D70609F044C00190F081E02DBA01C70189
:102BE0000995009709F442C020E1F601DC0101904B
:102BF0000D922A95E1F79E8B8D8B188F0D891E897A
:102C00008F8921E0280F2F8BE4E08E9FC0011124D3
:102C1000080F191F90E1B92E203111F48FE0B82E62
:102C2000F6E0BF9EB0011124D701ED91FC91019017
:102C3000F081E02DC7010995F80193838283892BE8
:102C400009F4B12CD801BC9211961C92012B71F0A1
:102C5000C6010E94AE06E62FF72F182F8DCF0480F5
:102C6000F581E02DC7010995009729F681E08A8357
:102C700060E070E08FEFDF91CF911F910F91FF9097
:102C8000EF90DF90CF90BF9008956F927F928F92D8
:102C90009F92AF92BF92CF92DF92EF92FF920F93EB
:102CA0001F93CF93DF93EC014115510589F490E018
:102CB00080E0DF91CF911F910F91FF90EF90DF9017
:102CC000CF90BF90AF909F908F907F906F9008951E
:102CD0008C8181111AC080E28C83209741F38FEFA1
:102CE0008883898379014A015B01CE010E94E80F44
:102CF0000097F9F6C7010E94A815682E6B01672B93
:102D000049F410E000E0C801D4CF803281F620976A
:102D100049F7CDCFC7010E94A815782E962F092F0D
:102D2000172F0115110569F39701B501A401C6011B
:102D30000E94970C882329F3F601758269816F3F01
:102D400041F0C70145960E946405FC0165827982C5
:102D5000DACF6882FCCFCF93DF93DC01CD91DC9199
:102D60001197FE017A9659F012964D915D916D91F1
:102D70007C9115979E01CF010E944516FC01BF0171
:102D8000CE01DF91CF9108956F927F928F929F92A3
:102D9000AF92BF92CF92DF92EF92FF920F931F9369
:102DA000CF93DF933C01EB010E94AB164B015C011A
:102DB000088119816B010115110501F1C8010E94FB
:102DC0009929EC0181149104F9F07501B501C40150
:102DD0000E940E0CC430D10508F044C090E080E0A1
:102DE00020E03C2F831740F5F801E80FF91FE4912C
:102DF00041E0E11140E0242B0196F4CF672B21F054
:102E0000BC01C4010E940E0CD301ED91FC9180E045
:102E1000309719F0828191E08927DF91CF911F913E
:102E20000F91FF90EF90DF90CF90BF90AF909F9069
:102E30008F907F906F900895211114C082E0D60189
:102E400014968C93D40190E080E0831738F4F80155
:102E5000E80FF91FE491ED930196F7CFC80DD91D46
:102E60001882D2CFF701A380B480A114B10471F10C
:102E7000D50113968C918C171D0641F4AE01B80153
:102E8000C50104960E948329892BD9F0F501A08001
:102E9000B180EBCFAE01B801C50104960E94902924
:102EA000CA0DDB1D1C82F70183819481D5018D93AE
:102EB0009C93B482A38285E0F6018483B182A082D0
:102EC000A3CFF50182818F5F8283F5CFD7016D910A
:102ED0007C91CE010E94760C5C01892BD9F681E0B1
:102EE000D70112968C9390CFEF92FF920F931F937E
:102EF000CF93DF937C018B010E94AB16DC01CB01E9
:102F0000E801E881F98170E060E0309749F0EF0175
:102F100009900020E9F7BE01615071096E1B7F0B1B
:102F20007F777F779D01AF010E94310DD701ED9131
:102F3000FC9180E0309719F0828191E08927DF9140
:102F4000CF911F910F91FF90EF9008950F931F93D2
:102F5000CF93DF93EC018B010E94AB16DC01CB0118
:102F600070E070689D01A8016AE00E94310DE8815F
:102F7000F98180E0309719F0828191E08927DF9113
:102F8000CF911F910F910895CF92DF92EF92FF9210
:102F9000CF93DF937B010E94AB16DC01CB01EB01E9
:102FA0000097B1F0F701C080D180E280F380BD01CD
:102FB0000E940E0C8AE08C83C882D982EA82FB824E
:102FC00081E0DF91CF91FF90EF90DF90CF90089557
:102FD00080E0F7CFEF92FF920F931F93CF93DF9391
:102FE0007C018B010E94AB16DC01CB01E801E8817A
:102FF000F98170E060E0309749F0EF01099000201E
:10300000E9F7BE01615071096E1B7F0B7F777F77F7
:103010009D01AF010E94310DD701ED91FC9180E03F
:10302000309719F0828191E08927DF91CF911F912C
:103030000F91FF90EF9008956F927F928F929F92E1
:10304000AF92BF92CF92DF92EF92FF920F931F93B6
:10305000CF93DF93CDB7DEB728970FB6F894DEBFD6
:103060000FBECDBF7C010E9481010E94EA0B0AE4E1
:1030700013E01A83098383E891E09C838B8389E0C2
:103080008D838E81807880688E836AE673E0CE01BE
:1030900001960E94EA178AE191E098878F831A834C
:1030A00009838DE891E09C838B838CE08D838E81F6
:1030B000807880688E83BE01695F7F4FCE01019664
:1030C0000E94C4161A8309838AE991E09C838B834A
:1030D00087E08D838E81807880688E8362EA71E0DC
:1030E000CE0101960E94A6171A8309838DEA91E00A
:1030F0009C838B838BE08D838E81807880688E8328
:1031000069E773E0CE0101960E94C4170E94770F11
:1031100000916D0310916E038AE4C82E83E0D82ECF
:1031200099EBA92E91E0B92E26E0722E30EC832E79
:1031300031E0932E47E0642E0115110589F1E11469
:10314000F10441F0B701F801808191810E949F2E26
:10315000892B11F50E94EA0BDA82C982BC82AB820C
:103160007D828E81807880688E83B8016E5F7F4F0C
:10317000CE0101960E94EA17DA82C9829C828B8274
:103180006D828E81807880688E83B801CE01019631
:103190000E94EA170E94770FF80106811781CCCFB1
:1031A0000E94950128960FB6F894DEBF0FBECDBFE2
:1031B000DF91CF911F910F91FF90EF90DF90CF9013
:1031C000BF90AF909F908F907F906F900895FF92E7
:1031D0000F931F93CF93DF93CDB7DEB72C970FB626
:1031E000F894DEBF0FBECDBF9A8789877C876B8737
:1031F000142F0E94EA0B8AE493E09A83898383E880
:1032000091E09C838B8389E08D838E8180788068B8
:103210008E836AE673E0CE0101960E94EA1782E18E
:1032200091E0163040F4E12FF0E0EE0FFF1FE15E79
:10323000FE4F8081918198878F830AE413E01A837F
:1032400009838DE891E09C838B838CE08D838E8154
:10325000807880688E83BE01695F7F4FCE010196C2
:103260000E94C4161A8309838AE991E09C838B83A8
:1032700087E0F82EFD828E81807880688E83BE0183
:10328000655F7F4FCE0101960E94EA171A8309837A
:103290008DEA91E09C838B838BE08D838E81807897
:1032A00080688E8369E773E0CE0101960E94C4179F
:1032B0001A83098380EC91E09C838B83FD828E814D
:1032C000807880688E83BE01675F7F4FCE01019654
:1032D0000E94EA170E94770F2C960FB6F894DEBF73
:1032E0000FBECDBFDF91CF911F910F91FF90089539
:1032F000CF92DF92FF920F931F93CF93DF938C01B6
:103300006B01CB010E94A815F82EEB01209761F00C
:10331000F80161816F3F89F0C60145960E946405FE
:10332000FC01F582F801F182CE01DF91CF911F916E
:103330000F91FF90DF90CF9008958083F4CF3F925C
:103340004F925F926F927F928F929F92AF92BF92B5
:10335000CF92DF92EF92FF920F931F93CF93DF9361
:1033600000D000D01F92CDB7DEB78C016B01B42E18
:103370000E9465067C01892B09F050C0C8010E949B
:103380001706863609F4AEC164F5873229F08B350D
:10339000A1F1823209F0AFC1F80115821482828155
:1033A0009381892B99F4E080F180D7016D917C9114
:1033B0008FE190E00E94760C009719F421E0F7016C
:1033C0002283D80113969C938E931297C8010E9472
:1033D000790A7C01892B11F5B601C8010E94580BAE
:1033E0001DC0843709F45EC18B3709F466C08E3680
:1033F00009F081C16CE671E05CC180E4D6011496ED
:103400008C931497C114D10421F08FEF8C931196F3
:103410008C93B1101BC025E0E22EF12CC7010F9058
:103420000F900F900F900F90DF91CF911F910F9100
:10343000FF90EF90DF90CF90BF90AF909F908F90D4
:103440007F906F905F904F903F900895F8011486A1
:10345000C8010E946506009709F09DC16DE5C8018D
:103460000E9431068111DACFBA94D8011D966D9170
:103470007C91C6010E947819009709F47BC04B2DFE
:10348000BC01C8010E949F19009709F084C1C801BE
:103490000E946506009709F07EC16DE5C8010E9493
:1034A00031068111BBCF6CE2C8010E943106811147
:1034B000DCCF93E0E92EF12CB1CF80E2F6018483DA
:1034C000C114D10419F08FEF80838183BB2009F4EC
:1034D000A2CFD8011C961C92C8010E9465060097D5
:1034E00009F059C16DE7C8010E943106811196CFDC
:1034F0005524539477247A947B0CF8011582148216
:1035000082819381892B91F4E080F180D7016D91C4
:103510007C918FE190E00E94760C009711F4F70106
:103520005282D80113969C938E931297C8010E94E1
:103530001706873219F1823209F1C8010E94170675
:10354000F82E0E948F05882309F4B3CFF801148662
:103550006F2DC8010E944B0AC8010E941706F82E61
:103560000E948F058111F2CFD80112968D919C9106
:10357000892B59F484E0E82EF12C50CFC8010E9429
:10358000790A7C01892B09F049CFC8010E946506A0
:103590007C01892B09F042CF6AE3C8010E94310601
:1035A000882309F486CFD8011296ED91FC911397E8
:1035B00014968D919C911597E80FF91F148214961B
:1035C0006D917C9115977F771D962D913C911E975B
:1035D00012968D919C910496472F4F77B62DB07817
:1035E0006B2E642AE89467F8AC01762DC6010E9420
:1035F000E80F7C01F80185849684009759F5C40191
:103600000E94A815382E5B01672B09F4B3CFC401C3
:103610000E94A815482E962FE92EF72EE114F104EA
:1036200009F4A8CFD50115964C92F60161816F3F40
:1036300071F0C40145960E946405DC0115963C9228
:10364000F6014182B501C8010E94580B06C03082C4
:103650004182F8CFB4010E940E0C472DB701C8017A
:103660000E949F197C01892B09F0D8CEC8010E94C5
:1036700065067C01892B09F0D1CE6DE7C8010E9457
:1036800031068111CBCE6CE2C8010E94310688233D
:1036900009F40FCFC8010E9465067C01892B09F44B
:1036A0002CCFBCCE86E0F601848381E0808361E785
:1036B00071E0C8010F900F900F900F900F90DF9165
:1036C000CF911F910F91FF90EF90DF90CF90BF901F
:1036D000AF909F908F907F906F905F904F903F90B2
:1036E0000C94420686E0D60114968C9314971C9293
:1036F00066E771E0DECFC8010E9417064801BFE00F
:103700008B0E911CB12C782CA92C803384F08A3339
:1037100084F4EFE3BE16A9F0D8011C961C92B39472
:10372000F40181934F01C8010E941706EECF8B323E
:1037300081F393ED980F923060F3982F9F7D95342D
:1037400041F30B0D111DD8011F961C92872D9A2D48
:103750000E9439083A834B835C836D838A819B8105
:10376000AC81BD812230A9F0233059F0213009F01D
:10377000A0CE2EE0F601248380839183A283B383BD
:103780004DCE2AE0F601248380839183A283B38304
:1037900045CE2CE0F7CF7C0141CEAF92BF92CF92C5
:1037A000DF92EF92FF920F931F93CF93DF9300D09E
:1037B00000D0CDB7DEB7FC01C180D280DC0111960C
:1037C000C6014A9699F430E020E0B901C6010F9095
:1037D0000F900F900F90DF91CF911F910F91FF905D
:1037E000EF90DF90CF90BF90AF9008957F01129639
:1037F0004D915D916D917C91159796010E944516B2
:103800008C01009701F3F701A180B280E780F0847A
:10381000FC01848181111FC080E484838FEF808349
:103820008183B501F80180810E947E0569837A83D6
:103830008B839C8329813A812115310579F0E1142C
:10384000F10419F2B501CE0101960E94FF09F1E0E1
:10385000EF1AF108EFCF803421F3B5CF8FEFE816E0
:10386000F80609F4B2CFB501C8010E9478199C018D
:10387000E1E0EE1AF108892B89F7A7CF1F920F928A
:103880000FB60F9211242F933F934F935F936F9333
:103890007F938F939F93AF93BF93EF93FF938EE8A4
:1038A00092E00E941B04FF91EF91BF91AF919F9115
:1038B0008F917F916F915F914F913F912F910F90D9
:1038C0000FBE0F901F9018951F920F920FB60F9278
:1038D00011242F938F939F93EF93FF93E0919E0278
:1038E000F0919F028081E091A402F091A50282FDF7
:1038F0001BC090818091A7028F5F8F732091A802D7
:10390000821741F0E091A702F0E0E257FD4F958F5A
:103910008093A702FF91EF919F918F912F910F902C
:103920000FBE0F901F9018958081F4CF1F920F92B9
:103930000FB60F9211242F933F938F939F93AF93C2
:10394000BF938091650290916602A0916702B09149
:1039500068023091640223E0230F2D3758F5019659
:10396000A11DB11D209364028093650290936602AD
:10397000A0936702B0936802809160029091610207
:10398000A0916202B09163020196A11DB11D8093C6
:10399000600290936102A0936202B0936302BF91B0
:1039A000AF919F918F913F912F910F900FBE0F90EC
:1039B0001F90189526E8230F0296A11DB11DD2CFA6
:1039C0001F920F920FB60F9211242F933F934F9394
:1039D0005F936F937F938F939F93AF93BF93CF9397
:1039E000DF93EF93FF9380915F02C0918D02D0E04F
:1039F00087FF24C0109285001092840080915F029E
:103A00008F5F80935F0280915F02082E000C990BFC
:103A10008C179D0724F480915F028C30C4F1809153
:103A2000840090918500049680349C4908F47AC003
:103A30008091840090918500049676C080915F0209
:103A4000082E000C990B8C179D07C4F6E0915F02BD
:103A50008E2FEE0F990BFC01EE0FFF1FE80FF91FE1
:103A6000E759FD4F808186FFC9CFE0915F028E2F1D
:103A7000EE0F990BFC01EE0FFF1FE80FF91FE7593E
:103A8000FD4F808160E08F730E94FC04B7CF2091CE
:103A9000840030918500E0915F028E2FEE0F990B2C
:103AA000FC01EE0FFF1FE80FF91FE759FD4F818161
:103AB0009281820F931F9093890080938800E091F8
:103AC0005F028E2FEE0F990BFC01EE0FFF1FE80F28
:103AD000F91FE759FD4F808186FF11C0E0915F0219
:103AE0008E2FEE0F990BFC01EE0FFF1FE80FF91F51
:103AF000E759FD4F808161E08F730E94FC04FF91C4
:103B0000EF91DF91CF91BF91AF919F918F917F9175
:103B10006F915F914F913F912F910F900FBE0F903A
:103B20001F90189580E49CE9909389008093880009
:103B30008FEF80935F02E3CFEF92FF920F931F937B
:103B4000CF93DF93109291021092900288EE93E04F
:103B5000A0E0B0E08093920290939302A09394022D
:103B6000B09395028FE291E090938F0280938E0242
:103B700085EC90E090939B0280939A0284EC90E015
:103B800090939D0280939C0280EC90E090939F0222
:103B900080939E0281EC90E09093A1028093A0021A
:103BA00082EC90E09093A3028093A20286EC90E0D6
:103BB0009093A5028093A4021092A7021092A802EB
:103BC0001092A9021092AA0288E998E0A0E0B0E061
:103BD0008093400390934103A0934203B093430327
:103BE000109244031092450310924603109247032B
:103BF00010924803109249038EE892E090933D039F
:103C000080933C0381E091E090934B0380934A03BF
:103C100010924C0310924E0310924D038FE493E0E8
:103C20009093600380935F031092610384E080931C
:103C300062038FEF8093630310926803809369039C
:103C400088EC91E090936B0380936A0310926C036D
:103C500010926E0310926D031092700310926F0316
:103C600010927203109271031092740310927303F6
:103C700010927503109276031092770310927803D6
:103C80008CE393E090933B0380933A03EDE3F1E000
:103C900065EC7DE98CE191E82191211110C0E8ECFF
:103CA000F1E021912223B1F07B01E226AC019701E2
:103CB00063E971E080E091E00E947E2CF2CF7B010D
:103CC000E226AC01970163E971E080E091E00E9497
:103CD0007E2CE2CF2CE333E06093790370937A0378
:103CE00080937B0390937C038FEC91E09093370358
:103CF00080933603309339032093380385ED91E0A8
:103D0000909333038093320330933503209334032D
:103D100080EE91E090932F0380932E033093310334
:103D20002093300380918D028C3008F09DC091E08B
:103D3000980F90938D0280932B0390E0FC01EE0F7F
:103D4000FF1FE80FF91FE759FD4F88EB9BE09283B7
:103D5000818386E090E00E94B42CFC0105ED11E027
:103D60001183008386E098E09383828380917103BE
:103D70009091720395838483F0937203E0937103AF
:103D800089E090E00E94B42CEC01198308838AEE4C
:103D900091E09B838A831C8281EF93E19E838D83D4
:103DA00080916F039091700398878F8386E090E0F5
:103DB0000E94B42C7C0180EE91E0F7019183808316
:103DC00086E697E0938382838091730390917403D6
:103DD0009583848389E090E00E94B42CFC0181E00B
:103DE00084830FEC11E01183008386EF91E09383CD
:103DF00082838BE795E196838583D087C783F09391
:103E00007003E0936F0388E090E00E94B42CFC0103
:103E10001183008382E092E09383828384E597E0BC
:103E20009583848380916D0390916E03978386833D
:103E3000F0936E03E0936D0386E090E00E94B42C53
:103E4000FC011183008384E097E093838283F582F1
:103E5000E482F0937403E0937303DF91CF911F9199
:103E60000F91FF90EF9008958FEF80932B0371CF08
:103E7000CF93DF93CDB7DEB7C55CD1090FB6F89409
:103E8000DEBF0FBECDBF789484B5826084BD84B59B
:103E9000816084BD85B5826085BD85B5816085BD45
:103EA00080916E00816080936E00109281008091FD
:103EB0008100826080938100809181008160809385
:103EC0008100809180008160809380008091B100AA
:103ED00084608093B1008091B00081608093B000D5
:103EE00080917A00846080937A0080917A00826069
:103EF00080937A0080917A00816080937A0080912B
:103F00007A00806880937A001092C1008DE00E9450
:103F1000B3018AE00E94B3018BE00E94B3018CE000
:103F20000E94B30183E00E94B30180912B038C3087
:103F300008F050C083E00E94B30180912B03282F2A
:103F400030E0F901EE0FFF1FE20FF31FE759FD4FBD
:103F50009081907C9360908310922C0310922D039B
:103F60002CE0622F0E948E2C829FB001112430E041
:103F700020E0AB01420F531FFA01EE0FFF1FE40FC9
:103F8000F51FE759FD4F908196FD16C02F5F3F4FFB
:103F90002C30310571F781110FC01092800082E042
:103FA000809381001092850010928400B19A8091D4
:103FB0006F00826080936F00E0912B038E2F90E062
:103FC000FC01EE0FFF1FE80FF91FE759FD4F80813D
:103FD000806480838AE590E00E94F40082EB9DE596
:103FE0008C5A9D4566E070E00E949A2CCC53DF4FBE
:103FF00079836883C45CD04000917103109172038F
:104000000115110549F0D8011296ED91FC91099521
:10401000F80104811581F4CF80916C03811138C0BF
:10402000E0919E02F0919F0282E08083E0919A02EB
:10403000F0919B021082E0919C02F0919D0280E140
:1040400080831092A602E091A202F091A30286E082
:104050008083E091A002F091A10280818061808341
:10406000E091A002F091A102808188608083E091BC
:10407000A002F091A102808180688083E091A0027B
:10408000F091A10280818F7D808381E080936C0319
:104090008091480381116BC080EC0E945E018823EF
:1040A00009F484C081E0809348030E942A0560934C
:1040B0004403709345038093460390934703809194
:1040C0004803882309F472C08EE10E945E01982E95
:1040D000882309F46BC00E94EA0B0E942A056093B2
:1040E0004403709345038093460390934703E09005
:1040F0003C03F0903D0364E671E0CE018F579F4F83
:104100000E94BB13C7010E943605CB57DF4F0881C1
:104110001981C558D04097FD89C08A30910509F4AE
:1041200085C089831A820F5F1F4FB801CE018F5758
:104130009F4F0E947010882329F3CF57DF4F2881AB
:104140003981C158D040CB57DF4F88819981C558FC
:10415000D040BE016F5F7F4F820F931F0E94A82E39
:10416000CB57DF4F19830883C558D040CBCF0E946F
:104170002A05AB01BC018091440390914503A091B5
:104180004603B091470300914003109141032091F1
:10419000420330914303800F911FA21FB31F4817A2
:1041A00059076A077B07A0F0109248030091730338
:1041B000109174030115110511F40C945429D801C0
:1041C0001296ED91FC910995F80104811581F2CFC9
:1041D00080913C0390913D03DC01ED91FC910084C2
:1041E000F185E02D0995181619060CF068CF80911D
:1041F0003C0390913D03DC01ED91FC910484F58535
:10420000E02D0995803C910509F059CF80913C0340
:1042100090913D03DC01ED91FC910284F385E02D4A
:104220000995803C910509F04ACFBECFCF57DF4FAB
:10423000E880F980C158D0400E0D1F1D0E94EA0B86
:104240008AE493E09A8389831C821B821E821D82EA
:104250001F82F986E8861B870A871D869F878E87BF
:104260004AE064E673E08E010F5F1F4FC8010E94B1
:104270009F197C01892B51F48C85882339F080911A
:10428000680383FF03C033E0E32EF12C8B819C8114
:10429000009731F0E981FA81608171810E94E00B21
:1042A000F0923F03E0923E03CE018F579F4F0E9452
:1042B000F01480913E0390913F03892B09F076CF53
:1042C0002AE4E22E23E0F22EFA82E9828EE092E0E6
:1042D0009C838B8383E08D838E81807880688E833E
:1042E000C8010E945710009709F460CF0E94B50FD3
:1042F0002B01FB01309709F459CF8081882309F401
:1043000055CF62E172E0C2010E94AF2E892B09F401
:10431000FBC20E9481010E94EA0BFA82E98283E8D3
:1043200091E09C838B8389E08D838E818078806887
:104330008E836AE673E0C8010E94EA178AE191E081
:10434000CF57DF4F99838883C158D040FA82E982E2
:104350008DE891E09C838B838CE08D838E818078C7
:1043600080688E83BE016F577F4FC8010E94C416BC
:10437000FA82E9828AE991E09C838B8387E08D83CE
:104380008E81807880688E83C8010E94AB16DC0124
:10439000CB01E2E1F2E0C254DF4FF983E883CE5B68
:1043A000D040FBE0C054DF4FF883C05CD040CF5317
:1043B000DF4F2881C15CD0402078322F3068CF5346
:1043C000DF4F3883C15CD0409D01C254DF4F48812C
:1043D00059816A817B81CE5BD0400E94310DFA8287
:1043E000E9828DEA91E09C838B838BE08D838E81C3
:1043F000807880688E8369E773E0C8010E94C417E3
:104400000E94770F40906F0350907003370192E342
:10441000292E92E0392EAE014D5F5F4FC454DF4F1D
:1044200059834883CC5BD0404114510409F45FC2E6
:10443000D2011596ED91FC91C80109950E94EA0BF5
:10444000CF57DF4F79826882C158D040EEE1F2E069
:10445000CD57DF4FF983E883C358D04087E0F82E6B
:10446000CB57DF4FF882C558D040CA57DF4F8881FD
:10447000C658D04080788068CA57DF4F8883C658B6
:10448000D040B2016E5F7F4FCE018F579F4F0E9489
:10449000EA17CF57DF4F79826882C158D04020ECAD
:1044A00031E0CD57DF4F39832883C358D040CB57F5
:1044B000DF4FF882C558D040CA57DF4F8881C658B1
:1044C000D04080788068CA57DF4F8883C658D04074
:1044D000B201CE018F579F4F0E94EA17D201149666
:1044E000EC9183E091E0E33038F4F0E0EE0FFF1F51
:1044F000E75EFE4F80819181CA56DF4F99838883A2
:10450000C659D040CF57DF4F79826882C158D0401A
:10451000E6E2F2E0CD57DF4FF983E883C358D0409D
:1045200084E0CB57DF4F8883C558D040CA57DF4F50
:104530008881C658D04080788068CA57DF4F88830A
:10454000C658D040BE016A567F4FCE018F579F4F4D
:104550000E94C416E98189EF90E0E33038F4F0E07E
:10456000EE0FFF1FED5EFE4F80819181CA56DF4F37
:1045700099838883C659D040CF57DF4F79826882AC
:10458000C158D0402BE232E0CD57DF4F398328832A
:10459000C358D04086E0CB57DF4F8883C558D04002
:1045A000CA57DF4F8881C658D04080788068CA5784
:1045B000DF4F8883C658D040BE016A567F4FCE0178
:1045C0008F579F4F0E94C4168A81882309F474C1B3
:1045D000F12CF4E0EF2E6C968FAD6C97F81608F086
:1045E0006BC14F2D50E058013BE03F9DA00CB11C2A
:1045F0001124D50112968C91823009F4E0C040F468
:10460000882309F45DC0813009F496C0F394E3CFA8
:10461000833009F40EC18430C9F79801BBE0FB9EDA
:10462000200D311D1124F90137966F01CA56DF4F55
:1046300079826882C659D040C856DF4F39822882B5
:10464000C859D040C656DF4F8883CA59D040C55696
:10465000DF4F8881CB59D04080788068C556DF4FC6
:104660008883CB59D040BE016A567F4FCE018F5709
:104670009F4F0E94DA06CE018F579F4F0E94CD1B9D
:10468000DC01CB01F601648175817F774081518126
:10469000272F2F77CD53DF4F3881C35CD040307840
:1046A000322B3F77CD53DF4F3883C35CD0409D0121
:1046B000CD53DF4F7881C35CD0400E94310DA6CF2F
:1046C000CA56DF4F79826882C659D040C856DF4F3C
:1046D00039822882C859D040C656DF4FE882CA596D
:1046E000D040C556DF4F8881CB59D0408078806854
:1046F000C556DF4F8883CB59D040BE016A567F4FE5
:10470000CE018F579F4F0E94DA06CE018F579F4FE1
:104710000E94CD1BDC01CB016B01672B09F476CF26
:10472000F501B380BD010E940E0CE6E0D60114969F
:10473000EC931497BC926ACFCA56DF4F7982688295
:10474000C659D040C856DF4F39822882C859D04058
:10475000C656DF4FE882CA59D040C556DF4F888120
:10476000CB59D04080788068C556DF4F8883CB59BD
:10477000D040BE016A567F4FCE018F579F4F0E9497
:10478000DA06CE018F579F4F0E94CD1BDC01CB0173
:104790006B01672B09F43ACFF50183809480A580E3
:1047A000B680BD010E940E0CECE0D6011496EC938D
:1047B00014978D929D92AD92BC92139727CFCA56B3
:1047C000DF4F79826882C659D040C856DF4F3982A0
:1047D0002882C859D040C656DF4FE882CA59D04017
:1047E000C556DF4F8881CB59D04080788068C55648
:1047F000DF4F8883CB59D040BE016A567F4FCE0130
:104800008F579F4F0E94DA06CE018F579F4F0E940D
:10481000CD1BDC01CB016B01672B09F4F7CEF50151
:1048200083809480A580B680BD010E940E0CEAE0D2
:10483000BCCFCA56DF4F79826882C659D040C8566D
:10484000DF4F39822882C859D040C656DF4FE882F0
:10485000CA59D040C556DF4F8881CB59D0408078A7
:104860008068C556DF4F8883CB59D040BE016A5659
:104870007F4FCE018F579F4F0E94DA06CE018F5790
:104880009F4F0E94CD1BDC01CB016B01672B09F40C
:10489000BDCEF50183809480A580B680BD010E94C5
:1048A0000E0CEEE0D6011496EC9314978D929D9227
:1048B000AD92BC921397AACE0E94770F7E01FBE5C2
:1048C000EF0EF11C2BE0E21AF108C70105960E94D9
:1048D000F014C454DF4F48815981CC5BD040E416BA
:1048E000F50681F7D20117964D905C909DCD0E9400
:1048F00095010E942A056093750370937603809357
:1049000077039093780352CC67E372E0C2010E9470
:10491000AF2E892B09F42CC10E9481010E94EA0B61
:10492000FA82E98283E891E09C838B8389E08D831E
:104930008E81807880688E836AE673E0C8010E9469
:10494000EA178AE191E0CF57DF4F99838883C158F6
:10495000D040FA82E9828DE891E09C838B838CE0E1
:104960008D838E81807880688E83BE016F577F4FE4
:10497000C8010E94C416FA82E9828AE991E09C8308
:104980008B8387E08D838E81807880688E8367E358
:1049900072E0C8010E94A617FA82E9828DEA91E0CE
:1049A0009C838B838BE08D838E81807880688E835F
:1049B00069E773E0C8010E94C4170E94770FECEA10
:1049C000FDE52DE5E23BF20708F091CF7F01512C88
:1049D000412C6AE4662E63E0762E77E0372EE4E021
:1049E0002E2ECC53DF4F48815981C45CD0404415F2
:1049F000550509F47CCFF70185909490F701329624
:104A0000A590B490F7013496C590D4908114910488
:104A100009F4A7C0C114D10409F4A3C00E94EA0B91
:104A2000B801C4010E945C0DCF57DF4F79826882C4
:104A3000C158D04062E472E0CD57DF4F798368837C
:104A4000C358D04075E0CB57DF4F7883C558D0406E
:104A5000CA57DF4F8881C658D04080788068CA57CF
:104A6000DF4F8883C658D040C654DF4F1983088370
:104A7000CA5BD040BE0166547F4FCE018F579F4F17
:104A80000E94741720E090E0A114B10431F0B80145
:104A9000C5010E945C0D202F912FCF57DF4F7982E7
:104AA0006882C158D040A8E4B2E0CD57DF4FB98347
:104AB000A883C358D040CB57DF4F3882C558D04069
:104AC000CA57DF4F8881C658D04080788068CA575F
:104AD000DF4F8883C658D040CA54DF4F2883C65B57
:104AE000D040C954DF4F9883C75BD040BE016A54A1
:104AF0007F4FCE018F579F4F0E947417B801C60198
:104B00000E945C0DCF57DF4F79826882C158D04038
:104B1000E0E5F2E0CD57DF4FF983E883C358D0409A
:104B2000CB57DF4F2882C558D040CA57DF4F888106
:104B3000C658D04080788068CA57DF4F8883C658EF
:104B4000D040C854DF4F19830883C85BD040BE01F2
:104B500068547F4FCE018F579F4F0E9474170E9459
:104B6000770FFFEF4F1A5F0A26E0E20EF11C39CFF4
:104B700062EA71E0C2010E94AF2E892B99F1FA829C
:104B8000E98280EC91E09C838B8387E08D838E812A
:104B9000807880688E83B801CE018F579F4F0E9426
:104BA000C314CB57DF4F88819981C558D040892BDA
:104BB00069F0CF57DF4F08811981C158D0406CE6AA
:104BC00071E0C8010E949F2E892B51F490E080E093
:104BD0000E941C18CE018F579F4F0E94F01489CE5F
:104BE000C801F6CFC255DF4FF982E882CE5AD040D5
:104BF00082E392E0C055DF4F99838883C05BD04049
:104C000084E0CE54DF4F8883C25BD040CD54DF4F69
:104C10008881C35BD04080788068CD54DF4F888323
:104C2000C35BD040CE0182559F4F0E9457106C014C
:104C3000C8010E94D013C114D10409F46FC1D60178
:104C400014968C911497803409F068C16AE473E07B
:104C50008C910E947E05CF57DF4F688379838A83CA
:104C60009B83C158D040CB57DF4FF982E882C558AB
:104C7000D04086E0FE01EF57FF4FDE01A657BF4F41
:104C800001900D928A95E1F7CF57DF4F2881398146
:104C9000C158D040CD57DF4F8881C358D040C65748
:104CA000DF4F39832883CA58D040C457DF4F8883E9
:104CB000CC58D040C257DF4FF982E882CE58D0405E
:104CC00086E0FE01E657FF4FDE01A057BF4F01907F
:104CD0000D928A95E1F786E0FE01E057FF4FDE0175
:104CE000AA56BF4F01900D928A95E1F72BE0F22E64
:104CF00032E0D32EEE24E39444E0C42E53E0B52EEC
:104D0000CA56DF4FE881F981C659D040309709F47F
:104D100005C1C656DF4F88819981CA59D040C45613
:104D2000DF4FF983E883CC59D040C256DF4F9983D7
:104D30008883CE59D04084818630F1F08A3009F4DE
:104D400043C08C3009F460C083FF97C0CE01845605
:104D50009F4F0E949E096A962FAD6A97283040F5B2
:104D6000F29E90011124F801E20FF31FB0826183DB
:104D700072838383948346C020816A968FAD6A973D
:104D80008830B0F4F89EC0011124F801E80FF91F33
:104D900010822183059664E671E0800F911F0E94C6
:104DA000B1136A968FAD6A978F5F6A968FAF6A97D5
:104DB000C656DF4F68817981CA59D040CE018A56E4
:104DC0009F4F0E94FF099CCF80819181A281B38176
:104DD0008115E0E89E07A105B10548F56A962FAD5B
:104DE0006A97283028F7F29E90011124F801E20F0B
:104DF000F31FE082092E000CAA0BBB0B8183928368
:104E0000A383B483C901C6CF80819181A281B3817C
:104E1000AC01BD0150586F4F7F4F411551056140A6
:104E20007105E0F2482F392F2A2F5B2F06C0482F3B
:104E3000392F2A2F5B2FB7FD12C06A968FAD6A9764
:104E4000883008F0B5CFF89EC0011124F801E80FB2
:104E5000F91FE08241833283238354839BCF6A9678
:104E60008FAD6A97883008F0A3CFF89EC001112457
:104E7000F801E80FF91FD082EDCF9CEF980F923028
:104E800038F4CF010E94B50FC8010E94F81490CFEA
:104E90008230B9F364E671E0CE018F579F4F0E94D4
:104EA000BB13C456DF4F688179818A819B81CC59BD
:104EB000D040AE014F575F4F0E9439146A968FADB4
:104EC0006A97883010F5F89EC0011124F801E80FA8
:104ED000F91FC0820596800F911FCF57DF4F688161
:104EE0007981C158D04061157105A9F0CB57DF4FCA
:104EF00048815981C558D0400E9490136A968FAD61
:104F00006A978F5F6A968FAF6A97CE018F579F4FD0
:104F10000E94F0144DCF0E947E13F0CF9AE4E92E48
:104F200093E0F92ECE55DF4FF982E882C25AD04085
:104F300080EC91E0CC55DF4F99838883C45AD040F0
:104F400087E0CA55DF4F8883C65AD040C955DF4F26
:104F50008881C75AD04080788068C955DF4F8883E0
:104F6000C75AD040BE016E557F4FCE0188559F4F26
:104F70000E94C314CA56DF4FF982E882C659D04056
:104F80008EE092E0C856DF4F99838883C859D0409D
:104F900083E0C656DF4F8883CA59D040C556DF4FDD
:104FA0008881CB59D04080788068C556DF4F888390
:104FB000CB59D040BE016A567F4FCE0184569F4FD9
:104FC0000E94C3140E948101C056DF4F88819981DD
:104FD000C05AD040892B09F44DC0C456DF4FC88059
:104FE000D980CC59D040E0906D03F0906E03C45549
:104FF000DF4F88819981CC5AD040892B09F45BC05E
:10500000C855DF4FA880B980C85AD0406CE671E01F
:10501000C5010E949F2E892B09F44DC0E114F104B3
:1050200009F447C0B501D7018D919C910E949F2E34
:10503000892BD9F5B601F701828193810E949F2EB9
:10504000892B99F5D7011496ED91FC9181E0309769
:1050500011F0C8010995C456DF4F68817981CC5998
:10506000D040482FC855DF4F88819981C85AD04019
:105070000E94E7180E949501CE0184569F4F0E941E
:10508000F014CE0188559F4F0E94F0147E0129E54F
:10509000E20EF11C3BE0E31AF108C70105960E94FD
:1050A000F0140E151F05B1F724CCF701E680F78048
:1050B000B5CF85E0D0CFB12CE114F104F9F0B60101
:1050C000D70112968D919C910E949F2E892B89F475
:1050D000D7011496ED91FC9181E0309711F0C80151
:1050E0000995482FB601F701808191810E94E71848
:1050F000B92CD7011696ED90FC90DECFB110BACF47
:105100000E94EA0B8AE4E82E83E0F82ECF57DF4FA7
:10511000F982E882C158D04083E891E0CD57DF4F53
:1051200099838883C358D04089E0CB57DF4F888369
:10513000C558D040CA57DF4F8881C658D0408078C4
:105140008068CA57DF4F8883C658D0406AE673E04C
:10515000CE018F579F4F0E94EA1781EF90E0CC5409
:10516000DF4F99838883C45BD040CF57DF4FF982EC
:10517000E882C158D0408DE891E0CD57DF4F998348
:105180008883C358D0408CE0CB57DF4F8883C55805
:10519000D040CA57DF4F8881C658D0408078806899
:1051A000CA57DF4F8883C658D040BE016C547F4F2A
:1051B000CE018F579F4F0E94C416CF57DF4FF98201
:1051C000E882C158D0408AE991E0CD57DF4F9983FA
:1051D0008883C358D04087E0CB57DF4F8883C558BA
:1051E000D040CA57DF4F8881C658D0408078806849
:1051F000CA57DF4F8883C658D040CE018F579F4F84
:105200000E94AB16DC01CB01C056DF4F688179816B
:10521000C05AD0407F77C456DF4F4881CC59D04028
:10522000C356DF4F5881CD59D040272F2F77CE530B
:10523000DF4FE881C25CD040E0782E2E222AF22D8A
:10524000FF77CE53DF4FF883C25CD0409D017F2FA4
:105250000E94310DCF57DF4FF982E882C158D0400C
:105260008DEA91E0CD57DF4F99838883C358D040B2
:105270008BE0CB57DF4F8883C558D040CA57DF4FEC
:105280008881C658D04080788068CA57DF4F8883AD
:10529000C658D04069E773E0CE018F579F4F0E94F8
:1052A000C4170E94770FE6CE80E090E0892B11F4BE
:1052B0000C94FC1F0E940704882311F40C94FC1F1B
:1052C0000E9400000C94FC1FCF93DF93C0914A030F
:1052D000D0914B0380914D0390914E03009759F06C
:1052E000FC012081318130934E0320934D03BE0198
:1052F0000E94E00BEFCF80914A0390914B03DF9126
:10530000CF910C94D201FB01DC0104C08D9105907A
:10531000801921F441505040C8F7881B990B08951B
:10532000FB01DC0102C005900D9241505040D8F7BE
:105330000895FC0105900020E9F7809590958E0F67
:105340009F1F0895FC010590615070400110D8F72F
:10535000809590958E0F9F1F08950E94EF2908F465
:1053600081E00895E89409C097FB3EF490958095FC
:10537000709561957F4F8F4F9F4F9923A9F0F92F1B
:1053800096E9BB279395F695879577956795B79599
:10539000F111F8CFFAF4BB0F11F460FF1BC06F5F7F
:1053A0007F4F8F4F9F4F16C0882311F096E911C091
:1053B000772321F09EE8872F762F05C0662371F0B2
:1053C00096E8862F70E060E02AF09A95660F771FC6
:1053D000881FDAF7880F9695879597F90895990FA2
:1053E0000008550FAA0BE0E8FEEF16161706E807AF
:1053F000F907C0F012161306E407F50798F0621BD0
:10540000730B840B950B39F40A2661F0232B242BA4
:10541000252B21F408950A2609F4A140A6958FEFC3
:10542000811D811D08950E94262A0C94972A0E94AE
:10543000892A38F00E94902A20F0952311F00C94CC
:10544000802A0C94862A11240C94CB2A0E94A82A24
:1054500070F3959FC1F3950F50E0551F629FF001C7
:10546000729FBB27F00DB11D639FAA27F00DB11DE0
:10547000AA1F649F6627B00DA11D661F829F222769
:10548000B00DA11D621F739FB00DA11D621F839FF0
:10549000A00D611D221F749F3327A00D611D231FC6
:1054A000849F600D211D822F762F6A2F11249F5714
:1054B00050409AF0F1F088234AF0EE0FFF1FBB1F17
:1054C000661F771F881F91505040A9F79E3F5105D6
:1054D00080F00C94802A0C94CB2A5F3FE4F3983E32
:1054E000D4F3869577956795B795F795E7959F5F80
:1054F000C1F7FE2B880F911D9695879597F9089512
:1055000097F99F6780E870E060E008959FEF80EC76
:10551000089500240A941616170618060906089519
:1055200000240A9412161306140605060895092E7F
:105530000394000C11F4882352F0BB0F40F4BF2BEE
:1055400011F460FF04C06F5F7F4F8F4F9F4F08952E
:1055500057FD9058440F551F59F05F3F71F0479524
:10556000880F97FB991F61F09F3F79F08795089509
:10557000121613061406551FF2CF4695F1DF08C028
:10558000161617061806991FF1CF86957105610545
:1055900008940895E894BB2766277727CB0197F9ED
:1055A0000895052E97FB1EF400940E94E82A57FDEB
:1055B00007D00E943A2B07FC03D04EF40C94E82A43
:1055C00050954095309521953F4F4F4F5F4F08952F
:1055D00090958095709561957F4F8F4F9F4F08955F
:1055E0000E945C2BA59F900DB49F900DA49F800DF1
:1055F000911D11240895B7FF0C94F02A0E94F02AFF
:10560000821B930B08952F923F924F925F926F925D
:105610007F928F929F92AF92BF92CF92DF92EF9242
:10562000FF920F931F93CF93DF93CDB7DEB7CA1BC3
:10563000DB0B0FB6F894DEBF0FBECDBF09942A88EE
:10564000398848885F846E847D848C849B84AA8496
:10565000B984C884DF80EE80FD800C811B81AA8123
:10566000B981CE0FD11D0FB6F894DEBF0FBECDBFEE
:10567000ED010895A1E21A2EAA1BBB1BFD010DC06E
:10568000AA1FBB1FEE1FFF1FA217B307E407F507F2
:1056900020F0A21BB30BE40BF50B661F771F881FCE
:1056A000991F1A9469F760957095809590959B0164
:1056B000AC01BD01CF010895A29FB001B39FC0010D
:1056C000A39F700D811D1124911DB29F700D811D2E
:1056D0001124911D08955058BB27AA270E94832B9F
:1056E0000C94972A0E94892A38F00E94902A20F070
:1056F00039F49F3F19F426F40C94862A0EF4E095B1
:10570000E7FB0C94802AE92F0E94A82A58F3BA17C5
:10571000620773078407950720F079F4A6F50C94C7
:10572000CA2A0EF4E0950B2EBA2FA02D0B01B90159
:1057300090010C01CA01A0011124FF27591B99F007
:10574000593F50F4503E68F11A16F040A22F232F13
:10575000342F4427585FF3CF469537952795A79563
:10576000F0405395C9F77EF41F16BA0B620B730B0A
:10577000840BBAF09150A1F0FF0FBB1F661F771F7B
:10578000881FC2F70EC0BA0F621F731F841F48F430
:10579000879577956795B795F7959E3F08F0B0CFB9
:1057A0009395880F08F09927EE0F979587950895A0
:1057B0000E94EC2B0C94972A0E94902A58F00E9489
:1057C000892A40F029F45F3F29F00C94802A511176
:1057D0000C94CB2A0C94862A0E94A82A68F3992359
:1057E000B1F3552391F3951B550BBB27AA276217DD
:1057F0007307840738F09F5F5F4F220F331F441FEA
:10580000AA1FA9F335D00E2E3AF0E0E832D091501D
:105810005040E695001CCAF72BD0FE2F29D0660F0A
:10582000771F881FBB1F261737074807AB07B0E84D
:1058300009F0BB0B802DBF01FF2793585F4F3AF053
:105840009E3F510578F00C94802A0C94CB2A5F3F40
:10585000E4F3983ED4F3869577956795B795F795D9
:105860009F5FC9F7880F911D9695879597F90895C1
:10587000E1E0660F771F881FBB1F6217730784075D
:10588000BA0720F0621B730B840BBA0BEE1F88F76C
:10589000E09508950E94B02A88F09F5798F0B92F9C
:1058A0009927B751B0F0E1F0660F771F881F991F55
:1058B0001AF0BA95C9F714C0B13091F00E94CA2A03
:1058C000B1E008950C94CA2A672F782F8827B85F13
:1058D00039F0B93FCCF3869577956795B395D9F7AD
:1058E0003EF490958095709561957F4F8F4F9F4FB7
:1058F00008950E94EF2908F48FEF0895DB018F933C
:105900009F930E94F02ABF91AF91A29F800D911D9D
:10591000A39F900DB29F900D11240895991B79E0DB
:1059200004C0991F961708F0961B881F7A95C9F72F
:1059300080950895AA1BBB1B51E107C0AA1FBB1F7E
:10594000A617B70710F0A61BB70B881F991F5A950B
:10595000A9F780959095BC01CD010895EE0FFF1F2A
:105960000590F491E02D09940F931F93CF93DF934B
:105970008230910510F482E090E0E0917F03F09195
:10598000800330E020E0B0E0A0E0309799F42115EA
:10599000310509F44AC0281B390B24303105D8F5EC
:1059A0008A819B816115710589F1FB019383828353
:1059B000FE0111C0408151810281138148175907AE
:1059C000E0F04817590799F4109761F012960C937C
:1059D000129713961C933296CF01DF91CF911F91AE
:1059E0000F91089500937F0310938003F4CF211546
:1059F000310551F04217530738F0A901DB019A0134
:105A0000BD01DF01F801C1CFEF01F9CF9093800311
:105A100080937F03CDCFFE01E20FF31F819391931B
:105A20002250310939832883D7CF20917D033091CB
:105A30007E03232B41F42091050130910601309320
:105A40007E0320937D0320910301309104012115F1
:105A5000310541F42DB73EB740910701509108013F
:105A6000241B350BE0917D03F0917E03E217F307D1
:105A7000A0F42E1B3F0B2817390778F0AC014E5FBE
:105A80005F4F2417350748F04E0F5F1F50937E037A
:105A900040937D03819391939FCFF0E0E0E09CCF12
:105AA000CF93DF930097E9F0FC01329713821282C3
:105AB000A0917F03B0918003ED0130E020E01097CA
:105AC000A1F420813181820F931F20917D033091B9
:105AD0007E032817390709F061C0F0937E03E09335
