:100000000C94C5000C94ED000C94ED000C94ED00E4
:100010000C94ED000C94ED000C94ED000C94ED00AC
:100020000C94ED000C94ED000C94ED000C94E31A8C
:100030000C94ED000C94ED000C94ED000C94ED008C
:100040000C94991A0C94ED000C94671A0C94411AB4
:100050000C94ED000C94ED000C94ED000C94ED006C
:100060000C94ED000C94ED00756E6368616E67652D
:100070006400756E617661696C61626C65007065C3
:10008000726365707465640065787465726F63652A
:100090007074696F6E0070726F7072696F636570F3
:1000A00074696F6E00696E7465726F6365707469F0
:1000B0006F6E00696E76616C69640072656A656373
:1000C00074656400616C726561647900756E61626B
:1000D0006C65000000000800020100000304070036
:1000E00000000000000000756E6B6E6F776E007090
:1000F00065726365707465640070726F7072696FA9
:1001000063657074696F6E00756E6B6E6F776E00ED
:10011000657865637574656400CDCCCC3D0AD723E2
:100120003C17B7D13877CC2B329595E6241FB14FC9
:100130000A000020410000C84200401C4620BCBE0E
:100140004CCA1B0E5AAEC59D740000000025002845
:10015000002B0000000000240027002A00040404F3
:100160000404040404020202020202030303030360
:10017000030102040810204080010204081020013D
:100180000204081020009F1BD62711241FBECFEFAA
:10019000D8E0DEBFCDBF12E0A0E0B1E0E8E9FAE5CB
:1001A00002C005900D92A634B107D9F724E0A6E469
:1001B000B2E001C01D92A633B207E1F710E0C4EC33
:1001C000D0E004C02197FE010E94202BC33CD10740
:1001D000C9F70E940C1D0C943B2D0C940000CF938A
:1001E000C82F80912A0390912B03DC01ED91FC91A3
:1001F0000084F185E02D0995181619067CF480918C
:100200002A0390912B03DC01ED91FC910284F3858C
:10021000E02D099521E0C817190609F020E0822F8A
:10022000CF9108958091370381110FC080912A03E7
:1002300090912B03DC01ED91FC910190F081E02D78
:1002400060EC099581E0809337030895809137032E
:100250008823C9F080912A0390912B03DC01ED9152
:10026000FC910190F081E02D60EC099580912A03CA
:1002700090912B03DC01ED91FC910680F781E02D3C
:1002800009951092370308958F929F92AF92BF9273
:10029000FF920F931F93CF93DF93F0901B032BE0FC
:1002A0002F1508F451C020911D0308E512E0021B30
:1002B000110927FD1395000F111F000F111F209129
:1002C0001C03C8E8D0E0C21BD10927FDD395CC0F91
:1002D000DD1FCC0FDD1F4E010D2E000CAA08BB0840
:1002E000DC01853B910514F0A4EBB0E09801012EF0
:1002F000000C440B550B281939094A095B090E9467
:100300006D2924EB30E040E050E00E944329820E4A
:10031000931EA41EB51E8C169D062CF0E8018016B7
:1003200091060CF4E4012297CC0FDD1F2FB7F8944F
:100330008F2D90E0FC01EE0FFF1FE80FF91FE75A29
:10034000FD4FD283C1832FBFDF91CF911F910F91BA
:10035000FF90BF90AF909F908F90089590E0FC0128
:10036000EF58FE4F2491835A9E4FFC0184918823BD
:1003700099F090E0880F991FFC01ED5AFE4FA5916E
:10038000B491FC01E75BFE4F859194918FB7F8948F
:10039000EC91E22BEC938FBF0895FF920F931F9384
:1003A000CF93DF938C01F12C60914D0370914E033C
:1003B00080914F03F816C8F484E0F89EE001112400
:1003C000C60FD71F6A817B816115710541F0D80185
:1003D000ED91FC910280F381E02DC80109951B820B
:1003E0001A8218821982F394DFCF10924F038FEF95
:1003F00080935103B3E06D337B0789F0D801ED9111
:10040000FC910280F381E02DC80109958DE393E012
:1004100090934E0380934D0384E080935003DF91CB
:10042000CF911F910F91FF9008952F923F924F927D
:100430005F926F927F928F929F92AF92BF92CF9274
:10044000DF92EF92FF920F931F93CF93DF9300D031
:1004500000D000D01F92CDB7DEB79A8389834A01BE
:100460005B0120E836E948E15BE4CB01B4010E947E
:10047000EB2A87FD89C004E110E080E290E09C83D4
:100480008B83312C212CF801EF5CFE4F25913591A7
:1004900045915491C501B4010E94EB2A87FD11C01A
:1004A000F801E75EFE4F2591359145915491C501C4
:1004B000B4010E9485284B015C01AB81BC812A0EEE
:1004C0003B1EEB81FC81F595E795FC83EB830450A3
:1004D00011090C3FFFEF1F07B1F677247A9420E053
:1004E00030E0A901C501B4010E94EB2A18160CF0F6
:1004F00054C02CEA35EC47E257E3C501B4010E9431
:100500001F2818160CF449C0972DA4E09A02800108
:100510001124F12CE12CF801E75EFE4F6F010F5C16
:100520001E4FFFEF7F1609F438C0F601EE0DFF1DD8
:10053000659175918591949120E030E040E251E41D
:100540000E948528A50194010E94EB2A18168CF4BC
:10055000F801EE0DFF1D2591359145915491C5018E
:10056000B4010E9485284B015C018B819C81281A73
:10057000390AAB81BC81B595A795BC83AB837A94CE
:10058000B4E0EB1AF108CDCF80E290E09C838B833E
:1005900035E0732E312C212CA2CFC501B4010E946D
:1005A000BC2A6B017C012B013C0180E492E4AFE0AA
:1005B000B0E08B839C83AD83BE8396E09F83AAE0EB
:1005C0004A16510461047104E0F06B817C818D81D5
:1005D0009E812AE030E040E050E00E94AC292B836D
:1005E0003C834D835E83BF81B150BF83C301B201A1
:1005F0002AE030E040E050E00E94AC2929013A01B5
:10060000DECFC701B6010E9424289B01AC01C501C1
:10061000B4010E94DD294B015C016B817C818D81DD
:100620009E810E9424289B01AC01C501B4010E9457
:1006300085282B013C010E94BC2A4B015C010E94D1
:1006400024289B01AC01C301B2010E94DD299B015A
:10065000AC010E94DE290E94BC2A860E971EA81EAD
:10066000B91E8B819C81AD81BE8188169906AA0630
:10067000BB06C0F09FEFC91AD90AE90AF90A21148A
:10068000310439F1AAE0CA16D104E104F10408F1F9
:10069000BFEF2B1A3B0A812C912C5401C12CD12C79
:1006A0007601C3948AE0482E512C612C712CC5012F
:1006B000B401A30192010E94AC29672B682B692B1E
:1006C00061F4EF811E164CF449015A01E150EF83A9
:1006D000EECF812C912C5401E5CFA981BA81CD9226
:1006E000DD92ED92FC921397FD0184829582A682A1
:1006F000B782318620868F818287CD0127960FB6FB
:10070000F894DEBF0FBECDBFDF91CF911F910F9147
:10071000FF90EF90DF90CF90BF90AF909F908F9021
:100720007F906F905F904F903F902F900895089525
:10073000AF92BF92CF92DF92EF92FF920F931F93EF
:10074000CF93DF936C017B018B01040F151FEB012D
:100750005E01AE18BF08C017D10759F06991D601E4
:10076000ED91FC910190F081E02DC6010995892B56
:1007700079F7C501DF91CF911F910F91FF90EF9015
:10078000DF90CF90BF90AF900895FC01538D448DC2
:10079000252F30E0842F90E0821B930B541710F02C
:1007A000CF96089501970895FC01918D828D981739
:1007B00061F0A28DAE0FBF2FB11D5D968C91928D11
:1007C0009F5F9F73928F90E008958FEF9FEF089542
:1007D000FC01918D828D981731F0828DE80FF11D0B
:1007E000858D90E008958FEF9FEF0895FC01918D26
:1007F000228D892F90E0805C9F4F821B91098F731F
:10080000992708958EE792E00E94F60321E0892B54
:1008100009F420E0822F089580E090E0892B29F0F0
:100820000E94020481110C9400000895FC01A48D23
:10083000A80FB92FB11DA35ABF4F2C91848D90E002
:1008400001968F739927848FA689B7892C93A089E5
:10085000B1898C91837080648C93938D848D98136F
:1008600006C00288F389E02D80818F7D8083089502
:10087000EF92FF920F931F93CF93DF93EC0181E0F0
:10088000888F9B8D8C8D98131AC0E889F989808197
:1008900085FF15C09FB7F894EE89FF896083E889CA
:1008A000F98980818370806480839FBF81E090E0BC
:1008B000DF91CF911F910F91FF90EF900895F62E49
:1008C0000B8D10E00F5F1F4F0F731127E02E8C8DE3
:1008D0008E110CC00FB607FCFACFE889F989808128
:1008E00085FFF5CFCE010E941604F1CFEB8DEC0F02
:1008F000FD2FF11DE35AFF4FF0829FB7F8940B8F45
:10090000EA89FB8980818062CFCFCF93DF93EC01AE
:10091000888D8823B9F0AA89BB89E889F9898C91E7
:1009200085FD03C0808186FD0DC00FB607FCF7CFA3
:100930008C9185FFF2CF808185FFEDCFCE010E94A3
:100940001604E9CFDF91CF91089590E0FC01ED52BC
:10095000FF4F2491FC01EF58FE4F3491FC01E35A04
:10096000FE4FE491EE23C9F0222339F0233001F148
:10097000A8F4213019F1223029F1F0E0EE0FFF1F29
:10098000E75BFE4FA591B4918FB7F894EC9161119C
:1009900026C030953E233C938FBF08952730A9F0A1
:1009A0002830C9F0243049F7809180008F7D03C042
:1009B000809180008F7780938000DFCF84B58F7720
:1009C00084BDDBCF84B58F7DFBCF8091B0008F7766
:1009D0008093B000D2CF8091B0008F7DF9CF3E2BB5
:1009E000DACF61E08DE00E94A50481E08093580297
:1009F00080E0089560E08DE00E94A5041092580206
:100A000080E008952FB7F89460914C0270914D02E8
:100A100080914E0290914F022FBF08950F931F9324
:100A2000CF93DF93EC010E940205688779878A875C
:100A30009B87E881F9810284F385E02DCE01099539
:100A400097FF15C00E940205088519852A853B85F8
:100A5000601B710B820B930B0C811D812E813F81DA
:100A6000601771078207930720F38FEF9FEFDF91E5
:100A7000CF911F910F9108956F3FA9F0E62FE29556
:100A8000EF7044E0E49F90011124DC01ED91FC91B2
:100A9000E20FF31F6F7082819381B6E06B9F800D30
:100AA000911D1124089590E080E00895CF93C82F00
:100AB000CB016C2F45960E943C052FEF009711F05B
:100AC000FC012581BC018C2F922FCF910895982F86
:100AD00080336CF08A3324F08F3524F08B3724F484
:100AE00081E0089581341CF081E09B350CF080E0BA
:100AF0000895CF93DF93EC0188819981DC01ED911A
:100B0000FC910190F081E02D09952A813B81820FB3
:100B1000931F9B838A83DF91CF910895CF93DF93B7
:100B2000EC0188819981DC01ED91FC910280F381D7
:100B3000E02D09952A813B81820F931F9B838A8335
:100B4000DF91CF9108958F929F92AF92BF92CF92F3
:100B5000DF92EF92FF920F931F93CF93DF93CDB766
:100B6000DEB766970FB6F894DEBF0FBECDBF6C013F
:100B70008E01095E1F4F78018AE0882E912CA12CEE
:100B8000B12CCB01BA01A50194010E94AC29942F8C
:100B9000852F605DF80162938F01A901692F782F7D
:100BA000411551056105710561F7A7014E1B5F0BEA
:100BB000BF01C6010E948E0566960FB6F894DEBF8F
:100BC0000FBECDBFDF91CF911F910F91FF90EF909E
:100BD000DF90CF90BF90AF909F908F900895FC01D1
:100BE0008485811114C0A781B085818592852FEFFE
:100BF0003FEFA817B90730F4CD010196908787839E
:100C00002C9130E037FD20E0238781E084878385C5
:100C100008951F93CF93DF93EC01162F0E94EF05E9
:100C2000811306C01C8681E0DF91CF911F9108954A
:100C300080E0FACF0F931F93CF93DF938C01EB01EA
:100C40008991882369F0C8010E94EF05882379F013
:100C5000FE013197908198130DC0F8011486F0CFF2
:100C600090E080E0DF91CF911F910F91089582E095
:100C700090E0F8CF83E090E0F5CFCF93DF93EC01E5
:100C8000CE010E94EF058B304CF489305CF4882350
:100C900059F081E08E8390E080E00BC08D3011F040
:100CA0008032B9F71C86ECCF8E81811105C081E0BE
:100CB00090E0DF91CF91089582E090E0FACFCF935A
:100CC000DF93DB01FC01808191810097E1F01296B6
:100CD0002C91129713964C911397342F3F77FC0168
:100CE00043814217130671F7ED91FC911197EC01C6
:100CF00024962E0F3F1FE217F30729F051914991D7
:100D00005417C9F3DFCFDF91CF910895DC015296DC
:100D10009C915297915084E0989F90011124509695
:100D2000ED91FC91E20FF31F2281338121153105F2
:100D300079F041818081481758F481E0840F8183E4
:100D400086E0489F200D311D11242115310521F425
:100D500060E070E08FEF0895B901892F8295807F60
:100D6000840F08954F925F926F927F928F929F921D
:100D7000AF92BF92CF92DF92EF92FF920F931F93A9
:100D8000CF93DF9300D000D01F92CDB7DEB7DC0148
:100D90002C912B32E1F12D32D9F50196EE24E3941A
:100DA000FC01208130ED320F3A3010F02E3291F5F7
:100DB0008C0160E070E0CB01F801219130ED832ED1
:100DC000820E39E0381508F444C06A3949E97407DD
:100DD000840749E1940708F046C0AAE0B0E09B010F
:100DE000AC010E946229912CB12CA12C2401350167
:100DF000409450946094709446165706680679069D
:100E000090F1680D791D8A1D9B1D8F01D5CF01962C
:100E1000E12CC6CF198229813A814B815C816D8199
:100E200070E080E090E00F900F900F900F900F9087
:100E3000DF91CF911F910F91FF90EF90DF90CF90B6
:100E4000BF90AF909F908F907F906F905F904F90EA
:100E50000895211108C0EE2051F16130710581051E
:100E600050E89507A0F0F12CBAE08B2E912CA12C24
:100E7000B12C6115710530E883079105F8F0A501E3
:100E800094010E94AC29CA01B901F394F2CF22E087
:100E900029839B01AC0188279927DC01821B930BD6
:100EA000A40BB50B8A839B83AC83BD83B4CF23E0B3
:100EB00029836A837B838C839D83ADCFF801D8011E
:100EC0002D918D0130ED320F3A3010F4F394F6CFBE
:100ED0002E3201F58F010F5F1F4FF8010F5F1F4F7B
:100EE0002081A0EDDA2ED20EB9E0BD1598F06C3C51
:100EF000ECEC7E07ECE08E07910578F7AAE0B0E015
:100F00009B01AC010E9462296D0D711D811D911D17
:100F1000FA94E3CF20812F7D10E000E0253409F022
:100F200050C021812D32B1F53296CC24C394DF011B
:100F300010E000E02F2D0F2C000C330B5AE0B52EE3
:100F4000FD01DD9040ED4D0D4A30B0F5B09EA001A1
:100F5000B19E500D11240D2DDD0C110B0053110904
:100F6000040F151FA801420F531F4732510544F3C8
:100F7000CC20B9F080E090E0A0E0B0E8E11003C040
:100F800080E090E0DC0121E029838A839B83AC83AD
:100F9000BD8341CF2B3219F03196C12CC8CF329688
:100FA000FCCF80E090E0A0E8BFEFE110ECCF80E064
:100FB00090E0A0E8BFE7E7CFCC2019F011950195AC
:100FC00011092081211126CF0F0D111DF7FC1A9553
:100FD0000E94242831E3C32E31E0D32E10161106CF
:100FE0003CF011950195110949E1C42E41E0D42E40
:100FF000F12C0115110591F000FF0CC024E0F29EC8
:10100000F0011124EC0DFD1D259135914591549170
:101010000E94852815950795F394EBCFE110905821
:1010200021E029836A837B838C839D83F4CECF93D5
:10103000DF9300D000D01F92CDB7DEB7FC01A081B6
:10104000B181109709F43DC01496EC911497E250C9
:10105000ED3008F036C0F0E0E05DF74F0C94202B47
:1010600050086108650868083D0861086108610862
:1010700044086108490861086C086C9170E090E0D0
:1010800080E00E9424282CC06D917D918D919C91CF
:10109000F8CF6D917D918D919C910E94262820C062
:1010A000CD010E94B2063A834B835C836D836A81D3
:1010B0007B818C819D81223081F3233011F321309B
:1010C00079F060E070E0CB010BC08D919C91E9CF8D
:1010D0008D919C910496E5CF6D917D918D919C9120
:1010E0000F900F900F900F900F90DF91CF91089578
:1010F0001F93CF93DF93EC01CB011B81612F4596AA
:101100000E943C05998388831A83009719F0FC019B
:1011100085818B83DF91CF911F910895CF92DF92CC
:10112000EF92FF920F931F93CF93DF937C016B019C
:101130008A01FC01C081D1814F3F510509F0B0F413
:10114000E881F9810480F581E02D4B5F5F4FCE018E
:101150000995009759F0FC010383DF91CF911F910E
:101160000F91FF90EF90DF90CF900895E881F98183
:101170000280F381E02DB601CE01099581E0F701EF
:10118000828390E080E0E9CF1F93CF93DF93EC015F
:10119000162F6A817B816115710589F04C815D8113
:1011A000FB0183818417150651F4440F551F4F5FCF
:1011B0005F4F888199810E948E089B838A838A81F0
:1011C0009B81009759F02C813D81A9014F5F5F4FB2
:1011D0005D834C83820F931FFC011483DF91CF91B9
:1011E0001F9108959F92AF92BF92CF92DF92EF929C
:1011F000FF920F931F93CF93DF9300D000D01F92E5
:10120000CDB7DEB78C010E94EF05D82EF801148609
:10121000F12CE12C60EFC62EC8010E94EF05F80109
:101220001486D81609F4B3C0811113C082E090E08F
:101230000F900F900F900F900F90DF91CF911F9113
:101240000F91FF90EF90DF90CF90BF90AF909F9065
:1012500008958C3509F099C0C8010E94EF058823D4
:1012600029F3E2E5F1E0853709F083C0F80114863F
:1012700054E0952EB12CA12CC8010E94EF058823C3
:10128000A9F2813434F48053803130F083E090E06F
:10129000CFCF8F7D8753F8CF44E0AA0CBB1C4A9573
:1012A000E1F7A82AF80114869A949110E5CFC501B8
:1012B000985D8115944020F47501F3E0FF22ACCFD6
:1012C000C5019C5D81159440A8F483E0B822B70164
:1012D000762F6627770F770F6A297B2990E080E0C9
:1012E0000196603871058105910540F4C8010E949E
:1012F000C40892CFB50190E080E0F3CF1982262F89
:101300002F7320682A8326E09695879577956795B1
:101310002A95D1F76032710580F4606C6B835E01B1
:10132000E4E0AE0EB11CF50162915F01662309F4A1
:1013300073CFC8010E94C408F6CF262F2F732068F0
:101340002B8386E0769567958A95E1F76031710584
:1013500038F4606E6C835E01F5E0AF0EB11CE3CF34
:1013600060686C83CD825E0126E0A20EB11CDBCFEB
:1013700032969081992309F489CF8913F9CF81811D
:10138000882309F483CFF8011486682FAFCF8281B8
:101390009381892B19F484E090E04ACF90E080E0BB
:1013A00047CFAF92BF92CF92DF92EF92FF920F930F
:1013B0001F93CF93DF9300D000D0CDB7DEB7DC0111
:1013C00012962D913C9113972C5F3F4F14964D919F
:1013D0005C914430510580F57901D901E0E0142F8A
:1013E000022FFA2FF21BF11730F4DD90F1E0D1104B
:1013F000F0E0EF2BF6CFE1111FC082E0FB01848308
:101400008E2D801B811728F4D7018D917D0181934A
:10141000F7CF640F751FFB0110820F900F900F9094
:101420000F90DF91CF911F910F91FF90EF90DF9080
:10143000CF90BF90AF9008957B018C01420F531F56
:10144000DA011C92FC01C080D180A480B5803A836F
:101450002983AB828B2D8F778C83BE016F5F7F4F8B
:10146000C60103960E945F060097D9F4D801129630
:101470006D917C91A501C6010E948E08D801ED9165
:10148000FC9123813481DC012D933C9394838383ED
:10149000F8011382128225E0F7012483918380836F
:1014A000BCCFDC0112962C9112972F5F12962C93D1
:1014B000F2CFDB01ED91FC9111970280F381E02DD9
:1014C000BC01CD010994CF93DF93809138039091B3
:1014D00039030E94CD0110923A03C0913803D09194
:1014E000390380913B0390913C03009759F0FC0134
:1014F0002081318130933C0320933B03BE010E9445
:10150000590AEFCF10925603DF91CF910895AF9211
:10151000BF92CF92DF92EF92FF920F931F93CF93E0
:10152000DF93EC018B018C8180FF24C0A881B981FD
:10153000FB018381948130E020E00097D9F0A81767
:10154000B907D1F5F8016081718112968C911297DB
:10155000815012968C93129781110CC08D919C91A1
:1015600011972115310529F1F90191838083CD016E
:101570000E94590A8C81807631F1209721F1F88000
:101580005801F5E1AF0EB11C8FEFF816D1F06F2DB9
:10159000C5010E943C056C01FC01E580B8010E9478
:1015A000870AF801818DF6018083F801F18EFE2C07
:1015B000EBCF94838383DBCF9C01FC0180819181FD
:1015C000BCCFF882F9821C82DF91CF911F910F91DD
:1015D000FF90EF90DF90CF90BF90AF900895CF93A2
:1015E000DF93EC01CB01CF3FD10509F0B0F4BE0190
:1015F0006B5F7F4F6C177D0780F0DC01ED91FC91F4
:101600000190F081E02D0995009721F0FC01C38342
:1016100021E02283DF91CF91089590E080E0FACF1E
:101620008F929F92AF92BF92CF92DF92EF92FF92F2
:101630000F931F93CF93DF9300D000D0CDB7DEB7C9
:10164000DC0169014A014115510509F456C077FFD3
:1016500008C084E014968C9314974D935C9381E0BA
:101660004DC07F777B016430710518F5FA0190E079
:10167000242F8E2F8819861730F4819131E0811143
:1016800030E0932BF6CF911114C082E014968C9326
:1016900014978D01842F821B861738F4FA018191EB
:1016A000AF01F80181938F01F5CFA60FB11D1C92F8
:1016B000D6CF8D01F601A080B1809A8289826B839A
:1016C0007C83BE016F5F7F4FC60103960E945F0659
:1016D000009751F0FC0122812F5F228325E0F80161
:1016E000248391838083BBCFB501C7010E94EF0A99
:1016F0000097A9F481E0F601828380E00F900F90BB
:101700000F900F90DF91CF911F910F91FF90EF906D
:10171000DF90CF90BF90AF909F908F900895E98118
:10172000FA81DC011496A7014E0F5F1FE417F5073D
:1017300019F021912D93FACFFC01EE0DFF1D1482BB
:10174000F60123813481FC0131832083F6019483E7
:101750008383C4CFCF92DF92EF92FF920F931F93B8
:10176000CF93DF930097A9F089016A017B01EC0117
:10177000B9010E94870A9801B701A601CE01DF9145
:10178000CF911F910F91FF90EF90DF90CF900C942D
:10179000100BDF91CF911F910F91FF90EF90DF9091
:1017A000CF900895CB010C94262BEF92FF920F93CC
:1017B0001F93CF93DF93009779F0EB018C016FE7D4
:1017C00070E00E9414287C01AC01B801CE010E9497
:1017D0000228CE0DDF1D1882DF91CF911F910F914E
:1017E000FF90EF900895CF93DF93EC01888199816A
:1017F000009711F00E94C22B198218821D821C8250
:101800001B821A82DF91CF910895FC018081918122
:10181000009711F00C94C22B0895CB010C94C22BAD
:10182000FB0101900020E9F73197AF01461B570BF0
:101830000C948E05CF92DF92EF92FF920F931F933D
:10184000CF93DF938C016B017A0162E20E947905EC
:10185000E601EC0CFD1CEC16FD0699F06991E2E541
:10186000F1E0D480DD20C9F0329683816813F9CF8E
:101870006CE5C8010E9479056D2DC8010E947905AB
:10188000EACF62E2C801DF91CF911F910F91FF90E3
:10189000EF90DF90CF900C9479056111EECF65E663
:1018A00071E0C8010E94100CD6CFFC0130E020E0AE
:1018B0006115710549F0DB010D900020E9F79D01EC
:1018C00021503109261B370B718360832283832FBC
:1018D0008F7793819078982B40FB97F993830895A5
:1018E0002F923F924F925F926F927F928F929F9230
:1018F000AF92BF92CF92DF92EF92FF920F931F931E
:10190000CF93DF93CDB7DEB7A1970FB6F894DEBFC4
:101910000FBECDBF7C018B01DC0114968C91149716
:10192000863009F471C1E0F4833009F45DC158F4E4
:1019300040E0B701823009F42FC16CE671E0C801C4
:101940000E94100CF3C0843009F423C18530A9F73C
:10195000ED91FC91438150E0BF016C5F7F4F25C149
:101960008E3009F443C0E0F48A3009F448C18C3069
:1019700021F7CD90DD90ED90FC90B701A601F7FE28
:101980000BC06DE2C8010E94790544275527BA01B2
:101990004C195D096E097F09C8010E94A30508C1A1
:1019A000803209F4CDC0803441F66BE5C8010E9455
:1019B0007905F701F080FFEFFF1609F4BCC0D801EC
:1019C00014968D919C916F2D45960E943C057C014B
:1019D000B8010E94700CF701F580FFEFFF1609F4C3
:1019E000AAC06CE2C8010E947905E5CFF701C0806A
:1019F000D180E280F380A7019601C701B6010E9461
:101A00001F2881119ACF20E030E0A901C701B6015B
:101A10000E941F28882379F0A7019601C701B6010B
:101A20000E94DE299B01AC01C701B6010E941F285C
:101A3000882309F482CF20E030E0A901C701B60174
:101A40000E941F2887FF08C06DE2C8010E94790527
:101A5000F7FAF094F7F8F0945E01F7E1AF0EB11CDD
:101A6000B701A601C5010E941502EF8CF8A0D9A00C
:101A70004F89588D698D7A8DC8010E94A305DD209C
:101A800091F16B8D7C8D8D8D9E8D3E0121E1620EDD
:101A9000711CCD2C43012AE0222E312C412C512CDB
:101AA000CA94AFEFCA1659F0A20191010E94AC2965
:101AB000605DF30162933F01B901CA01F1CF8D2D41
:101AC00090E0BC0160957095F401E81BF90B31972B
:101AD0008EE2808344275527461B570B680D791DDE
:101AE000C8010E948E05E114F10401F165E6C80108
:101AF0000E947905F7FE07C06DE2C8010E947905D2
:101B0000F194E194F108F5012AE030E0C701B90150
:101B10000E940C2B805D82937B01672BB9F7A50196
:101B20004E1B5F0BBF01C8010E948E05D8011296A3
:101B30008D919C9140C06DE5C8010E947905F6CF5A
:101B40006BE7C8010E947905F701F080EE24E39469
:101B5000BB24B394FFEFFF16D1F0D80114968D91FA
:101B60009C916F2D45960E943C056C01B8010E9426
:101B7000700CF601F580FFEFFF1639F06AE3E11013
:101B800001C06CE2C8010E947905EB24E3CF6DE748
:101B9000D3CF6D917C9141E0CE0101960E94550C0E
:101BA0004B815C815F7769817A81C8010E941A0C40
:101BB000F80182819381A1960FB6F894DEBF0FBE23
:101BC000CDBFDF91CF911F910F91FF90EF90DF90EC
:101BD000CF90BF90AF909F908F907F906F905F90CD
:101BE0004F903F902F900895ED91FC91438150E0EC
:101BF000BF016C5F7F4FC8010E948E05D9CF4D9108
:101C00005D916D917C91C8CE8C9161E771E08111FD
:101C100002C066E771E0C8010E94100CC9CF0F93A3
:101C20001F93CF93DF9300D000D000D0CDB7DEB7A5
:101C30000AE213E0D8018D919C91DC01ED91FC91B9
:101C40000190F081E02D6EE10995F801808191818C
:101C50009A8389831C821B8288E393E09E838D8311
:101C6000BE016F5F7F4F82E593E00E94700CD80148
:101C70008D919C91DC01ED91FC910190F081E02D22
:101C80006AE0099526960FB6F894DEBF0FBECDBF69
:101C9000DF91CF911F910F910895CF93DF9300D0E3
:101CA00000D0CDB7DEB7FC018481843061F085308F
:101CB000E1F040E0BF01823049F060E070E080E098
:101CC00090E090680BC06081718141E0CE01019687
:101CD0000E94550C69817A818B819C810F900F90B5
:101CE0000F900F90DF91CF91089580819181FC0139
:101CF000238130E00496BC01C9019F779F77EECF26
:101D00009F92AF92BF92CF92DF92EF92FF920F938A
:101D10001F93CF93DF9300D000D0CDB7DEB779010A
:101D2000C62EB72E8A01452B09F450C0B901FC011B
:101D300080810E94560569837A838B839C83DD248E
:101D4000D3949924939489819A810097F9F0DD20A6
:101D5000B1F00E944D0E2C2D3B2D3F77AC015F77EB
:101D60002417350761F4D801E62FF72F200F311F14
:101D7000A217B30779F19D9181919817C9F3D924DE
:101D8000B701CE0101960E947808DDCF2FEF89833D
:101D90009A832B83AC8289819A81009739F0B701AD
:101DA000CE0101960E94780889819A810F900F9048
:101DB0000F900F90DF91CF911F910F91FF90EF90B7
:101DC000DF90CF90BF90AF909F9008952FEF90E05D
:101DD00080E0DDCFAC8089819A812B81D8CFFC0156
:101DE00020813181C9014A96428153816481758184
:101DF000009759F0D9015E96EC91E03211F090E035
:101E000080E0009711F00C94800E90E080E008953F
:101E10000F931F93CF93DF93EC01888199810097F3
:101E200059F02A813B812617370730F081E0DF9196
:101E3000CF911F910F9108958B016F5F7F4F0E948B
:101E40004B2C009759F0998388831B830A832C813C
:101E50003D81232B59F7FC011082E8CF80E0E7CFCA
:101E6000CF92DF92EF92FF920F931F93CF93DF9366
:101E70008C01DC019296ED91FC91E80FF91F128222
:101E80006C01B2E0CB0ED11CC114D10449F1F601B2
:101E900001900020E9F73197EC19FD09F1F0DC0120
:101EA000ED90FC90D7011496CD91DC91CE0FDF1F01
:101EB000BE01C7010E94080F882391F0F70120811D
:101EC000318184819581B601820F931F0E941A2D62
:101ED000D7011596DC93CE931497F80113A212A2A2
:101EE000D80192968D919C91DF91CF911F910F9186
:101EF000FF90EF90DF90CF9008951F93CF93DF93E3
:101F0000EC01162F8AA19BA101968097B8F48AA1B3
:101F10009BA19C012F5F3F4F3BA32AA38C0F9D1FCA
:101F2000FC01128321E030E08CA19DA1820F931F60
:101F30009DA38CA3DF91CF911F910895CE010E94A4
:101F4000300F892B21F330E020E0EECFBF92CF920B
:101F5000DF92EF92FF920F931F93CF93DF93EC01E9
:101F60006A018B017B01E40EF51EE016F106D1F04B
:101F7000F801B1908F018AA19BA10196809760F42E
:101F80008AA19BA19C012F5F3F4F3BA32AA38C0FEB
:101F90009D1FFC01B282E9CFCE010E94300F892B38
:101FA00079F3E3CF4CA15DA14C0D5D1D5DA34CA366
:101FB000DF91CF911F910F91FF90EF90DF90CF9025
:101FC000BF9008958F929F92AF92BF92CF92DF926F
:101FD000EF92FF920F931F93CF93DF93CDB7DEB7AE
:101FE00066970FB6F894DEBF0FBECDBF6C018E01B1
:101FF000095E1F4F78018AE0882E912CA12CB12C0C
:10200000CB01BA01A50194010E94AC29942F852F20
:10201000605DF80162938F01A901692F782F411546
:1020200051056105710561F7A7014E1B5F0BBF01EB
:10203000C6010E94A60F66960FB6F894DEBF0FBECB
:10204000CDBFDF91CF911F910F91FF90EF90DF9067
:10205000CF90BF90AF909F908F900895FB0101901B
:102060000020E9F73197AF01461B570B0C94A60FE0
:10207000CF92DF92EF92FF920F931F93CF93DF9354
:102080008C016B017A0162E20E947D0FE601EC0C8B
:10209000FD1CEC16FD0699F06991E2E5F1E0D480B3
:1020A000DD20C9F0329683816813F9CF6CE5C80151
:1020B0000E947D0F6D2DC8010E947D0FEACF62E264
:1020C000C801DF91CF911F910F91FF90EF90DF90AA
:1020D000CF900C947D0F6111EECF65E671E0C801E1
:1020E0000E942E10D6CF2F923F924F925F926F9206
:1020F0007F928F929F92AF92BF92CF92DF92EF9298
:10210000FF920F931F93CF93DF93CDB7DEB7A197C5
:102110000FB6F894DEBF0FBECDBF7C018B01DC0192
:1021200014968C911497863009F471C1E0F48330D1
:1021300009F45DC158F440E0B701823009F42FC1C1
:102140006CE671E0C8010E942E10F3C0843009F4DF
:1021500023C18530A9F7ED91FC91438150E0BF0187
:102160006C5F7F4F25C18E3009F443C0E0F48A30A4
:1021700009F448C18C3021F7CD90DD90ED90FC90B2
:10218000B701A601F7FE0BC06DE2C8010E947D0FEA
:1021900044275527BA014C195D096E097F09C8010A
:1021A0000E94E20F08C1803209F4CDC0803441F6AC
:1021B0006BE5C8010E947D0FF701F080FFEFFF166D
:1021C00009F4BCC0D80196968D919C916F2D4596CF
:1021D0000E943C057C01B8010E947310F701F58054
:1021E000FFEFFF1609F4AAC06CE2C8010E947D0F40
:1021F000E5CFF701C080D180E280F380A70196018E
:10220000C701B6010E941F2881119ACF20E030E05B
:10221000A901C701B6010E941F28882379F0A701F0
:102220009601C701B6010E94DE299B01AC01C701DE
:10223000B6010E941F28882309F482CF20E030E0F5
:10224000A901C701B6010E941F2887FF08C06DE2DF
:10225000C8010E947D0FF7FAF094F7F8F0945E0140
:10226000F7E1AF0EB11CB701A601C5010E9415022E
:10227000EF8CF8A0D9A04F89588D698D7A8DC8014F
:102280000E94E20FDD2091F16B8D7C8D8D8D9E8DF6
:102290003E0121E1620E711CCD2C43012AE0222E69
:1022A000312C412C512CCA94AFEFCA1659F0A2011F
:1022B00091010E94AC29605DF30162933F01B90175
:1022C000CA01F1CF8D2D90E0BC0160957095F401AD
:1022D000E81BF90B31978EE2808344275527461B74
:1022E000570B680D791DC8010E94A60FE114F10477
:1022F00001F165E6C8010E947D0FF7FE07C06DE29F
:10230000C8010E947D0FF194E194F108F5012AE0E3
:1023100030E0C701B9010E940C2B805D82937B01E4
:10232000672BB9F7A5014E1B5F0BBF01C8010E94C7
:10233000A60FD80194968D919C9140C06DE5C8017F
:102340000E947D0FF6CF6BE7C8010E947D0FF70159
:10235000F080EE24E394BB24B394FFEFFF16D1F09A
:10236000D80196968D919C916F2D45960E943C05C3
:102370006C01B8010E947310F601F580FFEFFF16A3
:1023800039F06AE3E11001C06CE2C8010E947D0FE0
:10239000EB24E3CF6DE7D3CF6D917C9141E0CE018B
:1023A00001960E94550C4B815C815F7769817A812F
:1023B000C8010E943810F80184A195A1A1960FB61A
:1023C000F894DEBF0FBECDBFDF91CF911F910F916B
:1023D000FF90EF90DF90CF90BF90AF909F908F9045
:1023E0007F906F905F904F903F902F900895ED9168
:1023F000FC91438150E0BF016C5F7F4FC8010E9498
:10240000A60FD9CF4D915D916D917C91C8CE8C91E5
:1024100061E771E0811102C066E771E0C8010E94C6
:102420002E10C9CFCF92DF92EF92FF920F931F939E
:10243000CF93DF93CDB7DEB7C85BD1090FB6F89461
:10244000DEBF0FBECDBF6B017C01CA01CB56DF4F93
:1024500059834883C559D040C954DF4F1982188227
:10246000C75BD0400E94F30B84E2FE01EB56FF4FA6
:10247000DE01AF58BF4F01900D928A95E1F784E2DB
:10248000FE01EF58FF4FDE01A35BBF4F01900D929D
:102490008A95E1F784E2FE01E35BFF4FDE01999646
:1024A00001900D928A95E1F784E2FE01B996DE0172
:1024B000119601900D928A95E1F71EA21DA2CE0100
:1024C00089960E94300FF8A6EFA2CE01835B9F4F42
:1024D0000E94300FC114D10431F1BE016F5F7F4FF4
:1024E000C6010E9473107C01CE0101960E94300F3C
:1024F000CE018F589F4F0E94300FCE018B569F4FB9
:102500000E94300FC701C854DF4F0FB6F894DEBFEA
:102510000FBECDBFDF91CF911F910F91FF90EF9034
:10252000DF90CF9008956CE671E0CE0101960E9495
:102530002E10EDA0FEA0D8CFEF92FF920F931F9325
:10254000CF93DF93EC017B018A01BA010E94080F4F
:1025500081110BC0CE010E94F30BCE01DF91CF9110
:102560001F910F91FF90EF9008951D830C83B70189
:10257000888199810E941A2DF0CFFB0101900020E3
:10258000E9F73197AF01461B570B0C949C12CF9380
:10259000DF93EC01C85ADF4F28812830C0F44BE0AC
:1025A000249F90011124FC01E20FF31F108261832C
:1025B0002B5F3F4F64E671E0820F931F0E94BD12B4
:1025C00088818F5F888381E0DF91CF91089580E0DB
:1025D000FBCFFC01118210821382128215821482B9
:1025E0006115710551F0FB0101900020E9F7319769
:1025F000AF01461B570B0C949C120895EF92FF926B
:102600000F931F93CF93DF93EC01CB01FB01E0808D
:10261000F1800E94EF0E8C0164E671E0CE010E9411
:10262000E9120115110589F0C8010E944D0E6115CE
:10263000710559F0CE010E94BD12CE01DF91CF91FC
:102640001F910F91FF90EF900895B801C701AE015F
:102650000E941212F2CFFF920F931F93CF93DF933A
:10266000EC018C01085A1F4FFF24F394F88264E6B2
:1026700071E0CE0105960E94E91219821A821B822E
:102680001C822B96C017D10789F71882DF91CF9152
:102690001F910F91FF9008958F929F92AF92BF92DA
:1026A000EF92FF920F931F93CF93DF93EC018090F3
:1026B000540290905502A0905602B0905702188292
:1026C00081E089837E0122E0E20EF11CC7010E94B5
:1026D0002B138E01065A1F4FF80180818830C0F4F9
:1026E000FBE08F9FC0011124FE01E80FF91F22E0DB
:1026F000228383829482A582B682059664E671E085
:102700008E0D9F1D0E94BD12F80180818F5F808316
:10271000CE01DF91CF911F910F91FF90EF90BF906D
:10272000AF909F908F9008950F931F93CF93DF9357
:10273000EC018C010E5F1F4F809158021882882394
:1027400079F081E08983C8010E942B1361E0C80100
:102750000E94C712CE01DF91CF911F910F91089572
:1027600081E08983C8010E942B1360E0F0CFCB0188
:10277000BA010C944B2CBF92CF92DF92EF92FF9252
:102780000F931F93CF93DF93EC01198D1F3F81F0BF
:10279000612F45960E943C05FC018081898F30970E
:1027A00009F477C014828FEF8583BF01812F76C033
:1027B0006C0135E0C30ED11CE880F9808F89882335
:1027C00041F0C6010E948606E62FF72F182F30979A
:1027D00049F71F89988D191324C0103109F459C085
:1027E000110F6D897E89D701ED91FC91B4E01B9F9B
:1027F000A0011124C616D70609F044C00190F0814B
:10280000E02DBA01C7010995009709F442C020E103
:10281000F601DC0101900D922A95E1F79E8B8D8BDC
:10282000188F0D891E898F8921E0280F2F8BE4E0F6
:102830008E9FC0011124080F191F90E1B92E20317D
:1028400011F48FE0B82EF6E0BF9EB0011124D7013D
:10285000ED91FC910190F081E02DC7010995F801FF
:1028600093838283892B09F4B12CD801BC921196F1
:102870001C92012B71F0C6010E948606E62FF72FED
:10288000182F8DCF0480F581E02DC70109950097A1
:1028900029F681E08A8360E070E08FEFDF91CF91CD
:1028A0001F910F91FF90EF90DF90CF90BF90089510
:1028B0006F927F928F929F92AF92BF92CF92DF9250
:1028C000EF92FF920F931F93CF93DF93EC0141158B
:1028D000510589F490E080E0DF91CF911F910F9135
:1028E000FF90EF90DF90CF90BF90AF909F908F9030
:1028F0007F906F9008958C8181111AC080E28C8343
:10290000209741F38FEF8883898379014A015B0126
:10291000CE010E94800E0097F9F6C7010E94BB13FA
:10292000682E6B01672B49F410E000E0C801D4CF9A
:10293000803281F6209749F7CDCFC7010E94BB13A3
:10294000782E962F092F172F0115110569F397017E
:10295000B501A401C6010E94100B882329F3F601DA
:10296000758269816F3F41F0C70145960E943C0521
:10297000FC0165827982DACF6882FCCFCF93DF9346
:10298000DC01CD91DC911197FE017A9659F01296F7
:102990004D915D916D917C9115979E01CF010E94A3
:1029A0005814FC01BF01CE01DF91CF9108956F92C1
:1029B0007F928F929F92AF92BF92CF92DF92EF92CF
:1029C000FF920F931F93CF93DF933C01EB010E9483
:1029D000BE144B015C01088119816B0101151105C1
:1029E00001F1C8010E940B28EC0181149104F9F057
:1029F0007501B501C4010E94870AC430D10508F0F1
:102A000044C090E080E020E03C2F831740F5F801BF
:102A1000E80FF91FE49141E0E11140E0242B019619
:102A2000F4CF672B21F0BC01C4010E94870AD301B7
:102A3000ED91FC9180E0309719F0828191E0892737
:102A4000DF91CF911F910F91FF90EF90DF90CF908A
:102A5000BF90AF909F908F907F906F9008952111BD
:102A600014C082E0D60114968C93D40190E080E0EB
:102A7000831738F4F801E80FF91FE491ED930196FC
:102A8000F7CFC80DD91D1882D2CFF701A380B4802B
:102A9000A114B10471F1D50113968C918C171D0608
:102AA00041F4AE01B801C50104960E94F527892BB7
:102AB000D9F0F501A080B180EBCFAE01B801C5011E
:102AC00004960E940228CA0DDB1D1C82F701838137
:102AD0009481D5018D939C93B482A38285E0F60105
:102AE0008483B182A082A3CFF50182818F5F82832C
:102AF000F5CFD7016D917C91CE010E94EF0A5C0168
:102B0000892BD9F681E0D70112968C9390CF0F9341
:102B10001F93CF93DF93EC018B010E94BE14DC0165
:102B2000CB0170E070689D01A8016AE00E94AA0BC9
:102B3000E881F98180E0309719F0828191E089275E
:102B4000DF91CF911F910F910895CF92DF92EF9275
:102B5000FF92CF93DF937B010E94BE14DC01CB0177
:102B6000EB010097B1F0F701C080D180E280F380E3
:102B7000BD010E94870A8AE08C83C882D982EA82DA
:102B8000FB8281E0DF91CF91FF90EF90DF90CF90BB
:102B9000089580E0F7CF0F931F93CF93DF938C01BD
:102BA000EB010E94BE14DC01CB0170E060E02097D5
:102BB00049F0FE0101900020E9F7BF016150710961
:102BC0006C1B7D0B7F777F779D01AE010E94AA0B66
:102BD000D801ED91FC9180E0309719F0828191E06D
:102BE0008927DF91CF911F910F910895EF92FF9266
:102BF0000F931F93CF93DF937C018B010E94BE1430
:102C0000DC01CB01E801E881F98170E060E03097F8
:102C100049F0EF0109900020E9F7BE016150710908
:102C20006E1B7F0B7F777F779D01AF010E94AA0B00
:102C3000D701ED91FC9180E0309719F0828191E00D
:102C40008927DF91CF911F910F91FF90EF90089509
:102C50006F927F928F929F92AF92BF92CF92DF92AC
:102C6000EF92FF920F931F93CF93DF93CDB7DEB711
:102C700028970FB6F894DEBF0FBECDBF7C010E942F
:102C800012010E94630A08E313E01A8309838CE7A8
:102C900091E09C838B8389E08D838E81807880682E
:102CA0008E8368E573E0CE0101960E94F61580E1FF
:102CB00091E098878F831A83098386E891E09C834B
:102CC0008B838CE08D838E81807880688E83BE01BB
:102CD000695F7F4FCE0101960E94D7141A83098342
:102CE00083E991E09C838B8387E08D838E8180785C
:102CF00080688E836BE971E0CE0101960E94871592
:102D00001A83098386EA91E09C838B838BE08D8311
:102D10008E81807880688E836EE274E0CE010196A9
:102D20000E94A5150E940F0E00915D0310915E0395
:102D300088E3C82E83E0D82E92EBA92E91E0B92E1D
:102D400026E0722E39EB832E31E0932E47E0642E7D
:102D50000115110589F1E114F10441F0B701F80101
:102D6000808191810E94112D892B11F50E94630AA7
:102D7000DA82C982BC82AB827D828E818078806853
:102D80008E83B8016E5F7F4FCE0101960E94F615CB
:102D9000DA82C9829C828B826D828E818078806883
:102DA0008E83B801CE0101960E94F6150E940F0E87
:102DB000F80106811781CCCF0E94260128960FB614
:102DC000F894DEBF0FBECDBFDF91CF911F910F9161
:102DD000FF90EF90DF90CF90BF90AF909F908F903B
:102DE0007F906F900895FF920F931F93CF93DF937F
:102DF000CDB7DEB72C970FB6F894DEBF0FBECDBFB0
:102E00009A8789877C876B87142F0E94630A88E3DF
:102E100093E09A8389838CE791E09C838B8389E09C
:102E20008D838E81807880688E8368E573E0CE0123
:102E300001960E94F61588E091E0163040F4E12FEB
:102E4000F0E0EE0FFF1FE15EFE4F808191819887D9
:102E50008F8308E313E01A83098386E891E09C835B
:102E60008B838CE08D838E81807880688E83BE0119
:102E7000695F7F4FCE0101960E94D7141A830983A0
:102E800083E991E09C838B8387E0F82EFD828E811D
:102E9000807880688E83BE01655F7F4FCE0101968A
:102EA0000E94F6151A83098386EA91E09C838B833E
:102EB0008BE08D838E81807880688E836EE274E0F3
:102EC000CE0101960E94A5151A83098389EB91E032
:102ED0009C838B83FD828E81807880688E83BE0187
:102EE000675F7F4FCE0101960E94F6150E940F0E7C
:102EF0002C960FB6F894DEBF0FBECDBFDF91CF91F9
:102F00001F910F91FF900895CF92DF92FF920F9340
:102F10001F93CF93DF938C016B01CB010E94BB13F6
:102F2000F82EEB01209761F0F80161816F3F89F085
:102F3000C60145960E943C05FC01F582F801F1822C
:102F4000CE01DF91CF911F910F91FF90DF90CF9035
:102F500008958083F4CF3F924F925F926F927F9259
:102F60008F929F92AF92BF92CF92DF92EF92FF9299
:102F70000F931F93CF93DF9300D000D01F92CDB754
:102F8000DEB78C016B01B42E0E943D067C01892BBB
:102F900009F050C0C8010E94EF05863609F4AEC1A1
:102FA00064F5873229F08B35A1F1823209F0AFC187
:102FB000F8011582148282819381892B99F4E08033
:102FC000F180D7016D917C918FE190E00E94EF0A32
:102FD000009719F421E0F7012283D80113969C93FE
:102FE0008E931297C8010E94F2087C01892B11F57B
:102FF000B601C8010E94D1091DC0843709F45EC121
:103000008B3709F466C08E3609F081C16CE671E039
:103010005CC180E4D60114968C931497C114D1043A
:1030200021F08FEF8C9311968C93B1101BC025E08B
:10303000E22EF12CC7010F900F900F900F900F9080
:10304000DF91CF911F910F91FF90EF90DF90CF9084
:10305000BF90AF909F908F907F906F905F904F90B8
:103060003F900895F8011486C8010E943D0600971C
:1030700009F09DC16DE5C8010E9409068111DACFF2
:10308000BA94D8011D966D917C91C6010E94841757
:10309000009709F47BC04B2DBC01C8010E94AB17FF
:1030A000009709F084C1C8010E943D06009709F00D
:1030B0007EC16DE5C8010E9409068111BBCF6CE29B
:1030C000C8010E9409068111DCCF93E0E92EF12CA2
:1030D000B1CF80E2F6018483C114D10419F08FEFDF
:1030E00080838183BB2009F4A2CFD8011C961C9257
:1030F000C8010E943D06009709F059C16DE7C8015B
:103100000E940906811196CF5524539477247A940E
:103110007B0CF8011582148282819381892B91F4B2
:10312000E080F180D7016D917C918FE190E00E9469
:10313000EF0A009711F4F7015282D80113969C937D
:103140008E931297C8010E94EF05873219F18232DF
:1031500009F1C8010E94EF05F82E0E946705882337
:1031600009F4B3CFF80114866F2DC8010E94C4087A
:10317000C8010E94EF05F82E0E9467058111F2CF69
:10318000D80112968D919C91892B59F484E0E82EF8
:10319000F12C50CFC8010E94F2087C01892B09F064
:1031A00049CFC8010E943D067C01892B09F042CF1E
:1031B0006AE3C8010E940906882309F486CFD80172
:1031C0001296ED91FC91139714968D919C91159701
:1031D000E80FF91F148214966D917C9115977F77F3
:1031E0001D962D913C911E9712968D919C9104965F
:1031F000472F4F77B62DB0786B2E642AE89467F886
:10320000AC01762DC6010E94800E7C01F8018584F8
:103210009684009759F5C4010E94BB13382E5B01B8
:10322000672B09F4B3CFC4010E94BB13482E962F1D
:10323000E92EF72EE114F10409F4A8CFD501159673
:103240004C92F60161816F3F71F0C40145960E9476
:103250003C05DC0115963C92F6014182B501C8019E
:103260000E94D10906C030824182F8CFB4010E9489
:10327000870A472DB701C8010E94AB177C01892B33
:1032800009F0D8CEC8010E943D067C01892B09F0C7
:10329000D1CE6DE7C8010E9409068111CBCE6CE248
:1032A000C8010E940906882309F40FCFC8010E94B3
:1032B0003D067C01892B09F42CCFBCCE86E0F601BB
:1032C000848381E0808361E771E0C8010F900F90F3
:1032D0000F900F900F90DF91CF911F910F91FF9062
:1032E000EF90DF90CF90BF90AF909F908F907F90A6
:1032F0006F905F904F903F900C941A0686E0D60135
:1033000014968C9314971C9266E771E0DECFC80187
:103310000E94EF054801BFE08B0E911CB12C782C68
:10332000A92C803384F08A3384F4EFE3BE16A9F02D
:10333000D8011C961C92B394F40181934F01C801EB
:103340000E94EF05EECF8B3281F393ED980F923010
:1033500060F3982F9F7D953441F30B0D111DD8011B
:103360001F961C92872D9A2D0E94B2063A834B839A
:103370005C836D838A819B81AC81BD812230A9F001
:10338000233059F0213009F0A0CE2EE0F60124833D
:1033900080839183A283B3834DCE2AE0F6012483F8
:1033A00080839183A283B38345CE2CE0F7CF7C0149
:1033B00041CECF92DF92EF92FF920F931F93CF9364
:1033C000DF9300D000D0CDB7DEB7FC01DC01119651
:1033D00021813281C9014A9679F490E080E00F9012
:1033E0000F900F900F90DF91CF911F910F91FF9051
:1033F000EF90DF90CF9008957F0112964D915D91EF
:103400006D917C9115970E9458148C01009729F3B7
:10341000F701C180D280E780F084FC0184818111B2
:103420001EC080E484838FEF80838183B601F8011E
:1034300080810E94560569837A838B839C8389816E
:103440009A81009779F0E114F10449F2B601CE01B6
:1034500001960E947808F1E0EF1AF108F0CF80346D
:1034600029F3BBCF2FEFE216F20609F4B8CFB6016D
:10347000C8010E948417E1E0EE1AF108009791F765
:10348000AECF1F920F920FB60F9211242F933F933E
:103490004F935F936F937F938F939F93AF93BF935C
:1034A000EF93FF938EE792E00E941604FF91EF9155
:1034B000BF91AF919F918F917F916F915F914F914C
:1034C0003F912F910F900FBE0F901F9018951F9254
:1034D0000F920FB60F9211242F938F939F93EF9318
:1034E000FF93E0918E02F0918F028081E09194022F
:1034F000F091950282FD1BC09081809197028F5FB1
:103500008F7320919802821741F0E0919702F0E0CA
:10351000E258FD4F958F80939702FF91EF919F9115
:103520008F912F910F900FBE0F901F901895808153
:10353000F4CF1F920F920FB60F9211242F933F9347
:103540008F939F93AF93BF9380914C0290914D02C4
:10355000A0914E02B0914F0230914B0223E0230F15
:103560002D3758F50196A11DB11D20934B02809374
:103570004C0290934D02A0934E02B0934F02809163
:10358000470290914802A0914902B0914A020196E7
:10359000A11DB11D8093470290934802A093490258
:1035A000B0934A02BF91AF919F918F913F912F911C
:1035B0000F900FBE0F901F90189526E8230F0296CC
:1035C000A11DB11DD2CF1F920F920FB60F921124E1
:1035D0002F933F934F935F936F937F938F939F931B
:1035E000AF93BF93CF93DF93EF93FF938091460206
:1035F000C0917D02D0E087FF24C010928500109218
:103600008400809146028F5F80934602809146023B
:10361000082E000C990B8C179D0724F4809146020C
:103620008C30C4F1809184009091850004968034A0
:103630009C4908F47AC0809184009091850004969A
:1036400076C080914602082E000C990B8C179D07BE
:10365000C4F6E09146028E2FEE0F990BFC01EE0F9F
:10366000FF1FE80FF91FE75AFD4F808186FFC9CF82
:10367000E09146028E2FEE0F990BFC01EE0FFF1F1B
:10368000E80FF91FE75AFD4F808160E08F730E94B9
:10369000A504B7CF2091840030918500E0914602C7
:1036A0008E2FEE0F990BFC01EE0FFF1FE80FF91F95
:1036B000E75AFD4F81819281820F931F9093890079
:1036C00080938800E09146028E2FEE0F990BFC014B
:1036D000EE0FFF1FE80FF91FE75AFD4F808186FFAD
:1036E00011C0E09146028E2FEE0F990BFC01EE0FF8
:1036F000FF1FE80FF91FE75AFD4F808161E08F73CC
:103700000E94A504FF91EF91DF91CF91BF91AF91FE
:103710009F918F917F916F915F914F913F912F91E9
:103720000F900FBE0F901F90189580E49CE9909326
:103730008900809388008FEF80934602E3CFEF9259
:10374000FF920F931F93CF93DF93109281021092F9
:10375000800288EE93E0A0E0B0E080938202909334
:103760008302A0938402B09385028FE291E090934C
:103770007F0280937E0285EC90E090938B02809391
:103780008A0284EC90E090938D0280938C0280EC0E
:1037900090E090938F0280938E0281EC90E0909362
:1037A00091028093900282EC90E090939302809338
:1037B000920286EC90E0909395028093940210928E
:1037C0009702109298021092990210929A0288E938
:1037D00098E0A0E0B0E080932E0390932F03A09395
:1037E0003003B093310310923203109233031092DE
:1037F00034031092350310923603109237038EE78C
:1038000092E090932B0380932A0381E091E09093C0
:1038100039038093380310923A0310923C031092BC
:103820003B038DE393E090934E0380934D031092FE
:103830004F0384E0809350038FEF809351031092E5
:1038400056038093570381EC91E090935903809342
:10385000580310925A0310925E0310925D03109267
:10386000600310925F031092610310926203109242
:1038700063031092640310922D04EDE3F1E065EC14
:103880007DE98CE191E82191211110C0E1ECF1E09A
:1038900021912223B1F07B01E226AC01970163E97B
:1038A00071E080E091E00E94F02AF2CF7B01E226F5
:1038B000AC01970163E971E080E091E00E94F02A99
:1038C000E2CF2AE233E060932E0470932F048093BA
:1038D00030049093310488EC91E090932503809319
:1038E0002403309327032093260310922903109278
:1038F00028038EEC91E090931F0380931E03309376
:1039000021032093200384E293E090932303809388
:1039100022038EE193E090935C0380935B0380919C
:103920007D028C3008F074C091E0980F90937D0276
:1039300080931B0390E0FC01EE0FFF1FE80FF91FBF
:10394000E75AFD4F88EB9BE09283818389E090E00A
:103950000E94262BEC0181E08C8308EC11E0198396
:1039600008838AED91E09B838A8384E993E19E83B7
:103970008D8380915F039091600398878F8389E0A6
:1039800090E00E94262BFC018EEC91E091838083D5
:1039900086EE91E09383828314828CE493E1968394
:1039A0008583D087C783F0936003E0935F0388E04B
:1039B00090E00E94262BEC01198308838BEE91E0A6
:1039C0009B838A8381EF94E09D838C8380915D0348
:1039D00090915E039F838E8388E090E00E94262B67
:1039E000FC011183008384EF91E0938382838AEF4B
:1039F00094E095838483D783C683F0935E03E0933A
:103A00005D03DF91CF911F910F91FF90EF9008958B
:103A10008FEF80931B039ACFCF93DF93CDB7DEB7A1
:103A2000CF5BD1090FB6F894DEBF0FBECDBF78943F
:103A300084B5826084BD84B5816084BD85B58260B3
:103A400085BD85B5816085BD80916E008160809364
:103A50006E001092810080918100826080938100CD
:103A600080918100816080938100809180008160DD
:103A7000809380008091B10084608093B100809138
:103A8000B00081608093B00080917A008460809360
:103A90007A0080917A00826080937A0080917A0027
:103AA000816080937A0080917A00806880937A00A8
:103AB0001092C1008DE00E94AE018AE00E94AE012A
:103AC0008BE00E94AE018CE00E94AE0183E00E9478
:103AD000AE0180911B038C3008F050C083E00E943F
:103AE000AE0180911B03282F30E0F901EE0FFF1F7C
:103AF000E20FF31FE75AFD4F9081907C9360908313
:103B000010921C0310921D032CE0622F0E94002BC8
:103B1000829FB001112430E020E0AB01420F531F1F
:103B2000FA01EE0FFF1FE40FF51FE75AFD4F9081DA
:103B300096FD16C02F5F3F4F2C30310571F7811174
:103B40000FC01092800082E0809381001092850067
:103B500010928400B19A80916F00826080936F0010
:103B6000E0911B038E2F90E0FC01EE0FFF1FE80F8A
:103B7000F91FE75AFD4F8081806480838AE590E0D9
:103B80000E94440188E99AE580599A454C0163E016
:103B9000969487946A95E1F7C254DF4F99828882A0
:103BA000CE5BD0409E012D5F3F4FCA54DF4F39831B
:103BB0002883C65BD04080915A03811138C0E091C0
:103BC0008E02F0918F0282E08083E0918A02F09170
:103BD0008B021082E0918C02F0918D0280E1808353
:103BE00010929602E0919202F091930286E0808317
:103BF000E0919002F0919102808180618083E09158
:103C00009002F0919102808188608083E09190021F
:103C1000F0919102808180688083E0919002F09120
:103C2000910280818F7D808381E080935A0380910F
:103C3000360381116DC080EC0E94EF00882309F4E7
:103C400087C081E0809336030E94020560933203AF
:103C5000709333038093340390933503809136033C
:103C6000882311F40C94A6268EE10E94EF00D82E32
:103C7000882311F40C94A6260E94630A0E94020570
:103C8000609332037093330380933403909335032E
:103C9000E0902A03F0902B0364E671E0CE018F5789
:103CA0009F4F0E94E912C7010E940E05CB57DF4FBC
:103CB00008811981C558D04097FD00C18A3091050F
:103CC00009F4FCC089831A820F5F1F4FB801CE012F
:103CD0008F579F4F0E94080F882329F3CF57DF4F3C
:103CE00028813981C158D040CB57DF4F88819981D5
:103CF000C558D040BE016F5F7F4F820F931F0E9457
:103D00001A2DCB57DF4F19830883C558D040CBCF2E
:103D10000E940205AB01BC018091320390913303F4
:103D2000A0913403B091350300912E0310912F031D
:103D30002091300330913103800F911FA21FB31FD8
:103D4000481759076A077B0708F48AC010923603A0
:103D500080915802882369F10E9402050091500267
:103D60001091510220915202309153024B015C019B
:103D7000801A910AA20AB30A95018401083C110530
:103D800021053105B0F06093500270935102809389
:103D90005202909353021091000184E190E01111BE
:103DA00002C08CED90E00E94440181E0182710933E
:103DB000000180E480937C0080917A00806480938D
:103DC0007A0080917A0086FDFCCF80917800609126
:103DD0007900762F682F072E000C880B990B0E9414
:103DE000262820E030EC4FE754E40E944A2A20E0E5
:103DF00030E048EC52E40E94852820E030E040EAC0
:103E000051E40E94DE294B015C01809254029092A1
:103E10005502A0925602B092570220E030E04CE8E2
:103E200052E40E941F2887FD02C00C94B62761E06F
:103E30008AE00E94A50460E08BE00E94A50460E097
:103E40008CE00E94A50480E090E0892B09F4B3CEB9
:103E50000E940204882309F4AECE0E940000A2CE84
:103E600080912A0390912B03DC01ED91FC91008459
:103E7000F185E02D0995181619060CF0EFCE80910A
:103E80002A0390912B03DC01ED91FC910484F585CC
:103E9000E02D0995803C910509F0E0CE80912A0340
:103EA00090912B03DC01ED91FC910284F385E02DD0
:103EB0000995803C910509F0D1CE48CFCF57DF4F0F
:103EC000E880F980C158D0400E0D1F1D0E94630A82
:103ED00088E393E09A8389831C821B821E821D8261
:103EE0001F82F986E8861B870A871D869F878E8733
:103EF0004AE062E573E08E010F5F1F4FC8010E9428
:103F0000AB177C01892B51F48C85882339F0809183
:103F1000560383FF03C053E0E52EF12C8B819C8177
:103F2000009731F0E981FA81608171810E94590A1C
:103F3000F0922D03E0922C03CE018F579F4F0E94E9
:103F4000050C80912C0390912D03892B09F0FEC65E
:103F500048E3E42E43E0F42EFA82E9828EEF91E00A
:103F60009C838B8383E08D838E81807880688E83B1
:103F7000C8010E94EF0E009709F4EACE0E944D0E90
:103F80004B01FB01309709F4E3CE8081882309F4CB
:103F9000DFCE62E072E0C4010E94212D892B09F47A
:103FA00099C20E9412010E94630AFA82E9828CE798
:103FB00091E09C838B8389E08D838E8180788068FB
:103FC0008E8368E573E0C8010E94F61580E191E0F8
:103FD000CF57DF4F99838883C158D040FA82E98256
:103FE00086E891E09C838B838CE08D838E81807842
:103FF00080688E83BE016F577F4FC8010E94D7141F
:10400000FA82E98283E991E09C838B8387E08D8348
:104010008E81807880688E83C8010E94BE14DC0186
:10402000CB01E2E0F2E0C854DF4FF983E883C85BDC
:10403000D040FBE0C654DF4FF883CA5BD040C55484
:10404000DF4F2881CB5BD0402078322F3068C554B9
:10405000DF4F3883CB5BD0409D01C854DF4F488190
:1040600059816A817B81C85BD0400E94AA0BFA8289
:10407000E98286EA91E09C838B838BE08D838E813D
:10408000807880688E836EE274E0C8010E94A51576
:104090000E940F0E80905F03909060038114910442
:1040A00009F415C2D4011596ED91FC91C80109954A
:1040B0000E94630ACF57DF4FF982E882C158D0408F
:1040C000EEE0F2E0CD57DF4FF983E883C358D040EC
:1040D00027E0D22ECB57DF4FD882C558D040CA57E1
:1040E000DF4F8881C658D04080788068CA57DF4F3C
:1040F0008883C658D040B4016E5F7F4FCE018F5782
:104100009F4F0E94F615CF57DF4FF982E882C158C2
:10411000D04039EBA32E31E0B32ECD57DF4FB9821B
:10412000A882C358D040CB57DF4FD882C558D04063
:10413000CA57DF4F8881C658D04080788068CA57F8
:10414000DF4F8883C658D040B401CE018F579F4FB0
:104150000E94F615D4011496EC9189EF90E0E330BB
:1041600038F4F0E0EE0FFF1FE75EFE4F8081918193
:10417000CA56DF4F99838883C659D040CF57DF4F47
:10418000F982E882C158D040E6E1F2E0CD57DF4F36
:10419000F983E883C358D04084E0CB57DF4F88834E
:1041A000C558D040CA57DF4F8881C658D040807864
:1041B0008068CA57DF4F8883C658D040BE016A5610
:1041C0007F4FCE018F579F4F0E94D714E9818FEE0A
:1041D00090E0E33038F4F0E0EE0FFF1FED5EFE4FAD
:1041E00080819181CA56DF4F99838883C659D04018
:1041F000CF57DF4FF982E882C158D040BBE1AB2EE8
:10420000B2E0BB2ECD57DF4FB982A882C358D04051
:1042100086E0CB57DF4F8883C558D040CA57DF4F61
:104220008881C658D04080788068CA57DF4F88831D
:10423000C658D040BE016A567F4FCE018F579F4F60
:104240000E94D7148A81882309F426C1D12CA4E0C6
:104250002A2E6C968FAD6C97D81608F01DC18D2D47
:1042600090E03801FBE0BF2EBD9C600C711C112456
:10427000D30112962C91213009F442C040F0223033
:1042800009F47FC0233009F4BDC0D394E2CFCE57E8
:10429000DF4FF982E882C258D040E2E2F2E0CC5728
:1042A000DF4FF983E883C458D040CA57DF4F2882D4
:1042B000C658D040C957DF4F2881C758D040207812
:1042C0002068C957DF4F2883C758D040C857DF4FF1
:1042D00099838883C858D040CE018F579F4F0E9442
:1042E000D9195C01009789F2D30113967C9068E399
:1042F00073E00E94870A26E0F50124837082C5CF0F
:10430000CE57DF4FF982E882C258D04042E252E0F5
:10431000CC57DF4F59834883C458D040CA57DF4F2A
:104320002882C658D040C957DF4F2881C758D0408F
:1043300020782068C957DF4F2883C758D040C85716
:10434000DF4F99838883C858D040CE018F579F4F45
:104350000E94D9195C01009709F497CFD3011396F5
:104360004D905D906D907C90169768E373E00E948D
:10437000870A2CE0F5012483408251826282738295
:1043800084CFCE57DF4FF982E882C258D040E2E2B4
:10439000F2E0CC57DF4FF983E883C458D040CA57C6
:1043A000DF4F2882C658D040C957DF4F2881C758F1
:1043B000D04020782068C957DF4F2883C758D040A5
:1043C000C857DF4F99838883C858D040CE018F5794
:1043D0009F4F0E94D9195C01009709F456CFD30171
:1043E00013964D905D906D907C90169768E373E006
:1043F0000E94870A2EE0F501248340825182628266
:10440000738243CF9801BBE0DB9E200D311D112448
:10441000F90137965F01CE57DF4FF982E882C25823
:10442000D04022E232E0CC57DF4F39832883C45892
:10443000D040CA57DF4F2882C658D040C957DF4FF7
:104440002881C758D04020782068C957DF4F28837B
:10445000C758D040C857DF4F99838883C858D04089
:10446000CE018F579F4F0E94D919D50114966D9197
:104470007C9115977F774C9111965C91272F2F7720
:10448000BC2DB078CB2EC22AE894C7F828E333E0DD
:104490007C2D0E94AA0BF9CE0E940F0EFE01E55A58
:1044A000FF4F5F01FBE0AF1AB108C50105960E94FE
:1044B000050CCA54DF4F28813981C65BD040A21653
:1044C000B30681F7D40117968D909C90E7CD0E949A
:1044D00026013ECC67E272E0C4010E94212D892BA7
:1044E00009F431C10E9412010E94630AFA82E98232
:1044F0008CE791E09C838B8389E08D838E8180782B
:1045000080688E8368E573E0C8010E94F61580E13B
:1045100091E0CF57DF4F99838883C158D040FA820A
:10452000E98286E891E09C838B838CE08D838E8189
:10453000807880688E83BE016F577F4FC8010E94CC
:10454000D714FA82E98283E991E09C838B8387E028
:104550008D838E81807880688E8367E272E0C801E7
:104560000E948715FA82E98286EA91E09C838B8318
:104570008BE08D838E81807880688E836EE274E01C
:10458000C8010E94A5150E940F0EE0E9FAE52AE590
:10459000E839F20708F09BCF7F01B12CA12C68E32A
:1045A000462E63E0562E77E0272EE4E0DE2EC2543E
:1045B000DF4F88809980CE5BD0408A149B0409F439
:1045C00086CFF70185919491F701329665907490AA
:1045D000F701349685909490F701369625913491A1
:1045E000C454DF4F39832883CC5BD040009709F453
:1045F000A3C06114710409F49FC0232B09F49CC06B
:10460000A0915803B0915903109709F495C08A1BE3
:104610009B0BFC01EA0FFB1FE4912D91E2138CC070
:10462000E111F7CF0E94630AB801C3010E94D50BC4
:10463000CF57DF4F59824882C158D04042E352E001
:10464000CD57DF4F59834883C358D04055E0CB57EF
:10465000DF4F5883C558D040CA57DF4F8881C658AE
:10466000D04080788068CA57DF4F8883C658D040D2
:10467000B801CE018F579F4F0E94CB1560E070E0CC
:104680008114910429F0B801C4010E94D50BB8012E
:10469000CF57DF4F59824882C158D04088E392E01B
:1046A000CD57DF4F99838883C358D040CB57DF4F16
:1046B0002882C558D040CA57DF4F8881C658D0409D
:1046C00080788068CA57DF4F8883C658D040CE01B3
:1046D0008F579F4F0E94CB15B801C454DF4F88817C
:1046E0009981CC5BD0400E94D50BCF57DF4F5982C8
:1046F0004882C158D040A0E4B2E0CD57DF4FB98323
:10470000A883C358D040CB57DF4FD882C558D0407C
:10471000CA57DF4F8881C658D04080788068CA5712
:10472000DF4F8883C658D040B801CE018F579F4FC6
:104730000E94CB150E940F0EBFEFAB1ABB0AE8E038
:10474000EE0EF11C34CF6BE971E0C4010E94212D03
:10475000892B99F1FA82E98289EB91E09C838B8322
:1047600087E08D838E81807880688E83B801CE014A
:104770008F579F4F0E94FE12CB57DF4F8881998140
:10478000C558D040892B69F0CF57DF4F0881198178
:10479000C158D0406CE671E0C8010E94112D892BF0
:1047A00051F490E080E00E942816CE018F579F4F71
:1047B0000E94050CCDCAC801F6CFC255DF4FF98261
:1047C000E882CE5AD04052E2852E52E0952EC05556
:1047D000DF4F99828882C05BD04084E0CE54DF4FA7
:1047E0008883C25BD040CD54DF4F8881C35BD0400B
:1047F00080788068CD54DF4F8883C35BD040CE0182
:1048000082559F4F0E94EF0E5C01C8010E942B133E
:10481000A114B10409F4D3C1D50114968C91149755
:10482000803409F0CCC168E373E08C910E94560596
:10483000CF57DF4F688379838A839B83C158D040E9
:10484000CB57DF4FF982E882C558D04086E0FE01A1
:10485000EF57FF4FDE01A657BF4F01900D928A958B
:10486000E1F7CF57DF4F28813981C158D040CD576C
:10487000DF4F8881C358D040C657DF4F3983288324
:10488000CA58D040C457DF4F8883CC58D040C25755
:10489000DF4FF982E882CE58D04086E0FE01E6572D
:1048A000FF4FDE01A057BF4F01900D928A95E1F7AF
:1048B00086E0FE01E057FF4FDE01AA56BF4F019090
:1048C0000D928A95E1F72BE0922E8824839433E0B1
:1048D000732E42E0642ECA56DF4FE881F981C65933
:1048E000D040309709F46BC1C656DF4F888199815B
:1048F000CA59D040C456DF4FF983E883CC59D04021
:10490000C256DF4F99838883CE59D0408481863048
:10491000F1F08A3061F18C3009F457C083FF7BC01D
:10492000CE0184569F4F0E9417086A962FAD6A9752
:10493000283088F4929E90011124F801E20FF31FB1
:1049400060826183728383839483C9012FC06081F5
:10495000C8010E94C712C656DF4F68817981CA59C3
:10496000D040CE018A569F4F0E947808B4CF408134
:104970005181628173814115B0E85B076105710562
:1049800008F046C06A968FAD6A97883020F7989EE7
:10499000C0011124F801E80FF91F8082052E000CD8
:1049A000660B770B4183528363837483059664E6B9
:1049B00071E0800F911F0E94BD126A968FAD6A97B9
:1049C0008F5F6A968FAF6A97C6CF408151816281AF
:1049D0007381DB01CA019058AF4FBF4F0097A140D0
:1049E000B10580F2342F252F962F6A964FAD6A9726
:1049F000483008F0B0CF949EA0011124F801E40FD4
:104A0000F51F80823183228393837483CA01CECFC2
:104A100077FFE8CF83CF9CEF980F923008F059C012
:104A2000CF010E944D0E6A962FAD6A97283008F08C
:104A300092CFF801929EE00DF11D11247082611554
:104A4000710511F464E671E0CE018F579F4F0E940B
:104A5000E9126A968FAD6A97A82EB12C7801989EBC
:104A6000E00CF11C1124D70115968D919C9116979D
:104A7000CF57DF4F68817981C158D040009709F442
:104A80006FC06115710509F469C017964D915C916D
:104A9000CB57DF4F28813981C558D0404217530783
:104AA00008F45CC00E941A2DCB57DF4F8881998192
:104AB000C558D040F70192878187CB57DF4F1982C5
:104AC0001882C558D040CE018F579F4F0E94050CC9
:104AD00074CF823009F4A4CF64E671E0CE018F5721
:104AE0009F4F0E94E912C456DF4F688179818A8105
:104AF0009B81CC59D040AE014F575F4F0E9412129C
:104B00006A968FAD6A97883018F5989EC001112477
:104B1000F801E80FF91F70820596800F911FCF579B
:104B2000DF4F68817981C158D0406115710509F462
:104B300043C0CB57DF4F48815981C558D0400E94B0
:104B40009C126A968FAD6A978F5F6A968FAF6A974D
:104B5000CE018F579F4F0E94050CFDCE0E94C22BA5
:104B60009A9CF0019B9CF00D1124E00FF11FCF5790
:104B7000DF4F88819981C158D04096838583CD5776
:104B8000DF4F88819981C358D04090878783CB5766
:104B9000DF4F88819981C558D04092878187CF5750
:104BA000DF4F19821882C158D040CD57DF4F19828C
:104BB0001882C358D04081CF0E94F30BC2CF98E334
:104BC000E92E93E0F92ECE55DF4FF982E882C25AE2
:104BD000D04089EB91E0CC55DF4F99838883C45A4C
:104BE000D04087E0CA55DF4F8883C65AD040C955A8
:104BF000DF4F8881C75AD04080788068C955DF4F21
:104C00008883C75AD040BE016E557F4FCE0188556C
:104C10009F4F0E94FE12CA56DF4FF982E882C659A2
:104C2000D0408EEF91E0C856DF4F99838883C859F2
:104C3000D04083E0C656DF4F8883CA59D040C5565E
:104C4000DF4F8881CB59D04080788068C556DF4FD0
:104C50008883CB59D040BE016A567F4FCE0184561F
:104C60009F4F0E94FE120E941201C056DF4F8881A2
:104C70009981C05AD040892B09F44EC0C455DF4FEA
:104C800088819981CC5AD040892B09F471C0C855CC
:104C9000DF4FA880B980C85AD0406CE671E0C501EA
:104CA0000E94112D892B09F463C0C456DF4F888000
:104CB0009980CC59D040E0905D03F0905E03E11400
:104CC000F10409F453C0B501D7018D919C910E9464
:104CD000112D892B09F046C0B401F701828193811F
:104CE0000E94112D892BF1F5D7011496ED91FC91BD
:104CF00081E0309711F0C8010995C456DF4F6881F3
:104D00007981CC59D040482FC855DF4F888199818F
:104D1000C85AD0400E94F3160E942601CE01845644
:104D20009F4F0E94050CCE0188559F4F0E94050C95
:104D30007E01F9E5EF0EF11C2BE0E21AF108C70144
:104D400005960E94050C0E151F05B1F70E9402057D
:104D50006093610370936203809363039093640391
:104D60000C94A81EF701E680F780A9CF85E0C5CF97
:104D700061E08CE00E94A504C456DF4FA880B98092
:104D8000CC59D040E0905D03F0905E03912CE1148B
:104D9000F104F9F0B501D70112968D919C910E9412
:104DA000112D892B89F4D7011496ED91FC9181E0A6
:104DB000309711F0C8010995482FB501F70180819E
:104DC00091810E94F3169D2CD7011696ED90FC90D0
:104DD000DECF9110A1CF0E94630A88E3E82E83E022
:104DE000F82ECF57DF4FF982E882C158D0408CE7C8
:104DF00091E0CD57DF4F99838883C358D04089E035
:104E0000CB57DF4F8883C558D040CA57DF4F8881C2
:104E1000C658D04080788068CA57DF4F8883C6580C
:104E2000D04068E573E0CE018F579F4F0E94F61582
:104E300087EE90E0CC54DF4F99838883C45BD040E9
:104E4000CF57DF4FF982E882C158D04086E891E021
:104E5000CD57DF4F99838883C358D0408CE0CB5720
:104E6000DF4F8883C558D040CA57DF4F8881C65866
:104E7000D04080788068CA57DF4F8883C658D040BA
:104E8000BE016C547F4FCE018F579F4F0E94D714A5
:104E9000CF57DF4FF982E882C158D04083E991E0D3
:104EA000CD57DF4F99838883C358D04087E0CB57D5
:104EB000DF4F8883C558D040CA57DF4F8881C65816
:104EC000D04080788068CA57DF4F8883C658D0406A
:104ED000CE018F579F4F0E94BE14DC01CB01C056FC
:104EE000DF4F68817981C05AD0407F77C456DF4F49
:104EF0004881CC59D040C356DF4F5881CD59D0405E
:104F0000272F2F77E32DE0783E2E322AE89437F8CA
:104F10009D01732D0E94AA0BCF57DF4FF982E882C3
:104F2000C158D04086EA91E0CD57DF4F99838883FE
:104F3000C358D0408BE0CB57DF4F8883C558D04053
:104F4000CA57DF4F8881C658D04080788068CA57DA
:104F5000DF4F8883C658D0406EE274E0CE018F5791
:104F60009F4F0E94A5150E940F0ED6CE20E030E084
:104F700048EC52E4C501B4010E941F2860E087FF9D
:104F800006C08AE00E94A50461E00C941C1F8AE020
:104F90000E94A50460E08BE00E94A50461E08CE023
:104FA0000E94A504109258020C94231FCF93DF9304
:104FB000C0913803D091390380913B0390913C0319
:104FC000009759F0FC012081318130933C032093FC
:104FD0003B03BE010E94590AEFCF809138039091A4
:104FE0003903DF91CF910C94CD01FB01DC0104C0AA
:104FF0008D910590801921F441505040C8F7881BCD
:10500000990B0895FB01DC0102C005900D924150FF
:105010005040D8F70895FC0105900020E9F78095ED
:1050200090958E0F9F1F0895FC0105906150704070
:105030000110D8F7809590958E0F9F1F08950E94BC
:10504000612808F481E00895E89409C097FB3EF4D4
:1050500090958095709561957F4F8F4F9F4F9923C5
:10506000A9F0F92F96E9BB279395F6958795779543
:105070006795B795F111F8CFFAF4BB0F11F460FF03
:105080001BC06F5F7F4F8F4F9F4F16C0882311F05B
:1050900096E911C0772321F09EE8872F762F05C06F
:1050A000662371F096E8862F70E060E02AF09A950A
:1050B000660F771F881FDAF7880F9695879597F9FF
:1050C0000895990F0008550FAA0BE0E8FEEF161699
:1050D0001706E807F907C0F012161306E407F507EC
:1050E00098F0621B730B840B950B39F40A2661F060
:1050F000232B242B252B21F408950A2609F4A14003
:10510000A6958FEF811D811D08950E9498280C940B
:1051100009290E94FB2838F00E94022920F09523DB
:1051200011F00C94F2280C94F82811240C943D29C9
:105130000E941A2970F3959FC1F3950F50E0551FF7
:10514000629FF001729FBB27F00DB11D639FAA27DC
:10515000F00DB11DAA1F649F6627B00DA11D661F2B
:10516000829F2227B00DA11D621F739FB00DA11D4C
:10517000621F839FA00D611D221F749F3327A00D06
:10518000611D231F849F600D211D822F762F6A2FA2
:1051900011249F5750409AF0F1F088234AF0EE0F07
:1051A000FF1FBB1F661F771F881F91505040A9F734
:1051B0009E3F510580F00C94F2280C943D295F3FEE
:1051C000E4F3983ED4F3869577956795B795F79570
:1051D000E7959F5FC1F7FE2B880F911D96958795E8
:1051E00097F9089597F99F6780E870E060E0089567
:1051F0009FEF80EC089500240A94161617061806EF
:105200000906089500240A941216130614060506CA
:105210000895092E0394000C11F4882352F0BB0F5B
:1052200040F4BF2B11F460FF04C06F5F7F4F8F4FBE
:105230009F4F089557FD9058440F551F59F05F3FF9
:1052400071F04795880F97FB991F61F09F3F79F0A8
:1052500087950895121613061406551FF2CF46952A
:10526000F1DF08C0161617061806991FF1CF8695AC
:105270007105610508940895E894BB276627772790
:10528000CB0197F90895052E97FB1EF400940E9418
:105290005A2957FD07D00E94AC2907FC03D04EF4D1
:1052A0000C945A2950954095309521953F4F4F4F7A
:1052B0005F4F089590958095709561957F4F8F4FC2
:1052C0009F4F08950E94CE29A59F900DB49F900DE9
:1052D000A49F800D911D11240895B7FF0C9462299D
:1052E0000E946229821B930B08952F923F924F9246
:1052F0005F926F927F928F929F92AF92BF92CF9266
:10530000DF92EF92FF920F931F93CF93DF93CDB76E
:10531000DEB7CA1BDB0B0FB6F894DEBF0FBECDBFE6
:1053200009942A88398848885F846E847D848C84B7
:105330009B84AA84B984C884DF80EE80FD800C81C0
:105340001B81AA81B981CE0FD11D0FB6F894DEBFA3
:105350000FBECDBFED010895A1E21A2EAA1BBB1B03
:10536000FD010DC0AA1FBB1FEE1FFF1FA217B30731
:10537000E407F50720F0A21BB30BE40BF50B661F47
:10538000771F881F991F1A9469F76095709580950B
:1053900090959B01AC01BD01CF010895A29FB00182
:1053A000B39FC001A39F700D811D1124911DB29F59
:1053B000700D811D1124911D08955058BB27AA27F7
:1053C0000E94F5290C9409290E94FB2838F00E94BC
:1053D000022920F039F49F3F19F426F40C94F828A0
:1053E0000EF4E095E7FB0C94F228E92F0E941A29AD
:1053F00058F3BA17620773078407950720F079F40A
:10540000A6F50C943C290EF4E0950B2EBA2FA02D96
:105410000B01B90190010C01CA01A0011124FF2761
:10542000591B99F0593F50F4503E68F11A16F0405C
:10543000A22F232F342F4427585FF3CF469537955B
:105440002795A795F0405395C9F77EF41F16BA0B20
:10545000620B730B840BBAF09150A1F0FF0FBB1FCE
:10546000661F771F881FC2F70EC0BA0F621F731F17
:10547000841F48F4879577956795B795F7959E3F74
:1054800008F0B0CF9395880F08F09927EE0F979505
:10549000879508950E945E2A0C9409290E9402298A
:1054A00058F00E94FB2840F029F45F3F29F00C944B
:1054B000F22851110C943D290C94F8280E941A29C5
:1054C00068F39923B1F3552391F3951B550BBB2733
:1054D000AA2762177307840738F09F5F5F4F220F78
:1054E000331F441FAA1FA9F335D00E2E3AF0E0E86F
:1054F00032D091505040E695001CCAF72BD0FE2FB9
:1055000029D0660F771F881FBB1F2617370748074C
:10551000AB07B0E809F0BB0B802DBF01FF27935804
:105520005F4F3AF09E3F510578F00C94F2280C94AE
:105530003D295F3FE4F3983ED4F3869577956795D0
:10554000B795F7959F5FC9F7880F911D9695879539
:1055500097F90895E1E0660F771F881FBB1F621758
:1055600073078407BA0720F0621B730B840BBA0B16
:10557000EE1F88F7E09508950E94222988F09F5732
:1055800098F0B92F9927B751B0F0E1F0660F771F67
:10559000881F991F1AF0BA95C9F714C0B13091F05D
:1055A0000E943C29B1E008950C943C29672F782F84
:1055B0008827B85F39F0B93FCCF386957795679522
:1055C000B395D9F73EF490958095709561957F4F8E
:1055D0008F4F9F4F08950E94612808F48FEF089520
:1055E000DB018F939F930E946229BF91AF91A29F8D
:1055F000800D911DA39F900DB29F900D11240895D1
:10560000991B79E004C0991F961708F0961B881F14
:105610007A95C9F780950895AA1BBB1B51E107C075
:10562000AA1FBB1FA617B70710F0A61BB70B881F32
:10563000991F5A95A9F780959095BC01CD010895C1
:10564000EE0FFF1F0590F491E02D09940F931F9327
:10565000CF93DF938230910510F482E090E0E091E7
:105660003404F091350430E020E0B0E0A0E0309761
:1056700099F42115310509F44AC0281B390B24304F
:105680003105D8F58A819B816115710589F1FB018E
:1056900093838283FE0111C0408151810281138175
:1056A00048175907E0F04817590799F4109761F027
:1056B00012960C93129713961C933296CF01DF919A
:1056C000CF911F910F9108950093340410933504E6
:1056D000F4CF2115310551F04217530738F0A901D5
:1056E000DB019A01BD01DF01F801C1CFEF01F9CF64
:1056F0009093350480933404CDCFFE01E20FF31F65
:10570000819391932250310939832883D7CF2091F7
:10571000320430913304232B41F420910501309160
:105720000601309333042093320420910301309119
:1057300004012115310541F42DB73EB74091070111
:1057400050910801241B350BE0913204F091330491
:10575000E217F307A0F42E1B3F0B2817390778F048
:10576000AC014E5F5F4F2417350748F04E0F5F1FA7
:105770005093330440933204819391939FCFF0E090
:10578000E0E09CCFCF93DF930097E9F0FC013297E4
:1057900013821282A0913404B0913504ED0130E0FF
:1057A00020E01097A1F420813181820F931F209176
:1057B0003204309133042817390709F061C0F0939F
:1057C0003304E0933204DF91CF910895EA01CE17BC
:1057D000DF07E8F54A815B819E0141155105B1F76C
:1057E000E901FB83EA8349915991C40FD51FEC1756
:1057F000FD0761F4808191810296840F951FE90174
:1058000099838883828193819B838A83F0E0E0E09F
:1058100012968D919C9113970097B9F52D913C911B
:105820001197CD010296820F931F2091320430917F
:1058300033042817390739F6309751F5109235049B
:1058400010923404B0933304A0933204BCCFD383BA
:10585000C28340815181840F951FC817D90761F415
:105860004E5F5F4F88819981480F591F5183408354
:105870008A819B81938382832115310509F0B0CF02
:10588000F0933504E09334049ECFFD01DC01C0CFDA
:1058900013821282D7CFB0E0A0E0E1E5FCE20C94E5
:1058A00077298C01009751F4CB010E94262B8C01A3
:1058B000C801CDB7DEB7E0E10C949329FC01E60FF7
:1058C000F71F9C0122503109E217F30708F49DC02D
:1058D000D901CD91DC911197C617D70798F0C53043
:1058E000D10530F3CE0104978617970708F3C61B3E
:1058F000D70B2297C193D1936D937C93CF010E94D4
:10590000C22BD6CF5B01AC1ABD0A4C018C0E9D1E7A
:10591000A0913404B0913504512C412CF12CE12C90
:10592000109731F5809132049091330488159905D0
:1059300009F05CC04616570608F058C08091030174
:1059400090910401009741F48DB79EB740910701F3
:1059500050910801841B950BE817F90708F055C012
:10596000F0933304E0933204F90171836083A0CF94
:105970008D919C91119712966C90129713967C9032
:105980001397A815B90559F56C0142E0C40ED11C56
:10599000CA14DB0420F1AC014A195B09DA01129642
:1059A000159780F06282738251834083D9016D9391
:1059B0007C93E114F10471F0D7011396FC93EE93FC
:1059C000129776CF22968C0F9D1FF90191838083C9
:1059D000F301EFCFF0933504E093340469CF481618
:1059E000590608F42C017D01D3019ACFCB010E9406
:1059F000262B7C01009749F0AE01B8010E94082DCA
:105A0000C8010E94C22B870153CF10E000E050CFA5
:105A1000FB01DC0102C001900D9241505040D8F7CB
:105A20000895FB01DC018D91019080190110D9F3DB
:105A3000990B0895FB01DC0101900D920020E1F724
:105A40000895FB0151915523A9F0BF01DC014D914F
:105A500045174111E1F759F4CD010190002049F0BB
:105A60004D9140154111C9F3FB014111EFCF81E088
:105A700090E00197089510E0C4ECD0E004C0FE016E
:105A80000E94202B2196C53CD107C9F7F894FFCF7F
:085A900000000000000000000E
:105A9800010D0100003604800000000000D20B0D4B
:105AA8000CB7137E0072006800A5009600880010ED
:105AB80001CC00C400BB00B300E7000000000038C0
:105AC800049803C5038504F603D403E803536570FB
