:100000000C94CA000C94F2000C94F2000C94F200D0
:100010000C94F2000C94F2000C94F2000C94F20098
:100020000C94F2000C94F2000C94F2000C94B51DA8
:100030000C94F2000C94F2000C94F2000C94F20078
:100040000C946B1D0C94F2000C94391D0C94131D30
:100050000C94F2000C94F2000C94F2000C94F20058
:100060000C94F2000C94F200756E6368616E676523
:100070006400756E617661696C61626C65007065C3
:10008000726365707465640065787465726F63652A
:100090007074696F6E0070726F7072696F636570F3
:1000A00074696F6E00696E7465726F6365707469F0
:1000B0006F6E00696E76616C69640072656A656373
:1000C00074656400616C726561647900756E61626B
:1000D0006C650000000000230026002900000000DD
:1000E00008000201000003040700000000000000F7
:1000F00000756E6B6E6F776E0070657263657074FD
:1001000065640070726F7072696F63657074696F97
:100110006E00756E6B6E6F776E00657865637574D3
:10012000656400CDCCCC3D0AD7233C17B7D13877D6
:10013000CC2B329595E6241FB14F0A0000204100D8
:1001400000C84200401C4620BCBE4CCA1B0E5AAE22
:10015000C59D7400000000250028002B0000000051
:1001600000240027002A00040404040404040402F8
:100170000202020202030303030303010204081044
:100180002040800102040810200102040810200011
:10019000711E342A11241FBECFEFD8E0DEBFCDBFC1
:1001A00012E0A0E0B1E0E2E5FFE502C005900D92AB
:1001B000AC35B107D9F723E0ACE5B2E001C01D9240
:1001C000A938B207E1F710E0C9ECD0E004C02197EC
:1001D000FE010E947E2DC83CD107C9F70E94F51F81
:1001E0000C94992F0C9400008F929F92AF92BF9223
:1001F000FF920F931F93CF93DF93F09082032BE036
:100200002F1508F451C02091840308E512E0021B69
:10021000110927FD1395000F111F000F111F2091C9
:100220008303C8E8D0E0C21BD10927FDD395CC0FCA
:10023000DD1FCC0FDD1F4E010D2E000CAA08BB08E0
:10024000DC01853B910514F0A4EBB0E09801012E90
:10025000000C440B550B281939094A095B090E9407
:10026000CB2B24EB30E040E050E00E94A12B820E2B
:10027000931EA41EB51E8C169D062CF0E801801658
:1002800091060CF4E4012297CC0FDD1F2FB7F894F0
:100290008F2D90E0FC01EE0FFF1FE80FF91FE45FC8
:1002A000FC4FD283C1832FBFDF91CF911F910F915C
:1002B000FF90BF90AF909F908F90089590E0FC01C9
:1002C000E558FE4F249189599E4FFC018491882363
:1002D00099F090E0880F991FFC01E35AFE4FA59119
:1002E000B491FC01ED5AFE4F859194918FB7F8942B
:1002F000EC91E22BEC938FBF0895CF93C82F8091A0
:10030000410390914203DC01ED91FC910084F18561
:10031000E02D0995181619067CF4809141039091FF
:100320004203DC01ED91FC910284F385E02D0995F7
:1003300021E0C817190609F020E0822FCF91089517
:1003400080914E0381110FC080914103909142032F
:10035000DC01ED91FC910190F081E02D60EC0995BC
:1003600081E080934E03089580914E038823C9F065
:100370008091410390914203DC01ED91FC91019049
:10038000F081E02D60EC099580914103909142034A
:10039000DC01ED91FC910680F781E02D099510922A
:1003A0004E030895FF920F931F93CF93DF938C0119
:1003B000F12C609164037091650380916603F816D7
:1003C000C8F484E0F89EE0011124C60FD71F6A81AB
:1003D0007B816115710541F0D801ED91FC9102809E
:1003E000F381E02DC80109951B821A8218821982B7
:1003F000F394DFCF109266038FEF80936803B3E02E
:1004000064357B0789F0D801ED91FC910280F3817E
:10041000E02DC801099584E593E0909365038093EE
:10042000640384E080936703DF91CF911F910F9164
:10043000FF9008952F923F924F925F926F927F921A
:100440008F929F92AF92BF92CF92DF92EF92FF92E4
:100450000F931F93CF93DF9300D000D000D01F9253
:10046000CDB7DEB79A8389834A015B0120E836E97C
:1004700048E15BE4CB01B4010E94492D87FD89C0AE
:1004800004E110E080E290E09C838B83312C212CEE
:10049000F801E55CFE4F2591359145915491C501D8
:1004A000B4010E94492D87FD11C0F801ED5DFE4F9A
:1004B0002591359145915491C501B4010E94E32ADB
:1004C0004B015C01AB81BC812A0E3B1EEB81FC81A0
:1004D000F595E795FC83EB83045011090C3FFFEF82
:1004E0001F07B1F677247A9420E030E0A901C50116
:1004F000B4010E94492D18160CF054C02CEA35ECBA
:1005000047E257E3C501B4010E947D2A18160CF496
:1005100049C0972DA4E09A0280011124F12CE12C0E
:10052000F801ED5DFE4F6F01055C1E4FFFEF7F167A
:1005300009F438C0F601EE0DFF1D659175918591A6
:10054000949120E030E040E251E40E94E32AA501CA
:1005500094010E94492D18168CF4F801EE0DFF1D30
:100560002591359145915491C501B4010E94E32A2A
:100570004B015C018B819C81281A390AAB81BC81BB
:10058000B595A795BC83AB837A94B4E0EB1AF108D8
:10059000CDCF80E290E09C838B8335E0732E312CAD
:1005A000212CA2CFC501B4010E941A2D6B017C0140
:1005B0002B013C0180E492E4AFE0B0E08B839C83AC
:1005C000AD83BE8396E09F83AAE04A16510461047E
:1005D0007104E0F06B817C818D819E812AE030E0A6
:1005E00040E050E00E940A2C2B833C834D835E83C5
:1005F000BF81B150BF83C301B2012AE030E040E0C7
:1006000050E00E940A2C29013A01DECFC701B60151
:100610000E94822A9B01AC01C501B4010E943B2CBF
:100620004B015C016B817C818D819E810E94822ABD
:100630009B01AC01C501B4010E94E32A2B013C01DE
:100640000E941A2D4B015C010E94822A9B01AC0181
:10065000C301B2010E943B2C9B01AC010E943C2CC7
:100660000E941A2D860E971EA81EB91E8B819C8192
:10067000AD81BE8188169906AA06BB06C0F09FEF21
:10068000C91AD90AE90AF90A2114310439F1AAE090
:10069000CA16D104E104F10408F1BFEF2B1A3B0A9A
:1006A000812C912C5401C12CD12C7601C3948AE069
:1006B000482E512C612C712CC501B401A30192016B
:1006C0000E940A2C672B682B692B61F4EF811E16A0
:1006D0004CF449015A01E150EF83EECF812C912C6B
:1006E0005401E5CFA981BA81CD92DD92ED92FC92C1
:1006F0001397FD0184829582A682B7823186208677
:100700008F818287CD0127960FB6F894DEBF0FBE8A
:10071000CDBFDF91CF911F910F91FF90EF90DF90B0
:10072000CF90BF90AF909F908F907F906F905F9091
:100730004F903F902F9008950895AF92BF92CF921F
:10074000DF92EF92FF920F931F93CF93DF936C0191
:100750007B018B01040F151FEB015E01AE18BF0872
:10076000C017D10759F06991D601ED91FC91019024
:10077000F081E02DC6010995892B79F7C501DF913C
:10078000CF911F910F91FF90EF90DF90CF90BF908E
:10079000AF900895FC01538D448D252F30E0842FB8
:1007A00090E0821B930B541710F0CF960895019799
:1007B0000895FC01918D828D981761F0A28DAE0F86
:1007C000BF2FB11D5D968C91928D9F5F9F73928F0D
:1007D00090E008958FEF9FEF0895FC01918D828D39
:1007E000981731F0828DE80FF11D858D90E0089506
:1007F0008FEF9FEF0895FC01918D228D892F90E05E
:10080000805C9F4F821B91098F73992708958FE613
:1008100092E00E94FB0321E0892B09F420E0822F63
:10082000089580E090E0892B29F00E94070481114F
:100830000C9400000895FC01A48DA80FB92FB11DE0
:10084000A35ABF4F2C91848D90E001968F73992706
:10085000848FA689B7892C93A089B1898C918370E4
:1008600080648C93938D848D981306C00288F389DD
:10087000E02D80818F7D80830895EF92FF920F930A
:100880001F93CF93DF93EC0181E0888F9B8D8C8D3C
:1008900098131AC0E889F989808185FF15C09FB730
:1008A000F894EE89FF896083E889F98980818370F3
:1008B000806480839FBF81E090E0DF91CF911F91A2
:1008C0000F91FF90EF900895F62E0B8D10E00F5FC3
:1008D0001F4F0F731127E02E8C8D8E110CC00FB699
:1008E00007FCFACFE889F989808185FFF5CFCE0131
:1008F0000E941B04F1CFEB8DEC0FFD2FF11DE35A8D
:10090000FF4FF0829FB7F8940B8FEA89FB898081B3
:100910008062CFCFCF93DF93EC01888D8823B9F02D
:10092000AA89BB89E889F9898C9185FD03C08081FA
:1009300086FD0DC00FB607FCF7CF8C9185FFF2CF77
:10094000808185FFEDCFCE010E941B04E9CFDF91AE
:10095000CF910895833081F028F4813099F082306E
:10096000A9F008958730A9F08830C9F08430B1F437
:10097000809180008F7D03C0809180008F7780936D
:100980008000089584B58F7784BD089584B58F7DE8
:10099000FBCF8091B0008F778093B0000895809155
:1009A000B0008F7DF9CFCF93DF93282F30E0F9018E
:1009B000E352FF4F8491F901E558FE4FD491F901BC
:1009C000E959FE4FC491CC23A1F081110E94AA04E1
:1009D000EC2FF0E0EE0FFF1FED52FF4FA591B49109
:1009E000EC91ED2381E090E009F480E0DF91CF917C
:1009F000089580E090E0FACF1F93CF93DF93282FE4
:100A000030E0F901E352FF4F8491F901E558FE4FC0
:100A1000D491F901E959FE4FC491CC23A9F0162FC6
:100A200081110E94AA04EC2FF0E0EE0FFF1FED5A97
:100A3000FE4FA591B4918FB7F894EC91111108C0B5
:100A4000D095DE23DC938FBFDF91CF911F91089566
:100A5000DE2BF8CF2FB7F89460916B0270916C0287
:100A600080916D0290916E022FBF08950F931F9396
:100A7000CF93C0914D03C11118C080EC0E947D013D
:100A8000C82F882369F081E080934D030E942A05D6
:100A90006093490370934A0380934B0390934C03F4
:100AA0008C2FCF911F910F9108950E942A05AB01C1
:100AB000BC018091490390914A03A0914B03B091EE
:100AC0004C03009145031091460320914703309158
:100AD0004803800F911FA21FB31F481759076A07C9
:100AE0007B0720F010924D03C0E0DACF80914103E4
:100AF00090914203DC01ED91FC910084F185E02DA1
:100B000009951816190664F68091410390914203E5
:100B1000DC01ED91FC910484F585E02D0995803C84
:100B2000910509F0BDCF8091410390914203DC0112
:100B3000ED91FC910284F385E02D0995803C9105AF
:100B400009F0AECFCFCF0F931F93CF93DF93EC017C
:100B50000E942A05688779878A879B87E881F981BF
:100B60000284F385E02DCE01099597FF15C00E9400
:100B70002A05088519852A853B85601B710B820B28
:100B8000930B0C811D812E813F81601771078207B5
:100B9000930720F38FEF9FEFDF91CF911F910F917C
:100BA00008956F3FA9F0E62FE295EF7044E0E49FCF
:100BB00090011124DC01ED91FC91E20FF31F6F70A5
:100BC00082819381B6E06B9F800D911D1124089561
:100BD00090E080E00895CF93C82FCB016C2F45960D
:100BE0000E94D1052FEF009711F0FC012581BC0177
:100BF0008C2F922FCF910895982F80336CF08A33E9
:100C000024F08F3524F08B3724F481E0089581346B
:100C10001CF081E09B350CF080E00895CF93DF93CA
:100C2000EC0188819981DC01ED91FC910190F081CA
:100C3000E02D09952A813B81820F931F9B838A8334
:100C4000DF91CF910895CF93DF93EC018881998153
:100C5000DC01ED91FC910280F381E02D09952A8160
:100C60003B81820F931F9B838A83DF91CF910895ED
:100C70008F929F92AF92BF92CF92DF92EF92FF92AC
:100C80000F931F93CF93DF93CDB7DEB766970FB661
:100C9000F894DEBF0FBECDBF6C018E01095E1F4F01
:100CA00078018AE0882E912CA12CB12CCB01BA01BD
:100CB000A50194010E940A2C942F852F605DF801F4
:100CC00062938F01A901692F782F411551056105A4
:100CD000710561F7A7014E1B5F0BBF01C6010E94A2
:100CE000230666960FB6F894DEBF0FBECDBFDF9128
:100CF000CF911F910F91FF90EF90DF90CF90BF9019
:100D0000AF909F908F900895FC018485811114C04D
:100D1000A781B085818592852FEF3FEFA817B9078E
:100D200030F4CD010196908787832C9130E037FD18
:100D300020E0238781E08487838508951F93CF93E4
:100D4000DF93EC01162F0E948406811306C01C86D7
:100D500081E0DF91CF911F91089580E0FACF0F934A
:100D60001F93CF93DF938C01EB018991882369F066
:100D7000C8010E948406882379F0FE013197908192
:100D800098130DC0F8011486F0CF90E080E0DF9159
:100D9000CF911F910F91089582E090E0F8CF83E00A
:100DA00090E0F5CFCF93DF93EC01CE010E94840653
:100DB0008B304CF489305CF4882359F081E08E83C9
:100DC00090E080E00BC08D3011F08032B9F71C86C6
:100DD000ECCF8E81811105C081E090E0DF91CF9151
:100DE000089582E090E0FACFCF93DF93DB01FC011E
:100DF000808191810097E1F012962C9112971396C1
:100E00004C911397342F3F77FC014381421713060F
:100E100071F7ED91FC911197EC0124962E0F3F1F75
:100E2000E217F30729F0519149915417C9F3DFCF25
:100E3000DF91CF910895DC0152969C915297915089
:100E400084E0989F900111245096ED91FC91E20F5F
:100E5000F31F228133812115310579F04181808191
:100E6000481758F481E0840F818386E0489F200D65
:100E7000311D11242115310521F460E070E08FEF60
:100E80000895B901892F8295807F840F08950F936B
:100E90001F93CF93DF9300D000D000D0CDB7DEB743
:100EA000DB01ED91FC91119712960D911D912D9101
:100EB0003C911597DC011296FC93EE931197FC017F
:100EC00003831483258336835087478326960FB682
:100ED000F894DEBF0FBECDBFDF91CF911F910F9170
:100EE0000895CF92DF92EF92FF920F931F93CF93CB
:100EF00020E030E04CED52E46091600270916102BC
:100F000080916202909163020E947D2A87FF31C026
:100F100080916402882369F10E942A0500915C0295
:100F200010915D0220915E0230915F026B017C01A5
:100F3000C01AD10AE20AF30A97018601083C11059A
:100F400021053105B0F060935C0270935D028093DF
:100F50005E0290935F02C091000184E190E0C111B4
:100F600002C08CED90E00E94F40081E0C827C0939D
:100F70000001CF911F910F91FF90EF90DF90CF90E4
:100F800008958DE00E94D30461E0892B09F060E0B0
:100F90008DE00E94FC048091640291E08927809397
:100FA000640280E00895CF92DF92EF92FF920F9358
:100FB0001F93CF93DF93C0906002D0906102E090C6
:100FC0006202F09063028CE00E94D3048C01C1E0C5
:100FD000D0E020E030E048EC52E4C701B6010E94C6
:100FE000492D181614F0D0E0C0E0C023D123CD2B3A
:100FF00009F070C08BE00E94D3048C01C1E0D0E006
:1010000020E030E04CE852E4C701B6010E94492DCF
:10101000181614F0D0E0C0E0C023D123CD2B09F086
:1010200059C08AE00E94D3048C01C1E0D0E020E0E6
:1010300030E04CE852E4C701B6010E947D2A181640
:1010400014F4D0E0C0E0C023D123CD2B09F042C07E
:1010500020E030E048EC52E4C701B6010E94492D7F
:101060001816A4F460E08AE00E94FC0460E08BE0C3
:101070000E94FC0461E08CE0DF91CF911F910F9101
:10108000FF90EF90DF90CF900C94FC0420E030E0D4
:101090004CE852E4C701B6010E94492D181654F4D9
:1010A00060E08AE00E94FC0461E08BE00E94FC04A6
:1010B00060E0E1CF20E030E04CE852E4C701B60147
:1010C0000E947D2A181634F061E08AE00E94FC0438
:1010D00060E0EBCFDF91CF911F910F91FF90EF90E8
:1010E000DF90CF90089580E480937C0080917A0017
:1010F000806480937A0080917A0086FDFCCF809195
:10110000780060917900762F682F072E000C880BED
:10111000990B0E94842A20E030EC4FE754E40E94AF
:10112000A82C20E030E048EC52E40E94E32A20E0C2
:1011300030E040EA51E40E943C2C609360027093DE
:101140006102809362029093630208958DE00E9491
:101150005E018AE00E945E018BE00E945E018CE0ED
:101160000E945E0183E00E945E01809182038C30C8
:1011700008F050C083E00E945E0180918203282F16
:1011800030E0F901EE0FFF1FE20FF31FE45FFC4FA9
:101190009081907C936090831092830310928403DB
:1011A0002CE0622F0E945E2D829FB001112430E05E
:1011B00020E0AB01420F531FFA01EE0FFF1FE40FB7
:1011C000F51FE45FFC4F908196FD16C02F5F3F4FE7
:1011D0002C30310571F781110FC01092800082E030
:1011E000809381001092850010928400B19A8091C2
:1011F0006F00826080936F00E09182038E2F90E0F9
:10120000FC01EE0FFF1FE80FF91FE45FFC4F808128
:10121000806480838AE590E00C94F4004F925F92A2
:101220006F927F928F929F92AF92BF92CF92DF92F6
:10123000EF92FF920F931F93CF93DF9300D000D0D4
:101240001F92CDB7DEB7DC012C912B32E1F12D32AC
:10125000D9F50196EE24E394FC01208130ED320FA4
:101260003A3010F02E3291F58C0160E070E0CB0145
:10127000F801219130ED832E820E39E0381508F403
:1012800044C06A3949E97407840749E1940708F0C2
:1012900046C0AAE0B0E09B01AC010E94C02B912C9B
:1012A000B12CA12C24013501409450946094709489
:1012B000461657066806790690F1680D791D8A1D55
:1012C0009B1D8F01D5CF0196E12CC6CF19822981B4
:1012D0003A814B815C816D8170E080E090E00F90FD
:1012E0000F900F900F900F90DF91CF911F910F9162
:1012F000FF90EF90DF90CF90BF90AF909F908F9036
:101300007F906F905F904F900895211108C0EE205C
:1013100051F161307105810550E89507A0F0F12C7D
:10132000BAE08B2E912CA12CB12C6115710530E8FF
:1013300083079105F8F0A50194010E940A2CCA01C7
:10134000B901F394F2CF22E029839B01AC018827F5
:101350009927DC01821B930BA40BB50B8A839B831B
:10136000AC83BD83B4CF23E029836A837B838C83E2
:101370009D83ADCFF801D8012D918D0130ED320F55
:101380003A3010F4F394F6CF2E3201F58F010F5F4F
:101390001F4FF8010F5F1F4F2081A0EDDA2ED20EF4
:1013A000B9E0BD1598F06C3CECEC7E07ECE08E07E4
:1013B000910578F7AAE0B0E09B01AC010E94C02B38
:1013C0006D0D711D811D911DFA94E3CF20812F7D3C
:1013D00010E000E0253409F050C021812D32B1F534
:1013E0003296CC24C394DF0110E000E02F2D0F2CA7
:1013F000000C330B5AE0B52EFD01DD9040ED4D0D94
:101400004A30B0F5B09EA001B19E500D11240D2DB3
:10141000DD0C110B00531109040F151FA801420F19
:10142000531F4732510544F3CC20B9F080E090E0DF
:10143000A0E0B0E8E11003C080E090E0DC0121E032
:1014400029838A839B83AC83BD8341CF2B3219F0E0
:101450003196C12CC8CF3296FCCF80E090E0A0E856
:10146000BFEFE110ECCF80E090E0A0E8BFE7E7CF6E
:10147000CC2019F01195019511092081211126CF59
:101480000F0D111DF7FC1A950E94822A3BE3C32E13
:1014900031E0D32E101611063CF01195019511097B
:1014A00043E2C42E41E0D42EF12C0115110591F038
:1014B00000FF0CC024E0F29EF0011124EC0DFD1D94
:1014C00025913591459154910E94E32A15950795F0
:1014D000F394EBCFE110905821E029836A837B835A
:1014E0008C839D83F4CECF93DF9300D000D01F92E6
:1014F000CDB7DEB7FC01A081B181109709F43DC0E2
:101500001496EC911497E250ED3008F036C0F0E0FC
:10151000E457F54F0C947E2DAC0ABD0AC10AC40AEB
:10152000990ABD0ABD0ABD0AA00ABD0AA50ABD0ADC
:10153000C80A6C9170E090E080E00E94822A2CC082
:101540006D917D918D919C91F8CF6D917D918D9153
:101550009C910E94842A20C0CD010E940E093A83EA
:101560004B835C836D836A817B818C819D8122307A
:1015700081F3233011F3213079F060E070E0CB018A
:101580000BC08D919C91E9CF8D919C910496E5CFF4
:101590006D917D918D919C910F900F900F900F9078
:1015A0000F90DF91CF9108951F93CF93DF93EC01BC
:1015B000CB011B81612F45960E94D10599838883B9
:1015C0001A83009719F0FC0185818B83DF91CF91FD
:1015D0001F910895CF92DF92EF92FF920F931F9386
:1015E000CF93DF937C016B018A01FC01C081D18123
:1015F0004F3F510509F0B0F4E881F9810480F5818D
:10160000E02D4B5F5F4FCE010995009759F0FC012B
:101610000383DF91CF911F910F91FF90EF90DF90A7
:10162000CF900895E881F9810280F381E02DB60121
:10163000CE01099581E0F701828390E080E0E9CF57
:101640001F93CF93DF93EC01162F6A817B81611585
:10165000710589F04C815D81FB018381841715063A
:1016600051F4440F551F4F5F5F4F888199810E944D
:10167000EA0A9B838A838A819B81009759F02C8197
:101680003D81A9014F5F5F4F5D834C83820F931FA4
:10169000FC011483DF91CF911F9108959F92AF9227
:1016A000BF92CF92DF92EF92FF920F931F93CF934F
:1016B000DF9300D000D01F92CDB7DEB78C010E941F
:1016C0008406D82EF8011486F12CE12C60EFC62E8A
:1016D000C8010E948406F8011486D81609F4B3C024
:1016E000811113C082E090E00F900F900F900F9047
:1016F0000F90DF91CF911F910F91FF90EF90DF90AE
:10170000CF90BF90AF909F9008958C3509F099C00D
:10171000C8010E948406882329F3E2E5F1E08537B9
:1017200009F083C0F801148654E0952EB12CA12C49
:10173000C8010E9484068823A9F2813434F48053BE
:10174000803130F083E090E0CFCF8F7D8753F8CFAA
:1017500044E0AA0CBB1C4A95E1F7A82AF8011486BC
:101760009A949110E5CFC501985D8115944020F4BD
:101770007501F3E0FF22ACCFC5019C5D811594405B
:10178000A8F483E0B822B701762F6627770F770F8A
:101790006A297B2990E080E0019660387105810517
:1017A000910540F4C8010E94200B92CFB50190E052
:1017B00080E0F3CF1982262F2F7320682A8326E03A
:1017C00096958795779567952A95D1F7603271053B
:1017D00080F4606C6B835E01E4E0AE0EB11CF50139
:1017E00062915F01662309F473CFC8010E94200B48
:1017F000F6CF262F2F7320682B8386E0769567958A
:101800008A95E1F76031710538F4606E6C835E0192
:10181000F5E0AF0EB11CE3CF60686C83CD825E0152
:1018200026E0A20EB11CDBCF32969081992309F4F9
:1018300089CF8913F9CF8181882309F483CFF801F7
:101840001486682FAFCF82819381892B19F484E0AD
:1018500090E04ACF90E080E047CFAF92BF92CF9226
:10186000DF92EF92FF920F931F93CF93DF9300D0FD
:1018700000D0CDB7DEB7DC0112962D913C911397C5
:101880002C5F3F4F14964D915C914430510580F58B
:101890007901D901E0E0142F022FFA2FF21BF11782
:1018A00030F4DD90F1E0D110F0E0EF2BF6CFE11154
:1018B0001FC082E0FB0184838E2D801B811728F4DA
:1018C000D7018D917D018193F7CF640F751FFB01C7
:1018D00010820F900F900F900F90DF91CF911F917A
:1018E0000F91FF90EF90DF90CF90BF90AF90089551
:1018F0007B018C01420F531FDA011C92FC01C08056
:10190000D180A480B5803A832983AB828B2D8F77D9
:101910008C83BE016F5F7F4FC60103960E94F40661
:101920000097D9F4D80112966D917C91A501C6015A
:101930000E94EA0AD801ED91FC9123813481DC01F7
:101940002D933C9394838383F8011382128225E0C4
:10195000F701248391838083BCCFDC0112962C9104
:1019600012972F5F12962C93F2CFDB01ED91FC9131
:1019700011970280F381E02DBC01CD010994CF9332
:10198000DF9380914F03909150030E94D2011092F7
:101990005103C0914F03D091500380915203909115
:1019A0005303009759F0FC01208131813093530398
:1019B00020935203BE010E94B50CEFCF10926D032D
:1019C000DF91CF910895AF92BF92CF92DF92EF92C5
:1019D000FF920F931F93CF93DF93EC018B018C81C8
:1019E00080FF24C0A881B981FB018381948130E00C
:1019F00020E00097D9F0A817B907D1F5F801608168
:101A0000718112968C911297815012968C93129735
:101A100081110CC08D919C9111972115310529F1EF
:101A2000F90191838083CD010E94B50C8C81807671
:101A300031F1209721F1F8805801F5E1AF0EB11C8A
:101A40008FEFF816D1F06F2DC5010E94D1056C0102
:101A5000FC01E580B8010E94E30CF801818DF601DC
:101A60008083F801F18EFE2CEBCF94838383DBCF50
:101A70009C01FC0180819181BCCFF882F9821C829B
:101A8000DF91CF911F910F91FF90EF90DF90CF905A
:101A9000BF90AF900895CF93DF93EC01CB01CF3F80
:101AA000D10509F0B0F4BE016B5F7F4F6C177D0765
:101AB00080F0DC01ED91FC910190F081E02D099521
:101AC000009721F0FC01C38321E02283DF91CF91B5
:101AD000089590E080E0FACF8F929F92AF92BF92EC
:101AE000CF92DF92EF92FF920F931F93CF93DF93EA
:101AF00000D000D0CDB7DEB7DC0169014A01411545
:101B0000510509F456C077FF08C084E014968C9301
:101B100014974D935C9381E04DC07F777B016430D7
:101B2000710518F5FA0190E0242F8E2F8819861779
:101B300030F4819131E0811130E0932BF6CF911197
:101B400014C082E014968C9314978D01842F821B0D
:101B5000861738F4FA018191AF01F80181938F0162
:101B6000F5CFA60FB11D1C92D6CF8D01F601A08036
:101B7000B1809A8289826B837C83BE016F5F7F4FC5
:101B8000C60103960E94F406009751F0FC012281E1
:101B90002F5F228325E0F801248391838083BBCFCC
:101BA000B501C7010E944B0D0097A9F481E0F60131
:101BB000828380E00F900F900F900F90DF91CF9174
:101BC0001F910F91FF90EF90DF90CF90BF90AF905B
:101BD0009F908F900895E981FA81DC011496A70106
:101BE0004E0F5F1FE417F50719F021912D93FACFDF
:101BF000FC01EE0DFF1D1482F60123813481FC01EE
:101C000031832083F60194838383C4CFCF92DF9204
:101C1000EF92FF920F931F93CF93DF930097A9F05A
:101C200089016A017B01EC01B9010E94E30C980172
:101C3000B701A601CE01DF91CF911F910F91FF90C7
:101C4000EF90DF90CF900C946C0DDF91CF911F91AE
:101C50000F91FF90EF90DF90CF900895CB010C94FF
:101C6000842DEF92FF920F931F93CF93DF937C010C
:101C7000EB016FE770E00E94722A8C01AC01B701A2
:101C8000CE010E94602AC00FD11F1882DF91CF9130
:101C90001F910F91FF90EF900895FB01019000209C
:101CA000E9F73197AF01461B570B0C942306CF92EF
:101CB000DF92EF92FF920F931F93CF93DF938C01EC
:101CC0006B017A0162E20E940E06E601EC0CFD1C3B
:101CD000EC16FD0699F06991E2E5F1E0D480DD2093
:101CE000C9F0329683816813F9CF6CE5C8010E9470
:101CF0000E066D2DC8010E940E06EACF62E2C801F1
:101D0000DF91CF911F910F91FF90EF90DF90CF90D7
:101D10000C940E066111EECF65E671E0C8010E94D9
:101D20004D0ED6CFFC0130E020E06115710549F081
:101D3000DB010D900020E9F79D0121503109261BA0
:101D4000370B718360832283832F8F779381907801
:101D5000982B40FB97F9938308952F923F924F92CF
:101D60005F926F927F928F929F92AF92BF92CF922B
:101D7000DF92EF92FF920F931F93CF93DF93CDB734
:101D8000DEB7A1970FB6F894DEBF0FBECDBF7C01C2
:101D90008B01DC0114968C911497863009F471C183
:101DA000E0F4833009F45DC158F440E0B7018230BB
:101DB00009F42FC16CE671E0C8010E944D0EF3C01A
:101DC000843009F423C18530A9F7ED91FC9143815A
:101DD00050E0BF016C5F7F4F25C18E3009F443C0D6
:101DE000E0F48A3009F448C18C3021F7CD90DD90C1
:101DF000ED90FC90B701A601F7FE0BC06DE2C801A3
:101E00000E940E0644275527BA014C195D096E0938
:101E10007F09C8010E94380608C1803209F4CDC08C
:101E2000803441F66BE5C8010E940E06F701F08090
:101E3000FFEFFF1609F4BCC0D80114968D919C9158
:101E40006F2D45960E94D1057C01B8010E94AD0E10
:101E5000F701F580FFEFFF1609F4AAC06CE2C80194
:101E60000E940E06E5CFF701C080D180E280F380AA
:101E7000A7019601C701B6010E947D2A81119ACF60
:101E800020E030E0A901C701B6010E947D2A882325
:101E900079F0A7019601C701B6010E943C2C9B0175
:101EA000AC01C701B6010E947D2A882309F482CFC4
:101EB00020E030E0A901C701B6010E947D2A87FF1A
:101EC00008C06DE2C8010E940E06F7FAF094F7F818
:101ED000F0945E01F7E1AF0EB11CB701A601C50198
:101EE0000E941A02EF8CF8A0D9A04F89588D698DF5
:101EF0007A8DC8010E943806DD2091F16B8D7C8DB2
:101F00008D8D9E8D3E0121E1620E711CCD2C430111
:101F10002AE0222E312C412C512CCA94AFEFCA1644
:101F200059F0A20191010E940A2C605DF3016293B5
:101F30003F01B901CA01F1CF8D2D90E0BC01609540
:101F40007095F401E81BF90B31978EE280834427EA
:101F50005527461B570B680D791DC8010E942306A3
:101F6000E114F10401F165E6C8010E940E06F7FED6
:101F700007C06DE2C8010E940E06F194E194F108D9
:101F8000F5012AE030E0C701B9010E946A2D805DA9
:101F900082937B01672BB9F7A5014E1B5F0BBF0135
:101FA000C8010E942306D80112968D919C9140C0D1
:101FB0006DE5C8010E940E06F6CF6BE7C8010E94CE
:101FC0000E06F701F080EE24E394BB24B394FFEFF8
:101FD000FF16D1F0D80114968D919C916F2D4596E6
:101FE0000E94D1056C01B8010E94AD0EF601F5808A
:101FF000FFEFFF1639F06AE3E11001C06CE2C8019F
:102000000E940E06EB24E3CF6DE7D3CF6D917C9158
:1020100041E0CE0101960E94920E4B815C815F7778
:1020200069817A81C8010E94570EF80182819381EB
:10203000A1960FB6F894DEBF0FBECDBFDF91CF9152
:102040001F910F91FF90EF90DF90CF90BF90AF90D6
:102050009F908F907F906F905F904F903F902F90C8
:102060000895ED91FC91438150E0BF016C5F7F4F7B
:10207000C8010E942306D9CF4D915D916D917C914D
:10208000C8CE8C9161E771E0811102C066E771E012
:10209000C8010E944D0EC9CF0F931F93CF93DF93BA
:1020A00000D000D000D0CDB7DEB701E413E0D801F6
:1020B0008D919C91DC01ED91FC910190F081E02DDE
:1020C0006EE10995F801808191819A8389831C8250
:1020D0001B828FE493E09E838D83BE016F5F7F4FF1
:1020E00089E693E00E94AD0ED8018D919C91DC01B0
:1020F000ED91FC910190F081E02D6AE00995269622
:102100000FB6F894DEBF0FBECDBFDF91CF911F9108
:102110000F910895CF93DF9300D000D0CDB7DEB7F5
:10212000FC018481843061F08530E1F040E0BF0142
:10213000823049F060E070E080E090E090680BC091
:102140006081718141E0CE0101960E94920E698109
:102150007A818B819C810F900F900F900F90DF916F
:10216000CF91089580819181FC01238130E0049614
:10217000BC01C9019F779F77EECF9F92AF92BF922C
:10218000CF92DF92EF92FF920F931F93CF93DF9343
:1021900000D000D0CDB7DEB77901C62EB72E8A01A8
:1021A000452B09F450C0B901FC0180810E94EB0568
:1021B00069837A838B839C83DD24D39499249394BD
:1021C00089819A810097F9F0DD20B1F00E948A1090
:1021D0002C2D3B2D3F77AC015F772417350761F439
:1021E000D801E62FF72F200F311FA217B30779F17F
:1021F0009D9181919817C9F3D924B701CE01019619
:102200000E94D40ADDCF2FEF89839A832B83AC827F
:1022100089819A81009739F0B701CE0101960E9419
:10222000D40A89819A810F900F900F900F90DF91BF
:10223000CF911F910F91FF90EF90DF90CF90BF90C3
:10224000AF909F9008952FEF90E080E0DDCFAC80BD
:1022500089819A812B81D8CFFC0120813181C901EC
:102260004A964281538164817581009759F0D90162
:102270005E96EC91E03211F090E080E0009711F072
:102280000C94BD1090E080E008950F931F93CF93BE
:10229000DF93EC0188819981009759F02A813B8175
:1022A0002617370730F081E0DF91CF911F910F9112
:1022B00008958B016F5F7F4F0E94A92E009759F000
:1022C000998388831B830A832C813D81232B59F7B3
:1022D000FC011082E8CF80E0E7CFCF92DF92EF924F
:1022E000FF920F931F93CF93DF938C01DC019296A3
:1022F000ED91FC91E80FF91F12826C01B2E0CB0E58
:10230000D11CC114D10449F1F60101900020E9F774
:102310003197EC19FD09F1F0DC01ED90FC90D7014B
:102320001496CD91DC91CE0FDF1FBE01C7010E9434
:102330004511882391F0F7012081318184819581B5
:10234000B601820F931F0E94782FD7011596DC9358
:10235000CE931497F80113A212A2D80192968D91F0
:102360009C91DF91CF911F910F91FF90EF90DF90A3
:10237000CF9008951F93CF93DF93EC01162F8AA17E
:102380009BA101968097B8F48AA19BA19C012F5F25
:102390003F4F3BA32AA38C0F9D1FFC01128321E01A
:1023A00030E08CA19DA1820F931F9DA38CA3DF9190
:1023B000CF911F910895CE010E946D11892B21F3B9
:1023C00030E020E0EECFBF92CF92DF92EF92FF920B
:1023D0000F931F93CF93DF93EC016A018B017B0175
:1023E000E40EF51EE016F106D1F0F801B1908F0170
:1023F0008AA19BA10196809760F48AA19BA19C0170
:102400002F5F3F4F3BA32AA38C0F9D1FFC01B2827D
:10241000E9CFCE010E946D11892B79F3E3CF4CA156
:102420005DA14C0D5D1D5DA34CA3DF91CF911F916C
:102430000F91FF90EF90DF90CF90BF9008958F9213
:102440009F92AF92BF92CF92DF92EF92FF920F9343
:102450001F93CF93DF93CDB7DEB766970FB6F8948F
:10246000DEBF0FBECDBF6C018E01095E1F4F78012C
:102470008AE0882E912CA12CB12CCB01BA01A501A8
:1024800094010E940A2C942F852F605DF8016293BD
:102490008F01A901692F782F41155105610571053B
:1024A00061F7A7014E1B5F0BBF01C6010E94E3113C
:1024B00066960FB6F894DEBF0FBECDBFDF91CF9109
:1024C0001F910F91FF90EF90DF90CF90BF90AF9052
:1024D0009F908F900895FB0101900020E9F73197BC
:1024E000AF01461B570B0C94E311CF92DF92EF9292
:1024F000FF920F931F93CF93DF938C016B017A01AF
:1025000062E20E94BA11E601EC0CFD1CEC16FD061D
:1025100099F06991E2E5F1E0D480DD20C9F03296CE
:1025200083816813F9CF6CE5C8010E94BA116D2D43
:10253000C8010E94BA11EACF62E2C801DF91CF91CF
:102540001F910F91FF90EF90DF90CF900C94BA11F4
:102550006111EECF65E671E0C8010E946B12D6CF23
:102560002F923F924F925F926F927F928F929F92A3
:10257000AF92BF92CF92DF92EF92FF920F931F9391
:10258000CF93DF93CDB7DEB7A1970FB6F894DEBF38
:102590000FBECDBF7C018B01DC0114968C9114978A
:1025A000863009F471C1E0F4833009F45DC158F458
:1025B00040E0B701823009F42FC16CE671E0C80138
:1025C0000E946B12F3C0843009F423C18530A9F74F
:1025D000ED91FC91438150E0BF016C5F7F4F25C1BD
:1025E0008E3009F443C0E0F48A3009F448C18C30DD
:1025F00021F7CD90DD90ED90FC90B701A601F7FE9C
:102600000BC06DE2C8010E94BA1144275527BA01D8
:102610004C195D096E097F09C8010E941F1208C18B
:10262000803209F4CDC0803441F66BE5C8010E94C8
:10263000BA11F701F080FFEFFF1609F4BCC0D80112
:1026400096968D919C916F2D45960E94D1057C01A7
:10265000B8010E94B012F701F580FFEFFF1609F4F0
:10266000AAC06CE2C8010E94BA11E5CFF701C08090
:10267000D180E280F380A7019601C701B6010E94D4
:102680007D2A81119ACF20E030E0A901C701B6016F
:102690000E947D2A882379F0A7019601C701B6011F
:1026A0000E943C2C9B01AC01C701B6010E947D2A0F
:1026B000882309F482CF20E030E0A901C701B601E8
:1026C0000E947D2A87FF08C06DE2C8010E94BA11EE
:1026D000F7FAF094F7F8F0945E01F7E1AF0EB11C51
:1026E000B701A601C5010E941A02EF8CF8A0D9A07B
:1026F0004F89588D698D7A8DC8010E941F12DD2087
:1027000091F16B8D7C8D8D8D9E8D3E0121E1620E50
:10271000711CCD2C43012AE0222E312C412C512C4E
:10272000CA94AFEFCA1659F0A20191010E940A2C77
:10273000605DF30162933F01B901CA01F1CF8D2DB4
:1027400090E0BC0160957095F401E81BF90B31979E
:102750008EE2808344275527461B570B680D791D51
:10276000C8010E94E311E114F10401F165E6C8011A
:102770000E94BA11F7FE07C06DE2C8010E94BA11AB
:10278000F194E194F108F5012AE030E0C701B901C4
:102790000E946A2D805D82937B01672BB9F7A501AA
:1027A0004E1B5F0BBF01C8010E94E311D801949634
:1027B0008D919C9140C06DE5C8010E94BA11F6CF81
:1027C0006BE7C8010E94BA11F701F080EE24E39490
:1027D000BB24B394FFEFFF16D1F0D80196968D91EC
:1027E0009C916F2D45960E94D1056C01B8010E9405
:1027F000B012F601F580FFEFFF1639F06AE3E11041
:1028000001C06CE2C8010E94BA11EB24E3CF6DE76E
:10281000D3CF6D917C9141E0CE0101960E94920E42
:102820004B815C815F7769817A81C8010E94751252
:10283000F80184A195A1A1960FB6F894DEBF0FBE52
:10284000CDBFDF91CF911F910F91FF90EF90DF905F
:10285000CF90BF90AF909F908F907F906F905F9040
:102860004F903F902F900895ED91FC91438150E05F
:10287000BF016C5F7F4FC8010E94E311D9CF4D911A
:102880005D916D917C91C8CE8C9161E771E0811171
:1028900002C066E771E0C8010E946B12C9CFCB018C
:1028A000BA010C94A92ECF93DF93EC018881998112
:1028B000009711F00E94202E198218821D821C821E
:1028C0001B821A82DF91CF910895EF92FF920F93AE
:1028D0001F93CF93DF93EC017B018A01BA010E9421
:1028E000451181110BC0CE010E945314CE01DF911E
:1028F000CF911F910F91FF90EF9008951D830C834E
:10290000B701888199810E94782FF0CFFB01019057
:102910000020E9F73197AF01461B570B0C94651463
:10292000FC011182108213821282158214826115B9
:10293000710551F0FB0101900020E9F73197AF01DB
:10294000461B570B0C9465140895FF920F931F9329
:10295000CF93DF93EC018C01085A1F4FFF24F394AF
:10296000F88264E671E0CE0105960E949014198207
:102970001A821B821C822B96C017D10789F71882F6
:10298000DF91CF911F910F91FF9008958F929F92A9
:10299000AF92BF92EF92FF920F931F93CF93DF936B
:1029A000EC018090600290906102A0906202B09071
:1029B0006302188281E089837E0122E0E20EF11C2D
:1029C000C7010E94A5148E01065A1F4FF80180818D
:1029D0008830C0F4FBE08F9FC0011124FE01E80F96
:1029E000F91F23E0228383829482A582B682059612
:1029F00064E671E08E0D9F1D0E948614F8018081AF
:102A00008F5F8083CE01DF91CF911F910F91FF9057
:102A1000EF90BF90AF909F908F900895CF92DF92EC
:102A2000EF92FF920F931F93CF93DF93CDB7DEB753
:102A3000C85BD1090FB6F894DEBF0FBECDBF6B01E6
:102A40007C01CA01CB56DF4F59834883C559D0401A
:102A5000C954DF4F19821882C75BD0400E945314BB
:102A600084E2FE01EB56FF4FDE01AF58BF4F0190ED
:102A70000D928A95E1F784E2FE01EF58FF4FDE01E7
:102A8000A35BBF4F01900D928A95E1F784E2FE01AE
:102A9000E35BFF4FDE01999601900D928A95E1F775
:102AA00084E2FE01B996DE01119601900D928A959D
:102AB000E1F71EA21DA2CE0189960E946D11F8A613
:102AC000EFA2CE01835B9F4F0E946D11C114D10410
:102AD00031F1BE016F5F7F4FC6010E94B0127C01D1
:102AE000CE0101960E946D11CE018F589F4F0E941A
:102AF0006D11CE018B569F4F0E946D11C701C854B6
:102B0000DF4F0FB6F894DEBF0FBECDBFDF91CF9180
:102B10001F910F91FF90EF90DF90CF9008956CE69A
:102B200071E0CE0101960E946B12EDA0FEA0D8CFFD
:102B3000EF92FF920F931F93CF93DF93EC01CB01A2
:102B4000FB01E080F1800E942C118C0164E671E0B1
:102B5000CE010E9490140115110589F0C8010E9450
:102B60008A106115710559F0CE010E948614CE01BC
:102B7000DF91CF911F910F91FF90EF900895B801D1
:102B8000C701AE010E940E15F2CFFC018081918138
:102B9000009711F00C94202E0895AF92BF92CF921F
:102BA000DF92EF92FF920F931F93CF93DF9300D0AA
:102BB00000D000D0CDB7DEB78C017C0188E5E80EEF
:102BC000F11CF701908180E09830F0F5F8018BE07E
:102BD000989FE00DF11D112484E08083611571053B
:102BE00011F464E671E0CE0101960E949014F701A1
:102BF0008081A82EB12C6801FBE08F9FC00CD11CF6
:102C00001124F60185819681009789F169817A8185
:102C10006115710551F1478150852D813E81421723
:102C2000530718F10E94782F8D819E81F6019287BB
:102C300081871E821D82CE0101960E94C515F70173
:102C400080818F5F808381E026960FB6F894DEBF87
:102C50000FBECDBFDF91CF911F910F91FF90EF90ED
:102C6000DF90CF90BF90AF9008950E94202E8BE010
:102C70008A9DF0018B9DF00D1124E00FF11F8981D9
:102C80009A81968385838B819C81908787838D81B0
:102C90009E81928781871A8219821C821B82C9CFEA
:102CA000EF92FF920F931F93CF93DF93EC018DE090
:102CB0000E94D304892BC9F49FE7E92E91E0F92EF5
:102CC000188281E089838E010E5F1F4FC8010E9428
:102CD000A514B701C8010E94CD15CE01DF91CF9197
:102CE0001F910F91FF90EF9008958CE7E82E81E0FF
:102CF000F82EE6CFCB010C94202EBF92CF92DF921C
:102D0000EF92FF920F931F93CF93DF93EC01198DF6
:102D10001F3F81F0612F45960E94D105FC01808103
:102D2000898F309709F477C014828FEF8583BF01B4
:102D3000812F76C06C0135E0C30ED11CE880F9808C
:102D40008F89882341F0C6010E941B07E62FF72FC9
:102D5000182F309749F71F89988D191324C0103107
:102D600009F459C0110F6D897E89D701ED91FC914D
:102D7000B4E01B9FA0011124C616D70609F044C079
:102D80000190F081E02DBA01C7010995009709F47F
:102D900042C020E1F601DC0101900D922A95E1F795
:102DA0009E8B8D8B188F0D891E898F8921E0280FAE
:102DB0002F8BE4E08E9FC0011124080F191F90E1B2
:102DC000B92E203111F48FE0B82EF6E0BF9EB0018D
:102DD0001124D701ED91FC910190F081E02DC70104
:102DE0000995F80193838283892B09F4B12CD801CA
:102DF000BC9211961C92012B71F0C6010E941B0718
:102E0000E62FF72F182F8DCF0480F581E02DC70115
:102E10000995009729F681E08A8360E070E08FEFE2
:102E2000DF91CF911F910F91FF90EF90DF90CF90A6
:102E3000BF9008956F927F928F929F92AF92BF92B0
:102E4000CF92DF92EF92FF920F931F93CF93DF9376
:102E5000EC014115510589F490E080E0DF91CF91BC
:102E60001F910F91FF90EF90DF90CF90BF90AF90A8
:102E70009F908F907F906F9008958C8181111AC0E0
:102E800080E28C83209741F38FEF888389837901D7
:102E90004A015B01CE010E94BD100097F9F6C701FF
:102EA0000E947D16682E6B01672B49F410E000E04C
:102EB000C801D4CF803281F6209749F7CDCFC70122
:102EC0000E947D16782E962F092F172F01151105B8
:102ED00069F39701B501A401C6010E946C0D882316
:102EE00029F3F601758269816F3F41F0C70145966C
:102EF0000E94D105FC0165827982DACF6882FCCF1D
:102F0000CF93DF93DC01CD91DC911197FE017A968E
:102F100059F012964D915D916D917C9115979E019E
:102F2000CF010E941A17FC01BF01CE01DF91CF91A2
:102F30000895CF92DF92EF92FF92CF93DF937B01C0
:102F40000E948017DC01CB01EB010097B1F0F70183
:102F5000C080D180E280F380BD010E94E30C8AE052
:102F60008C83C882D982EA82FB8281E0DF91CF9193
:102F7000FF90EF90DF90CF90089580E0F7CFEF9231
:102F8000FF920F931F93CF93DF937C018B010E94DD
:102F90008017DC01CB01E801E881F98170E060E095
:102FA000309749F0EF0109900020E9F7BE01615028
:102FB00071096E1B7F0B7F777F779D01AF010E94A8
:102FC000060ED701ED91FC9180E0309719F08281D7
:102FD00091E08927DF91CF911F910F91FF90EF90A2
:102FE00008950F931F93CF93DF93EC018B010E9401
:102FF0008017DC01CB0170E070689D01A8016AE0D8
:103000000E94060EE881F98180E0309719F08281F4
:1030100091E08927DF91CF911F910F9108956F92D1
:103020007F928F929F92AF92BF92CF92DF92EF9258
:10303000FF920F931F93CF93DF933C01EB010E940C
:1030400080174B015C01088119816B010115110585
:1030500001F1C8010E94692AEC0181149104F9F080
:103060007501B501C4010E94E30CC430D10508F01C
:1030700044C090E080E020E03C2F831740F5F80149
:10308000E80FF91FE49141E0E11140E0242B0196A3
:10309000F4CF672B21F0BC01C4010E94E30CD301E3
:1030A000ED91FC9180E0309719F0828191E08927C1
:1030B000DF91CF911F910F91FF90EF90DF90CF9014
:1030C000BF90AF909F908F907F906F900895211147
:1030D00014C082E0D60114968C93D40190E080E075
:1030E000831738F4F801E80FF91FE491ED93019686
:1030F000F7CFC80DD91D1882D2CFF701A380B480B5
:10310000A114B10471F1D50113968C918C171D0691
:1031100041F4AE01B801C50104960E94532A892BDF
:10312000D9F0F501A080B180EBCFAE01B801C501A7
:1031300004960E94602ACA0DDB1D1C82F701838160
:103140009481D5018D939C93B482A38285E0F6018E
:103150008483B182A082A3CFF50182818F5F8283B5
:10316000F5CFD7016D917C91CE010E944B0D5C0192
:10317000892BD9F681E0D70112968C9390CFEF92EC
:10318000FF920F931F93CF93DF937C018B010E94DB
:103190008017DC01CB01E801E881F98170E060E093
:1031A000309749F0EF0109900020E9F7BE01615026
:1031B00071096E1B7F0B7F777F779D01AF010E94A6
:1031C000060ED701ED91FC9180E0309719F08281D5
:1031D00091E08927DF91CF911F910F91FF90EF90A0
:1031E00008956F927F928F929F92AF92BF92CF92EB
:1031F000DF92EF92FF920F931F93CF93DF93CDB7A0
:10320000DEB728970FB6F894DEBF0FBECDBF7C01A6
:103210000E94A0010E94BF0C0FE413E01A830983EF
:1032200083E891E09C838B8389E08D838E81807815
:1032300080688E836FE673E0CE0101960E94BF180E
:103240008AE191E098878F831A8309838DE891E062
:103250009C838B838CE08D838E81807880688E83C5
:10326000BE01695F7F4FCE0101960E940F181A833D
:1032700009838AE991E09C838B8387E08D838E812B
:10328000807880688E8362EA71E0CE0101960E94A8
:10329000F1171A8309838DEA91E09C838B838BE07D
:1032A0008D838E81807880688E836EE773E0CE0197
:1032B00001960E9499170E944C1000917203109180
:1032C00073038FE4C82E83E0D82E99EBA92E91E0EA
:1032D000B92E26E0722E30EC832E31E0932E47E09B
:1032E000642E0115110589F1E114F10441F0B701D3
:1032F000F801808191810E946F2F892B11F50E9426
:10330000BF0CDA82C982BC82AB827D828E818078DA
:1033100080688E83B8016E5F7F4FCE0101960E9458
:10332000BF18DA82C9829C828B826D828E818078FE
:1033300080688E83B801CE0101960E94BF180E945A
:103340004C10F80106811781CCCF0E94B401289659
:103350000FB6F894DEBF0FBECDBFDF91CF911F91A6
:103360000F91FF90EF90DF90CF90BF90AF909F9024
:103370008F907F906F900895FF920F931F93CF933C
:10338000DF93CDB7DEB72C970FB6F894DEBF0FBE34
:10339000CDBF9A8789877C876B87142F0E94BF0CCB
:1033A0008FE493E09A83898383E891E09C838B8305
:1033B00089E08D838E81807880688E836FE673E0EC
:1033C000CE0101960E94BF1882E191E0163040F4D0
:1033D000E12FF0E0EE0FFF1FE15EFE4F8081918153
:1033E00098878F830FE413E01A8309838DE891E0B7
:1033F0009C838B838CE08D838E81807880688E8324
:10340000BE01695F7F4FCE0101960E940F181A839B
:1034100009838AE991E09C838B8387E0F82EFD8203
:103420008E81807880688E83BE01655F7F4FCE017C
:1034300001960E94BF181A8309838DEA91E09C834C
:103440008B838BE08D838E81807880688E836EE79E
:1034500073E0CE0101960E9499171A83098380ECCC
:1034600091E09C838B83FD828E81807880688E833F
:10347000BE01675F7F4FCE0101960E94BF180E9478
:103480004C102C960FB6F894DEBF0FBECDBFDF9167
:10349000CF911F910F91FF900895CF92DF92FF92ED
:1034A0000F931F93CF93DF938C016B01CB010E948D
:1034B0007D16F82EEB01209761F0F80161816F3FD6
:1034C00089F0C60145960E94D105FC01F582F801FC
:1034D000F182CE01DF91CF911F910F91FF90DF908C
:1034E000CF9008958083F4CF3F924F925F926F9276
:1034F0007F928F929F92AF92BF92CF92DF92EF9284
:10350000FF920F931F93CF93DF9300D000D01F92B1
:10351000CDB7DEB78C016B01B42E0E94D2067C01C0
:10352000892B09F050C0C8010E948406863609F430
:10353000AEC164F5873229F08B35A1F1823209F0F2
:10354000AFC1F8011582148282819381892B99F48D
:10355000E080F180D7016D917C918FE190E00E9435
:103560004B0D009719F421E0F7012283D80113963F
:103570009C938E931297C8010E944E0B7C01892B5D
:1035800011F5B601C8010E942D0C1DC0843709F445
:103590005EC18B3709F466C08E3609F081C16CE6D6
:1035A00071E05CC180E4D60114968C931497C11429
:1035B000D10421F08FEF8C9311968C93B1101BC026
:1035C00025E0E22EF12CC7010F900F900F900F9085
:1035D0000F90DF91CF911F910F91FF90EF90DF90AF
:1035E000CF90BF90AF909F908F907F906F905F90A3
:1035F0004F903F900895F8011486C8010E94D206AA
:10360000009709F09DC16DE5C8010E949E068111D9
:10361000DACFBA94D8011D966D917C91C6010E94B3
:103620004D1A009709F47BC04B2DBC01C8010E94C4
:10363000741A009709F084C1C8010E94D20600974D
:1036400009F07EC16DE5C8010E949E068111BBCFC5
:103650006CE2C8010E949E068111DCCF93E0E92E46
:10366000F12CB1CF80E2F6018483C114D10419F0AA
:103670008FEF80838183BB2009F4A2CFD8011C96F1
:103680001C92C8010E94D206009709F059C16DE74B
:10369000C8010E949E06811196CF55245394772429
:1036A0007A947B0CF8011582148282819381892B94
:1036B00091F4E080F180D7016D917C918FE190E0F1
:1036C0000E944B0D009711F4F7015282D801139616
:1036D0009C938E931297C8010E948406873219F139
:1036E000823209F1C8010E948406F82E0E94FC056E
:1036F000882309F4B3CFF80114866F2DC8010E9406
:10370000200BC8010E948406F82E0E94FC0581113E
:10371000F2CFD80112968D919C91892B59F484E0B7
:10372000E82EF12C50CFC8010E944E0B7C01892B52
:1037300009F049CFC8010E94D2067C01892B09F00B
:1037400042CF6AE3C8010E949E06882309F486CF0F
:10375000D8011296ED91FC91139714968D919C913E
:103760001597E80FF91F148214966D917C911597A7
:103770007F771D962D913C911E9712968D919C916D
:103780000496472F4F77B62DB0786B2E642AE894B5
:1037900067F8AC01762DC6010E94BD107C01F801CE
:1037A00085849684009759F5C4010E947D16382EB1
:1037B0005B01672B09F4B3CFC4010E947D16482E2C
:1037C000962FE92EF72EE114F10409F4A8CFD501C4
:1037D00015964C92F60161816F3F71F0C4014596D8
:1037E0000E94D105DC0115963C92F6014182B5019B
:1037F000C8010E942D0C06C030824182F8CFB4016E
:103800000E94E30C472DB701C8010E94741A7C0185
:10381000892B09F0D8CEC8010E94D2067C01892BE1
:1038200009F0D1CE6DE7C8010E949E068111CBCE72
:103830006CE2C8010E949E06882309F40FCFC801DC
:103840000E94D2067C01892B09F42CCFBCCE86E0E5
:10385000F601848381E0808361E771E0C8010F9005
:103860000F900F900F900F90DF91CF911F910F91BC
:10387000FF90EF90DF90CF90BF90AF909F908F9090
:103880007F906F905F904F903F900C94AF0686E0D2
:10389000D60114968C9314971C9266E771E0DECFE4
:1038A000C8010E9484064801BFE08B0E911CB12C18
:1038B000782CA92C803384F08A3384F4EFE3BE168D
:1038C000A9F0D8011C961C92B394F40181934F0186
:1038D000C8010E948406EECF8B3281F393ED980FDE
:1038E000923060F3982F9F7D953441F30B0D111D9D
:1038F000D8011F961C92872D9A2D0E940E093A839B
:103900004B835C836D838A819B81AC81BD81223036
:10391000A9F0233059F0213009F0A0CE2EE0F601B5
:10392000248380839183A283B3834DCE2AE0F60162
:10393000248380839183A283B38345CE2CE0F7CF89
:103940007C0141CEAF92BF92CF92DF92EF92FF9275
:103950000F931F93CF93DF9300D000D0CDB7DEB786
:10396000FC01C180D280DC011196C6014A9699F40F
:1039700030E020E0B901C6010F900F900F900F903A
:10398000DF91CF911F910F91FF90EF90DF90CF903B
:10399000BF90AF9008957F0112964D915D916D910A
:1039A0007C91159796010E941A178C01009701F3DC
:1039B000F701A180B280E780F084FC01848181114D
:1039C0001FC080E484838FEF80838183B501F80179
:1039D00080810E94EB0569837A838B839C83298194
:1039E0003A812115310579F0E114F10419F2B5019C
:1039F000CE0101960E94D40AF1E0EF1AF108EFCF50
:103A0000803421F3B5CF8FEFE816F80609F4B2CF72
:103A1000B501C8010E944D1A9C01E1E0EE1AF108BF
:103A2000892B89F7A7CF1F920F920FB60F921124FF
:103A30002F933F934F935F936F937F938F939F93B6
:103A4000AF93BF93EF93FF938FE692E00E941B0426
:103A5000FF91EF91BF91AF919F918F917F916F9166
:103A60005F914F913F912F910F900FBE0F901F903C
:103A700018951F920F920FB60F9211242F938F93C8
:103A80009F93EF93FF93E0917F02F09180028081FA
:103A9000E0918502F091860282FD1BC090818091A9
:103AA00088028F5F8F7320918902821741F0E09125
:103AB0008802F0E0E159FD4F958F80938802FF91D5
:103AC000EF919F918F912F910F900FBE0F901F90AC
:103AD00018958081F4CF1F920F920FB60F92112488
:103AE0002F933F938F939F93AF93BF9380916B02DC
:103AF00090916C02A0916D02B0916E0230916A02B9
:103B000023E0230F2D3758F50196A11DB11D2093F9
:103B10006A0280936B0290936C02A0936D02B09343
:103B20006E028091660290916702A0916802B09146
:103B300069020196A11DB11D8093660290936702F0
:103B4000A0936802B0936902BF91AF919F918F914A
:103B50003F912F910F900FBE0F901F90189526E860
:103B6000230F0296A11DB11DD2CF1F920F920FB647
:103B70000F9211242F933F934F935F936F937F93F3
:103B80008F939F93AF93BF93CF93DF93EF93FF9365
:103B900080916502C0913003D0E087FF24C010926D
:103BA000850010928400809165028F5F809365028A
:103BB00080916502082E000C990B8C179D0724F448
:103BC000809165028C30C4F18091840090918500D1
:103BD000049680349C4908F47AC0809184009091C6
:103BE0008500049676C080916502082E000C990B22
:103BF0008C179D07C4F6E09165028E2FEE0F990B8E
:103C0000FC01EE0FFF1FE80FF91FE45FFC4F8081FE
:103C100086FFC9CFE09165028E2FEE0F990BFC0154
:103C2000EE0FFF1FE80FF91FE45FFC4F808160E09B
:103C30008F730E94FC04B7CF2091840030918500DF
:103C4000E09165028E2FEE0F990BFC01EE0FFF1F26
:103C5000E80FF91FE45FFC4F81819281820F931F6F
:103C60009093890080938800E09165028E2FEE0F7B
:103C7000990BFC01EE0FFF1FE80FF91FE45FFC4FEB
:103C8000808186FF11C0E09165028E2FEE0F990BA7
:103C9000FC01EE0FFF1FE80FF91FE45FFC4F80816E
:103CA00061E08F730E94FC04FF91EF91DF91CF914F
:103CB000BF91AF919F918F917F916F915F914F9144
:103CC0003F912F910F900FBE0F901F90189580E499
:103CD0009CE990938900809388008FEF8093650220
:103CE000E3CFCF92DF92EF92FF920F931F93CF9388
:103CF000DF93109272021092710288EE93E0A0E0BE
:103D0000B0E08093730290937402A0937502B09315
:103D100076028FE291E09093700280936F0285ECBF
:103D200090E090937C0280937B0284EC90E09093EF
:103D30007E0280937D0280EC90E0909380028093DD
:103D40007F0281EC90E0909382028093810282EC6A
:103D500090E0909384028093830286EC90E09093AD
:103D60008602809385021092880210928902109236
:103D70008A0210928B02809130038C3008F07DC053
:103D800091E0980F909330038093820390E0FC01C0
:103D9000EE0FFF1FE80FF91FE45FFC4F88EB9BE07D
:103DA0009283818388E998E0A0E0B0E080934503A6
:103DB00090934603A0934703B0934803109249039E
:103DC00010924A0310924B0310924C0310924D0331
:103DD00010924E038FE692E090934203809341034A
:103DE00081E091E09093500380934F031092510330
:103DF000109253031092520384E593E0909365036D
:103E0000809364031092660384E0809367038FEFCE
:103E10008093680310926D0380936E0388EC91E0A9
:103E20009093700380936F031092710310927A0342
:103E300010927B0310927C0310927D0381E493E047
:103E40009093400380933F03EDE3F1E065EC7DE95F
:103E50008CE191E82191211114C0E8ECF1E021916D
:103E60002223D1F07B01E226AC01970163E971E0E6
:103E700080E091E00E944E2DF2CF8FEF809382037D
:103E800091CF7B01E226AC01970163E971E080E00C
:103E900091E00E944E2DDECF21E433E060937E035B
:103EA00070937F0380938003909381030FEC11E064
:103EB00010933C0300933B0330933E0320933D0358
:103EC00085EDE82E81E0F82EF0923803E09237037A
:103ED00030933A032093390390EEC92E91E0D92E06
:103EE000D0923403C09233033093360320933503CA
:103EF00086EA98E0909332038093310386E090E065
:103F00000E94842DFC01F182E08283E798E0938394
:103F1000828315821482F0937703E093760389E01D
:103F200090E00E94842DEC0118861F82F982E882BD
:103F30008AEE91E09B838A831C8286EC94E19E83C7
:103F40008D8386E090E00E94842D7C01FC01D1826B
:103F5000C08283ED97E0938382831582148289E087
:103F600090E00E94842DFC0181E084831183008312
:103F700086EF91E09383828380E596E19683858343
:103F8000D087C783F0937503E093740388E090E0D3
:103F90000E94842DFC011183008382E092E09383D0
:103FA000828381EC97E09583848317821682F09355
:103FB0007303E093720386E090E00E94842DFC017D
:103FC0001183008381E797E093838283F582E48203
:103FD000F0937903E0937803DF91CF911F910F91D4
:103FE000FF90EF90DF90CF900895CF93DF93CDB700
:103FF000DEB7C75CD1090FB6F894DEBF0FBECDBFE8
:10400000789484B5826084BD84B5816084BD85B5B3
:10401000826085BD85B5816085BD80916E008160BF
:1040200080936E0010928100809181008260809365
:104030008100809181008160809381008091800067
:104040008160809380008091B10084608093B10092
:104050008091B00081608093B00080917A0084608C
:1040600080937A0080917A00826080937A008091B8
:104070007A00816080937A0080917A0080688093D2
:104080007A001092C100E0913103F0913203309731
:1040900009F0099582E59FE58C549F4566E070E044
:1040A0000E946A2DCA53DF4F79836883C65CD04073
:1040B0009E012D5F3F4FC454DF4F39832883CC5B73
:1040C000D04000917603109177030115110549F056
:1040D000D8011296ED91FC910995F80104811581A2
:1040E000F4CF80917103811196C0E0917F02F0912D
:1040F000800282E08083E0917B02F0917C0210825A
:10410000E0917D02F0917E0280E18083109287022F
:10411000E0918302F091840286E08083E091810245
:10412000F0918202808180618083E0918102F09130
:104130008202808188608083E0918102F091820216
:10414000808180688083E0918102F0918202808189
:104150008F7D808381E0809371030E9436058823E0
:10416000E1F381E08093710380914D03882309F48A
:1041700056C08EE10E947D01D82E882309F44FC0DD
:104180000E94BF0C0E942A056093490370934A0362
:1041900080934B0390934C03E0904103F0904203D3
:1041A00064E671E0CE018F579F4F0E949014C701C3
:1041B0000E94A305CB57DF4F08811981C558D04015
:1041C00097FD3FC08A309105E1F189831A820F5F24
:1041D0001F4FB801CE018F579F4F0E944511882372
:1041E00031F3CF57DF4F28813981C158D040CB57A9
:1041F000DF4F88819981C558D040BE016F5F7F4FE6
:10420000820F931F0E94782FCB57DF4F19830883AB
:10421000C558D040CCCF0E9436058111A5CF009162
:104220007803109179030115110511F40C94242AD7
:10423000D8011296ED91FC910995F8010481158140
:10424000F2CFCF57DF4FE880F980C158D0400E0D34
:104250001F1D0E94BF0C8FE493E09A8389831C8208
:104260001B821E821D821F82F986E8861B870A87B1
:104270001D869F878E874AE069E673E0CE0101962E
:104280000E94741A8C01892B49F48C85882331F0A3
:1042900080916D0383FF02C003E010E08B819C815D
:1042A000009731F0E981FA81608171810E94B50C3B
:1042B0001093440300934303CE018F579F4F0E94F6
:1042C000C5158091430390914403892B09F0A7CF32
:1042D0000FE413E01A8309838EE092E09C838B83C2
:1042E00083E08D838E81807880688E83CE010196F5
:1042F0000E942C11009709F492CF0E948A104B0162
:10430000FB01309709F48BCF8081882309F487CF94
:1043100062E172E0C4010E947F2F892B09F4EBC295
:104320000E94A0010E94BF0C1A83098383E891E0D8
:104330009C838B8389E08D838E81807880688E83D7
:104340006FE673E0CE0101960E94BF188AE191E00A
:10435000CF57DF4F99838883C158D0401A83098390
:104360008DE891E09C838B838CE08D838E818078B7
:1043700080688E83BE016F577F4FCE0101960E94E9
:104380000F181A8309838AE991E09C838B8387E065
:104390008D838E81807880688E83CE0101960E9405
:1043A0008017DC01CB0122E132E0CE53DF4F3983AD
:1043B0002883C25CD0403BE0CC53DF4F3883C45CE1
:1043C000D040CB53DF4F4881C55CD0404078542F5C
:1043D0005068CB53DF4F5883C55CD0409D01CE530E
:1043E000DF4F488159816A817B81C25CD0400E9445
:1043F000060E1A8309838DEA91E09C838B838BE000
:104400008D838E81807880688E836EE773E0CE0125
:1044100001960E9499170E944C10209074033090CE
:1044200075032114310409F424C4D1011596ED91CA
:10443000FC91CE01019609950E94BF0CCF57DF4F2A
:1044400019830883C158D040EEE1F2E0CD57DF4F29
:10445000F983E883C358D04087E0F82ECB57DF4F6D
:10446000F882C558D040CA57DF4F8881C658D0401F
:1044700080788068CA57DF4F8883C658D040B10122
:104480006E5F7F4FCE018F579F4F0E94BF18CF574F
:10449000DF4F19830883C158D04020EC31E0CD575D
:1044A000DF4F39832883C358D040CB57DF4FF88282
:1044B000C558D040CA57DF4F8881C658D040807851
:1044C0008068CA57DF4F8883C658D040B101CE01FB
:1044D0008F579F4F0E94BF18D1011496EC9183E033
:1044E00091E0E33038F4F0E0EE0FFF1FE75EFE4F9F
:1044F00080819181CA56DF4F99838883C659D04005
:10450000CF57DF4F19830883C158D040E6E2F2E06D
:10451000CD57DF4FF983E883C358D04084E0CB57B1
:10452000DF4F8883C558D040CA57DF4F8881C658AF
:10453000D04080788068CA57DF4F8883C658D04003
:10454000BE016A567F4FCE018F579F4F0E940F18B2
:10455000E98189EF90E0E33038F4F0E0EE0FFF1FDF
:10456000ED5EFE4F80819181CA56DF4F998388832B
:10457000C659D040CF57DF4F19830883C158D04068
:104580008BE292E0CD57DF4F99838883C358D040A8
:1045900086E0CB57DF4F8883C558D040CA57DF4FDE
:1045A0008881C658D04080788068CA57DF4F88839A
:1045B000C658D040BE016A567F4FCE018F579F4FDD
:1045C0000E940F188A81882309F47AC1F12C74E0C3
:1045D000E72E6C968FAD6C97F81608F071C14F2DD1
:1045E00050E0CC24C394D12CCC0EDD1EFBE0FF9D0B
:1045F000C00CD11C1124D60112968C91823009F482
:10460000DEC040F4882309F457C0813009F492C019
:10461000F394DFCF833009F40EC18430C9F721E071
:1046200030E02C0F3D1FBBE0FB9E200D311D1124FF
:10463000F90137966F01CA56DF4F19830883C659AF
:10464000D04022E332E0C856DF4F39832883C8596F
:10465000D040C656DF4F8883CA59D040C556DF4F79
:104660008881CB59D04080788068C556DF4F8883D9
:10467000CB59D040BE016A567F4FCE018F579F4F16
:104680000E944707CE018F579F4F0E94A21CDC015A
:10469000CB01F601648175817F7740815181272F9D
:1046A0002F77F42DF0784F2E422AE89447F89D0199
:1046B000742D0E94060EACCFCA56DF4F19830883B3
:1046C000C659D040E2E3F2E0C856DF4FF983E883F1
:1046D000C859D040C656DF4FE882CA59D040C556A7
:1046E000DF4F8881CB59D04080788068C556DF4F36
:1046F0008883CB59D040BE016A567F4FCE018F5779
:104700009F4F0E944707CE018F579F4F0E94A21CC8
:10471000DC01CB015B01672B09F47ACFF601D38072
:10472000BD010E94E30CE6E0D5011496EC931497CA
:10473000DC926ECFCA56DF4F19830883C659D0402A
:1047400022E332E0C856DF4F39832883C859D0406E
:10475000C656DF4FE882CA59D040C556DF4F888120
:10476000CB59D04080788068C556DF4F8883CB59BD
:10477000D040BE016A567F4FCE018F579F4F0E9497
:104780004707CE018F579F4F0E94A21CDC01CB012F
:104790005B01672B09F43CCFF60163807480858050
:1047A0009680BD010E94E30CECE0D5011496EC93D9
:1047B00014976D927D928D929C92139729CFCA5631
:1047C000DF4F19830883C659D040E2E3F2E0C856B0
:1047D000DF4FF983E883C859D040C656DF4FE882DF
:1047E000CA59D040C556DF4F8881CB59D040807818
:1047F0008068C556DF4F8883CB59D040BE016A56CA
:104800007F4FCE018F579F4F0E944707CE018F5792
:104810009F4F0E94A21CDC01CB015B01672B09F4B6
:10482000F7CEF6016380748085809680BD010E947A
:10483000E30CEAE0BACFCA56DF4F19830883C659A2
:10484000D040E2E3F2E0C856DF4FF983E883C8596D
:10485000D040C656DF4FE882CA59D040C556DF4F18
:104860008881CB59D04080788068C556DF4F8883D7
:10487000CB59D040BE016A567F4FCE018F579F4F14
:104880000E944707CE018F579F4F0E94A21CDC0158
:10489000CB015B01672B09F4BBCEF601638074800A
:1048A00085809680BD010E94E30CEEE0D501149650
:1048B000EC9314976D927D928D929C921397A8CE53
:1048C0000E944C107E012BE5E20EF11C3BE0E31A46
:1048D000F108C70105960E94C515C454DF4F4881F1
:1048E0005981CC5BD040E416F50681F7D1011796CB
:1048F0002D903C9096CD67E372E0C4010E947F2F1B
:10490000892B09F431C10E94A0010E94BF0C1A83B7
:10491000098383E891E09C838B8389E08D838E817A
:10492000807880688E836FE673E0CE0101960E94E6
:10493000BF188AE191E0CF57DF4F99838883C15830
:10494000D0401A8309838DE891E09C838B838CE0AF
:104950008D838E81807880688E83BE016F577F4FF4
:10496000CE0101960E940F181A8309838AE991E00B
:104970009C838B8387E08D838E81807880688E8393
:1049800067E372E0CE0101960E94F1171A83098352
:104990008DEA91E09C838B838BE08D838E81807880
:1049A00080688E836EE773E0CE0101960E949917AE
:1049B0000E944C10ECE4FFE52FE5E235F20708F029
:1049C00058C17F01312C212C8E010F5F1F4F4FE406
:1049D000642E43E0742ECA53DF4F48815981C65C70
:1049E000D0404215530509F444C1F70185909490D5
:1049F000F7013296A590B490F7013496C590D49003
:104A00008114910409F4A9C0C114D10409F4A5C00A
:104A10000E94BF0CB801C4010E94310ECF57DF4F76
:104A200079826882C158D04062E472E0CD57DF4F8E
:104A300079836883C358D04075E0CB57DF4F7883C4
:104A4000C558D040CA57DF4F8881C658D0408078BB
:104A50008068CA57DF4F8883C658D040C654DF4F9E
:104A600019830883CA5BD040BE0166547F4FCE01D4
:104A70008F579F4F0E94BF1720E090E0A114B10410
:104A800031F0B801C5010E94310E202F912FCF5770
:104A9000DF4F79826882C158D040A8E4B2E0CD5798
:104AA000DF4FB983A883C358D040B7E0CB57DF4F5F
:104AB000B883C558D040CA57DF4F8881C658D04008
:104AC00080788068CA57DF4F8883C658D040CA5460
:104AD000DF4F2883C65BD040C954DF4F9883C75B44
:104AE000D040BE016A547F4FCE018F579F4F0E9426
:104AF000BF17B801C6010E94310ECF57DF4F798230
:104B00006882C158D040E0E5F2E0CD57DF4FF9832D
:104B1000E883C358D040F4E0CB57DF4FF883C55843
:104B2000D040CA57DF4F8881C658D040807880680F
:104B3000CA57DF4F8883C658D040C854DF4F198307
:104B40000883C85BD040BE0168547F4FCE018F57A9
:104B50009F4F0E94BF170E944C102FEF221A320A5B
:104B600036E0E30EF11C37CF65E572E0C4010E9428
:104B70007F2F892B09F48AC00E94A0010E94BF0CDC
:104B80001A83098383E891E09C838B8389E08D837A
:104B90008E81807880688E836FE673E0CE01019607
:104BA0000E94BF188AE191E0CF57DF4F9983888335
:104BB000C158D0401A8309838DE891E09C838B8390
:104BC0008CE08D838E81807880688E83BE016F57E4
:104BD0007F4FCE0101960E940F181A8309838AE93C
:104BE00091E09C838B8387E08D838E8180788068C1
:104BF0008E83CE0101960E948017DC01CB0145E532
:104C000052E0C254DF4F59834883CE5BD04056E018
:104C1000C054DF4F5883C05CD040CF53DF4F688112
:104C2000C15CD0406078762F7068CF53DF4F7883B7
:104C3000C15CD0409D01C254DF4F488159816A81D7
:104C40007B81CE5BD0400E94060E1A8309838DEAD9
:104C500091E09C838B838BE08D838E81807880684C
:104C60008E836EE773E0CE0101960E9499170E9431
:104C70004C100E94B4010E942A0560937A0370933D
:104C80007B0380937C0390937D03C9CA62EA71E041
:104C9000C4010E947F2F892BA9F11A83098380EC1C
:104CA00091E09C838B8387E08D838E818078806800
:104CB0008E83BE016F5F7F4FCE018F579F4F0E9443
:104CC0009815CB57DF4F88819981C558D040892BE3
:104CD00069F0CF57DF4F08811981C158D0406CE689
:104CE00071E0C8010E946F2F892B51F490E080E0A1
:104CF0000E94F118CE018F579F4F0E94C515BBCF60
:104D0000C801F6CFC255DF4F19830883CE5AD04071
:104D100082E392E0C055DF4F99838883C05BD04027
:104D200084E0CE54DF4F8883C25BD040CD54DF4F48
:104D30008881C35BD04080788068CD54DF4F888302
:104D4000C35BD040CE0182559F4F0E942C118C0135
:104D5000CE0101960E94A5140115110509F4B5C1F3
:104D6000D80114968C911497803409F0AEC16FE489
:104D700073E08C910E94EB05CF57DF4F68837983F6
:104D80008A839B83C158D0408FE493E0CB57DF4F99
:104D900099838883C558D04026E0FE01EF57FF4F26
:104DA000DE01A657BF4F01900D922A95E1F7CF572C
:104DB000DF4F48815981C158D040CD57DF4F2881FE
:104DC000C358D040C657DF4F59834883CA58D04094
:104DD000C457DF4F2883CC58D040C257DF4F998348
:104DE0008883CE58D04086E0FE01E657FF4FDE01B3
:104DF000A057BF4F01900D928A95E1F78E010A5698
:104E00001F4F86E0FE01E057FF4FD80101900D9241
:104E10008A95E1F78BE0F82EEE24E39492E0C92E18
:104E200024E0B22E33E0A32ED801ED91FC9111972E
:104E3000309709F44AC114968D919C91C456DF4F66
:104E4000F983E883CC59D040C256DF4F99838883D9
:104E5000CE59D04094819630C1F19A3009F451C0B6
:104E60009C3009F48AC09A3009F09CC0408151817D
:104E70006281738177FDBBC0E42F352F262F472F2A
:104E80006A968FAD6A97883008F06FC0F89EC001AF
:104E90001124A1E0B0E0AC0FBD1FA80FB91FEC9228
:104EA0001196EC93119712963C93129713962C93AC
:104EB000139714964C93059664E671E0A1E0B0E078
:104EC000AC0FBD1F8A0F9B1F47C020816A968FAD14
:104ED0006A97883008F049C0F89EC0011124E1E0CB
:104EE000F0E0EC0FFD1FE80FF91F108221830596FB
:104EF00064E671E0E1E0F0E0EC0FFD1F8E0F9F1F14
:104F00002BC04081518162817381411520E8520795
:104F10006105710508F0AACF6A968FAD6A9788304F
:104F200020F5F89EC0011124E1E0F0E0EC0FFD1F38
:104F3000E80FF91FE082052E000C660B770B41830A
:104F4000528363837483059664E671E041E050E028
:104F50004C0F5D1F840F951F0E9486146A968FADBB
:104F60006A978F5F6A968FAF6A97D80114966D9192
:104F70007C91C8010E94D40A57CF80819181A2817F
:104F8000B381AC01BD0150586F4F7F4F41155105A2
:104F90006140710510F4AC01BFCFE82F392F2A2FE3
:104FA0004B2F6ECF93FF38C0CE0184569F4F0E9487
:104FB000730A6A962FAD6A972830B8F6F29E900170
:104FC0001124E1E0F0E0EC0FFD1FE20FF31FA082DF
:104FD0006183728383839483C901059664E671E0DB
:104FE00021E030E02C0F3D1F820F931FB5CF6A9652
:104FF0008FAD6A97883008F0B8CFF89EC0011124B1
:10500000E1E0F0E0EC0FFD1FE80FF91FC0824183E3
:105010005283638374836BCF8CEF890F823040F4AB
:10502000CF010E948A10CE0101960E94CD159DCF1E
:105030009230B1F364E671E0CE018F579F4F0E942A
:105040009014C456DF4F688179818A819B81CC5945
:10505000D040AE014F575F4F0E940E156A968FAD3C
:105060006A97883048F5F89EC0011124E1E0F0E02D
:10507000EC0FFD1FE80FF91FB082059641E050E0EC
:105080004C0F5D1F840F951FCF57DF4F68817981CB
:10509000C158D04061157105A9F0CB57DF4F488149
:1050A0005981C558D0400E9465146A968FAD6A97A1
:1050B0008F5F6A968FAF6A97CE018F579F4F0E947E
:1050C000C51553CF0E945314F0CF0FE413E0CE5513
:1050D000DF4F19830883C25AD04080EC91E0CC5551
:1050E000DF4F99838883C45AD04087E0CA55DF4F89
:1050F0008883C65AD040C955DF4F8881C75AD040EF
:1051000080788068C955DF4F8883C75AD040BE0178
:105110006E557F4FCE0188559F4F0E949815CA56F5
:10512000DF4F19830883C659D0408EE092E0C856FD
:10513000DF4F99838883C859D04083E0C656DF4F3C
:105140008883CA59D040C556DF4F8881CB59D0409B
:1051500080788068C556DF4F8883CB59D040BE0128
:105160006A567F4FCE0184569F4F0E9498150E9429
:10517000A001C056DF4F88819981C05AD040892B49
:1051800009F450C0C456DF4FE880F980CC59D040B4
:105190000091720310917303C455DF4F8881998188
:1051A000CC5AD040892B09F460C0C855DF4FA88085
:1051B000B980C85AD0406CE671E0C5010E946F2FDB
:1051C000892B09F452C00115110509F44CC0B50131
:1051D000F801808191810E946F2F892B09F03FC0D7
:1051E000B701D80112968D919C910E946F2F892B47
:1051F000B1F5D8011496ED91FC9181E0309719F04A
:10520000CE0101960995C456DF4F68817981CC594A
:10521000D040482FC855DF4F88819981C85AD04067
:105220000E94BC190E94B401CE0184569F4F0E9477
:10523000C515CE0188559F4F0E94C5158E01075A8E
:105240001F4F9E012F5F3F4F79010B501109C8017D
:1052500005960E94C515E016F106B9F70CCDF801C8
:1052600006811781B0CF85E0CECFC12C0115110585
:1052700001F1B701D80112968D919C910E946F2F78
:10528000892B91F4D8011496ED91FC9181E030972F
:1052900019F0CE0101960995482FB701F8018081D8
:1052A00091810E94BC19CD2CD80116960D911C91AC
:1052B000DDCFC110B7CF0E94BF0C0FE413E0CF5772
:1052C000DF4F19830883C158D04083E891E0CD5760
:1052D000DF4F99838883C358D04089E0CB57DF4F95
:1052E0008883C558D040CA57DF4F8881C658D04000
:1052F00080788068CA57DF4F8883C658D0406FE6F1
:1053000073E0CE018F579F4F0E94BF1881EF90E04E
:10531000CC54DF4F99838883C45BD040CF57DF4F95
:1053200019830883C158D0408DE891E0CD57DF4FF5
:1053300099838883C358D0408CE0CB57DF4F888354
:10534000C558D040CA57DF4F8881C658D0408078B2
:105350008068CA57DF4F8883C658D040BE016C545E
:105360007F4FCE018F579F4F0E940F18CF57DF4FAF
:1053700019830883C158D0408AE991E0CD57DF4FA7
:1053800099838883C358D04087E0CB57DF4F888309
:10539000C558D040CA57DF4F8881C658D040807862
:1053A0008068CA57DF4F8883C658D040CE018F57D8
:1053B0009F4F0E948017DC01CB01C056DF4F6881F0
:1053C0007981C05AD0407F77C456DF4F4881CC598D
:1053D000D040C356DF4F5881CD59D040272F2F776B
:1053E000E52DE0785E2E522AE89457F89D01752D40
:1053F0000E94060ECF57DF4F19830883C158D04053
:105400008DEA91E0CD57DF4F99838883C358D04010
:105410008BE0CB57DF4F8883C558D040CA57DF4F4A
:105420008881C658D04080788068CA57DF4F88830B
:10543000C658D0406EE773E0CE018F579F4F0E9451
:1054400099170E944C10EECE80E090E0892B11F469
:105450000C9461200E940704882311F40C945820B6
:105460000E9400000C945820CF93DF93C0914F030B
:10547000D09150038091520390915303009759F0BB
:10548000FC01208131813093530320935203BE01EC
:105490000E94B50CEFCF80914F0390915003DF91A4
:1054A000CF910C94D201FB01DC0104C08D910590D9
:1054B000801921F441505040C8F7881B990B08957A
:1054C000FB01DC0102C005900D9241505040D8F71D
:1054D0000895FC0105900020E9F7809590958E0FC6
:1054E0009F1F0895FC010590615070400110D8F78E
:1054F000809590958E0F9F1F08950E94BF2A08F4F3
:1055000081E00895E89409C097FB3EF4909580955A
:10551000709561957F4F8F4F9F4F9923A9F0F92F79
:1055200096E9BB279395F695879577956795B795F7
:10553000F111F8CFFAF4BB0F11F460FF1BC06F5FDD
:105540007F4F8F4F9F4F16C0882311F096E911C0EF
:10555000772321F09EE8872F762F05C0662371F010
:1055600096E8862F70E060E02AF09A95660F771F24
:10557000881FDAF7880F9695879597F90895990F00
:105580000008550FAA0BE0E8FEEF16161706E8070D
:10559000F907C0F012161306E407F50798F0621B2E
:1055A000730B840B950B39F40A2661F0232B242B03
:1055B000252B21F408950A2609F4A140A6958FEF22
:1055C000811D811D08950E94F62A0C94672B0E946C
:1055D000592B38F00E94602B20F0952311F00C9489
:1055E000502B0C94562B11240C949B2B0E94782B3F
:1055F00070F3959FC1F3950F50E0551F629FF00126
:10560000729FBB27F00DB11D639FAA27F00DB11D3E
:10561000AA1F649F6627B00DA11D661F829F2227C7
:10562000B00DA11D621F739FB00DA11D621F839F4E
:10563000A00D611D221F749F3327A00D611D231F24
:10564000849F600D211D822F762F6A2F11249F5772
:1056500050409AF0F1F088234AF0EE0FFF1FBB1F75
:10566000661F771F881F91505040A9F79E3F510534
:1056700080F00C94502B0C949B2B5F3FE4F3983EEE
:10568000D4F3869577956795B795F795E7959F5FDE
:10569000C1F7FE2B880F911D9695879597F9089570
:1056A00097F99F6780E870E060E008959FEF80ECD5
:1056B000089500240A941616170618060906089578
:1056C00000240A9412161306140605060895092EDE
:1056D0000394000C11F4882352F0BB0F40F4BF2B4D
:1056E00011F460FF04C06F5F7F4F8F4F9F4F08958D
:1056F00057FD9058440F551F59F05F3F71F0479583
:10570000880F97FB991F61F09F3F79F08795089567
:10571000121613061406551FF2CF4695F1DF08C086
:10572000161617061806991FF1CF869571056105A3
:1057300008940895E894BB2766277727CB0197F94B
:105740000895052E97FB1EF400940E94B82B57FD78
:1057500007D00E940A2C07FC03D04EF40C94B82BFF
:1057600050954095309521953F4F4F4F5F4F08958D
:1057700090958095709561957F4F8F4F9F4F0895BD
:105780000E942C2CA59F900DB49F900DA49F800D7E
:10579000911D11240895B7FF0C94C02B0E94C02BBB
:1057A000821B930B08952F923F924F925F926F92BC
:1057B0007F928F929F92AF92BF92CF92DF92EF92A1
:1057C000FF920F931F93CF93DF93CDB7DEB7CA1B22
:1057D000DB0B0FB6F894DEBF0FBECDBF09942A884D
:1057E000398848885F846E847D848C849B84AA84F5
:1057F000B984C884DF80EE80FD800C811B81AA8182
:10580000B981CE0FD11D0FB6F894DEBF0FBECDBF4C
:10581000ED010895A1E21A2EAA1BBB1BFD010DC0CC
:10582000AA1FBB1FEE1FFF1FA217B307E407F50750
:1058300020F0A21BB30BE40BF50B661F771F881F2C
:10584000991F1A9469F760957095809590959B01C2
:10585000AC01BD01CF010895A29FB001B39FC0016B
:10586000A39F700D811D1124911DB29F700D811D8C
:105870001124911D08955058BB27AA270E94532C2C
:105880000C94672B0E94592B38F00E94602B20F05B
:1058900039F49F3F19F426F40C94562B0EF4E0953E
:1058A000E7FB0C94502BE92F0E94782B58F3BA1782
:1058B000620773078407950720F079F4A6F50C9426
:1058C0009A2B0EF4E0950B2EBA2FA02D0B01B901E7
:1058D00090010C01CA01A0011124FF27591B99F066
:1058E000593F50F4503E68F11A16F040A22F232F72
:1058F000342F4427585FF3CF469537952795A795C2
:10590000F0405395C9F77EF41F16BA0B620B730B68
:10591000840BBAF09150A1F0FF0FBB1F661F771FD9
:10592000881FC2F70EC0BA0F621F731F841F48F48E
:10593000879577956795B795F7959E3F08F0B0CF17
:105940009395880F08F09927EE0F979587950895FE
:105950000E94BC2C0C94672B0E94602B58F00E9474
:10596000592B40F029F45F3F29F00C94502B511132
:105970000C949B2B0C94562B0E94782B68F3992344
:10598000B1F3552391F3951B550BBB27AA2762173B
:105990007307840738F09F5F5F4F220F331F441F48
:1059A000AA1FA9F335D00E2E3AF0E0E832D091507C
:1059B0005040E695001CCAF72BD0FE2F29D0660F69
:1059C000771F881FBB1F261737074807AB07B0E8AC
:1059D00009F0BB0B802DBF01FF2793585F4F3AF0B2
:1059E0009E3F510578F00C94502B0C949B2B5F3FFD
:1059F000E4F3983ED4F3869577956795B795F79538
:105A00009F5FC9F7880F911D9695879597F908951F
:105A1000E1E0660F771F881FBB1F621773078407BB
:105A2000BA0720F0621B730B840BBA0BEE1F88F7CA
:105A3000E09508950E94802B88F09F5798F0B92F29
:105A40009927B751B0F0E1F0660F771F881F991FB3
:105A50001AF0BA95C9F714C0B13091F00E949A2B90
:105A6000B1E008950C949A2B672F782F8827B85FA0
:105A700039F0B93FCCF3869577956795B395D9F70B
:105A80003EF490958095709561957F4F8F4F9F4F15
:105A900008950E94BF2A08F48FEF0895DB018F93C9
:105AA0009F930E94C02BBF91AF91A29F800D911D2B
:105AB000A39F900DB29F900D11240895991B79E03A
:105AC00004C0991F961708F0961B881F7A95C9F78E
:105AD00080950895AA1BBB1B51E107C0AA1FBB1FDD
