:100000000C94CA000C94F2000C94F2000C94F200D0
:100010000C94F2000C94F2000C94F2000C94F20098
:100020000C94F2000C94F2000C94F2000C94F20088
:100030000C94F2000C94F2000C94F2000C94F20078
:100040000C946A1A0C94F2000C94381A0C94121A3C
:100050000C94F2000C94F2000C94F2000C94F20058
:100060000C94F2000C94F200756E6368616E676523
:100070006400756E617661696C61626C65007065C3
:10008000726365707465640065787465726F63652A
:100090007074696F6E0070726F7072696F636570F3
:1000A00074696F6E00696E7465726F6365707469F0
:1000B0006F6E00696E76616C69640072656A656373
:1000C00074656400616C726561647900756E61626B
:1000D0006C650000000000240027002A00000000DA
:1000E00000250028002B0000000000230026002926
:1000F00000040404040404040402020202020203D1
:1001000003030303030102040810204080010204DA
:10011000081020010204081020000000080002015D
:1001200000000304070000000000000000756E6B73
:100130006E6F776E007065726365707465640070D1
:10014000726F7072696F63657074696F6E00756E3F
:100150006B6E6F776E00657865637574656400CD4E
:10016000CCCC3D0AD7233C17B7D13877CC2B32956E
:1001700095E6241FB14F0A000020410000C842004C
:10018000401C4620BCBE4CCA1B0E5AAEC59D740016
:10019000B41A652611241FBECFEFD8E0DEBFCDBF55
:1001A00023E0AEE1B2E001C01D92A531B207E1F754
:1001B00012E0A0E0B1E0EAE6F6E502C005900D929B
:1001C000AE31B107D9F710E0C9ECD0E004C02197F7
:1001D000FE010E940A29C83CD107C9F70E94B01B42
:1001E0000C94252B0C940000CF93C82F8091D00243
:1001F0009091D102DC01ED91FC910084F185E02D1C
:100200000995181619067CF48091D0029091D102BC
:10021000DC01ED91FC910284F385E02D099521E04C
:10022000C817190609F020E0822FCF910895809118
:10023000DD0281110FC08091D0029091D102DC01CA
:10024000ED91FC910190F081E02D60EC099581E049
:100250008093DD0208958091DD028823C9F08091AA
:10026000D0029091D102DC01ED91FC910190F081DE
:10027000E02D60EC09958091D0029091D102DC01D3
:10028000ED91FC910680F781E02D09951092DD0239
:100290000895FF920F931F93CF93DF938C01F12C5E
:1002A0006091F3027091F4028091F502F816C8F49F
:1002B00084E0F89EE0011124C60FD71F6A817B817C
:1002C0006115710541F0D801ED91FC910280F38137
:1002D000E02DC80109951B821A8218821982F394B5
:1002E000DFCF1092F5028FEF8093F702B2E0633E0A
:1002F0007B0789F0D801ED91FC910280F381E02D1C
:10030000C801099583EE92E09093F4028093F30282
:1003100084E08093F602DF91CF911F910F91FF90BF
:1003200008952F923F924F925F926F927F928F9299
:100330009F92AF92BF92CF92DF92EF92FF920F9374
:100340001F93CF93DF9300D000D000D01F92CDB782
:10035000DEB79A8389834A015B0120E836E948E1E8
:100360005BE4CB01B4010E94BF2887FD89C004E192
:1003700010E080E290E09C838B83312C212CF801EB
:10038000E958FE4F2591359145915491C501B4012D
:100390000E94BF2887FD11C0F801E15AFE4F259148
:1003A000359145915491C501B4010E9414274B0128
:1003B0005C01AB81BC812A0E3B1EEB81FC81F59573
:1003C000E795FC83EB83045011090C3FFFEF1F07F7
:1003D000B1F677247A9420E030E0A901C501B40198
:1003E0000E94BF2818160CF054C02CEA35EC47E2E6
:1003F00057E3C501B4010E94AE2618160CF449C09B
:10040000972DA4E09A0280011124F12CE12CF8012F
:10041000E15AFE4F6F0109581E4FFFEF7F1609F496
:1004200038C0F601EE0DFF1D65917591859194918F
:1004300020E030E040E251E40E941427A50194013D
:100440000E94BF2818168CF4F801EE0DFF1D2591AF
:10045000359145915491C501B4010E9414274B0177
:100460005C018B819C81281A390AAB81BC81B595CE
:10047000A795BC83AB837A94B4E0EB1AF108CDCF97
:1004800080E290E09C838B8335E0732E312C212C0D
:10049000A2CFC501B4010E9490286B017C012B0101
:1004A0003C0180E492E4AFE0B0E08B839C83AD83B9
:1004B000BE8396E09F83AAE04A165104610471044A
:1004C000E0F06B817C818D819E812AE030E040E00C
:1004D00050E00E94E8282B833C834D835E83BF81DC
:1004E000B150BF83C301B2012AE030E040E050E0E8
:1004F0000E94E82829013A01DECFC701B6010E9417
:10050000B3269B01AC01C501B4010E9423284B0115
:100510005C016B817C818D819E810E94B3269B0151
:10052000AC01C501B4010E9414272B013C010E94BB
:1005300090284B015C010E94B3269B01AC01C301D2
:10054000B2010E9423289B01AC010E9424280E9432
:100550009028860E971EA81EB91E8B819C81AD81A6
:10056000BE8188169906AA06BB06C0F09FEFC91A7D
:10057000D90AE90AF90A2114310439F1AAE0CA16A4
:10058000D104E104F10408F1BFEF2B1A3B0A812CDE
:10059000912C5401C12CD12C7601C3948AE0482EB1
:1005A000512C612C712CC501B401A30192010E9450
:1005B000E828672B682B692B61F4EF811E164CF439
:1005C00049015A01E150EF83EECF812C912C540167
:1005D000E5CFA981BA81CD92DD92ED92FC9213977D
:1005E000FD0184829582A682B782318620868F8122
:1005F0008287CD0127960FB6F894DEBF0FBECDBF20
:10060000DF91CF911F910F91FF90EF90DF90CF90EE
:10061000BF90AF909F908F907F906F905F904F9022
:100620003F902F9008950895AF92BF92CF92DF929E
:10063000EF92FF920F931F93CF93DF936C017B0197
:100640008B01040F151FEB015E01AE18BF08C01728
:10065000D10759F06991D601ED91FC910190F0819B
:10066000E02DC6010995892B79F7C501DF91CF915E
:100670001F910F91FF90EF90DF90CF90BF90AF90C0
:100680000895FC01538D448D252F30E0842F90E098
:10069000821B930B541710F0CF960895019708957D
:1006A000FC01918D828D981761F0A28DAE0FBF2F46
:1006B000B11D5D968C91928D9F5F9F73928F90E09C
:1006C00008958FEF9FEF0895FC01918D828D98170B
:1006D00031F0828DE80FF11D858D90E008958FEF48
:1006E0009FEF0895FC01918D228D892F90E0805C11
:1006F0009F4F821B91098F73992708958BE292E097
:100700000E94720321E0892B09F420E0822F0895D2
:1007100080E090E0892B29F00E947E0381110C94E7
:1007200000000895FC01A48DA80FB92FB11DA35A94
:10073000BF4F2C91848D90E001968F739927848F01
:10074000A689B7892C93A089B1898C918370806424
:100750008C93938D848D981306C00288F389E02DC5
:1007600080818F7D80830895EF92FF920F931F9376
:10077000CF93DF93EC0181E0888F9B8D8C8D981354
:100780001AC0E889F989808185FF15C09FB7F89460
:10079000EE89FF896083E889F989808183708064AC
:1007A00080839FBF81E090E0DF91CF911F910F91F7
:1007B000FF90EF900895F62E0B8D10E00F5F1F4F06
:1007C0000F731127E02E8C8D8E110CC00FB607FC15
:1007D000FACFE889F989808185FFF5CFCE010E94A3
:1007E0009203F1CFEB8DEC0FFD2FF11DE35AFF4F7C
:1007F000F0829FB7F8940B8FEA89FB898081806231
:10080000CFCFCF93DF93EC01888D8823B9F0AA89ED
:10081000BB89E889F9898C9185FD03C0808186FDBB
:100820000DC00FB607FCF7CF8C9185FFF2CF80810A
:1008300085FFEDCFCE010E949203E9CFDF91CF91EA
:100840000895833081F028F4813099F08230A9F046
:1008500008958730A9F08830C9F08430B1F48091D0
:1008600080008F7D03C0809180008F77809380000F
:10087000089584B58F7784BD089584B58F7DFBCFAF
:100880008091B0008F778093B00008958091B00080
:100890008F7DF9CF2FB7F8946091270270912802CD
:1008A0008091290290912A022FBF08950F931F93E0
:1008B000CF93C091DC02C11118C080EC0E94F400FB
:1008C000C82F882369F081E08093DC020E944A04EB
:1008D0006093D8027093D9028093DA029093DB027E
:1008E0008C2FCF911F910F9108950E944A04AB0164
:1008F000BC018091D8029091D902A091DA02B09106
:10090000DB020091D4021091D5022091D6023091E1
:10091000D702800F911FA21FB31F481759076A07FC
:100920007B0720F01092DC02C0E0DACF8091D00289
:100930009091D102DC01ED91FC910084F185E02DD4
:1009400009951816190664F68091D0029091D1028B
:10095000DC01ED91FC910484F585E02D0995803C46
:10096000910509F0BDCF8091D0029091D102DC01B8
:10097000ED91FC910284F385E02D0995803C910571
:1009800009F0AECFCFCF0F931F93CF93DF93EC013E
:100990000E944A04688779878A879B87E881F98162
:1009A0000284F385E02DCE01099597FF15C00E94C2
:1009B0004A04088519852A853B85601B710B820BCB
:1009C000930B0C811D812E813F8160177107820777
:1009D000930720F38FEF9FEFDF91CF911F910F913E
:1009E00008956F3FA9F0E62FE295EF7044E0E49F91
:1009F00090011124DC01ED91FC91E20FF31F6F7067
:100A000082819381B6E06B9F800D911D1124089522
:100A100090E080E00895CF93C82FCB016C2F4596CE
:100A20000E94F1042FEF009711F0FC012581BC0119
:100A30008C2F922FCF910895982F80336CF08A33AA
:100A400024F08F3524F08B3724F481E0089581342D
:100A50001CF081E09B350CF080E00895CF93DF938C
:100A6000EC0188819981DC01ED91FC910190F0818C
:100A7000E02D09952A813B81820F931F9B838A83F6
:100A8000DF91CF910895CF93DF93EC018881998115
:100A9000DC01ED91FC910280F381E02D09952A8122
:100AA0003B81820F931F9B838A83DF91CF910895AF
:100AB0008F929F92AF92BF92CF92DF92EF92FF926E
:100AC0000F931F93CF93DF93CDB7DEB766970FB623
:100AD000F894DEBF0FBECDBF6C018E01095E1F4FC3
:100AE00078018AE0882E912CA12CB12CCB01BA017F
:100AF000A50194010E94E828942F852F605DF801DC
:100B000062938F01A901692F782F41155105610565
:100B1000710561F7A7014E1B5F0BBF01C6010E9463
:100B2000430566960FB6F894DEBF0FBECDBFDF91CA
:100B3000CF911F910F91FF90EF90DF90CF90BF90DA
:100B4000AF909F908F900895FC018485811114C00F
:100B5000A781B085818592852FEF3FEFA817B90750
:100B600030F4CD010196908787832C9130E037FDDA
:100B700020E0238781E08487838508951F93CF93A6
:100B8000DF93EC01162F0E94A405811306C01C867A
:100B900081E0DF91CF911F91089580E0FACF0F930C
:100BA0001F93CF93DF938C01EB018991882369F028
:100BB000C8010E94A405882379F0FE013197908135
:100BC00098130DC0F8011486F0CF90E080E0DF911B
:100BD000CF911F910F91089582E090E0F8CF83E0CC
:100BE00090E0F5CFCF93DF93EC01CE010E94A405F6
:100BF0008B304CF489305CF4882359F081E08E838B
:100C000090E080E00BC08D3011F08032B9F71C8687
:100C1000ECCF8E81811105C081E090E0DF91CF9112
:100C2000089582E090E0FACFCF93DF93DB01FC01DF
:100C3000808191810097E1F012962C911297139682
:100C40004C911397342F3F77FC01438142171306D1
:100C500071F7ED91FC911197EC0124962E0F3F1F37
:100C6000E217F30729F0519149915417C9F3DFCFE7
:100C7000DF91CF910895DC0152969C91529791504B
:100C800084E0989F900111245096ED91FC91E20F21
:100C9000F31F228133812115310579F04181808153
:100CA000481758F481E0840F818386E0489F200D27
:100CB000311D11242115310521F460E070E08FEF22
:100CC0000895B901892F8295807F840F08950F932D
:100CD0001F93CF93DF9300D000D000D0CDB7DEB705
:100CE000DB01ED91FC91119712960D911D912D91C3
:100CF0003C911597DC011296FC93EE931197FC0141
:100D000003831483258336835087478326960FB643
:100D1000F894DEBF0FBECDBFDF91CF911F910F9131
:100D20000895CF92DF92EF92FF920F931F93CF938C
:100D3000DF930E944A0400911E0210911F0220912D
:100D4000200230912102601B710B820B930B6A3FD2
:100D500071058105910508F44CC00E944A04609316
:100D60001E0270931F02809320029093210226E2BC
:100D7000C22E21E0D22EF601849132E1E32E31E041
:100D8000F32EF7010491CEEFD0E0FE011491112370
:100D900009F438C081110E942104E12FF0E0EE0F28
:100DA000FF1FE951FF4FA591B4918C91082391E069
:100DB00080E009F490E0092F182FF6018491F701E3
:100DC000E490FE01C491CC23A1F081110E94210482
:100DD000EC2FF0E0EE0FFF1FE352FF4FA591B4910F
:100DE0008FB7F8949C91012B81F0E094E922EC926A
:100DF0008FBFDF91CF911F910F91FF90EF90DF9008
:100E0000CF90089510E000E0D8CFE92AF0CFE2E1DA
:100E1000F1E02491EEEFF0E08491882399F090E0E6
:100E2000880F991FFC01ED52FF4FA591B491FC0171
:100E3000E352FF4F859194918FB7F894EC91E22B98
:100E4000EC938FBF08954F925F926F927F928F9233
:100E50009F92AF92BF92CF92DF92EF92FF920F9349
:100E60001F93CF93DF9300D000D01F92CDB7DEB792
:100E7000DC012C912B32E1F12D32D9F50196EE24D3
:100E8000E394FC01208130ED320F3A3010F02E3225
:100E900091F58C0160E070E0CB01F801219130ED1B
:100EA000832E820E39E0381508F444C06A3949E9C6
:100EB0007407840749E1940708F046C0AAE0B0E04F
:100EC0009B01AC010E94D227912CB12CA12C2401B2
:100ED0003501409450946094709446165706680605
:100EE000790690F1680D791D8A1D9B1D8F01D5CF64
:100EF0000196E12CC6CF198229813A814B815C8110
:100F00006D8170E080E090E00F900F900F900F9057
:100F10000F90DF91CF911F910F91FF90EF90DF9095
:100F2000CF90BF90AF909F908F907F906F905F9089
:100F30004F900895211108C0EE2051F161307105E4
:100F4000810550E89507A0F0F12CBAE08B2E912C8A
:100F5000A12CB12C6115710530E883079105F8F0DB
:100F6000A50194010E94E828CA01B901F394F2CFC7
:100F700022E029839B01AC0188279927DC01821B91
:100F8000930BA40BB50B8A839B83AC83BD83B4CF37
:100F900023E029836A837B838C839D83ADCFF80113
:100FA000D8012D918D0130ED320F3A3010F4F394C9
:100FB000F6CF2E3201F58F010F5F1F4FF8010F5F43
:100FC0001F4F2081A0EDDA2ED20EB9E0BD1598F0AA
:100FD0006C3CECEC7E07ECE08E07910578F7AAE01C
:100FE000B0E09B01AC010E94D2276D0D711D811DE7
:100FF000911DFA94E3CF20812F7D10E000E025348D
:1010000009F050C021812D32B1F53296CC24C39421
:10101000DF0110E000E02F2D0F2C000C330B5AE005
:10102000B52EFD01DD9040ED4D0D4A30B0F5B09E7E
:10103000A001B19E500D11240D2DDD0C110B00539C
:101040001109040F151FA801420F531F4732510504
:1010500044F3CC20B9F080E090E0A0E0B0E8E110EB
:1010600003C080E090E0DC0121E029838A839B8338
:10107000AC83BD8341CF2B3219F03196C12CC8CF40
:101080003296FCCF80E090E0A0E8BFEFE110ECCF1B
:1010900080E090E0A0E8BFE7E7CFCC2019F0119501
:1010A000019511092081211126CF0F0D111DF7FC8B
:1010B0001A950E94B32637E7C32E31E0D32E1016BF
:1010C00011063CF01195019511094FE5C42E41E040
:1010D000D42EF12C0115110591F000FF0CC024E075
:1010E000F29EF0011124EC0DFD1D259135914591E5
:1010F00054910E94142715950795F394EBCFE110B6
:10110000905821E029836A837B838C839D83F4CE6E
:10111000CF93DF9300D000D01F92CDB7DEB7FC0194
:10112000A081B181109709F43DC01496EC911497F9
:10113000E250ED3008F036C0F0E0EF55F74F0C9478
:101140000A29C108D208D608D908AE08D208D208A0
:10115000D208B508D208BA08D208DD086C9170E050
:1011600090E080E00E94B3262CC06D917D918D911E
:101170009C91F8CF6D917D918D919C910E94B526A7
:1011800020C0CD010E9423073A834B835C836D838B
:101190006A817B818C819D81223081F3233011F320
:1011A000213079F060E070E0CB010BC08D919C9113
:1011B000E9CF8D919C910496E5CF6D917D918D91B4
:1011C0009C910F900F900F900F900F90DF91CF9107
:1011D00008951F93CF93DF93EC01CB011B81612F07
:1011E00045960E94F104998388831A83009719F029
:1011F000FC0185818B83DF91CF911F910895CF9260
:10120000DF92EF92FF920F931F93CF93DF937C01B6
:101210006B018A01FC01C081D1814F3F510509F06A
:10122000B0F4E881F9810480F581E02D4B5F5F4FD8
:10123000CE010995009759F0FC010383DF91CF910E
:101240001F910F91FF90EF90DF90CF900895E8816C
:10125000F9810280F381E02DB601CE01099581E08C
:10126000F701828390E080E0E9CF1F93CF93DF9373
:10127000EC01162F6A817B816115710589F04C8123
:101280005D81FB0183818417150651F4440F551FBE
:101290004F5F5F4F888199810E94FF089B838A83FB
:1012A0008A819B81009759F02C813D81A9014F5F74
:1012B0005F4F5D834C83820F931FFC011483DF918A
:1012C000CF911F9108959F92AF92BF92CF92DF92DC
:1012D000EF92FF920F931F93CF93DF9300D000D034
:1012E0001F92CDB7DEB78C010E94A405D82EF8015D
:1012F0001486F12CE12C60EFC62EC8010E94A405D3
:10130000F8011486D81609F4B3C0811113C082E025
:1013100090E00F900F900F900F900F90DF91CF9172
:101320001F910F91FF90EF90DF90CF90BF90AF9003
:101330009F9008958C3509F099C0C8010E94A405BA
:10134000882329F3E1E5F1E0853709F083C0F8014E
:10135000148654E0952EB12CA12CC8010E94A4053E
:101360008823A9F2813434F48053803130F083E053
:1013700090E0CFCF8F7D8753F8CF44E0AA0CBB1C01
:101380004A95E1F7A82AF80114869A949110E5CFBE
:10139000C501985D8115944020F47501F3E0FF22AA
:1013A000ACCFC5019C5D81159440A8F483E0B822C0
:1013B000B701762F6627770F770F6A297B2990E090
:1013C00080E00196603871058105910540F4C801FF
:1013D0000E94350992CFB50190E080E0F3CF1982E9
:1013E000262F2F7320682A8326E096958795779578
:1013F00067952A95D1F76032710580F4606C6B8334
:101400005E01E4E0AE0EB11CF50162915F0166235E
:1014100009F473CFC8010E943509F6CF262F2F7328
:1014200020682B8386E0769567958A95E1F7603191
:10143000710538F4606E6C835E01F5E0AF0EB11C8F
:10144000E3CF60686C83CD825E0126E0A20EB11C02
:10145000DBCF32969081992309F489CF8913F9CF94
:101460008181882309F483CFF8011486682FAFCFD8
:1014700082819381892B19F484E090E04ACF90E037
:1014800080E047CFAF92BF92CF92DF92EF92FF9270
:101490000F931F93CF93DF9300D000D0CDB7DEB76B
:1014A000DC0112962D913C9113972C5F3F4F1496BF
:1014B0004D915C914430510580F57901D901E0E00E
:1014C000142F022FFA2FF21BF11730F4DD90F1E008
:1014D000D110F0E0EF2BF6CFE1111FC082E0FB014D
:1014E00084838E2D801B811728F4D7018D917D0177
:1014F0008193F7CF640F751FFB0110820F900F903F
:101500000F900F90DF91CF911F910F91FF90EF906F
:10151000DF90CF90BF90AF9008957B018C01420F78
:10152000531FDA011C92FC01C080D180A480B580D9
:101530003A832983AB828B2D8F778C83BE016F5FBB
:101540007F4FC60103960E9414060097D9F4D80174
:1015500012966D917C91A501C6010E94FF08D801E9
:10156000ED91FC9123813481DC012D933C93948394
:101570008383F8011382128225E0F701248391838B
:101580008083BCCFDC0112962C9112972F5F1296AC
:101590002C93F2CFDB01ED91FC9111970280F38146
:1015A000E02DBC01CD010994CF93DF938091DE0241
:1015B0009091DF020E9449011092E002C091DE0288
:1015C000D091DF028091E1029091E202009759F000
:1015D000FC01208131813093E2022093E102BE01BF
:1015E0000E94CA0AEFCF1092FC02DF91CF910895BA
:1015F000AF92BF92CF92DF92EF92FF920F931F9321
:10160000CF93DF93EC018B018C8180FF24C0A881F4
:10161000B981FB018381948130E020E00097D9F00B
:10162000A817B907D1F5F8016081718112968C91E4
:101630001297815012968C93129781110CC08D9144
:101640009C9111972115310529F1F901918380832E
:10165000CD010E94CA0A8C81807631F1209721F158
:10166000F8805801F5E1AF0EB11C8FEFF816D1F0FC
:101670006F2DC5010E94F1046C01FC01E580B801E9
:101680000E94F80AF801818DF6018083F801F18E3D
:10169000FE2CEBCF94838383DBCF9C01FC01808104
:1016A0009181BCCFF882F9821C82DF91CF911F918A
:1016B0000F91FF90EF90DF90CF90BF90AF90089583
:1016C000CF93DF93EC01CB01CF3FD10509F0B0F40C
:1016D000BE016B5F7F4F6C177D0780F0DC01ED91E1
:1016E000FC910190F081E02D0995009721F0FC011B
:1016F000C38321E02283DF91CF91089590E080E0C1
:10170000FACF8F929F92AF92BF92CF92DF92EF92D9
:10171000FF920F931F93CF93DF9300D000D0CDB7EC
:10172000DEB7DC0169014A014115510509F456C0D3
:1017300077FF08C084E014968C9314974D935C93C4
:1017400081E04DC07F777B016430710518F5FA01A7
:1017500090E0242F8E2F8819861730F4819131E084
:10176000811130E0932BF6CF911114C082E01496D2
:101770008C9314978D01842F821B861738F4FA01FD
:101780008191AF01F80181938F01F5CFA60FB11DB3
:101790001C92D6CF8D01F601A080B1809A828982F9
:1017A0006B837C83BE016F5F7F4FC60103960E94EF
:1017B0001406009751F0FC0122812F5F228325E05F
:1017C000F801248391838083BBCFB501C7010E94B8
:1017D000600B0097A9F481E0F601828380E00F900E
:1017E0000F900F900F90DF91CF911F910F91FF906D
:1017F000EF90DF90CF90BF90AF909F908F90089523
:10180000E981FA81DC011496A7014E0F5F1FE417EE
:10181000F50719F021912D93FACFFC01EE0DFF1D74
:101820001482F60123813481FC0131832083F60187
:1018300094838383C4CFCF92DF92EF92FF920F9372
:101840001F93CF93DF930097A9F089016A017B0171
:10185000EC01B9010E94F80A9801B701A601CE0176
:10186000DF91CF911F910F91FF90EF90DF90CF907C
:101870000C94810BDF91CF911F910F91FF90EF900E
:10188000DF90CF900895CB010C941029EF92FF9236
:101890000F931F93CF93DF937C01EB016FE770E011
:1018A0000E94A3268C01AC01B701CE010E949126B3
:1018B000C00FD11F1882DF91CF911F910F91FF9020
:1018C000EF900895CF93DF93EC0188819981009781
:1018D00011F00E94AC29198218821D821C821B8281
:1018E0001A82DF91CF910895FC0180819181009748
:1018F00011F00C94AC290895CB010C94AC29FB0198
:1019000001900020E9F73197AF01461B570B0C946B
:101910004305CF92DF92EF92FF920F931F93CF93E5
:10192000DF938C016B017A0162E20E942E05E601D1
:10193000EC0CFD1CEC16FD0699F06991E1E5F1E077
:10194000D480DD20C9F0329683816813F9CF6CE52D
:10195000C8010E942E056D2DC8010E942E05EACFF8
:1019600062E2C801DF91CF911F910F91FF90EF903C
:10197000DF90CF900C942E056111EECF64E671E0FC
:10198000C8010E947F0CD6CFFC0130E020E0611539
:10199000710549F0DB010D900020E9F79D01215010
:1019A0003109261B370B718360832283832F8F7746
:1019B00093819078982B40FB97F9938308952F9209
:1019C0003F924F925F926F927F928F929F92AF92CF
:1019D000BF92CF92DF92EF92FF920F931F93CF931C
:1019E000DF93CDB7DEB7A1970FB6F894DEBF0FBE79
:1019F000CDBF7C018B01DC0114968C91149786304D
:101A000009F471C1E0F4833009F45DC158F440E099
:101A1000B701823009F42FC16BE671E0C8010E9462
:101A20007F0CF3C0843009F423C18530A9F7ED9110
:101A3000FC91438150E0BF016C5F7F4F25C18E3028
:101A400009F443C0E0F48A3009F448C18C3021F72E
:101A5000CD90DD90ED90FC90B701A601F7FE0BC094
:101A60006DE2C8010E942E0544275527BA014C1982
:101A70005D096E097F09C8010E94580508C18032BE
:101A800009F4CDC0803441F66BE5C8010E942E05F3
:101A9000F701F080FFEFFF1609F4BCC0D8011496DF
:101AA0008D919C916F2D45960E94F1047C01B801A7
:101AB0000E94DF0CF701F580FFEFFF1609F4AAC0C2
:101AC0006CE2C8010E942E05E5CFF701C080D180ED
:101AD000E280F380A7019601C701B6010E94AE26FD
:101AE00081119ACF20E030E0A901C701B6010E9420
:101AF000AE26882379F0A7019601C701B6010E949E
:101B000024289B01AC01C701B6010E94AE268823A0
:101B100009F482CF20E030E0A901C701B6010E949C
:101B2000AE2687FF08C06DE2C8010E942E05F7FAB5
:101B3000F094F7F8F0945E01F7E1AF0EB11CB70135
:101B4000A601C5010E949101EF8CF8A0D9A04F8990
:101B5000588D698D7A8DC8010E945805DD2091F15C
:101B60006B8D7C8D8D8D9E8D3E0121E1620E711CF1
:101B7000CD2C43012AE0222E312C412C512CCA9429
:101B8000AFEFCA1659F0A20191010E94E828605DEA
:101B9000F30162933F01B901CA01F1CF8D2D90E0AD
:101BA000BC0160957095F401E81BF90B31978EE24A
:101BB000808344275527461B570B680D791DC801A4
:101BC0000E944305E114F10401F165E6C8010E9499
:101BD0002E05F7FE07C06DE2C8010E942E05F194A4
:101BE000E194F108F5012AE030E0C701B9010E9453
:101BF000D428805D82937B01672BB9F7A5014E1B2A
:101C00005F0BBF01C8010E944305D80112968D9158
:101C10009C9140C06DE5C8010E942E05F6CF6BE790
:101C2000C8010E942E05F701F080EE24E394BB2446
:101C3000B394FFEFFF16D1F0D80114968D919C91CB
:101C40006F2D45960E94F1046C01B8010E94DF0CD3
:101C5000F601F580FFEFFF1639F06AE3E11001C0ED
:101C60006CE2C8010E942E05EB24E3CF6DE7D3CFD1
:101C70006D917C9141E0CE0101960E94C40C4B8194
:101C80005C815F7769817A81C8010E94890CF801C3
:101C900082819381A1960FB6F894DEBF0FBECDBFAF
:101CA000DF91CF911F910F91FF90EF90DF90CF9038
:101CB000BF90AF909F908F907F906F905F904F906C
:101CC0003F902F900895ED91FC91438150E0BF012A
:101CD0006C5F7F4FC8010E944305D9CF4D915D9144
:101CE0006D917C91C8CE8C9160E771E0811102C04A
:101CF00065E771E0C8010E947F0CC9CF0F931F9365
:101D0000CF93DF9300D000D000D0CDB7DEB700ED89
:101D100012E0D8018D919C91DC01ED91FC91019034
:101D2000F081E02D6EE10995F801808191819A831F
:101D300089831C821B828EED92E09E838D83BE017F
:101D40006F5F7F4F88EF92E00E94DF0CD8018D918A
:101D50009C91DC01ED91FC910190F081E02D6AE015
:101D6000099526960FB6F894DEBF0FBECDBFDF9162
:101D7000CF911F910F910895CF93DF9300D000D0A2
:101D8000CDB7DEB7FC018481843061F08530E1F0AD
:101D900040E0BF01823049F060E070E080E090E018
:101DA00090680BC06081718141E0CE0101960E9474
:101DB000C40C69817A818B819C810F900F900F9068
:101DC0000F90DF91CF91089580819181FC01238153
:101DD00030E00496BC01C9019F779F77EECF9F92B8
:101DE000AF92BF92CF92DF92EF92FF920F931F9329
:101DF000CF93DF9300D000D0CDB7DEB77901C62EE8
:101E0000B72E8A01452B09F450C0B901FC0180812D
:101E10000E940B0569837A838B839C83DD24D39492
:101E20009924939489819A810097F9F0DD20B1F08B
:101E30000E94BC0E2C2D3B2D3F77AC015F77241701
:101E4000350761F4D801E62FF72F200F311FA217B5
:101E5000B30779F19D9181919817C9F3D924B701FE
:101E6000CE0101960E94E908DDCF2FEF89839A8386
:101E70002B83AC8289819A81009739F0B701CE011A
:101E800001960E94E90889819A810F900F900F9026
:101E90000F90DF91CF911F910F91FF90EF90DF9006
:101EA000CF90BF90AF909F9008952FEF90E080E08B
:101EB000DDCFAC8089819A812B81D8CFFC01208134
:101EC0003181C9014A9642815381648175810097AD
:101ED00059F0D9015E96EC91E03211F090E080E08B
:101EE000009711F00C94EF0E90E080E008950F93AE
:101EF0001F93CF93DF93EC0188819981009759F06C
:101F00002A813B812617370730F081E0DF91CF919E
:101F10001F910F9108958B016F5F7F4F0E94352AAB
:101F2000009759F0998388831B830A832C813D8114
:101F3000232B59F7FC011082E8CF80E0E7CFCF9246
:101F4000DF92EF92FF920F931F93CF93DF938C0159
:101F5000DC019296ED91FC91E80FF91F12826C0161
:101F6000B2E0CB0ED11CC114D10449F1F6010190AD
:101F70000020E9F73197EC19FD09F1F0DC01ED9053
:101F8000FC90D7011496CD91DC91CE0FDF1FBE01DE
:101F9000C7010E94770F882391F0F70120813181DA
:101FA00084819581B601820F931F0E94042BD70173
:101FB0001596DC93CE931497F80113A212A2D801C0
:101FC00092968D919C91DF91CF911F910F91FF90EF
:101FD000EF90DF90CF9008951F93CF93DF93EC01A4
:101FE000162F8AA19BA101968097B8F48AA19BA184
:101FF0009C012F5F3F4F3BA32AA38C0F9D1FFC0129
:10200000128321E030E08CA19DA1820F931F9DA33C
:102010008CA3DF91CF911F910895CE010E949F0F55
:10202000892B21F330E020E0EECFBF92CF92DF92F8
:10203000EF92FF920F931F93CF93DF93EC016A010E
:102040008B017B01E40EF51EE016F106D1F0F801DC
:10205000B1908F018AA19BA10196809760F48AA11B
:102060009BA19C012F5F3F4F3BA32AA38C0F9D1F79
:10207000FC01B282E9CFCE010E949F0F892B79F338
:10208000E3CF4CA15DA14C0D5D1D5DA34CA3DF9181
:10209000CF911F910F91FF90EF90DF90CF90BF9065
:1020A00008958F929F92AF92BF92CF92DF92EF925C
:1020B000FF920F931F93CF93DF93CDB7DEB7669751
:1020C0000FB6F894DEBF0FBECDBF6C018E01095E66
:1020D0001F4F78018AE0882E912CA12CB12CCB01C6
:1020E000BA01A50194010E94E828942F852F605D14
:1020F000F80162938F01A901692F782F41155105CD
:102100006105710561F7A7014E1B5F0BBF01C60199
:102110000E94151066960FB6F894DEBF0FBECDBFB5
:10212000DF91CF911F910F91FF90EF90DF90CF90B3
:10213000BF90AF909F908F900895FB010190002079
:10214000E9F73197AF01461B570B0C941510CF924E
:10215000DF92EF92FF920F931F93CF93DF938C0147
:102160006B017A0162E20E94EC0FE601EC0CFD1CAF
:10217000EC16FD0699F06991E1E5F1E0D480DD20EF
:10218000C9F0329683816813F9CF6CE5C8010E94CB
:10219000EC0F6D2DC8010E94EC0FEACF62E2C8017E
:1021A000DF91CF911F910F91FF90EF90DF90CF9033
:1021B0000C94EC0F6111EECF64E671E0C8010E944F
:1021C0009D10D6CF2F923F924F925F926F927F9247
:1021D0008F929F92AF92BF92CF92DF92EF92FF9237
:1021E0000F931F93CF93DF93CDB7DEB7A1970FB6B1
:1021F000F894DEBF0FBECDBF7C018B01DC011496CD
:102200008C911497863009F471C1E0F4833009F49D
:102210005DC158F440E0B701823009F42FC16BE68C
:1022200071E0C8010E949D10F3C0843009F423C1FD
:102230008530A9F7ED91FC91438150E0BF016C5FBF
:102240007F4F25C18E3009F443C0E0F48A3009F491
:1022500048C18C3021F7CD90DD90ED90FC90B70116
:10226000A601F7FE0BC06DE2C8010E94EC0F4427E7
:102270005527BA014C195D096E097F09C8010E94F2
:10228000511008C1803209F4CDC0803441F66BE5AD
:10229000C8010E94EC0FF701F080FFEFFF1609F470
:1022A000BCC0D80196968D919C916F2D45960E9449
:1022B000F1047C01B8010E94E210F701F580FFEF04
:1022C000FF1609F4AAC06CE2C8010E94EC0FE5CF2A
:1022D000F701C080D180E280F380A7019601C70199
:1022E000B6010E94AE2681119ACF20E030E0A9010C
:1022F000C701B6010E94AE26882379F0A701960196
:10230000C701B6010E9424289B01AC01C701B60198
:102310000E94AE26882309F482CF20E030E0A90194
:10232000C701B6010E94AE2687FF08C06DE2C80152
:102330000E94EC0FF7FAF094F7F8F0945E01F7E1E1
:10234000AF0EB11CB701A601C5010E949101EF8C2F
:10235000F8A0D9A04F89588D698D7A8DC8010E9447
:102360005110DD2091F16B8D7C8D8D8D9E8D3E0108
:1023700021E1620E711CCD2C43012AE0222E312C6A
:10238000412C512CCA94AFEFCA1659F0A201910109
:102390000E94E828605DF30162933F01B901CA0120
:1023A000F1CF8D2D90E0BC0160957095F401E81B94
:1023B000F90B31978EE2808344275527461B570B34
:1023C000680D791DC8010E941510E114F10401F196
:1023D00065E6C8010E94EC0FF7FE07C06DE2C80178
:1023E0000E94EC0FF194E194F108F5012AE030E04D
:1023F000C701B9010E94D428805D82937B01672BBD
:10240000B9F7A5014E1B5F0BBF01C8010E94151053
:10241000D80194968D919C9140C06DE5C8010E94B1
:10242000EC0FF6CF6BE7C8010E94EC0FF701F080CC
:10243000EE24E394BB24B394FFEFFF16D1F0D80150
:1024400096968D919C916F2D45960E94F1046C019A
:10245000B8010E94E210F601F580FFEFFF1639F097
:102460006AE3E11001C06CE2C8010E94EC0FEB24AA
:10247000E3CF6DE7D3CF6D917C9141E0CE01019622
:102480000E94C40C4B815C815F7769817A81C801AD
:102490000E94A710F80184A195A1A1960FB6F89407
:1024A000DEBF0FBECDBFDF91CF911F910F91FF9087
:1024B000EF90DF90CF90BF90AF909F908F907F90E4
:1024C0006F905F904F903F902F900895ED91FC9109
:1024D000438150E0BF016C5F7F4FC8010E9415101F
:1024E000D9CF4D915D916D917C91C8CE8C9160E773
:1024F00071E0811102C065E771E0C8010E949D1082
:10250000C9CFCF92DF92EF92FF920F931F93CF9399
:10251000DF93CDB7DEB7C85BD1090FB6F894DEBF45
:102520000FBECDBF6B017C01CA01CB56DF4F598373
:102530004883C559D040C954DF4F19821882C75B00
:10254000D0400E94620C84E2FE01EB56FF4FDE0198
:10255000AF58BF4F01900D928A95E1F784E2FE01DA
:10256000EF58FF4FDE01A35BBF4F01900D928A959C
:10257000E1F784E2FE01E35BFF4FDE0199960190F3
:102580000D928A95E1F784E2FE01B996DE0111967B
:1025900001900D928A95E1F71EA21DA2CE018996A7
:1025A0000E949F0FF8A6EFA2CE01835B9F4F0E946F
:1025B0009F0FC114D10431F1BE016F5F7F4FC6017F
:1025C0000E94E2107C01CE0101960E949F0FCE0175
:1025D0008F589F4F0E949F0FCE018B569F4F0E9496
:1025E0009F0FC701C854DF4F0FB6F894DEBF0FBE70
:1025F000CDBFDF91CF911F910F91FF90EF90DF90B2
:10260000CF9008956BE671E0CE0101960E949D1077
:10261000EDA0FEA0D8CFEF92FF920F931F93CF9320
:10262000DF93EC017B018A01BA010E94770F8111CF
:102630000BC0CE010E94620CCE01DF91CF911F91A1
:102640000F91FF90EF9008951D830C83B70188814F
:1026500099810E94042BF0CFFB0101900020E9F743
:102660003197AF01461B570B0C940B13FC011182E1
:10267000108213821282158214826115710551F045
:10268000FB0101900020E9F73197AF01461B570B82
:102690000C940B130895EF92FF920F931F93CF9317
:1026A000DF93EC01CB01FB01E080F1800E945E0F23
:1026B0008C0163E671E0CE010E943613011511050D
:1026C00089F0C8010E94BC0E6115710559F0CE0158
:1026D0000E942C13CE01DF91CF911F910F91FF909B
:1026E000EF900895B801C701AE010E948112F2CFA8
:1026F000CB01BA010C94352ABF92CF92DF92EF92B0
:10270000FF920F931F93CF93DF93EC01198D1F3F1F
:1027100081F0612F45960E94F104FC018081898F30
:10272000309709F477C014828FEF8583BF01812F22
:1027300076C06C0135E0C30ED11CE880F9808F892A
:10274000882341F0C6010E943B06E62FF72F182F81
:10275000309749F71F89988D191324C0103109F457
:1027600059C0110F6D897E89D701ED91FC91B4E0BC
:102770001B9FA0011124C616D70609F044C0019082
:10278000F081E02DBA01C7010995009709F442C014
:1027900020E1F601DC0101900D922A95E1F79E8B74
:1027A0008D8B188F0D891E898F8921E0280F2F8B23
:1027B000E4E08E9FC0011124080F191F90E1B92E8B
:1027C000203111F48FE0B82EF6E0BF9EB001112445
:1027D000D701ED91FC910190F081E02DC7010995A1
:1027E000F80193838283892B09F4B12CD801BC9220
:1027F00011961C92012B71F0C6010E943B06E62F38
:10280000F72F182F8DCF0480F581E02DC701099592
:10281000009729F681E08A8360E070E08FEFDF9116
:10282000CF911F910F91FF90EF90DF90CF90BF90CD
:1028300008956F927F928F929F92AF92BF92CF92A4
:10284000DF92EF92FF920F931F93CF93DF93EC01F0
:102850004115510589F490E080E0DF91CF911F91FF
:102860000F91FF90EF90DF90CF90BF90AF909F902F
:102870008F907F906F9008958C8181111AC080E2B3
:102880008C83209741F38FEF8883898379014A01F4
:102890005B01CE010E94EF0E0097F9F6C7010E947E
:1028A0007C13682E6B01672B49F410E000E0C8012F
:1028B000D4CF803281F6209749F7CDCFC7010E944F
:1028C0007C13782E962F092F172F0115110569F308
:1028D0009701B501A401C6010E94810B882329F349
:1028E000F601758269816F3F41F0C70145960E94EC
:1028F000F104FC0165827982DACF6882FCCFCF9344
:10290000DF93DC01CD91DC911197FE017A9659F0AD
:1029100012964D915D916D917C9115979E01CF011D
:102920000E941914FC01BF01CE01DF91CF910895DF
:10293000CF92DF92EF92FF92CF93DF937B010E94C1
:102940007F14DC01CB01EB010097B1F0F701C080EF
:10295000D180E280F380BD010E94F80A8AE08C8376
:10296000C882D982EA82FB8281E0DF91CF91FF9019
:10297000EF90DF90CF90089580E0F7CFEF92FF9235
:102980000F931F93CF93DF937C018B010E947F14E1
:10299000DC01CB01E801E881F98170E060E030976B
:1029A00049F0EF0109900020E9F7BE01615071097B
:1029B0006E1B7F0B7F777F779D01AF010E941B0C01
:1029C000D701ED91FC9180E0309719F0828191E080
:1029D0008927DF91CF911F910F91FF90EF9008957C
:1029E0000F931F93CF93DF93EC018B010E947F1411
:1029F000DC01CB0170E070689D01A8016AE00E94D3
:102A00001B0CE881F98180E0309719F0828191E018
:102A10008927DF91CF911F910F9108956F927F9237
:102A20008F929F92AF92BF92CF92DF92EF92FF92DE
:102A30000F931F93CF93DF933C01EB010E947F1410
:102A40004B015C01088119816B010115110501F130
:102A5000C8010E949A26EC0181149104F9F07501D5
:102A6000B501C4010E94F80AC430D10508F044C081
:102A700090E080E020E03C2F831740F5F801E80F5C
:102A8000F91FE49141E0E11140E0242B0196F4CFDD
:102A9000672B21F0BC01C4010E94F80AD301ED911B
:102AA000FC9180E0309719F0828191E08927DF91D5
:102AB000CF911F910F91FF90EF90DF90CF90BF903B
:102AC000AF909F908F907F906F900895211114C0C8
:102AD00082E0D60114968C93D40190E080E08317B5
:102AE00038F4F801E80FF91FE491ED930196F7CF60
:102AF000C80DD91D1882D2CFF701A380B480A114CC
:102B0000B10471F1D50113968C918C171D0641F417
:102B1000AE01B801C50104960E948426892BD9F024
:102B2000F501A080B180EBCFAE01B801C5010496DC
:102B30000E949126CA0DDB1D1C82F70183819481BE
:102B4000D5018D939C93B482A38285E0F6018483A2
:102B5000B182A082A3CFF50182818F5F8283F5CFFE
:102B6000D7016D917C91CE010E94600B5C01892B95
:102B7000D9F681E0D70112968C9390CFEF92FF9215
:102B80000F931F93CF93DF937C018B010E947F14DF
:102B9000DC01CB01E801E881F98170E060E0309769
:102BA00049F0EF0109900020E9F7BE016150710979
:102BB0006E1B7F0B7F777F779D01AF010E941B0CFF
:102BC000D701ED91FC9180E0309719F0828191E07E
:102BD0008927DF91CF911F910F91FF90EF9008957A
:102BE0006F927F928F929F92AF92BF92CF92DF921D
:102BF000EF92FF920F931F93CF93DF93CDB7DEB782
:102C000028970FB6F894DEBF0FBECDBF7C010E949F
:102C100017010E94D40A0EED12E01A8309838BE794
:102C200091E09C838B8389E08D838E81807880689E
:102C30008E836EEF72E0CE0101960E94BE1586E58E
:102C400091E098878F831A83098385E891E09C83BC
:102C50008B838CE08D838E81807880688E83BE012B
:102C6000695F7F4FCE0101960E940E151A8309837A
:102C700082E991E09C838B8387E08D838E818078CD
:102C800080688E836AE971E0CE0101960E94F0149B
:102C90001A83098385EA91E09C838B838BE08D8383
:102CA0008E81807880688E836DE073E0CE0101961E
:102CB0000E9498140E947E0E00910103109102035D
:102CC0008EEDC82E82E0D82E91EBA92E91E0B92E80
:102CD00026E0722E38EB832E31E0932E47E0642EEF
:102CE0000115110589F1E114F10441F0B701F80172
:102CF000808191810E94FB2A892B11F50E94D40AC0
:102D0000DA82C982BC82AB827D828E8180788068C3
:102D10008E83B8016E5F7F4FCE0101960E94BE1573
:102D2000DA82C9829C828B826D828E8180788068F3
:102D30008E83B801CE0101960E94BE150E947E0EC0
:102D4000F80106811781CCCF0E942B0128960FB67F
:102D5000F894DEBF0FBECDBFDF91CF911F910F91D1
:102D6000FF90EF90DF90CF90BF90AF909F908F90AB
:102D70007F906F900895FF920F931F93CF93DF93EF
:102D8000CDB7DEB72C970FB6F894DEBF0FBECDBF20
:102D90009A8789877C876B87142F0E94D40A8EEDCF
:102DA00092E09A8389838BE791E09C838B8389E00F
:102DB0008D838E81807880688E836EEF72E0CE0185
:102DC00001960E94BE158EE491E0163040F4E12F8A
:102DD000F0E0EE0FFF1FE25EFE4F80819181988749
:102DE0008F830EED12E01A83098385E891E09C83BE
:102DF0008B838CE08D838E81807880688E83BE018A
:102E0000695F7F4FCE0101960E940E151A830983D8
:102E100082E991E09C838B8387E0F82EFD828E818E
:102E2000807880688E83BE01655F7F4FCE010196FA
:102E30000E94BE151A83098385EA91E09C838B83E7
:102E40008BE08D838E81807880688E836DE073E067
:102E5000CE0101960E9498141A83098388EB91E0B1
:102E60009C838B83FD828E81807880688E83BE01F7
:102E7000675F7F4FCE0101960E94BE150E947E0EB5
:102E80002C960FB6F894DEBF0FBECDBFDF91CF9169
:102E90001F910F91FF900895CF92DF92FF920F93B1
:102EA0001F93CF93DF938C016B01CB010E947C13A6
:102EB000F82EEB01209761F0F80161816F3F89F0F6
:102EC000C60145960E94F104FC01F582F801F182E9
:102ED000CE01DF91CF911F910F91FF90DF90CF90A6
:102EE00008958083F4CF3F924F925F926F927F92CA
:102EF0008F929F92AF92BF92CF92DF92EF92FF920A
:102F00000F931F93CF93DF9300D000D01F92CDB7C4
:102F1000DEB78C016B01B42E0E94F2057C01892B77
:102F200009F050C0C8010E94A405863609F4AEC15C
:102F300064F5873229F08B35A1F1823209F0AFC1F7
:102F4000F8011582148282819381892B99F4E080A3
:102F5000F180D7016D917C918FE190E00E94600B30
:102F6000009719F421E0F7012283D80113969C936E
:102F70008E931297C8010E9463097C01892B11F579
:102F8000B601C8010E94420A1DC0843709F45EC11F
:102F90008B3709F466C08E3609F081C16BE671E0AB
:102FA0005CC180E4D60114968C931497C114D104AB
:102FB00021F08FEF8C9311968C93B1101BC025E0FC
:102FC000E22EF12CC7010F900F900F900F900F90F1
:102FD000DF91CF911F910F91FF90EF90DF90CF90F5
:102FE000BF90AF909F908F907F906F905F904F9029
:102FF0003F900895F8011486C8010E94F2050097D9
:1030000009F09DC16DE5C8010E94BE058111DACFAE
:10301000BA94D8011D966D917C91C6010E944C17FF
:10302000009709F47BC04B2DBC01C8010E947317A7
:10303000009709F084C1C8010E94F205009709F0C9
:103040007EC16DE5C8010E94BE058111BBCF6CE257
:10305000C8010E94BE058111DCCF93E0E92EF12C5E
:10306000B1CF80E2F6018483C114D10419F08FEF4F
:1030700080838183BB2009F4A2CFD8011C961C92C7
:10308000C8010E94F205009709F059C16DE7C80117
:103090000E94BE05811196CF5524539477247A94CB
:1030A0007B0CF8011582148282819381892B91F423
:1030B000E080F180D7016D917C918FE190E00E94DA
:1030C000600B009711F4F7015282D80113969C937C
:1030D0008E931297C8010E94A405873219F182329B
:1030E00009F1C8010E94A405F82E0E941C0588233E
:1030F00009F4B3CFF80114866F2DC8010E94350979
:10310000C8010E94A405F82E0E941C058111F2CF6F
:10311000D80112968D919C91892B59F484E0E82E68
:10312000F12C50CFC8010E9463097C01892B09F062
:1031300049CFC8010E94F2057C01892B09F042CFDA
:103140006AE3C8010E94BE05882309F486CFD8012E
:103150001296ED91FC91139714968D919C91159771
:10316000E80FF91F148214966D917C9115977F7763
:103170001D962D913C911E9712968D919C910496CF
:10318000472F4F77B62DB0786B2E642AE89467F8F6
:10319000AC01762DC6010E94EF0E7C01F8018584FA
:1031A0009684009759F5C4010E947C13382E5B0168
:1031B000672B09F4B3CFC4010E947C13482E962FCD
:1031C000E92EF72EE114F10409F4A8CFD5011596E4
:1031D0004C92F60161816F3F71F0C40145960E94E7
:1031E000F104DC0115963C92F6014182B501C8015B
:1031F0000E94420A06C030824182F8CFB4010E9488
:10320000F80A472DB701C8010E9473177C01892B6A
:1032100009F0D8CEC8010E94F2057C01892B09F083
:10322000D1CE6DE7C8010E94BE058111CBCE6CE204
:10323000C8010E94BE05882309F40FCFC8010E946F
:10324000F2057C01892B09F42CCFBCCE86E0F60177
:10325000848381E0808360E771E0C8010F900F9064
:103260000F900F900F90DF91CF911F910F91FF90D2
:10327000EF90DF90CF90BF90AF909F908F907F9016
:103280006F905F904F903F900C94CF0586E0D601F1
:1032900014968C9314971C9265E771E0DECFC801F9
:1032A0000E94A4054801BFE08B0E911CB12C782C24
:1032B000A92C803384F08A3384F4EFE3BE16A9F09E
:1032C000D8011C961C92B394F40181934F01C8015C
:1032D0000E94A405EECF8B3281F393ED980F9230CC
:1032E00060F3982F9F7D953441F30B0D111DD8018C
:1032F0001F961C92872D9A2D0E9423073A834B8399
:103300005C836D838A819B81AC81BD812230A9F071
:10331000233059F0213009F0A0CE2EE0F6012483AD
:1033200080839183A283B3834DCE2AE0F601248368
:1033300080839183A283B38345CE2CE0F7CF7C01B9
:1033400041CEAF92BF92CF92DF92EF92FF920F9356
:103350001F93CF93DF9300D000D0CDB7DEB7FC0131
:10336000C180D280DC011196C6014A9699F430E002
:1033700020E0B901C6010F900F900F900F90DF91E0
:10338000CF911F910F91FF90EF90DF90CF90BF9062
:10339000AF9008957F0112964D915D916D917C9152
:1033A000159796010E9419148C01009701F3F701FB
:1033B000A180B280E780F084FC01848181111FC06C
:1033C00080E484838FEF80838183B501F80180815D
:1033D0000E940B0569837A838B839C8329813A81C0
:1033E0002115310579F0E114F10419F2B501CE018E
:1033F00001960E94E908F1E0EF1AF108EFCF80345E
:1034000021F3B5CF8FEFE816F80609F4B2CFB50176
:10341000C8010E944C179C01E1E0EE1AF108892BCB
:1034200089F7A7CF1F920F920FB60F9211242F93F7
:103430003F934F935F936F937F938F939F93AF933C
:10344000BF93EF93FF938BE292E00E949203FF9170
:10345000EF91BF91AF919F918F917F916F915F910C
:103460004F913F912F910F900FBE0F901F90189585
:103470001F920F920FB60F9211242F938F939F9349
:10348000EF93FF93E0913B02F0913C028081E09149
:103490004102F091420282FD1BC090818091440262
:1034A0008F5F8F7320914502821741F0E0914402B3
:1034B000F0E0E55DFD4F958F80934402FF91EF9121
:1034C0009F918F912F910F900FBE0F901F90189585
:1034D0008081F4CF1F920F920FB60F9211242F9379
:1034E0003F938F939F93AF93BF93809127029091C7
:1034F0002802A0912902B0912A023091260223E0ED
:10350000230F2D3758F50196A11DB11D20932602DA
:103510008093270290932802A0932902B0932A0255
:103520008091220290912302A0912402B091250261
:103530000196A11DB11D8093220290932302A093B6
:103540002402B0932502BF91AF919F918F913F913B
:103550002F910F900FBE0F901F90189526E8230F04
:103560000296A11DB11DD2CFEF92FF920F931F9330
:10357000CF93DF9310922E0210922D0288EE93E0EB
:10358000A0E0B0E080932F0290933002A09331022C
:10359000B09332028EE291E090932C0280932B0242
:1035A00085EC90E0909338028093370284EC90E0B1
:1035B00090933A028093390280EC90E090933C0221
:1035C00080933B0281EC90E090933E0280933D0219
:1035D00082EC90E09093400280933F0286EC90E072
:1035E000909342028093410210924402109245024D
:1035F000109246021092470288E998E0A0E0B0E0FD
:103600008093D4029093D502A093D602B093D702B0
:103610001092D8021092D9021092DA021092DB02B4
:103620001092DC021092DD028BE292E09093D102C4
:103630008093D00280E091E09093DF028093DE02DD
:103640001092E0021092E2021092E10283EE92E008
:103650009093F4028093F3021092F50284E0809339
:10366000F6028FEF8093F7021092FC028093FD0226
:1036700080EC91E09093FF028093FE021092000391
:10368000109202031092010310920403109203039C
:1036900010920603109205031092090310920A0378
:1036A00010920B0310920C0380ED92E09093CF02E6
:1036B0008093CE02ECE3F1E065EC7DE98CE191E8EA
:1036C0002191222359F07B01E226AC01970163E9A5
:1036D00071E080E091E00E94C428F2CFE0ECF1E0DC
:1036E0002191222359F07B01E226AC01970163E985
:1036F00071E080E091E00E94C428F2CF60930D0356
:1037000070930E0380930F0390931003CBECD1E0E2
:10371000D093CB02C093CA0280ED92E09093CD0289
:103720008093CC0287E097E09093C9028093C8020F
:1037300086E090E00E941029FC01D183C08381E9DA
:1037400096E09383828315821482F0930803E093BA
:103750000703DF91CF911F910F91FF90EF90089594
:10376000CF93DF93CDB7DEB7C95CD1090FB6F8941C
:10377000DEBF0FBECDBF789484B5826084BD84B5B2
:10378000816084BD85B5826085BD85B5816085BD5C
:1037900080916E00816080936E0010928100809114
:1037A000810082608093810080918100816080939C
:1037B0008100809180008160809380008091B100C1
:1037C00084608093B1008091B00081608093B000EC
:1037D00080917A00846080937A0080917A00826080
:1037E00080937A0080917A00816080937A00809142
:1037F0007A00806880937A001092C100E091C8023C
:10380000F091C902309709F009958AE696E5845649
:10381000964566E070E00E94D428C853DF4F798354
:103820006883C85CD0403E0129E5620E711C00919E
:103830000503109106030115110549F0D8011296F0
:10384000ED91FC910995F80104811581F4CF8091E7
:103850000003811196C0E0913B02F0913C0282E0AE
:103860008083E0913702F09138021082E0913902B2
:10387000F0913A0280E1808310924302E0913F028E
:10388000F091400286E08083E0913D02F0913E029B
:10389000808180618083E0913D02F0913E028081D1
:1038A00088608083E0913D02F0913E0280818068D3
:1038B0008083E0913D02F0913E0280818F7D808384
:1038C00081E0809300030E9456048823E1F381E0A5
:1038D000809300038091DC02882309F456C08EE1B6
:1038E0000E94F400D82E882309F44FC00E94D40A05
:1038F0000E944A046093D8027093D9028093DA023E
:103900009093DB02E090D002F090D10263E671E088
:10391000CE018F579F4F0E943613C7010E94C304E8
:10392000CB57DF4F08811981C558D04097FD3FC064
:103930008A309105E1F189831A820F5F1F4FB80128
:10394000CE018F579F4F0E94770F882331F3CF57B7
:10395000DF4F28813981C158D040CB57DF4F888154
:103960009981C558D040BE016F5F7F4F820F931F72
:103970000E94042BCB57DF4F19830883C558D040D2
:10398000CCCF0E9456048111A5CF0091070310915E
:1039900008030115110511F40C945526D80112964F
:1039A000ED91FC910995F80104811581F2CFCF5773
:1039B000DF4FE880F980C158D0400E0D1F1D0E94D6
:1039C000D40A8EED92E09A8389831C821B821E8228
:1039D0001D821F82F986E8861B870A871D869F87BE
:1039E0008E874AE068EF72E0CE0101960E9473175D
:1039F0008C01892B49F48C85882331F08091FC025D
:103A000083FF02C003E010E08B819C81009731F0BE
:103A1000E981FA81608171810E94CA0A1093D30200
:103A20000093D202CE018F579F4F0E94740C809159
:103A3000D2029091D302892B09F0A7CF0EED12E0AC
:103A40001A8309838FEC91E09C838B8383E08D83C1
:103A50008E81807880688E83CE0101960E945E0FF1
:103A6000009709F492CF0E94BC0E4B01FB013097E6
:103A700009F48BCF8081882309F487CF63ED71E04F
:103A8000C4010E940B2B892B09F4F4C20E94170178
:103A90000E94D40A1A8309838BE791E09C838B836D
:103AA00089E08D838E81807880688E836EEF72E0EE
:103AB000CE0101960E94BE1586E591E0CF57DF4FFB
:103AC00099838883C158D0401A83098385E891E09F
:103AD0009C838B838CE08D838E81807880688E833D
:103AE000BE016F577F4FCE0101960E940E151A83BB
:103AF000098382E991E09C838B8387E08D838E81AB
:103B0000807880688E83CE0101960E947F14DC014C
:103B1000CB0123ED31E0CE53DF4F39832883C25CE4
:103B2000D0403BE0CC53DF4F3883C45CD040CB5314
:103B3000DF4F4881C55CD0404078542F5068CB534C
:103B4000DF4F5883C55CD0409D01CE53DF4F488185
:103B500059816A817B81C25CD0400E941B0C1A8310
:103B6000098385EA91E09C838B838BE08D838E8132
:103B7000807880688E836DE073E0CE0101960E94AC
:103B800098140E947E0E4090030350900403BE01DF
:103B90006D5F7F4FC454DF4F79836883CC5BD04027
:103BA0004114510409F42EC4D2011596ED91FC91F3
:103BB000CE01019609950E94D40ACF57DF4F198391
:103BC0000883C158D040EFEDF1E0CD57DF4FF983C6
:103BD000E883C358D04087E0F82ECB57DF4FF882F8
:103BE000C558D040CA57DF4F8881C658D04080782A
:103BF0008068CA57DF4F8883C658D040B2016E5FD5
:103C00007F4FCE018F579F4F0E94BE15CF57DF4F7A
:103C100019830883C158D04028EB31E0CD57DF4FDE
:103C200039832883C358D040CB57DF4FF882C5581B
:103C3000D040CA57DF4F8881C658D040807880680E
:103C4000CA57DF4F8883C658D040B201CE018F5784
:103C50009F4F0E94BE15D2011496EC918FE391E024
:103C6000E33038F4F0E0EE0FFF1FE85EFE4F808196
:103C70009181CA56DF4F99838883C659D040CF5768
:103C8000DF4F19830883C158D040E7EEF1E0CD57EC
:103C9000DF4FF983E883C358D04084E0CB57DF4F30
:103CA0008883C558D040CA57DF4F8881C658D04056
:103CB00080788068CA57DF4F8883C658D040BE01DD
:103CC0006A567F4FCE018F579F4F0E940E15E98194
:103CD00085E391E0E33038F4F0E0EE0FFF1FEE5E95
:103CE000FE4F80819181CA56DF4F99838883C659E0
:103CF000D040CF57DF4F19830883C158D0408CEE96
:103D000091E0CD57DF4F99838883C358D04086E038
:103D1000CB57DF4F8883C558D040CA57DF4F8881C3
:103D2000C658D04080788068CA57DF4F8883C6580D
:103D3000D040BE016A567F4FCE018F579F4F0E94E1
:103D40000E158A81882309F47AC1F12CE4E0EE2E65
:103D50006C968FAD6C97F81608F071C14F2D50E03E
:103D6000AA24A394B12CAC0EBD1EFBE0FF9DA00CB9
:103D7000B11C1124D50112968C91823009F4DEC059
:103D800040F4882309F457C0813009F492C0F394B9
:103D9000DFCF833009F40EC18430C9F721E030E071
:103DA0002C0F3D1FBBE0FB9E200D311D1124F9019E
:103DB00037966F01CA56DF4F19830883C659D04022
:103DC00023EF31E0C856DF4F39832883C859D040EC
:103DD000C656DF4F8883CA59D040C556DF4F888109
:103DE000CB59D04080788068C556DF4F8883CB5947
:103DF000D040BE016A567F4FCE018F579F4F0E9421
:103E00006706CE018F579F4F0E94A119DC01CB019D
:103E1000F601648175817F7740815181272F2F774B
:103E2000F22DF0782F2E222AE89427F89D01722D8A
:103E30000E941B0CACCFCA56DF4F19830883C659AA
:103E4000D040E3EFF1E0C856DF4FF983E883C8596B
:103E5000D040C656DF4FE882CA59D040C556DF4F22
:103E60008881CB59D04080788068C556DF4F8883E1
:103E7000CB59D040BE016A567F4FCE018F579F4F1E
:103E80000E946706CE018F579F4F0E94A119DC0147
:103E9000CB016B01672B09F47ACFF501B380BD012B
:103EA0000E94F80AE6E0D6011496EC931497BC92AF
:103EB0006ECFCA56DF4F19830883C659D04023EF0F
:103EC00031E0C856DF4F39832883C859D040C656E1
:103ED000DF4FE882CA59D040C556DF4F8881CB59A1
:103EE000D04080788068C556DF4F8883CB59D0405A
:103EF000BE016A567F4FCE018F579F4F0E946706C3
:103F0000CE018F579F4F0E94A119DC01CB016B019D
:103F1000672B09F43CCFF50183809480A580B6809F
:103F2000BD010E94F80AECE0D6011496EC931497B8
:103F30008D929D92AD92BC92139729CFCA56DF4FB6
:103F400019830883C659D040E3EFF1E0C856DF4F2C
:103F5000F983E883C859D040C656DF4FE882CA5972
:103F6000D040C556DF4F8881CB59D04080788068DB
:103F7000C556DF4F8883CB59D040BE016A567F4F6C
:103F8000CE018F579F4F0E946706CE018F579F4FDC
:103F90000E94A119DC01CB016B01672B09F4F7CE5C
:103FA000F50183809480A580B680BD010E94F80A47
:103FB000EAE0BACFCA56DF4F19830883C659D0400A
:103FC000E3EFF1E0C856DF4FF983E883C859D040EA
:103FD000C656DF4FE882CA59D040C556DF4F8881A8
:103FE000CB59D04080788068C556DF4F8883CB5945
:103FF000D040BE016A567F4FCE018F579F4F0E941F
:104000006706CE018F579F4F0E94A119DC01CB019B
:104010006B01672B09F4BBCEF50183809480A580EA
:10402000B680BD010E94F80AEEE0D6011496EC932A
:1040300014978D929D92AD92BC921397A8CE0E9438
:104040007E0E7E012BE5E20EF11C3BE0E31AF10847
:10405000C70105960E94740CC454DF4F48815981F2
:10406000CC5BD040E416F50681F7D20117964D904F
:104070005C9096CD68EF71E0C4010E940B2B892BF8
:1040800009F43BC10E9417010E94D40A1A830983D4
:104090008BE791E09C838B8389E08D838E81807890
:1040A00080688E836EEF72E0CE0101960E94BE158D
:1040B00086E591E0CF57DF4F99838883C158D04080
:1040C0001A83098385E891E09C838B838CE08D8340
:1040D0008E81807880688E83BE016F577F4FCE01BE
:1040E00001960E940E151A83098382E991E09C8350
:1040F0008B8387E08D838E81807880688E8368EFE4
:1041000071E0CE0101960E94F0141A83098385EABA
:1041100091E09C838B838BE08D838E818078806897
:104120008E836DE073E0CE0101960E9498140E9488
:104130007E0EE4E6F6E526E5EA36F20708F062C10F
:104140007F01512C412C8E010F5F1F4F6EEDC62E4B
:1041500062E0D62EC853DF4F48815981C85CD040F9
:104160004415550509F44EC1F70185909490F70167
:104170003296A590B490F701349665917491CA5324
:10418000DF4F79836883C65CD0408114910409F4C1
:10419000ADC0672B09F4AAC00E94D40AB801C401BB
:1041A0000E94460CCF57DF4FD982C882C158D040F9
:1041B00083E092E0CD57DF4F99838883C358D04086
:1041C00095E0CB57DF4F9883C558D040CA57DF4F93
:1041D0008881C658D04080788068CA57DF4F88836E
:1041E000C658D040C654DF4F19830883CA5BD040FD
:1041F000BE0166547F4FCE018F579F4F0E94BE1461
:1042000020E090E0A114B10431F0B801C5010E9492
:10421000460C202F912FCF57DF4FD982C882C1582B
:10422000D040A9E0B2E0CD57DF4FB983A883C3588F
:10423000D040B7E0CB57DF4FB883C558D040CA57FE
:10424000DF4F8881C658D04080788068CA57DF4FDA
:104250008883C658D040CA54DF4F2883C65BD040FD
:10426000C954DF4F9883C75BD040BE016A547F4F6B
:10427000CE018F579F4F0E94BE14B801CA53DF4F23
:1042800088819981C65CD0400E94460CCF57DF4F91
:10429000D982C882C158D040E1E1F2E0CD57DF4F6A
:1042A000F983E883C358D040F4E0CB57DF4FF8835D
:1042B000C558D040CA57DF4F8881C658D040807853
:1042C0008068CA57DF4F8883C658D040C854DF4F34
:1042D00019830883C85BD040BE0168547F4FCE016C
:1042E0008F579F4F0E94BE140E947E0E2FEF421ADE
:1042F000520A36E0E30EF11C2DCF66E172E0C401F4
:104300000E940B2B892B09F48AC00E9417010E947E
:10431000D40A1A8309838BE791E09C838B8389E01D
:104320008D838E81807880688E836EEF72E0CE01FF
:1043300001960E94BE1586E591E0CF57DF4F998325
:104340008883C158D0401A83098385E891E09C8313
:104350008B838CE08D838E81807880688E83BE0114
:104360006F577F4FCE0101960E940E151A83098365
:1043700082E991E09C838B8387E08D838E818078B6
:1043800080688E83CE0101960E947F14DC01CB01F0
:1043900046E152E0C254DF4F59834883CE5BD040A0
:1043A00056E0C054DF4F5883C05CD040CF53DF4F3E
:1043B0006881C15CD0406078762F7068CF53DF4F42
:1043C0007883C15CD0409D01C254DF4F4881598140
:1043D0006A817B81CE5BD0400E941B0C1A830983CB
:1043E00085EA91E09C838B838BE08D838E8180783E
:1043F00080688E836DE073E0CE0101960E94981470
:104400000E947E0E0E942B010E944A0460930903C1
:1044100070930A0380930B0390930C03B6CA6AE966
:1044200071E0C4010E940B2B892BA9F11A83098327
:1044300088EB91E09C838B8387E08D838E818078ED
:1044400080688E83BE016F5F7F4FCE018F579F4F75
:104450000E944B13CB57DF4F88819981C558D040BC
:10446000892B69F0CF57DF4F08811981C158D0409F
:104470006BE671E0C8010E94FB2A892B51F490E0A1
:1044800080E00E94F015CE018F579F4F0E94740C60
:10449000BBCFC801F6CFC255DF4F19830883CE5A70
:1044A000D04083EF91E0C055DF4F99838883C05B94
:1044B000D04084E0CE54DF4F8883C25BD040CD54DF
:1044C000DF4F8881C35BD04080788068CD54DF4F58
:1044D0008883C35BD040CE0182559F4F0E945E0F00
:1044E0007C018E010F5F1F4FCC24C394D801CC9266
:1044F00063E671E0C80105960E943613F801118247
:10450000128213821482055F1F4F0615170571F77B
:10451000D3011C92E114F10409F40AC2F701848169
:10452000803409F005C26EED72E080810E940B05B7
:10453000CF57DF4F688379838A839B83C158D040EC
:104540008EED92E0CB57DF4F99838883C558D040DA
:1045500026E0FE01EF57FF4FDE01A657BF4F019047
:104560000D922A95E1F7CF57DF4F48815981C15805
:10457000D040CD57DF4F2881C358D040C657DF4FBA
:1045800059834883CA58D040C457DF4F2883CC583A
:10459000D040C257DF4F99838883CE58D04086E001
:1045A000FE01E657FF4FDE01A057BF4F01900D926D
:1045B0008A95E1F78E010A561F4F86E0FE01E0570B
:1045C000FF4FD80101900D928A95E1F72BE0C22EA2
:1045D00032E0532E9924939444E0842E53E0452EE8
:1045E000D801ED91FC911197309709F4A1C114966F
:1045F0008D919C91C456DF4FF983E883CC59D0400C
:10460000C256DF4F99838883CE59D040848186304B
:1046100009F18A30D1F18C3009F46FC083FFA8C052
:10462000CE0184569F4F0E948808F30120812830D4
:1046300008F05CC0C29E90011124E1E0F0E0EC0FB4
:10464000FD1FE20FF31F4082618372838383948393
:10465000C90111C02081F3018081883008F046C073
:10466000C89EC0011124E1E0F0E0EC0FFD1FE80F4F
:10467000F91F10822183059663E671E021E030E0A6
:104680002C0F3D1F820F931F2BC080819181A2812F
:10469000B3818115E0E89E07A105B10508F040C08F
:1046A000D3012C91283010F5C29E90011124E1E035
:1046B000F0E0EC0FFD1FE20FF31F9082092E000CBB
:1046C000AA0BBB0B81839283A383B483C901059694
:1046D00063E671E0E1E0F0E0EC0FFD1F8E0F9F1F3D
:1046E0000E942C13D3018C918F5F8C93F80164810D
:1046F0007581C8010E94E90873CF80819181A281F0
:10470000B381AC01BD0150586F4F7F4F411551052A
:104710006140710528F2482F392F2A2F5B2F06C0E0
:10472000482F392F2A2F5B2FB7FD13C0F30180814B
:104730008830E0F6C89EC0011124E1E0F0E0EC0F03
:10474000FD1FE80FF91F9082418332832383548336
:1047500092CFF3018081883048F6C89EC0011124B1
:10476000E1E0F0E0EC0FFD1FE80FF91F5082ECCF05
:104770009CEF980F923008F05EC0CF010E94BC0EF3
:10478000F3012081283008F0B1CFE1E0F0E0EC0F38
:10479000FD1FC29EE00DF11D11248082611571057F
:1047A00011F463E671E0CE018F579F4F0E943613DC
:1047B000F3018081A82EB12CEE24E394F12CEC0EB1
:1047C000FD1EC89EE00CF11C1124D70115968D9199
:1047D0009C911697CF57DF4F68817981C158D0409F
:1047E000009709F472C06115710509F46CC0179641
:1047F0004D915C91CB57DF4F28813981C558D0400E
:104800004217530708F45FC00E94042BCB57DF4FB9
:1048100088819981C558D040F70192878187CB570D
:10482000DF4F19821882C558D040CE018F579F4F55
:104830000E94740C57CF823009F49FCF63E671E079
:10484000CE018F579F4F0E943613C456DF4F6881A9
:1048500079818A819B81CC59D040AE014F575F4FFF
:104860000E948112D3018C91883038F5C89EC00116
:104870001124E1E0F0E0EC0FFD1FE80FF91F80824A
:104880000596E1E0F0E0EC0FFD1F8E0F9F1FCF5764
:10489000DF4F68817981C158D0406115710509F4F5
:1048A00044C0CB57DF4F48815981C558D0400E9442
:1048B0000B13D3018C918F5F8C93CE018F579F4F39
:1048C0000E94740C13CF0E94AC29CA9CF001CB9CAF
:1048D000F00D112421E030E02C0F3D1FE20FF31FFB
:1048E000CF57DF4F88819981C158D0409683858307
:1048F000CD57DF4F88819981C358D04090878783F7
:10490000CB57DF4F88819981C558D04092878187E6
:10491000CF57DF4F19821882C158D040CD57DF4F93
:1049200019821882C358D0407ACF0E94620CC1CF3E
:104930000EED12E0CE55DF4F19830883C25AD040E6
:1049400088EB91E0CC55DF4F99838883C45AD040DF
:1049500087E0CA55DF4F8883C65AD040C955DF4F1C
:104960008881C75AD04080788068C955DF4F8883D6
:10497000C75AD040BE016E557F4FCE0188559F4F1C
:104980000E944B13CA56DF4F19830883C659D04083
:104990008FEC91E0C856DF4F99838883C859D04087
:1049A00083E0C656DF4F8883CA59D040C556DF4FD3
:1049B0008881CB59D04080788068C556DF4F888386
:1049C000CB59D040BE016A567F4FCE0184569F4FCF
:1049D0000E944B130E941701C056DF4F88819981B6
:1049E000C05AD040892B09F44EC0C456DF4FE8802E
:1049F000F980CC59D0400091010310910203C455B5
:104A0000DF4F88819981CC5AD040892B09F45EC050
:104A1000C855DF4FA880B980C85AD0406BE671E016
:104A2000C5010E94FB2A892B09F450C0011511050C
:104A300009F44AC0B501D8018D919C910E94FB2ACE
:104A4000892BF1F5B701F801828193810E94FB2A3D
:104A5000892BB1F5D8011496ED91FC9181E0309746
:104A600019F0CE0101960995C456DF4F688179810E
:104A7000CC59D040482FC855DF4F88819981C85AFA
:104A8000D0400E94BB160E942B01CE0184569F4F3E
:104A90000E94740CCE0188559F4F0E94740C8E01A9
:104AA000075A1F4F9E012F5F3F4F79010B5011098D
:104AB000C80105960E94740CE016F106B9F7A4CC63
:104AC000F80106811781B2CF85E0CECFC12C011548
:104AD000110501F1B701D80112968D919C910E94A8
:104AE000FB2A892B91F4D8011496ED91FC9181E079
:104AF000309719F0CE0101960995482FB701F801BA
:104B0000808191810E94BB16CD2CD80116960D9103
:104B10001C91DDCFC110B7CF0E94D40A0EED12E078
:104B2000CF57DF4F19830883C158D0408BE791E0FE
:104B3000CD57DF4F99838883C358D04089E0CB5746
:104B4000DF4F8883C558D040CA57DF4F8881C65889
:104B5000D04080788068CA57DF4F8883C658D040DD
:104B60006EEF72E0CE018F579F4F0E94BE158DE20F
:104B700091E0CC54DF4F99838883C45BD040CF57FA
:104B8000DF4F19830883C158D04085E891E0CD57A5
:104B9000DF4F99838883C358D0408CE0CB57DF4FD9
:104BA0008883C558D040CA57DF4F8881C658D04047
:104BB00080788068CA57DF4F8883C658D040BE01CE
:104BC0006C547F4FCE018F579F4F0E940E15CF57C9
:104BD000DF4F19830883C158D04082E991E0CD5757
:104BE000DF4F99838883C358D04087E0CB57DF4F8E
:104BF0008883C558D040CA57DF4F8881C658D040F7
:104C000080788068CA57DF4F8883C658D040CE016D
:104C10008F579F4F0E947F14DC01CB01C056DF4F9E
:104C200068817981C05AD0407F77C456DF4F488170
:104C3000CC59D040C356DF4F5881CD59D040272F93
:104C40002F77E32DE0783E2E322AE89437F89D0145
:104C5000732D0E941B0CCF57DF4F19830883C15857
:104C6000D04085EA91E0CD57DF4F99838883C358C0
:104C7000D0408BE0CB57DF4F8883C558D040CA5710
:104C8000DF4F8881C658D04080788068CA57DF4F90
:104C90008883C658D0406DE073E0CE018F579F4F98
:104CA0000E9498140E947E0EEECE80E090E0892B48
:104CB00011F40C94171C0E947E03882311F40C94A9
:104CC000171C0E9400000C94171CCF93DF93C09117
:104CD000DE02D091DF028091E1029091E202009722
:104CE00059F0FC01208131813093E2022093E102EE
:104CF000BE010E94CA0AEFCF8091DE029091DF02CE
:104D0000DF91CF910C944901FB01DC0104C08D912E
:104D10000590801921F441505040C8F7881B990B29
:104D20000895FB01DC0102C005900D9241505040F6
:104D3000D8F70895FC0105900020E9F7809590953B
:104D40008E0F9F1F0895FC01059061507040011067
:104D5000D8F7809590958E0F9F1F08950E94F0269A
:104D600008F481E00895E89409C097FB3EF490951B
:104D70008095709561957F4F8F4F9F4F9923A9F034
:104D8000F92F96E9BB279395F695879577956795C3
:104D9000B795F111F8CFFAF4BB0F11F460FF1BC007
:104DA0006F5F7F4F8F4F9F4F16C0882311F096E99A
:104DB00011C0772321F09EE8872F762F05C0662348
:104DC00071F096E8862F70E060E02AF09A95660F01
:104DD000771F881FDAF7880F9695879597F90895BA
:104DE000990F0008550FAA0BE0E8FEEF16161706FC
:104DF000E807F907C0F012161306E407F50798F064
:104E0000621B730B840B950B39F40A2661F0232B7C
:104E1000242B252B21F408950A2609F4A140A695F8
:104E20008FEF811D811D08950E9427270C949827DC
:104E30000E948A2738F00E94912720F0952311F0D4
:104E40000C9481270C94872711240C94CC270E9462
:104E5000A92770F3959FC1F3950F50E0551F629FEE
:104E6000F001729FBB27F00DB11D639FAA27F00DC3
:104E7000B11DAA1F649F6627B00DA11D661F829FEA
:104E80002227B00DA11D621F739FB00DA11D621FCF
:104E9000839FA00D611D221F749F3327A00D611DEC
:104EA000231F849F600D211D822F762F6A2F1124CE
:104EB0009F5750409AF0F1F088234AF0EE0FFF1F01
:104EC000BB1F661F771F881F91505040A9F79E3F58
:104ED000510580F00C9481270C94CC275F3FE4F3BC
:104EE000983ED4F3869577956795B795F795E795AE
:104EF0009F5FC1F7FE2B880F911D9695879597F9B7
:104F0000089597F99F6780E870E060E008959FEF4B
:104F100080EC089500240A94161617061806090650
:104F2000089500240A94121613061406050608951F
:104F3000092E0394000C11F4882352F0BB0F40F4A7
:104F4000BF2B11F460FF04C06F5F7F4F8F4F9F4FE7
:104F5000089557FD9058440F551F59F05F3F71F069
:104F60004795880F97FB991F61F09F3F79F08795D0
:104F70000895121613061406551FF2CF4695F1DF59
:104F800008C0161617061806991FF1CF86957105E9
:104F9000610508940895E894BB2766277727CB011D
:104FA00097F908950E941428A59F900DB49F900D25
:104FB000A49F800D911D112408952F923F924F922E
:104FC0005F926F927F928F929F92AF92BF92CF9299
:104FD000DF92EF92FF920F931F93CF93DF93CDB7A2
:104FE000DEB7CA1BDB0B0FB6F894DEBF0FBECDBF1A
:104FF00009942A88398848885F846E847D848C84EB
:105000009B84AA84B984C884DF80EE80FD800C81F3
:105010001B81AA81B981CE0FD11D0FB6F894DEBFD6
:105020000FBECDBFED010895A29FB001B39FC00197
:10503000A39F700D811D1124911DB29F700D811DC4
:105040001124911D08955058BB27AA270E943B2880
:105050000C9498270E948A2738F00E94912720F00C
:1050600039F49F3F19F426F40C9487270EF4E09549
:10507000E7FB0C948127E92F0E94A92758F3BA1760
:10508000620773078407950720F079F4A6F50C945E
:10509000CB270EF4E0950B2EBA2FA02D0B01B901F2
:1050A00090010C01CA01A0011124FF27591B99F09E
:1050B000593F50F4503E68F11A16F040A22F232FAA
:1050C000342F4427585FF3CF469537952795A795FA
:1050D000F0405395C9F77EF41F16BA0B620B730BA1
:1050E000840BBAF09150A1F0FF0FBB1F661F771F12
:1050F000881FC2F70EC0BA0F621F731F841F48F4C7
:10510000879577956795B795F7959E3F08F0B0CF4F
:105110009395880F08F09927EE0F97958795089536
:105120000E94B12788F09F5798F0B92F9927B7515F
:10513000B0F0E1F0660F771F881F991F1AF0BA953B
:10514000C9F714C0B13091F00E94CB27B1E00895A7
:105150000C94CB27672F782F8827B85F39F0B93F99
:10516000CCF3869577956795B395D9F73EF49095EE
:105170008095709561957F4F8F4F9F4F08950E9446
:10518000F02608F48FEF0895DB018F939F930E9420
:10519000D227BF91AF91A29F800D911DA39F900D2B
:1051A000B29F900D11240895AA1BBB1B51E107C0AB
:1051B000AA1FBB1FA617B70710F0A61BB70B881FA7
:1051C000991F5A95A9F780959095BC01CD01089536
:1051D000A1E21A2EAA1BBB1BFD010DC0AA1FBB1FFB
:1051E000EE1FFF1FA217B307E407F50720F0A21B6D
:1051F000B30BE40BF50B661F771F881F991F1A94DA
:1052000069F760957095809590959B01AC01BD0103
:10521000CF010895EE0FFF1F0590F491E02D099442
:105220000F931F93CF93DF938230910510F482E0A8
:1052300090E0E0911303F091140330E020E0B0E03F
:10524000A0E0309799F42115310509F44AC0281BD4
:10525000390B24303105D8F58A819B8161157105A0
:1052600089F1FB0193838283FE0111C0408151814A
:105270000281138148175907E0F04817590799F43C
:10528000109761F012960C93129713961C93329616
:10529000CF01DF91CF911F910F91089500931303D8
:1052A00010931403F4CF2115310551F04217530721
:1052B00038F0A901DB019A01BD01DF01F801C1CF7E
:1052C000EF01F9CF9093140380931303CDCFFE0128
:1052D000E20FF31F81939193225031093983288380
:1052E000D7CF2091110330911203232B41F4209149
:1052F0000401309105013093120320931103209192
:105300000201309103012115310541F42DB73EB75B
:105310004091060150910701241B350BE0911103C8
:10532000F0911203E217F307A0F42E1B3F0B28178E
:10533000390778F0AC014E5F5F4F2417350748F00E
:105340004E0F5F1F5093120340931103819391936B
:105350009FCFF0E0E0E09CCFCF93DF930097E9F0A0
:10536000FC01329713821282A0911303B0911403AF
:10537000ED0130E020E01097A1F420813181820F0F
:10538000931F20911103309112032817390709F058
:1053900061C0F0931203E0931103DF91CF91089560
:1053A000EA01CE17DF07E8F54A815B819E014115CE
:1053B0005105B1F7E901FB83EA8349915991C40F83
:1053C000D51FEC17FD0761F4808191810296840F4F
:1053D000951FE90199838883828193819B838A83C6
:1053E000F0E0E0E012968D919C9113970097B9F54B
:1053F0002D913C911197CD010296820F931F209120
:105400001103309112032817390739F6309751F5F7
:105410001092140310921303B0931203A09311037C
:10542000BCCFD383C28340815181840F951FC8179D
:10543000D90761F44E5F5F4F88819981480F591FEA
:10544000518340838A819B81938382832115310517
:1054500009F0B0CFF0931403E09313039ECFFD0146
:10546000DC01C0CF13821282D7CFB0E0A0E0EBE323
:10547000FAE20C94DF278C01009751F4CB010E94D3
:1054800010298C01C801CDB7DEB7E0E10C94FB27F1
:10549000FC01E60FF71F9C0122503109E217F307C8
:1054A00008F49DC0D901CD91DC911197C617D7079B
:1054B00098F0C530D10530F3CE01049786179707D1
:1054C00008F3C61BD70B2297C193D1936D937C939E
:1054D000CF010E94AC29D6CF5B01AC1ABD0A4C01AA
:1054E0008C0E9D1EA0911303B0911403512C412CDE
:1054F000F12CE12C109731F580911103909112035A
:105500008815990509F05CC04616570608F058C082
:105510008091020190910301009741F48DB79EB7ED
:105520004091060150910701841B950BE817F9077C
:1055300008F055C0F0931203E0931103F901718351
:105540006083A0CF8D919C91119712966C901297C9
:1055500013967C901397A815B90559F56C0142E094
:10556000C40ED11CCA14DB0420F1AC014A195B093A
:10557000DA011296159780F062827382518340831C
:10558000D9016D937C93E114F10471F0D701139666
:10559000FC93EE93129776CF22968C0F9D1FF90104
:1055A00091838083F301EFCFF0931403E09313030F
:1055B00069CF4816590608F42C017D01D3019ACF12
:1055C000CB010E9410297C01009749F0AE01B8017F
:1055D0000E94F22AC8010E94AC29870153CF10E033
:1055E00000E050CFFB01DC0102C001900D92415060
:1055F0005040D8F70895FB01DC018D91019080198E
:105600000110D9F3990B0895FB01DC0101900D9273
:105610000020E1F70895FB0151915523A9F0BF0146
:10562000DC014D9145174111E1F759F4CD0101908D
:10563000002049F04D9140154111C9F3FB01411182
:10564000EFCF81E090E00197089510E0C9ECD0E041
:1056500004C0FE010E940A292196CA3CD107C9F75D
:04566000F894FFCFEC
:0656640000000000000040
:10566A000C0100001503800000000000430C7C0CB4
:10567A0078137E0072006800A50096008800560123
:10568A00CC00C400BB00B3002D0100000000B4032D
:10569A001403410301047203500364035365702029
:1056AA00313920323032362032303A33383A3337D1
:1056BA00002F2F272722225C5C6208660C6E0A7272
:1056CA000D7409005C7530303030006E756C6C00FA
:1056DA00747275650066616C7365006170706172E1
:1056EA006174757300626F6479526573706F6E735B
:1056FA0065007265717565737400676574416374DA
:10570A00696F6E7300617070617261747573494478
:10571A0000616374696F6E00656C656D656E740017
:10572A006C6F636F6D6F74696F6E006C6564006D8A
:10573A00736700676574506572636570747300708F
:10574A00657263657074007479706500737461744E
:10575A0075730061726773006765744B6E6F774883
:10576A006F7700736B696C6C00636F6E7465787425
:0E577A0000706C616E00656D626F64790000F6
:00000001FF
