:100000000C94CA000C94F2000C94F2000C94F200D0
:100010000C94F2000C94F2000C94F2000C94F20098
:100020000C94F2000C94F2000C94F2000C94F20088
:100030000C94F2000C94F2000C94F2000C94F20078
:100040000C94DA190C94F2000C94A8190C948219EF
:100050000C94F2000C94F2000C94F2000C94F20058
:100060000C94F2000C94F200756E6368616E676523
:100070006400756E617661696C61626C65007065C3
:10008000726365707465640065787465726F63652A
:100090007074696F6E0070726F7072696F636570F3
:1000A00074696F6E00696E7465726F6365707469F0
:1000B0006F6E00696E76616C69640072656A656373
:1000C00074656400616C726561647900756E61626B
:1000D0006C650000000000240027002A00756E6B8C
:1000E0006E6F776E00706572636570746564007022
:1000F000726F7072696F63657074696F6E00000073
:100100000000250028002B0000000000230026002E
:10011000290004040404040404040202020202028A
:1001200003030303030301020408102040800102BB
:10013000040810200102040810200000000800023A
:100140000100000304070000000000000000756EBD
:100150006B6E6F776E00657865637574656400CD4E
:10016000CCCC3D0AD7233C17B7D13877CC2B32956E
:1001700095E6241FB14F0A000020410000C842004C
:10018000401C4620BCBE4CCA1B0E5AAEC59D740016
:10019000241A4D2611241FBECFEFD8E0DEBFCDBFFD
:1001A00023E0ACE3B2E001C01D92A533B207E1F752
:1001B00012E0A0E0B1E0EAE3F6E502C005900D929E
:1001C000AC33B107D9F710E0C9ECD0E004C02197F7
:1001D000FE010E94F228C83CD107C9F70E943C1BCF
:1001E0000C940D2B0C940000CF93C82F8091F0023B
:1001F0009091F102DC01ED91FC910084F185E02DFC
:100200000995181619067CF48091F0029091F1027C
:10021000DC01ED91FC910284F385E02D099521E04C
:10022000C817190609F020E0822FCF910895809118
:10023000FD0281110FC08091F0029091F102DC016A
:10024000ED91FC910190F081E02D60EC099581E049
:100250008093FD0208958091FD028823C9F080916A
:10026000F0029091F102DC01ED91FC910190F0819E
:10027000E02D60EC09958091F0029091F102DC0193
:10028000ED91FC910680F781E02D09951092FD0219
:100290000895FF920F931F93CF93DF938C01F12C5E
:1002A000609113037091140380911503F816C8F43C
:1002B00084E0F89EE0011124C60FD71F6A817B817C
:1002C0006115710541F0D801ED91FC910280F38137
:1002D000E02DC80109951B821A8218821982F394B5
:1002E000DFCF109215038FEF80931703B3E06330D5
:1002F0007B0789F0D801ED91FC910280F381E02D1C
:10030000C801099583E093E090931403809313034D
:1003100084E080931603DF91CF911F910F91FF909E
:1003200008952F923F924F925F926F927F928F9299
:100330009F92AF92BF92CF92DF92EF92FF920F9374
:100340001F93CF93DF9300D000D000D01F92CDB782
:10035000DEB79A8389834A015B0120E836E948E1E8
:100360005BE4CB01B4010E94A72887FD89C004E1AA
:1003700010E080E290E09C838B83312C212CF801EB
:10038000E958FE4F2591359145915491C501B4012D
:100390000E94A72887FD11C0F801E15AFE4F259160
:1003A000359145915491C501B4010E94FC264B0141
:1003B0005C01AB81BC812A0E3B1EEB81FC81F59573
:1003C000E795FC83EB83045011090C3FFFEF1F07F7
:1003D000B1F677247A9420E030E0A901C501B40198
:1003E0000E94A72818160CF054C02CEA35EC47E2FE
:1003F00057E3C501B4010E94962618160CF449C0B3
:10040000972DA4E09A0280011124F12CE12CF8012F
:10041000E15AFE4F6F0109581E4FFFEF7F1609F496
:1004200038C0F601EE0DFF1D65917591859194918F
:1004300020E030E040E251E40E94FC26A501940156
:100440000E94A72818168CF4F801EE0DFF1D2591C7
:10045000359145915491C501B4010E94FC264B0190
:100460005C018B819C81281A390AAB81BC81B595CE
:10047000A795BC83AB837A94B4E0EB1AF108CDCF97
:1004800080E290E09C838B8335E0732E312C212C0D
:10049000A2CFC501B4010E9478286B017C012B0119
:1004A0003C0180E492E4AFE0B0E08B839C83AD83B9
:1004B000BE8396E09F83AAE04A165104610471044A
:1004C000E0F06B817C818D819E812AE030E040E00C
:1004D00050E00E94D0282B833C834D835E83BF81F4
:1004E000B150BF83C301B2012AE030E040E050E0E8
:1004F0000E94D02829013A01DECFC701B6010E942F
:100500009B269B01AC01C501B4010E940B284B0145
:100510005C016B817C818D819E810E949B269B0169
:10052000AC01C501B4010E94FC262B013C010E94D4
:1005300078284B015C010E949B269B01AC01C30102
:10054000B2010E940B289B01AC010E940C280E9462
:100550007828860E971EA81EB91E8B819C81AD81BE
:10056000BE8188169906AA06BB06C0F09FEFC91A7D
:10057000D90AE90AF90A2114310439F1AAE0CA16A4
:10058000D104E104F10408F1BFEF2B1A3B0A812CDE
:10059000912C5401C12CD12C7601C3948AE0482EB1
:1005A000512C612C712CC501B401A30192010E9450
:1005B000D028672B682B692B61F4EF811E164CF451
:1005C00049015A01E150EF83EECF812C912C540167
:1005D000E5CFA981BA81CD92DD92ED92FC9213977D
:1005E000FD0184829582A682B782318620868F8122
:1005F0008287CD0127960FB6F894DEBF0FBECDBF20
:10060000DF91CF911F910F91FF90EF90DF90CF90EE
:10061000BF90AF909F908F907F906F905F904F9022
:100620003F902F9008950895AF92BF92CF92DF929E
:10063000EF92FF920F931F93CF93DF936C017B0197
:100640008B01040F151FEB015E01AE18BF08C01728
:10065000D10759F06991D601ED91FC910190F0819B
:10066000E02DC6010995892B79F7C501DF91CF915E
:100670001F910F91FF90EF90DF90CF90BF90AF90C0
:100680000895FC01538D448D252F30E0842F90E098
:10069000821B930B541710F0CF960895019708957D
:1006A000FC01918D828D981761F0A28DAE0FBF2F46
:1006B000B11D5D968C91928D9F5F9F73928F90E09C
:1006C00008958FEF9FEF0895FC01918D828D98170B
:1006D00031F0828DE80FF11D858D90E008958FEF48
:1006E0009FEF0895FC01918D228D892F90E0805C11
:1006F0009F4F821B91098F739927089589E492E097
:100700000E94720321E0892B09F420E0822F0895D2
:1007100080E090E0892B29F00E947E0381110C94E7
:1007200000000895FC01A48DA80FB92FB11DA35A94
:10073000BF4F2C91848D90E001968F739927848F01
:10074000A689B7892C93A089B1898C918370806424
:100750008C93938D848D981306C00288F389E02DC5
:1007600080818F7D80830895EF92FF920F931F9376
:10077000CF93DF93EC0181E0888F9B8D8C8D981354
:100780001AC0E889F989808185FF15C09FB7F89460
:10079000EE89FF896083E889F989808183708064AC
:1007A00080839FBF81E090E0DF91CF911F910F91F7
:1007B000FF90EF900895F62E0B8D10E00F5F1F4F06
:1007C0000F731127E02E8C8D8E110CC00FB607FC15
:1007D000FACFE889F989808185FFF5CFCE010E94A3
:1007E0009203F1CFEB8DEC0FFD2FF11DE35AFF4F7C
:1007F000F0829FB7F8940B8FEA89FB898081806231
:10080000CFCFCF93DF93EC01888D8823B9F0AA89ED
:10081000BB89E889F9898C9185FD03C0808186FDBB
:100820000DC00FB607FCF7CF8C9185FFF2CF80810A
:1008300085FFEDCFCE010E949203E9CFDF91CF91EA
:100840000895833081F028F4813099F08230A9F046
:1008500008958730A9F08830C9F08430B1F48091D0
:1008600080008F7D03C0809180008F77809380000F
:10087000089584B58F7784BD089584B58F7DFBCFAF
:100880008091B0008F778093B00008958091B00080
:100890008F7DF9CF2FB7F894609141027091420299
:1008A00080914302909144022FBF08950F931F93AC
:1008B000CF93DF93EC010E944A04688779878A8787
:1008C0009B87E881F9810284F385E02DCE010995AB
:1008D00097FF15C00E944A04088519852A853B8523
:1008E000601B710B820B930B0C811D812E813F814C
:1008F000601771078207930720F38FEF9FEFDF9157
:10090000CF911F910F9108956F3FA9F0E62FE295C7
:10091000EF7044E0E49F90011124DC01ED91FC9123
:10092000E20FF31F6F7082819381B6E06B9F800DA1
:10093000911D1124089590E080E00895CF93C82F71
:10094000CB016C2F45960E9484042FEF009711F085
:10095000FC012581BC018C2F922FCF910895982FF7
:1009600080336CF08A3324F08F3524F08B3724F4F5
:1009700081E0089581341CF081E09B350CF080E02B
:100980000895CF93DF93EC0188819981DC01ED918B
:10099000FC910190F081E02D09952A813B81820F25
:1009A000931F9B838A83DF91CF910895CF93DF9329
:1009B000EC0188819981DC01ED91FC910280F38149
:1009C000E02D09952A813B81820F931F9B838A83A7
:1009D000DF91CF9108958F929F92AF92BF92CF9265
:1009E000DF92EF92FF920F931F93CF93DF93CDB7D8
:1009F000DEB766970FB6F894DEBF0FBECDBF6C01B1
:100A00008E01095E1F4F78018AE0882E912CA12C5F
:100A1000B12CCB01BA01A50194010E94D028942FDA
:100A2000852F605DF80162938F01A901692F782FEE
:100A3000411551056105710561F7A7014E1B5F0B5B
:100A4000BF01C6010E94D60466960FB6F894DEBFB9
:100A50000FBECDBFDF91CF911F910F91FF90EF900F
:100A6000DF90CF90BF90AF909F908F900895FC0142
:100A70008485811114C0A781B085818592852FEF6F
:100A80003FEFA817B90730F4CD010196908787830F
:100A90002C9130E037FD20E0238781E08487838537
:100AA00008951F93CF93DF93EC01162F0E94370513
:100AB000811306C01C8681E0DF91CF911F910895BC
:100AC00080E0FACF0F931F93CF93DF938C01EB015C
:100AD0008991882369F0C8010E943705882379F03D
:100AE000FE013197908198130DC0F8011486F0CF64
:100AF00090E080E0DF91CF911F910F91089582E007
:100B000090E0F8CF83E090E0F5CFCF93DF93EC0156
:100B1000CE010E9437058B304CF489305CF4882379
:100B200059F081E08E8390E080E00BC08D3011F0B1
:100B30008032B9F71C86ECCF8E81811105C081E02F
:100B400090E0DF91CF91089582E090E0FACFCF93CB
:100B5000DF93DB01FC01808191810097E1F0129627
:100B60002C91129713964C911397342F3F77FC01D9
:100B700043814217130671F7ED91FC911197EC0137
:100B800024962E0F3F1FE217F30729F05191499148
:100B90005417C9F3DFCFDF91CF910895DC0152964E
:100BA0009C915297915084E0989F90011124509607
:100BB000ED91FC91E20FF31F228133812115310564
:100BC00079F041818081481758F481E0840F818356
:100BD00086E0489F200D311D11242115310521F497
:100BE00060E070E08FEF0895B901892F8295807FD2
:100BF000840F08950F931F93CF93DF9300D000D0FD
:100C000000D0CDB7DEB7DB01ED91FC9111971296C4
:100C10000D911D912D913C911597DC011296FC933D
:100C2000EE931197FC010383148325833683508749
:100C3000478326960FB6F894DEBF0FBECDBFDF9177
:100C4000CF911F910F9108954F925F926F927F9273
:100C50008F929F92AF92BF92CF92DF92EF92FF92CC
:100C60000F931F93CF93DF9300D000D01F92CDB787
:100C7000DEB7DC012C912B32E1F12D32D9F5019652
:100C8000EE24E394FC01208130ED320F3A3010F075
:100C90002E3291F58C0160E070E0CB01F8012191DA
:100CA00030ED832E820E39E0381508F444C06A39DD
:100CB00049E97407840749E1940708F046C0AAE0AF
:100CC000B0E09B01AC010E94BA27912CB12CA12C61
:100CD0002401350140945094609470944616570650
:100CE0006806790690F1680D791D8A1D9B1D8F019C
:100CF000D5CF0196E12CC6CF198229813A814B814B
:100D00005C816D8170E080E090E00F900F900F901B
:100D10000F900F90DF91CF911F910F91FF90EF9067
:100D2000DF90CF90BF90AF909F908F907F906F900B
:100D30005F904F900895211108C0EE2051F161306D
:100D40007105810550E89507A0F0F12CBAE08B2ED3
:100D5000912CA12CB12C6115710530E88307910508
:100D6000F8F0A50194010E94D028CA01B901F394BA
:100D7000F2CF22E029839B01AC0188279927DC016F
:100D8000821B930BA40BB50B8A839B83AC83BD831F
:100D9000B4CF23E029836A837B838C839D83ADCF8B
:100DA000F801D8012D918D0130ED320F3A3010F459
:100DB000F394F6CF2E3201F58F010F5F1F4FF8012C
:100DC0000F5F1F4F2081A0EDDA2ED20EB9E0BD15C6
:100DD00098F06C3CECEC7E07ECE08E07910578F720
:100DE000AAE0B0E09B01AC010E94BA276D0D711D15
:100DF000811D911DFA94E3CF20812F7D10E000E04A
:100E0000253409F050C021812D32B1F53296CC2421
:100E1000C394DF0110E000E02F2D0F2C000C330BEA
:100E20005AE0B52EFD01DD9040ED4D0D4A30B0F594
:100E3000B09EA001B19E500D11240D2DDD0C110BA3
:100E400000531109040F151FA801420F531F473209
:100E5000510544F3CC20B9F080E090E0A0E0B0E888
:100E6000E11003C080E090E0DC0121E029838A8367
:100E70009B83AC83BD8341CF2B3219F03196C12CBB
:100E8000C8CF3296FCCF80E090E0A0E8BFEFE11041
:100E9000ECCF80E090E0A0E8BFE7E7CFCC2019F0EE
:100EA0001195019511092081211126CF0F0D111DDA
:100EB000F7FC1A950E949B2637E7C32E31E0D32E0C
:100EC000101611063CF01195019511094FE5C42E3D
:100ED00041E0D42EF12C0115110591F000FF0CC05A
:100EE00024E0F29EF0011124EC0DFD1D25913591B9
:100EF000459154910E94FC2615950795F394EBCFEC
:100F0000E110905821E029836A837B838C839D8341
:100F1000F4CECF93DF9300D000D01F92CDB7DEB7D1
:100F2000FC01A081B181109709F43DC01496EC91A9
:100F30001497E250ED3008F036C0F0E0EE55F84F6F
:100F40000C94F228C207D307D707DA07AF07D307F5
:100F5000D307D307B607D307BB07D307DE076C91C8
:100F600070E090E080E00E949B262CC06D917D9106
:100F70008D919C91F8CF6D917D918D919C910E9466
:100F80009D2620C0CD010E9424063A834B835C83BA
:100F90006D836A817B818C819D81223081F3233036
:100FA00011F3213079F060E070E0CB010BC08D913E
:100FB0009C91E9CF8D919C910496E5CF6D917D91A7
:100FC0008D919C910F900F900F900F900F90DF914B
:100FD000CF9108951F93CF93DF93EC01CB011B8139
:100FE000612F45960E948404998388831A83009711
:100FF00019F0FC0185818B83DF91CF911F910895BA
:10100000CF92DF92EF92FF920F931F93CF93DF93D4
:101010007C016B018A01FC01C081D1814F3F5105E8
:1010200009F0B0F4E881F9810480F581E02D4B5F8F
:101030005F4FCE010995009759F0FC010383DF91C2
:10104000CF911F910F91FF90EF90DF90CF90089577
:10105000E881F9810280F381E02DB601CE01099586
:1010600081E0F701828390E080E0E9CF1F93CF9386
:10107000DF93EC01162F6A817B816115710589F080
:101080004C815D81FB0183818417150651F4440F67
:10109000551F4F5F5F4F888199810E9400089B8395
:1010A0008A838A819B81009759F02C813D81A90117
:1010B0004F5F5F4F5D834C83820F931FFC0114834E
:1010C000DF91CF911F9108959F92AF92BF92CF92DF
:1010D000DF92EF92FF920F931F93CF93DF9300D095
:1010E00000D01F92CDB7DEB78C010E943705D82EF5
:1010F000F8011486F12CE12C60EFC62EC8010E9485
:101100003705F8011486D81609F4B3C0811113C04D
:1011100082E090E00F900F900F900F900F90DF9172
:10112000CF911F910F91FF90EF90DF90CF90BF90E4
:10113000AF909F9008958C3509F099C0C8010E9426
:101140003705882329F3E1E5F1E0853709F083C00D
:10115000F801148654E0952EB12CA12CC8010E94F0
:1011600037058823A9F2813434F48053803130F07C
:1011700083E090E0CFCF8F7D8753F8CF44E0AA0C77
:10118000BB1C4A95E1F7A82AF80114869A9491109D
:10119000E5CFC501985D8115944020F47501F3E019
:1011A000FF22ACCFC5019C5D81159440A8F483E07B
:1011B000B822B701762F6627770F770F6A297B2928
:1011C00090E080E00196603871058105910540F45A
:1011D000C8010E94360892CFB50190E080E0F3CFBD
:1011E0001982262F2F7320682A8326E096958795EB
:1011F000779567952A95D1F76032710580F4606C18
:101200006B835E01E4E0AE0EB11CF50162915F01FB
:10121000662309F473CFC8010E943608F6CF262F43
:101220002F7320682B8386E0769567958A95E1F782
:101230006031710538F4606E6C835E01F5E0AF0ECD
:10124000B11CE3CF60686C83CD825E0126E0A20E04
:10125000B11CDBCF32969081992309F489CF891391
:10126000F9CF8181882309F483CFF8011486682F90
:10127000AFCF82819381892B19F484E090E04ACF2B
:1012800090E080E047CFAF92BF92CF92DF92EF9293
:10129000FF920F931F93CF93DF9300D000D0CDB771
:1012A000DEB7DC0112962D913C9113972C5F3F4FD6
:1012B00014964D915C914430510580F57901D90126
:1012C000E0E0142F022FFA2FF21BF11730F4DD901B
:1012D000F1E0D110F0E0EF2BF6CFE1111FC082E07A
:1012E000FB0184838E2D801B811728F4D7018D91FB
:1012F0007D018193F7CF640F751FFB0110820F9062
:101300000F900F900F90DF91CF911F910F91FF9051
:10131000EF90DF90CF90BF90AF9008957B018C014C
:10132000420F531FDA011C92FC01C080D180A480BF
:10133000B5803A832983AB828B2D8F778C83BE0156
:101340006F5F7F4FC60103960E94A7050097D9F4EF
:10135000D80112966D917C91A501C6010E940008EA
:10136000D801ED91FC9123813481DC012D933C93D4
:1013700094838383F8011382128225E0F70124838A
:1013800091838083BCCFDC0112962C9112972F5F42
:1013900012962C93F2CFDB01ED91FC911197028014
:1013A000F381E02DBC01CD010994CF93DF938091AF
:1013B000FE029091FF020E94490110920003C09129
:1013C000FE02D091FF0280910103909102030097E9
:1013D00059F0FC01208131813093020320930103F5
:1013E000BE010E94CB09EFCF10921C03DF91CF9179
:1013F0000895AF92BF92CF92DF92EF92FF920F9338
:101400001F93CF93DF93EC018B018C8180FF24C06D
:10141000A881B981FB018381948130E020E00097AD
:10142000D9F0A817B907D1F5F8016081718112963A
:101430008C911297815012968C93129781110CC047
:101440008D919C9111972115310529F1F901918315
:101450008083CD010E94CB098C81807631F1209769
:1014600021F1F8805801F5E1AF0EB11C8FEFF816AD
:10147000D1F06F2DC5010E9484046C01FC01E58050
:10148000B8010E94F909F801818DF6018083F80105
:10149000F18EFE2CEBCF94838383DBCF9C01FC0188
:1014A00080819181BCCFF882F9821C82DF91CF913B
:1014B0001F910F91FF90EF90DF90CF90BF90AF9072
:1014C0000895CF93DF93EC01CB01CF3FD10509F015
:1014D000B0F4BE016B5F7F4F6C177D0780F0DC01BD
:1014E000ED91FC910190F081E02D0995009721F09C
:1014F000FC01C38321E02283DF91CF91089590E026
:1015000080E0FACF8F929F92AF92BF92CF92DF92FC
:10151000EF92FF920F931F93CF93DF9300D000D0F1
:10152000CDB7DEB7DC0169014A014115510509F467
:1015300056C077FF08C084E014968C9314974D939F
:101540005C9381E04DC07F777B016430710518F5B5
:10155000FA0190E0242F8E2F8819861730F481919C
:1015600031E0811130E0932BF6CF911114C082E06D
:1015700014968C9314978D01842F821B861738F450
:10158000FA018191AF01F80181938F01F5CFA60F88
:10159000B11D1C92D6CF8D01F601A080B1809A8238
:1015A00089826B837C83BE016F5F7F4FC601039688
:1015B0000E94A705009751F0FC0122812F5F228332
:1015C00025E0F801248391838083BBCFB501C70157
:1015D0000E94610A0097A9F481E0F601828380E00D
:1015E0000F900F900F900F90DF91CF911F910F915F
:1015F000FF90EF90DF90CF90BF90AF909F908F9033
:101600000895E981FA81DC011496A7014E0F5F1F4E
:10161000E417F50719F021912D93FACFFC01EE0D97
:10162000FF1D1482F60123813481FC013183208364
:10163000F60194838383C4CFCF92DF92EF92FF921F
:101640000F931F93CF93DF930097A9F089016A014D
:101650007B01EC01B9010E94F9099801B701A601CB
:10166000CE01DF91CF911F910F91FF90EF90DF900E
:10167000CF900C94820ADF91CF911F910F91FF9030
:10168000EF90DF90CF900895CB010C94F828EF9263
:10169000FF920F931F93CF93DF937C01EB016FE7D2
:1016A00070E00E948B268C01AC01B701CE010E9434
:1016B0007926C00FD11F1882DF91CF911F910F9112
:1016C000FF90EF900895CF93DF93EC01888199818B
:1016D000009711F00E949429198218821D821C82A1
:1016E0001B821A82DF91CF910895FC018081918144
:1016F000009711F00C9494290895CB010C9494292F
:10170000FB0101900020E9F73197AF01461B570B11
:101710000C94D604CF92DF92EF92FF920F931F9317
:10172000CF93DF938C016B017A0162E20E94C104C6
:10173000E601EC0CFD1CEC16FD0699F06991E1E563
:10174000F1E0D480DD20C9F0329683816813F9CFAF
:101750006CE5C8010E94C1046D2DC8010E94C1043E
:10176000EACF62E2C801DF91CF911F910F91FF9004
:10177000EF90DF90CF900C94C1046111EECF64E63E
:1017800071E0C8010E94800BD6CFFC0130E020E060
:101790006115710549F0DB010D900020E9F79D010D
:1017A00021503109261B370B718360832283832FDD
:1017B0008F7793819078982B40FB97F993830895C6
:1017C0002F923F924F925F926F927F928F929F9251
:1017D000AF92BF92CF92DF92EF92FF920F931F933F
:1017E000CF93DF93CDB7DEB7A1970FB6F894DEBFE6
:1017F0000FBECDBF7C018B01DC0114968C91149738
:10180000863009F471C1E0F4833009F45DC158F405
:1018100040E0B701823009F42FC16BE671E0C801E6
:101820000E94800BF3C0843009F423C18530A9F7EE
:10183000ED91FC91438150E0BF016C5F7F4F25C16A
:101840008E3009F443C0E0F48A3009F448C18C308A
:1018500021F7CD90DD90ED90FC90B701A601F7FE49
:101860000BC06DE2C8010E94C10444275527BA018C
:101870004C195D096E097F09C8010E94EB0408C17B
:10188000803209F4CDC0803441F66BE5C8010E9476
:10189000C104F701F080FFEFFF1609F4BCC0D801C6
:1018A00014968D919C916F2D45960E9484047C0125
:1018B000B8010E94E00BF701F580FFEFFF1609F475
:1018C000AAC06CE2C8010E94C104E5CFF701C08044
:1018D000D180E280F380A7019601C701B6010E9482
:1018E000962681119ACF20E030E0A901C701B60108
:1018F0000E949626882379F0A7019601C701B601B8
:101900000E940C289B01AC01C701B6010E949626DB
:10191000882309F482CF20E030E0A901C701B60195
:101920000E94962687FF08C06DE2C8010E94C1048C
:10193000F7FAF094F7F8F0945E01F7E1AF0EB11CFE
:10194000B701A601C5010E949101EF8CF8A0D9A0B2
:101950004F89588D698D7A8DC8010E94EB04DD2076
:1019600091F16B8D7C8D8D8D9E8D3E0121E1620EFE
:10197000711CCD2C43012AE0222E312C412C512CFC
:10198000CA94AFEFCA1659F0A20191010E94D02863
:10199000605DF30162933F01B901CA01F1CF8D2D62
:1019A00090E0BC0160957095F401E81BF90B31974C
:1019B0008EE2808344275527461B570B680D791DFF
:1019C000C8010E94D604E114F10401F165E6C801E2
:1019D0000E94C104F7FE07C06DE2C8010E94C10465
:1019E000F194E194F108F5012AE030E0C701B90172
:1019F0000E94BC28805D82937B01672BB9F7A5010B
:101A00004E1B5F0BBF01C8010E94D604D80112967D
:101A10008D919C9140C06DE5C8010E94C104F6CF34
:101A20006BE7C8010E94C104F701F080EE24E39443
:101A3000BB24B394FFEFFF16D1F0D80114968D911B
:101A40009C916F2D45960E9484046C01B8010E9400
:101A5000E00BF601F580FFEFFF1639F06AE3E110C5
:101A600001C06CE2C8010E94C104EB24E3CF6DE722
:101A7000D3CF6D917C9141E0CE0101960E94C50BC0
:101A80004B815C815F7769817A81C8010E948A0BF2
:101A9000F80182819381A1960FB6F894DEBF0FBE44
:101AA000CDBFDF91CF911F910F91FF90EF90DF900D
:101AB000CF90BF90AF909F908F907F906F905F90EE
:101AC0004F903F902F900895ED91FC91438150E00D
:101AD000BF016C5F7F4FC8010E94D604D9CF4D91E2
:101AE0005D916D917C91C8CE8C9160E771E0811120
:101AF00002C065E771E0C8010E94800BC9CF0F9357
:101B00001F93CF93DF9300D000D000D0CDB7DEB7C6
:101B100000EF12E0D8018D919C91DC01ED91FC91D8
:101B20000190F081E02D6EE10995F80180819181AD
:101B30009A8389831C821B828EEF92E09E838D8321
:101B4000BE016F5F7F4F88E193E00E94E00BD801F8
:101B50008D919C91DC01ED91FC910190F081E02D43
:101B60006AE0099526960FB6F894DEBF0FBECDBF8A
:101B7000DF91CF911F910F910895CF93DF9300D004
:101B800000D0CDB7DEB7FC018481843061F08530B0
:101B9000E1F040E0BF01823049F060E070E080E0B9
:101BA00090E090680BC06081718141E0CE010196A8
:101BB0000E94C50B69817A818B819C810F900F9067
:101BC0000F900F90DF91CF91089580819181FC015A
:101BD000238130E00496BC01C9019F779F77EECF47
:101BE0009F92AF92BF92CF92DF92EF92FF920F93AC
:101BF0001F93CF93DF9300D000D0CDB7DEB779012C
:101C0000C62EB72E8A01452B09F450C0B901FC013C
:101C100080810E949E0469837A838B839C83DD2468
:101C2000D3949924939489819A810097F9F0DD20C7
:101C3000B1F00E94BD0D2C2D3B2D3F77AC015F779D
:101C40002417350761F4D801E62FF72F200F311F35
:101C5000A217B30779F19D9181919817C9F3D924FF
:101C6000B701CE0101960E94EA07DDCF2FEF8983ED
:101C70009A832B83AC8289819A81009739F0B701CE
:101C8000CE0101960E94EA0789819A810F900F90F8
:101C90000F900F90DF91CF911F910F91FF90EF90D8
:101CA000DF90CF90BF90AF909F9008952FEF90E07E
:101CB00080E0DDCFAC8089819A812B81D8CFFC0177
:101CC00020813181C9014A964281538164817581A5
:101CD000009759F0D9015E96EC91E03211F090E056
:101CE00080E0009711F00C94F00D90E080E00895F2
:101CF0000F931F93CF93DF93EC0188819981009715
:101D000059F02A813B812617370730F081E0DF91B7
:101D1000CF911F910F9108958B016F5F7F4F0E94AC
:101D20001D2A009759F0998388831B830A832C818D
:101D30003D81232B59F7FC011082E8CF80E0E7CFEB
:101D4000CF92DF92EF92FF920F931F93CF93DF9387
:101D50008C01DC019296ED91FC91E80FF91F128243
:101D60006C01B2E0CB0ED11CC114D10449F1F601D3
:101D700001900020E9F73197EC19FD09F1F0DC0141
:101D8000ED90FC90D7011496CD91DC91CE0FDF1F22
:101D9000BE01C7010E94780E882391F0F7012081CF
:101DA000318184819581B601820F931F0E94EC2AB4
:101DB000D7011596DC93CE931497F80113A212A2C3
:101DC000D80192968D919C91DF91CF911F910F91A7
:101DD000FF90EF90DF90CF9008951F93CF93DF9304
:101DE000EC01162F8AA19BA101968097B8F48AA1D5
:101DF0009BA19C012F5F3F4F3BA32AA38C0F9D1FEC
:101E0000FC01128321E030E08CA19DA1820F931F81
:101E10009DA38CA3DF91CF911F910895CE010E94C5
:101E2000A00E892B21F330E020E0EECFBF92CF92BD
:101E3000DF92EF92FF920F931F93CF93DF93EC010A
:101E40006A018B017B01E40EF51EE016F106D1F06C
:101E5000F801B1908F018AA19BA10196809760F44F
:101E60008AA19BA19C012F5F3F4F3BA32AA38C0F0C
:101E70009D1FFC01B282E9CFCE010E94A00E892BEA
:101E800079F3E3CF4CA15DA14C0D5D1D5DA34CA387
:101E9000DF91CF911F910F91FF90EF90DF90CF9046
:101EA000BF9008958F929F92AF92BF92CF92DF9290
:101EB000EF92FF920F931F93CF93DF93CDB7DEB7CF
:101EC00066970FB6F894DEBF0FBECDBF6C018E01D2
:101ED000095E1F4F78018AE0882E912CA12CB12C2D
:101EE000CB01BA01A50194010E94D028942F852F1F
:101EF000605DF80162938F01A901692F782F411568
:101F000051056105710561F7A7014E1B5F0BBF010C
:101F1000C6010E94160F66960FB6F894DEBF0FBE7C
:101F2000CDBFDF91CF911F910F91FF90EF90DF9088
:101F3000CF90BF90AF909F908F900895FB0101903C
:101F40000020E9F73197AF01461B570B0C94160F91
:101F5000CF92DF92EF92FF920F931F93CF93DF9375
:101F60008C016B017A0162E20E94ED0EE601EC0C3D
:101F7000FD1CEC16FD0699F06991E1E5F1E0D480D5
:101F8000DD20C9F0329683816813F9CF6CE5C80172
:101F90000E94ED0E6D2DC8010E94ED0EEACF62E2A7
:101FA000C801DF91CF911F910F91FF90EF90DF90CB
:101FB000CF900C94ED0E6111EECF64E671E0C80194
:101FC0000E949E0FD6CF2F923F924F925F926F92B8
:101FD0007F928F929F92AF92BF92CF92DF92EF92B9
:101FE000FF920F931F93CF93DF93CDB7DEB7A197E7
:101FF0000FB6F894DEBF0FBECDBF7C018B01DC01B4
:1020000014968C911497863009F471C1E0F48330F2
:1020100009F45DC158F440E0B701823009F42FC1E2
:102020006BE671E0C8010E949E0FF3C0843009F492
:1020300023C18530A9F7ED91FC91438150E0BF01A8
:102040006C5F7F4F25C18E3009F443C0E0F48A30C5
:1020500009F448C18C3021F7CD90DD90ED90FC90D3
:10206000B701A601F7FE0BC06DE2C8010E94ED0E9C
:1020700044275527BA014C195D096E097F09C8012B
:102080000E94520F08C1803209F4CDC0803441F65D
:102090006BE5C8010E94ED0EF701F080FFEFFF161F
:1020A00009F4BCC0D80196968D919C916F2D4596F0
:1020B0000E9484047C01B8010E94E30FF701F580BF
:1020C000FFEFFF1609F4AAC06CE2C8010E94ED0EF2
:1020D000E5CFF701C080D180E280F380A7019601AF
:1020E000C701B6010E94962681119ACF20E030E008
:1020F000A901C701B6010E949626882379F0A7019D
:102100009601C701B6010E940C289B01AC01C701D2
:10211000B6010E949626882309F482CF20E030E0A1
:10212000A901C701B6010E94962687FF08C06DE28B
:10213000C8010E94ED0EF7FAF094F7F8F0945E01F2
:10214000F7E1AF0EB11CB701A601C5010E949101D4
:10215000EF8CF8A0D9A04F89588D698D7A8DC80170
:102160000E94520FDD2091F16B8D7C8D8D8D9E8DA7
:102170003E0121E1620E711CCD2C43012AE0222E8A
:10218000312C412C512CCA94AFEFCA1659F0A20140
:1021900091010E94D028605DF30162933F01B90173
:1021A000CA01F1CF8D2D90E0BC0160957095F401CE
:1021B000E81BF90B31978EE2808344275527461B95
:1021C000570B680D791DC8010E94160FE114F10428
:1021D00001F165E6C8010E94ED0EF7FE07C06DE251
:1021E000C8010E94ED0EF194E194F108F5012AE096
:1021F00030E0C701B9010E94BC28805D82937B0159
:10220000672BB9F7A5014E1B5F0BBF01C8010E94E8
:10221000160FD80194968D919C9140C06DE5C80130
:102220000E94ED0EF6CF6BE7C8010E94ED0EF7019C
:10223000F080EE24E394BB24B394FFEFFF16D1F0BB
:10224000D80196968D919C916F2D45960E9484049D
:102250006C01B8010E94E30FF601F580FFEFFF1655
:1022600039F06AE3E11001C06CE2C8010E94ED0E92
:10227000EB24E3CF6DE7D3CF6D917C9141E0CE01AC
:1022800001960E94C50B4B815C815F7769817A81E1
:10229000C8010E94A80FF80184A195A1A1960FB6CC
:1022A000F894DEBF0FBECDBFDF91CF911F910F918C
:1022B000FF90EF90DF90CF90BF90AF909F908F9066
:1022C0007F906F905F904F903F902F900895ED9189
:1022D000FC91438150E0BF016C5F7F4FC8010E94B9
:1022E000160FD9CF4D915D916D917C91C8CE8C9197
:1022F00060E771E0811102C065E771E0C8010E94EA
:102300009E0FC9CFCF92DF92EF92FF920F931F9350
:10231000CF93DF93CDB7DEB7C85BD1090FB6F89482
:10232000DEBF0FBECDBF6B017C01CA01CB56DF4FB4
:1023300059834883C559D040C954DF4F1982188248
:10234000C75BD0400E94630B84E2FE01EB56FF4F57
:10235000DE01AF58BF4F01900D928A95E1F784E2FC
:10236000FE01EF58FF4FDE01A35BBF4F01900D92BE
:102370008A95E1F784E2FE01E35BFF4FDE01999667
:1023800001900D928A95E1F784E2FE01B996DE0193
:10239000119601900D928A95E1F71EA21DA2CE0121
:1023A00089960E94A00EF8A6EFA2CE01835B9F4FF4
:1023B0000E94A00EC114D10431F1BE016F5F7F4FA6
:1023C000C6010E94E30F7C01CE0101960E94A00E7F
:1023D000CE018F589F4F0E94A00ECE018B569F4F6B
:1023E0000E94A00EC701C854DF4F0FB6F894DEBF9D
:1023F0000FBECDBFDF91CF911F910F91FF90EF9056
:10240000DF90CF9008956BE671E0CE0101960E94B7
:102410009E0FEDA0FEA0D8CFEF92FF920F931F93D7
:10242000CF93DF93EC017B018A01BA010E94780E01
:1024300081110BC0CE010E94630BCE01DF91CF91C1
:102440001F910F91FF90EF9008951D830C83B701AA
:10245000888199810E94EC2AF0CFFB010190002035
:10246000E9F73197AF01461B570B0C940C12FC0196
:1024700011821082138212821582148261157105F5
:1024800051F0FB0101900020E9F73197AF01461BA5
:10249000570B0C940C120895EF92FF920F931F9319
:1024A000CF93DF93EC01CB01FB01E080F1800E9430
:1024B0005F0E8C0163E671E0CE010E9437120115B8
:1024C000110589F0C8010E94BD0D6115710559F013
:1024D000CE010E942D12CE01DF91CF911F910F915D
:1024E000FF90EF900895B801C701AE010E948211DC
:1024F000F2CFFF920F931F93CF93DF93EC018C01E8
:10250000085A1F4FFF24F394F88263E671E0CE016E
:1025100005960E94371219821A821B821C822B9602
:10252000C017D10789F71882DF91CF911F910F91C2
:10253000FF900895DF92EF92FF920F931F93CF9336
:10254000DF93EC011882DD24D394D9827C0122E050
:10255000E20EF11CC7010E9479128E01065A1F4F2C
:10256000F80180818830D0F4FBE08F9FC0011124F6
:10257000C80FD91FDA8244E150E060E070E04B837D
:102580005C836D837E83059663E671E08E0D9F1DEF
:102590000E942D12F80180818F5F8083DF91CF919F
:1025A0001F910F91FF90EF90DF900895CF93DF93ED
:1025B000EC010E949A12CE01DF91CF910895CF9342
:1025C000DF93EC010E949A12CE01DF91CF91089522
:1025D000CB01BA010C941D2ABF92CF92DF92EF92E9
:1025E000FF920F931F93CF93DF93EC01198D1F3F41
:1025F00081F0612F45960E948404FC018081898FBF
:10260000309709F477C014828FEF8583BF01812F43
:1026100076C06C0135E0C30ED11CE880F9808F894B
:10262000882341F0C6010E94CE05E62FF72F182F10
:10263000309749F71F89988D191324C0103109F478
:1026400059C0110F6D897E89D701ED91FC91B4E0DD
:102650001B9FA0011124C616D70609F044C00190A3
:10266000F081E02DBA01C7010995009709F442C035
:1026700020E1F601DC0101900D922A95E1F79E8B95
:102680008D8B188F0D891E898F8921E0280F2F8B44
:10269000E4E08E9FC0011124080F191F90E1B92EAC
:1026A000203111F48FE0B82EF6E0BF9EB001112466
:1026B000D701ED91FC910190F081E02DC7010995C2
:1026C000F80193838283892B09F4B12CD801BC9241
:1026D00011961C92012B71F0C6010E94CE05E62FC7
:1026E000F72F182F8DCF0480F581E02DC7010995B4
:1026F000009729F681E08A8360E070E08FEFDF9138
:10270000CF911F910F91FF90EF90DF90CF90BF90EE
:1027100008956F927F928F929F92AF92BF92CF92C5
:10272000DF92EF92FF920F931F93CF93DF93EC0111
:102730004115510589F490E080E0DF91CF911F9120
:102740000F91FF90EF90DF90CF90BF90AF909F9050
:102750008F907F906F9008958C8181111AC080E2D4
:102760008C83209741F38FEF8883898379014A0115
:102770005B01CE010E94F00D0097F9F6C7010E949F
:10278000EC12682E6B01672B49F410E000E0C801E1
:10279000D4CF803281F6209749F7CDCFC7010E9470
:1027A000EC12782E962F092F172F0115110569F3BA
:1027B0009701B501A401C6010E94820A882329F36A
:1027C000F601758269816F3F41F0C70145960E940D
:1027D0008404FC0165827982DACF6882FCCFCF93D2
:1027E000DF93DC01CD91DC911197FE017A9659F0CF
:1027F00012964D915D916D917C9115979E01CF013F
:102800000E948913FC01BF01CE01DF91CF91089591
:102810006F927F928F929F92AF92BF92CF92DF92F0
:10282000EF92FF920F931F93CF93DF933C01EB0145
:102830000E94EF134B015C01088119816B010115A6
:10284000110501F1C8010E948226EC018114910456
:10285000F9F07501B501C4010E94F909C430D10530
:1028600008F044C090E080E020E03C2F831740F562
:10287000F801E80FF91FE49141E0E11140E0242B59
:102880000196F4CF672B21F0BC01C4010E94F90925
:10289000D301ED91FC9180E0309719F0828191E0B5
:1028A0008927DF91CF911F910F91FF90EF90DF90DB
:1028B000CF90BF90AF909F908F907F906F90089532
:1028C000211114C082E0D60114968C93D40190E0BB
:1028D00080E0831738F4F801E80FF91FE491ED93D5
:1028E0000196F7CFC80DD91D1882D2CFF701A3806A
:1028F000B480A114B10471F1D50113968C918C1799
:102900001D0641F4AE01B801C50104960E946C2673
:10291000892BD9F0F501A080B180EBCFAE01B801D1
:10292000C50104960E947926CA0DDB1D1C82F701A1
:1029300083819481D5018D939C93B482A38285E099
:10294000F6018483B182A082A3CFF50182818F5FDB
:102950008283F5CFD7016D917C91CE010E94610AEF
:102960005C01892BD9F681E0D70112968C9390CF28
:10297000EF92FF920F931F93CF93DF937C018B0114
:102980000E94EF13DC01CB01E801E881F98170E0DE
:1029900060E0309749F0EF0109900020E9F7BE01AF
:1029A000615071096E1B7F0B7F777F779D01AF01AF
:1029B0000E941C0BD701ED91FC9180E0309719F03B
:1029C000828191E08927DF91CF911F910F91FF9034
:1029D000EF9008950F931F93CF93DF93EC018B013A
:1029E0000E94EF13DC01CB0170E070689D01A8012B
:1029F0006AE00E941C0BE881F98180E0309719F0B1
:102A0000828191E08927DF91CF911F910F910895E5
:102A1000CF92DF92EF92FF92CF93DF937B010E94E0
:102A2000EF13DC01CB01EB010097B1F0F701C0809F
:102A3000D180E280F380BD010E94F9098AE08C8395
:102A4000C882D982EA82FB8281E0DF91CF91FF9038
:102A5000EF90DF90CF90089580E0F7CFEF92FF9254
:102A60000F931F93CF93DF937C018B010E94EF1391
:102A7000DC01CB01E801E881F98170E060E030978A
:102A800049F0EF0109900020E9F7BE01615071099A
:102A90006E1B7F0B7F777F779D01AF010E941C0B20
:102AA000D701ED91FC9180E0309719F0828191E09F
:102AB0008927DF91CF911F910F91FF90EF9008959B
:102AC0006F927F928F929F92AF92BF92CF92DF923E
:102AD000EF92FF920F931F93CF93DF93CDB7DEB7A3
:102AE00028970FB6F894DEBF0FBECDBF7C010E94C1
:102AF00017010E94D5090EEF12E01A8309838BE7B4
:102B000091E09C838B8389E08D838E8180788068BF
:102B10008E836EE173E0CE0101960E942E1586E54C
:102B200091E098878F831A83098385E891E09C83DD
:102B30008B838CE08D838E81807880688E83BE014C
:102B4000695F7F4FCE0101960E9408141A830983A2
:102B500082E991E09C838B8387E08D838E818078EE
:102B600080688E836AE971E0CE0101960E94EA14C2
:102B70001A83098385EA91E09C838B838BE08D83A4
:102B80008E81807880688E836DE273E0CE0101963D
:102B90000E9408150E947F0D0091210310912203CD
:102BA0008EEFC82E82E0D82E91EBA92E91E0B92E9F
:102BB00026E0722E38EB832E31E0932E47E0642E10
:102BC0000115110589F1E114F10441F0B701F80193
:102BD000808191810E94E32A892B11F50E94D509F9
:102BE000DA82C982BC82AB827D828E8180788068E5
:102BF0008E83B8016E5F7F4FCE0101960E942E1525
:102C0000DA82C9829C828B826D828E818078806814
:102C10008E83B801CE0101960E942E150E947F0D71
:102C2000F80106811781CCCF0E942B0128960FB6A0
:102C3000F894DEBF0FBECDBFDF91CF911F910F91F2
:102C4000FF90EF90DF90CF90BF90AF909F908F90CC
:102C50007F906F900895FF920F931F93CF93DF9310
:102C6000CDB7DEB72C970FB6F894DEBF0FBECDBF41
:102C70009A8789877C876B87142F0E94D5098EEFEE
:102C800092E09A8389838BE791E09C838B8389E030
:102C90008D838E81807880688E836EE173E0CE01B3
:102CA00001960E942E158EE491E0163040F4E12F3B
:102CB000F0E0EE0FFF1FE25EFE4F8081918198876A
:102CC0008F830EEF12E01A83098385E891E09C83DD
:102CD0008B838CE08D838E81807880688E83BE01AB
:102CE000695F7F4FCE0101960E9408141A83098301
:102CF00082E991E09C838B8387E0F82EFD828E81B0
:102D0000807880688E83BE01655F7F4FCE0101961B
:102D10000E942E151A83098385EA91E09C838B8398
:102D20008BE08D838E81807880688E836DE273E086
:102D3000CE0101960E9408151A83098388EB91E061
:102D40009C838B83FD828E81807880688E83BE0118
:102D5000675F7F4FCE0101960E942E150E947F0D66
:102D60002C960FB6F894DEBF0FBECDBFDF91CF918A
:102D70001F910F91FF900895CF92DF92FF920F93D2
:102D80001F93CF93DF938C016B01CB010E94EC1258
:102D9000F82EEB01209761F0F80161816F3F89F017
:102DA000C60145960E948404FC01F582F801F18277
:102DB000CE01DF91CF911F910F91FF90DF90CF90C7
:102DC00008958083F4CF3F924F925F926F927F92EB
:102DD0008F929F92AF92BF92CF92DF92EF92FF922B
:102DE0000F931F93CF93DF9300D000D01F92CDB7E6
:102DF000DEB78C016B01B42E0E9485057C01892B06
:102E000009F050C0C8010E943705863609F4AEC1EA
:102E100064F5873229F08B35A1F1823209F0AFC118
:102E2000F8011582148282819381892B99F4E080C4
:102E3000F180D7016D917C918FE190E00E94610A51
:102E4000009719F421E0F7012283D80113969C938F
:102E50008E931297C8010E9464087C01892B11F59A
:102E6000B601C8010E9443091DC0843709F45EC140
:102E70008B3709F466C08E3609F081C16BE671E0CC
:102E80005CC180E4D60114968C931497C114D104CC
:102E900021F08FEF8C9311968C93B1101BC025E01D
:102EA000E22EF12CC7010F900F900F900F900F9012
:102EB000DF91CF911F910F91FF90EF90DF90CF9016
:102EC000BF90AF909F908F907F906F905F904F904A
:102ED0003F900895F8011486C8010E948505009767
:102EE00009F09DC16DE5C8010E9451058111DACF3D
:102EF000BA94D8011D966D917C91C6010E94BC16B2
:102F0000009709F47BC04B2DBC01C8010E94E31659
:102F1000009709F084C1C8010E948505009709F057
:102F20007EC16DE5C8010E9451058111BBCF6CE2E5
:102F3000C8010E9451058111DCCF93E0E92EF12CEC
:102F4000B1CF80E2F6018483C114D10419F08FEF70
:102F500080838183BB2009F4A2CFD8011C961C92E8
:102F6000C8010E948505009709F059C16DE7C801A5
:102F70000E945105811196CF5524539477247A9459
:102F80007B0CF8011582148282819381892B91F444
:102F9000E080F180D7016D917C918FE190E00E94FB
:102FA000610A009711F4F7015282D80113969C939D
:102FB0008E931297C8010E943705873219F1823229
:102FC00009F1C8010E943705F82E0E94AF0488233A
:102FD00009F4B3CFF80114866F2DC8010E9436089A
:102FE000C8010E943705F82E0E94AF048111F2CF6C
:102FF000D80112968D919C91892B59F484E0E82E8A
:10300000F12C50CFC8010E9464087C01892B09F083
:1030100049CFC8010E9485057C01892B09F042CF68
:103020006AE3C8010E945105882309F486CFD801BC
:103030001296ED91FC91139714968D919C91159792
:10304000E80FF91F148214966D917C9115977F7784
:103050001D962D913C911E9712968D919C910496F0
:10306000472F4F77B62DB0786B2E642AE89467F817
:10307000AC01762DC6010E94F00D7C01F80185841B
:103080009684009759F5C4010E94EC12382E5B011A
:10309000672B09F4B3CFC4010E94EC12482E962F7F
:1030A000E92EF72EE114F10409F4A8CFD501159605
:1030B0004C92F60161816F3F71F0C40145960E9408
:1030C0008404DC0115963C92F6014182B501C801E9
:1030D0000E94430906C030824182F8CFB4010E94A9
:1030E000F909472DB701C8010E94E3167C01892B1D
:1030F00009F0D8CEC8010E9485057C01892B09F012
:10310000D1CE6DE7C8010E9451058111CBCE6CE292
:10311000C8010E945105882309F40FCFC8010E94FD
:1031200085057C01892B09F42CCFBCCE86E0F60105
:10313000848381E0808360E771E0C8010F900F9085
:103140000F900F900F90DF91CF911F910F91FF90F3
:10315000EF90DF90CF90BF90AF909F908F907F9037
:103160006F905F904F903F900C94620586E0D6017F
:1031700014968C9314971C9265E771E0DECFC8011A
:103180000E9437054801BFE08B0E911CB12C782CB2
:10319000A92C803384F08A3384F4EFE3BE16A9F0BF
:1031A000D8011C961C92B394F40181934F01C8017D
:1031B0000E943705EECF8B3281F393ED980F92305A
:1031C00060F3982F9F7D953441F30B0D111DD801AD
:1031D0001F961C92872D9A2D0E9424063A834B83BA
:1031E0005C836D838A819B81AC81BD812230A9F093
:1031F000233059F0213009F0A0CE2EE0F6012483CF
:1032000080839183A283B3834DCE2AE0F601248389
:1032100080839183A283B38345CE2CE0F7CF7C01DA
:1032200041CEAF92BF92CF92DF92EF92FF920F9377
:103230001F93CF93DF9300D000D0CDB7DEB7FC0152
:10324000C180D280DC011196C6014A9699F430E023
:1032500020E0B901C6010F900F900F900F90DF9101
:10326000CF911F910F91FF90EF90DF90CF90BF9083
:10327000AF9008957F0112964D915D916D917C9173
:10328000159796010E9489138C01009701F3F701AD
:10329000A180B280E780F084FC01848181111FC08D
:1032A00080E484838FEF80838183B501F80180817E
:1032B0000E949E0469837A838B839C8329813A814F
:1032C0002115310579F0E114F10419F2B501CE01AF
:1032D00001960E94EA07F1E0EF1AF108EFCF80347F
:1032E00021F3B5CF8FEFE816F80609F4B2CFB50198
:1032F000C8010E94BC169C01E1E0EE1AF108892B7E
:1033000089F7A7CF1F920F920FB60F9211242F9318
:103310003F934F935F936F937F938F939F93AF935D
:10332000BF93EF93FF9389E492E00E949203FF9191
:10333000EF91BF91AF919F918F917F916F915F912D
:103340004F913F912F910F900FBE0F901F901895A6
:103350001F920F920FB60F9211242F938F939F936A
:10336000EF93FF93E0915902F0915A028081E0912E
:103370005F02F091600282FD1BC090818091620229
:103380008F5F8F7320916302821741F0E091620298
:10339000F0E0E75BFD4F958F80936202FF91EF9124
:1033A0009F918F912F910F900FBE0F901F901895A6
:1033B0008081F4CF1F920F920FB60F9211242F939A
:1033C0003F938F939F93AF93BF93809141029091CE
:1033D0004202A0914302B09144023091400223E0A6
:1033E000230F2D3758F50196A11DB11D20934002E2
:1033F0008093410290934202A0934302B09344020F
:1034000080913C0290913D02A0913E02B0913F021A
:103410000196A11DB11D80933C0290933D02A093A3
:103420003E02B0933F02BF91AF919F918F913F9128
:103430002F910F900FBE0F901F90189526E8230F25
:103440000296A11DB11DD2CFEF92FF920F931F9351
:10345000CF93DF9310924C0210924B0288EE93E0D0
:10346000A0E0B0E080934D0290934E02A0934F02F3
:10347000B09350028EE291E090934A028093490209
:1034800085EC90E0909356028093550284EC90E096
:10349000909358028093570280EC90E090935A02E8
:1034A0008093590281EC90E090935C0280935B02E0
:1034B00082EC90E090935E0280935D0286EC90E057
:1034C0009093600280935F021092620210926302F6
:1034D000109264021092650288E998E0A0E0B0E0E2
:1034E0008093F4029093F502A093F602B093F70252
:1034F0001092F8021092F9021092FA021092FB0256
:103500001092FC021092FD0289E492E09093F10285
:103510008093F00280E091E09093FF028093FE029E
:1035200010920003109202031092010383E093E0D3
:1035300090931403809313031092150384E08093F7
:1035400016038FEF8093170310921C0380931D03C3
:1035500080EC91E090931F0380931E031092200350
:103560001092220310922103109226031092250339
:1035700010922803109227031092290310922A0315
:1035800010922B0310922C0380EF92E09093EF02A5
:103590008093EE02ECE3F1E065EC7DE98CE191E8EB
:1035A0002191211110C0E0ECF1E021912223B1F032
:1035B0007B01E226AC01970163E971E080E091E0D4
:1035C0000E94AC28F2CF7B01E226AC01970163E9AF
:1035D00071E080E091E00E94AC28E2CF20EF32E081
:1035E00060932D0370932E0380932F0390933003E9
:1035F0000BEC11E01093EB020093EA023093ED0222
:103600002093EC0286EDE82E81E0F82EF092E7029E
:10361000E092E6023093E9022093E80289E090E02C
:103620000E94F828EC0118861F821983088308EE8F
:1036300011E01B830A831C8286ED92E19E838D83B9
:1036400089E090E00E94F828FC01F182E082138377
:10365000028382E084838FED92E196838583D08715
:10366000C783F0932403E0932303DF91CF911F914D
:103670000F91FF90EF900895CF93DF93CDB7DEB712
:10368000C35CD1090FB6F894DEBF0FBECDBF7894EE
:1036900084B5826084BD84B5816084BD85B5826057
:1036A00085BD85B5816085BD80916E008160809308
:1036B0006E00109281008091810082608093810071
:1036C0008091810081608093810080918000816081
:1036D000809380008091B10084608093B1008091DC
:1036E000B00081608093B00080917A008460809304
:1036F0007A0080917A00826080937A0080917A00CB
:10370000816080937A0080917A00806880937A004B
:103710001092C100E3E3F1E02491EFE1F1E0849144
:10372000882399F090E0880F991FFC01ED52FF4F1C
:10373000A591B491FC01E250FF4F859194918FB710
:10374000F8949C91292B2C938FBF0E944A0460937C
:1037500045027093460280934702909348028AE3A1
:1037600096E58453964566E070E00E94BC28CE53EF
:10377000DF4F79836883C25CD040009125031091AC
:1037800026030115110549F0D8011296ED91FC911F
:103790000995F80104811581F4CF809120038111EE
:1037A00038C0E0915902F0915A0282E08083E091A2
:1037B0005502F09156021082E0915702F0915802A2
:1037C00080E1808310926102E0915D02F0915E02DF
:1037D00086E08083E0915B02F0915C0280818061F1
:1037E0008083E0915B02F0915C028081886080833D
:1037F000E0915B02F0915C02808180688083E091BF
:103800005B02F0915C0280818F7D808381E08093F8
:1038100020038091FC0281116BC080EC0E94F400B7
:10382000882309F484C081E08093FC020E944A044A
:103830006093F8027093F9028093FA029093FB026E
:103840008091FC02882309F472C08EE10E94F4008A
:10385000982E882309F46BC00E94D5090E944A045F
:103860006093F8027093F9028093FA029093FB023E
:10387000E090F002F090F10263E671E0CE018F5724
:103880009F4F0E943712C7010E945604CB57DF4F4B
:1038900008811981C558D04097FD89C08A309105AB
:1038A00009F485C089831A820F5F1F4FB801CE01CA
:1038B0008F579F4F0E94780E882329F3CF57DF4FF1
:1038C00028813981C158D040CB57DF4F88819981F9
:1038D000C558D040BE016F5F7F4F820F931F0E947B
:1038E000EC2ACB57DF4F19830883C558D040CBCF84
:1038F0000E944A04AB01BC018091F8029091F90248
:10390000A091FA02B091FB020091F4021091F5022D
:103910002091F6023091F702800F911FA21FB31F72
:10392000481759076A077B07A0F01092FC02009124
:103930002703109128030115110511F40C94DA25C1
:10394000D8011296ED91FC910995F8010481158139
:10395000F2CF8091F0029091F102DC01ED91FC91A7
:103960000084F185E02D0995181619060CF068CF32
:103970008091F0029091F102DC01ED91FC910484C0
:10398000F585E02D0995803C910509F059CF80918E
:10399000F0029091F102DC01ED91FC910284F3853B
:1039A000E02D0995803C910509F04ACFBECFCF5755
:1039B000DF4FE880F980C158D0400E0D1F1D0E94D6
:1039C000D5098EEF92E09A8389831C821B821E8226
:1039D0001D821F82F986E8861B870A871D869F87BE
:1039E0008E874AE068E173E0CE0101960E94E316FB
:1039F0008C01892B49F48C85882331F080911C033C
:103A000083FF02C003E010E08B819C81009731F0BE
:103A1000E981FA81608171810E94CB091093F302E0
:103A20000093F202CE018F579F4F0E94750B809139
:103A3000F2029091F302892B09F079CF0EEF12E098
:103A40001A83098384EF91E09C838B8383E08D83C9
:103A50008E81807880688E83CE0101960E945F0EF1
:103A6000009709F464CF0E94BD0D6B01FB013097F4
:103A700009F45DCF8081882309F459CF68EF71E0A4
:103A8000C6010E94F32A892B09F401C30E94170181
:103A90000E94D5091A8309838BE791E09C838B836D
:103AA00089E08D838E81807880688E836EE173E0FB
:103AB000CE0101960E942E1586E591E0CF57DF4F8B
:103AC00099838883C158D0401A83098385E891E09F
:103AD0009C838B838CE08D838E81807880688E833D
:103AE000BE016F577F4FCE0101960E9408141A83C2
:103AF000098382E991E09C838B8387E08D838E81AB
:103B0000807880688E83CE0101960E94EF13DC01DD
:103B1000CB01E8EFF1E0C254DF4FF983E883CE5BDD
:103B2000D040FBE0C054DF4FF883C05CD040CF539F
:103B3000DF4F2881C15CD0402078322F3068CF53CE
:103B4000DF4F3883C15CD0409D01C254DF4F4881B4
:103B500059816A817B81CE5BD0400E941C0B1A8305
:103B6000098385EA91E09C838B838BE08D838E8132
:103B7000807880688E836DE273E0CE0101960E94AA
:103B800008150E947F0D8090230390902403AE01BE
:103B90004D5F5F4FC454DF4F59834883CC5BD040A7
:103BA0008114910409F466C2D4011596ED91FC913B
:103BB000CE01019609950E94D509CF57DF4F198391
:103BC0000883C158D040E4E0F2E0CD57DF4FF983DD
:103BD000E883C358D04087E0F82ECB57DF4FF882F8
:103BE000C558D040CA57DF4F8881C658D04080782A
:103BF0008068CA57DF4F8883C658D040B4016E5FD3
:103C00007F4FCE018F579F4F0E942E15CF57DF4F0A
:103C100019830883C158D04028EB31E0CD57DF4FDE
:103C200039832883C358D040CB57DF4FF882C5581B
:103C3000D040CA57DF4F8881C658D040807880680E
:103C4000CA57DF4F8883C658D040B401CE018F5782
:103C50009F4F0E942E15D4011496EC918FEE90E0A8
:103C6000E33038F4F0E0EE0FFF1FE85EFE4F808196
:103C70009181CA56DF4F99838883C659D040CF5768
:103C8000DF4F19830883C158D040ECE0F2E0CD57F4
:103C9000DF4FF983E883C358D04084E0CB57DF4F30
:103CA0008883C558D040CA57DF4F8881C658D04056
:103CB00080788068CA57DF4F8883C658D040BE01DD
:103CC0006A567F4FCE018F579F4F0E940814E9819B
:103CD00085EE90E0E33038F4F0E0EE0FFF1FEE5E8B
:103CE000FE4F80819181CA56DF4F99838883C659E0
:103CF000D040CF57DF4F19830883C158D04081E1AE
:103D000092E0CD57DF4F99838883C358D04086E037
:103D1000CB57DF4F8883C558D040CA57DF4F8881C3
:103D2000C658D04080788068CA57DF4F8883C6580D
:103D3000D040BE016A567F4FCE018F579F4F0E94E1
:103D400008148A81882309F47AC1F12CE4E0EE2E6C
:103D50006C968FAD6C97F81608F071C14F2D50E03E
:103D6000CC24C394D12CCC0EDD1EFBE0FF9DC00CF7
:103D7000D11C1124D60112968C91823009F4DEC038
:103D800040F4882309F457C0813009F492C0F394B9
:103D9000DFCF833009F40EC18430C9F721E030E071
:103DA0002C0F3D1FBBE0FB9E200D311D1124F9019E
:103DB00037966F01CA56DF4F19830883C659D04022
:103DC00028E132E0C856DF4F39832883C859D040F4
:103DD000C656DF4F8883CA59D040C556DF4F888109
:103DE000CB59D04080788068C556DF4F8883CB5947
:103DF000D040BE016A567F4FCE018F579F4F0E9421
:103E0000FA05CE018F579F4F0E941119DC01CB019B
:103E1000F601648175817F7740815181272F2F774B
:103E2000F22DF0782F2E222AE89427F89D01722D8A
:103E30000E941C0BACCFCA56DF4F19830883C659AA
:103E4000D040E8E1F2E0C856DF4FF983E883C85973
:103E5000D040C656DF4FE882CA59D040C556DF4F22
:103E60008881CB59D04080788068C556DF4F8883E1
:103E7000CB59D040BE016A567F4FCE018F579F4F1E
:103E80000E94FA05CE018F579F4F0E941119DC0145
:103E9000CB015B01672B09F47ACFF601D380BD011A
:103EA0000E94F909E6E0D5011496EC931497DC9290
:103EB0006ECFCA56DF4F19830883C659D04028E118
:103EC00032E0C856DF4F39832883C859D040C656E0
:103ED000DF4FE882CA59D040C556DF4F8881CB59A1
:103EE000D04080788068C556DF4F8883CB59D0405A
:103EF000BE016A567F4FCE018F579F4F0E94FA0531
:103F0000CE018F579F4F0E941119DC01CB015B013D
:103F1000672B09F43CCFF60143805480658076809E
:103F2000BD010E94F909ECE0D5011496EC931497B9
:103F30004D925D926D927C92139729CFCA56DF4FB6
:103F400019830883C659D040E8E1F2E0C856DF4F34
:103F5000F983E883C859D040C656DF4FE882CA5972
:103F6000D040C556DF4F8881CB59D04080788068DB
:103F7000C556DF4F8883CB59D040BE016A567F4F6C
:103F8000CE018F579F4F0E94FA05CE018F579F4F4A
:103F90000E941119DC01CB015B01672B09F4F7CEFC
:103FA000F6014380548065807680BD010E94F90946
:103FB000EAE0BACFCA56DF4F19830883C659D0400A
:103FC000E8E1F2E0C856DF4FF983E883C859D040F2
:103FD000C656DF4FE882CA59D040C556DF4F8881A8
:103FE000CB59D04080788068C556DF4F8883CB5945
:103FF000D040BE016A567F4FCE018F579F4F0E941F
:10400000FA05CE018F579F4F0E941119DC01CB0199
:104010005B01672B09F4BBCEF601438054806580B9
:104020007680BD010E94F909EEE0D5011496EC936B
:1040300014974D925D926D927C921397A8CE0E9438
:104040007F0D7E012BE5E20EF11C3BE0E31AF10847
:10405000C70105960E94750BC454DF4F48815981F2
:10406000CC5BD040E416F50681F7D40117968D900D
:104070009C9096CD0E942B010E944A0460932903D4
:1040800070932A0380932B0390932C0350CC6DE103
:1040900072E0C6010E94F32A892B09F431C10E9403
:1040A00017010E94D5091A8309838BE791E09C834D
:1040B0008B8389E08D838E81807880688E836EE12A
:1040C00073E0CE0101960E942E1586E591E0CF5750
:1040D000DF4F99838883C158D0401A83098385E8CC
:1040E00091E09C838B838CE08D838E8180788068C7
:1040F0008E83BE016F577F4FCE0101960E94081438
:104100001A83098382E991E09C838B8387E08D8306
:104110008E81807880688E836DE172E0CE01019699
:104120000E94EA141A83098385EA91E09C838B83B9
:104130008BE08D838E81807880688E836DE273E062
:10414000CE0101960E9408150E947F0DE4E3F6E57A
:1041500026E5EA33F20708F08DCF7F01512C412C80
:104160008E010F5F1F4F6EEF662E62E0762ECE53EC
:10417000DF4F48815981C25CD0404415550509F490
:1041800079CFF70185909490F7013296A590B4907D
:10419000F7013496C590D4908114910409F4A9C014
:1041A000C114D10409F4A5C00E94D509B801C40105
:1041B0000E94470BCF57DF4F79826882C158D040A9
:1041C00068E272E0CD57DF4F79836883C358D040EF
:1041D00075E0CB57DF4F7883C558D040CA57DF4FC3
:1041E0008881C658D04080788068CA57DF4F88835E
:1041F000C658D040C654DF4F19830883CA5BD040ED
:10420000BE0166547F4FCE018F579F4F0E94B81456
:1042100020E090E0A114B10431F0B801C5010E9482
:10422000470B202F912FCF57DF4F79826882C158DB
:10423000D040AEE2B2E0CD57DF4FB983A883C35878
:10424000D040B7E0CB57DF4FB883C558D040CA57EE
:10425000DF4F8881C658D04080788068CA57DF4FCA
:104260008883C658D040CA54DF4F2883C65BD040ED
:10427000C954DF4F9883C75BD040BE016A547F4F5B
:10428000CE018F579F4F0E94B814B801C6010E94FB
:10429000470BCF57DF4F79826882C158D040E6E3A1
:1042A000F2E0CD57DF4FF983E883C358D040F4E004
:1042B000CB57DF4FF883C558D040CA57DF4F8881AE
:1042C000C658D04080788068CA57DF4F8883C65868
:1042D000D040C854DF4F19830883C85BD040BE016B
:1042E00068547F4FCE018F579F4F0E94B8140E9491
:1042F0007F0D2FEF421A520A36E0E30EF11C37CF42
:104300006AE971E0C6010E94F32A892BA9F11A8398
:10431000098388EB91E09C838B8387E08D838E817A
:10432000807880688E83BE016F5F7F4FCE018F578C
:104330009F4F0E944C12CB57DF4F88819981C558FF
:10434000D040892B69F0CF57DF4F08811981C158C0
:10435000D0406BE671E0C8010E94E32A892B51F43A
:1043600090E080E00E946015CE018F579F4F0E9421
:10437000750B82CEC801F6CFC255DF4F1983088373
:10438000CE5AD04088E192E0C055DF4F99838883B0
:10439000C05BD04084E0CE54DF4F8883C25BD04006
:1043A000CD54DF4F8881C35BD04080788068CD5486
:1043B000DF4F8883C35BD040CE0182559F4F0E9460
:1043C0005F0E7C01CE0101960E947912E114F10486
:1043D00009F431C2D70114968C911497803409F0F6
:1043E0002AC26EEF72E08C910E949E04CF57DF4F7D
:1043F000688379838A839B83C158D040CB57DF4F32
:1044000019830883C558D04086E0FE01EF57FF4F5F
:10441000DE01A657BF4F01900D928A95E1F7CF5765
:10442000DF4F28813981C158D040CD57DF4F888177
:10443000C358D040C657DF4F39832883CA58D0406D
:10444000C457DF4F8883CC58D040C257DF4F198301
:104450000883CE58D04086E0FE01E657FF4FDE01CC
:10446000A057BF4F01900D928A95E1F77E01B6E902
:10447000EB0EF11C86E0FE01E057FF4FD7010190E3
:104480000D928A95E1F71BE032E0732E01E044E0E3
:10449000842E53E0652ED701ED91FC911197309752
:1044A00009F4C9C114968D919C91C456DF4FF983CC
:1044B000E883CC59D040C256DF4F99838883CE59C8
:1044C000D0408481863061F18A3009F445C08C3057
:1044D00009F47FC083FFC9C0CE0184569F4F0E945C
:1044E00089076A962FAD6A97283008F06AC0129F34
:1044F00090011124E1E0F0E0EC0FFD1FE20FF31F4B
:1045000060826183728383839483C901059663E625
:1045100071E021E030E02C0F3D1F820F931F48C057
:1045200020816A968FAD6A97883008F04AC0189F3C
:10453000C0011124E1E0F0E0EC0FFD1FE80FF91FCE
:1045400010822183059663E671E0E1E0F0E0EC0F74
:10455000FD1F8E0F9F1F2CC080819181A281B3818E
:104560008115F0E89F07A105B10508F046C06A96DD
:104570002FAD6A97283028F5129F90011124E1E0B1
:10458000F0E0EC0FFD1FE20FF31F0083092E000C7B
:10459000AA0BBB0B81839283A383B483C9010596C5
:1045A00063E671E041E050E04C0F5D1F840F951F02
:1045B0000E942D126A968FAD6A978F5F6A968FAFB1
:1045C0006A97D70114966D917C91C7010E94EA0702
:1045D00062CF80819181A281B381AC01BD0150582D
:1045E0006F4F7F4F411551056140710508F4BFCFF2
:1045F000482F392F2A2F5B2F06C0482F392F2A2FFB
:104600005B2FB7FD1DC06A968FAD6A978830C8F6DC
:10461000189FC0011124E1E0F0E0EC0FFD1FE80F4E
:10462000F91F00834183328323835483059663E615
:1046300071E0A1E0B0E0AC0FBD1F8A0F9B1FB8CFA7
:104640006A968FAD6A97883008F0BBCF189FC0017B
:104650001124E1E0F0E0EC0FFD1FE80FF91F70827C
:1046600041833283A383B4836DCF9CEF980F923044
:1046700008F060C0CF010E94BD0D6A962FAD6A9709
:10468000283008F09ECFE1E0F0E0EC0FFD1F129F14
:10469000E00DF11D112480826115710511F463E6AE
:1046A00071E0CE018F579F4F0E9437126A968FADEF
:1046B0006A97A82EB12CCC24C394D12CCC0EDD1E2D
:1046C000189FC00CD11C1124D60115968D919C9178
:1046D0001697CF57DF4F68817981C158D040009736
:1046E00009F476C06115710509F470C017964D91F3
:1046F0005C91CB57DF4F28813981C558D040421794
:10470000530708F463C00E94EC2ACB57DF4F88811F
:104710009981C558D040F60192878187CB57DF4FEA
:1047200019821882C558D040CE018F579F4F0E94E2
:10473000750B40CF823009F49DCF63E671E0CE0166
:104740008F579F4F0E943712C456DF4F688179817F
:104750008A819B81CC59D040AE014F575F4F0E9458
:1047600082116A968FAD6A97883050F5189FC00104
:104770001124E1E0F0E0EC0FFD1FE80FF91F80824B
:10478000059641E050E04C0F5D1F840F951FCF57F9
:10479000DF4F68817981C158D0406115710509F4F6
:1047A00047C0CB57DF4F48815981C558D0400E9440
:1047B0000C126A968FAD6A978F5F6A968FAF6A9771
:1047C000CE018F579F4F0E94750BFBCE0E949429FC
:1047D0001A9DF0011B9DF00D112421E030E02C0FFB
:1047E0003D1FE20FF31FCF57DF4F88819981C158DA
:1047F000D04096838583CD57DF4F88819981C358F8
:10480000D04090878783CB57DF4F88819981C558E7
:10481000D04092878187CF57DF4F19821882C158C5
:10482000D040CD57DF4F19821882C358D04076CF81
:104830000E94630BBECF0EEF12E0CE55DF4F1983FF
:104840000883C25AD04088EB91E0CC55DF4F998362
:104850008883C45AD04087E0CA55DF4F8883C65A40
:10486000D040C955DF4F8881C75AD04080788068D2
:10487000C955DF4F8883C75AD040BE016E557F4F60
:10488000CE0188559F4F0E944C12CA56DF4F1983A4
:104890000883C659D04084EF91E0C856DF4F998312
:1048A0008883C859D04083E0C656DF4F8883CA59F1
:1048B000D040C556DF4F8881CB59D0408078806882
:1048C000C556DF4F8883CB59D040BE016A567F4F13
:1048D000CE0184569F4F0E944C120E941701C05671
:1048E000DF4F88819981C05AD040892B09F450C08C
:1048F000C456DF4FE880F980CC59D04000912103A5
:1049000010912203C455DF4F88819981CC5AD04041
:10491000892B09F460C0C855DF4FC880D980C85AB8
:10492000D0406BE671E0C6010E94E32A892B09F4AE
:1049300052C00115110509F44CC0B601F80180817F
:1049400091810E94E32A892B09F03FC0B701D80169
:1049500012968D919C910E94E32A892BB1F5D80182
:104960001496ED91FC9181E0309719F0CE010196FB
:104970000995C456DF4F68817981CC59D040482FC2
:10498000C855DF4F88819981C85AD0400E942B16A4
:104990000E942B01CE0184569F4F0E94750BCE01C1
:1049A00088559F4F0E94750B8E01075A1F4F9E011D
:1049B0002F5F3F4F79010B501109C80105960E94E6
:1049C000750BE016F106B9F757CBF8010681178190
:1049D000B0CF85E0CECFD12C0115110501F1B70183
:1049E000D80112968D919C910E94E32A892B91F413
:1049F000D8011496ED91FC9181E0309719F0CE0129
:104A000001960995482FB701F801808191810E9494
:104A10002B16D92CD80116960D911C91DDCFD110F3
:104A2000B7CF0E94D5090EEF12E0CF57DF4F1983A1
:104A30000883C158D0408BE791E0CD57DF4F998371
:104A40008883C358D04089E0CB57DF4F8883C5584F
:104A5000D040CA57DF4F8881C658D04080788068E0
:104A6000CA57DF4F8883C658D0406EE173E0CE014D
:104A70008F579F4F0E942E158DED90E0CC54DF4F45
:104A800099838883C45BD040CF57DF4F1983088355
:104A9000C158D04085E891E0CD57DF4F9983888396
:104AA000C358D0408CE0CB57DF4F8883C558D040E7
:104AB000CA57DF4F8881C658D04080788068CA576F
:104AC000DF4F8883C658D040BE016C547F4FCE0163
:104AD0008F579F4F0E940814CF57DF4F19830883C9
:104AE000C158D04082E991E0CD57DF4F9983888348
:104AF000C358D04087E0CB57DF4F8883C558D0409C
:104B0000CA57DF4F8881C658D04080788068CA571E
:104B1000DF4F8883C658D040CE018F579F4F0E94E9
:104B2000EF13DC01CB01C056DF4F68817981C05A99
:104B3000D0407F77C456DF4F4881CC59D040C35610
:104B4000DF4F5881CD59D040272F2F77E32DE078C4
:104B50003E2E322AE89437F89D01732D0E941C0BDB
:104B6000CF57DF4F19830883C158D04085EA91E0C1
:104B7000CD57DF4F99838883C358D0408BE0CB5704
:104B8000DF4F8883C558D040CA57DF4F8881C65849
:104B9000D04080788068CA57DF4F8883C658D0409D
:104BA0006DE273E0CE018F579F4F0E9408150E945F
:104BB0007F0DEECE4091290350912A0360912B0383
:104BC00070912C038091450290914602A09147027A
:104BD000B091480284179507A607B70708F048C0A8
:104BE00007E411E0F8018491E3E3F1E0E490EFE100
:104BF000F1E0F490FF2009F44BC081110E942104E0
:104C0000EF2DF0E0EE0FFF1FE85FFE4FA591B4918E
:104C10008C91E82291E080E009F490E0E92EF82EF2
:104C2000F8018491E3E3F1E0D490EFE1F1E0149135
:104C30001123A1F081110E942104E12FF0E0EE0F79
:104C4000FF1FE250FF4FA591B4918FB7F8949C914C
:104C5000EF2809F1D094D922DC928FBF0E944A0438
:104C600060934502709346028093470290934802F6
:104C700080E090E0892B11F40C94BD1B0E947E0310
:104C8000882311F40C94BD1B0E9400000C94BD1BE2
:104C9000F12CE12CC5CFD92ADFCFCF93DF93C09180
:104CA000FE02D091FF0280910103909102030097D0
:104CB00059F0FC01208131813093020320930103DC
:104CC000BE010E94CB09EFCF8091FE029091FF02BE
:104CD000DF91CF910C944901FB01DC0104C08D915F
:104CE0000590801921F441505040C8F7881B990B5A
:104CF0000895FB01DC0102C005900D924150504027
:104D0000D8F70895FC0105900020E9F7809590956B
:104D10008E0F9F1F0895FC01059061507040011097
:104D2000D8F7809590958E0F9F1F08950E94D826E2
:104D300008F481E00895E89409C097FB3EF490954B
:104D40008095709561957F4F8F4F9F4F9923A9F064
:104D5000F92F96E9BB279395F695879577956795F3
:104D6000B795F111F8CFFAF4BB0F11F460FF1BC037
:104D70006F5F7F4F8F4F9F4F16C0882311F096E9CA
:104D800011C0772321F09EE8872F762F05C0662378
:104D900071F096E8862F70E060E02AF09A95660F31
:104DA000771F881FDAF7880F9695879597F90895EA
:104DB000990F0008550FAA0BE0E8FEEF161617062C
:104DC000E807F907C0F012161306E407F50798F094
:104DD000621B730B840B950B39F40A2661F0232BAD
:104DE000242B252B21F408950A2609F4A140A69529
:104DF0008FEF811D811D08950E940F270C9480273D
:104E00000E94722738F00E94792720F0952311F034
:104E10000C9469270C946F2711240C94B4270E94DA
:104E2000912770F3959FC1F3950F50E0551F629F36
:104E3000F001729FBB27F00DB11D639FAA27F00DF3
:104E4000B11DAA1F649F6627B00DA11D661F829F1A
:104E50002227B00DA11D621F739FB00DA11D621FFF
:104E6000839FA00D611D221F749F3327A00D611D1C
:104E7000231F849F600D211D822F762F6A2F1124FE
:104E80009F5750409AF0F1F088234AF0EE0FFF1F31
:104E9000BB1F661F771F881F91505040A9F79E3F88
:104EA000510580F00C9469270C94B4275F3FE4F31C
:104EB000983ED4F3869577956795B795F795E795DE
:104EC0009F5FC1F7FE2B880F911D9695879597F9E7
:104ED000089597F99F6780E870E060E008959FEF7C
:104EE00080EC089500240A94161617061806090681
:104EF000089500240A941216130614060506089550
:104F0000092E0394000C11F4882352F0BB0F40F4D7
:104F1000BF2B11F460FF04C06F5F7F4F8F4F9F4F17
:104F2000089557FD9058440F551F59F05F3F71F099
:104F30004795880F97FB991F61F09F3F79F0879500
:104F40000895121613061406551FF2CF4695F1DF89
:104F500008C0161617061806991FF1CF8695710519
:104F6000610508940895E894BB2766277727CB014D
:104F700097F908950E94FC27A59F900DB49F900D6E
:104F8000A49F800D911D112408952F923F924F925E
:104F90005F926F927F928F929F92AF92BF92CF92C9
:104FA000DF92EF92FF920F931F93CF93DF93CDB7D2
:104FB000DEB7CA1BDB0B0FB6F894DEBF0FBECDBF4A
:104FC00009942A88398848885F846E847D848C841B
:104FD0009B84AA84B984C884DF80EE80FD800C8124
:104FE0001B81AA81B981CE0FD11D0FB6F894DEBF07
:104FF0000FBECDBFED010895A29FB001B39FC001C8
:10500000A39F700D811D1124911DB29F700D811DF4
:105010001124911D08955058BB27AA270E942328C8
:105020000C9480270E94722738F00E94792720F084
:1050300039F49F3F19F426F40C946F270EF4E09591
:10504000E7FB0C946927E92F0E94912758F3BA17C0
:10505000620773078407950720F079F4A6F50C948E
:10506000B3270EF4E0950B2EBA2FA02D0B01B9013A
:1050700090010C01CA01A0011124FF27591B99F0CE
:10508000593F50F4503E68F11A16F040A22F232FDA
:10509000342F4427585FF3CF469537952795A7952A
:1050A000F0405395C9F77EF41F16BA0B620B730BD1
:1050B000840BBAF09150A1F0FF0FBB1F661F771F42
:1050C000881FC2F70EC0BA0F621F731F841F48F4F7
:1050D000879577956795B795F7959E3F08F0B0CF80
:1050E0009395880F08F09927EE0F97958795089567
:1050F0000E94992788F09F5798F0B92F9927B751A8
:10510000B0F0E1F0660F771F881F991F1AF0BA956B
:10511000C9F714C0B13091F00E94B327B1E00895EF
:105120000C94B327672F782F8827B85F39F0B93FE1
:10513000CCF3869577956795B395D9F73EF490951E
:105140008095709561957F4F8F4F9F4F08950E9476
:10515000D82608F48FEF0895DB018F939F930E9468
:10516000BA27BF91AF91A29F800D911DA39F900D73
:10517000B29F900D11240895AA1BBB1B51E107C0DB
:10518000AA1FBB1FA617B70710F0A61BB70B881FD7
:10519000991F5A95A9F780959095BC01CD01089566
:1051A000A1E21A2EAA1BBB1BFD010DC0AA1FBB1F2B
:1051B000EE1FFF1FA217B307E407F50720F0A21B9D
:1051C000B30BE40BF50B661F771F881F991F1A940A
:1051D00069F760957095809590959B01AC01BD0134
:1051E000CF010895EE0FFF1F0590F491E02D099473
:1051F0000F931F93CF93DF938230910510F482E0D9
:1052000090E0E0913303F091340330E020E0B0E02F
:10521000A0E0309799F42115310509F44AC0281B04
:10522000390B24303105D8F58A819B8161157105D0
:1052300089F1FB0193838283FE0111C0408151817A
:105240000281138148175907E0F04817590799F46C
:10525000109761F012960C93129713961C93329646
:10526000CF01DF91CF911F910F91089500933303E8
:1052700010933403F4CF2115310551F04217530731
:1052800038F0A901DB019A01BD01DF01F801C1CFAE
:10529000EF01F9CF9093340380933303CDCFFE0118
:1052A000E20FF31F819391932250310939832883B0
:1052B000D7CF2091310330913203232B41F4209139
:1052C0000401309105013093320320933103209182
:1052D0000201309103012115310541F42DB73EB78C
:1052E0004091060150910701241B350BE0913103D9
:1052F000F0913203E217F307A0F42E1B3F0B28179F
:10530000390778F0AC014E5F5F4F2417350748F03E
:105310004E0F5F1F5093320340933103819391935B
:105320009FCFF0E0E0E09CCFCF93DF930097E9F0D0
:10533000FC01329713821282A0913303B09134039F
:10534000ED0130E020E01097A1F420813181820F3F
:10535000931F20913103309132032817390709F048
:1053600061C0F0933203E0933103DF91CF91089550
:10537000EA01CE17DF07E8F54A815B819E014115FE
:105380005105B1F7E901FB83EA8349915991C40FB3
:10539000D51FEC17FD0761F4808191810296840F7F
:1053A000951FE90199838883828193819B838A83F6
:1053B000F0E0E0E012968D919C9113970097B9F57B
:1053C0002D913C911197CD010296820F931F209150
:1053D0003103309132032817390739F6309751F5E8
:1053E0001092340310923303B0933203A09331032D
:1053F000BCCFD383C28340815181840F951FC817CE
:10540000D90761F44E5F5F4F88819981480F591F1A
:10541000518340838A819B81938382832115310547
:1054200009F0B0CFF0933403E09333039ECFFD0136
:10543000DC01C0CF13821282D7CFB0E0A0E0E3E25C
:10544000FAE20C94C7278C01009751F4CB010E941B
:10545000F8288C01C801CDB7DEB7E0E10C94E32752
:10546000FC01E60FF71F9C0122503109E217F307F8
:1054700008F49DC0D901CD91DC911197C617D707CB
:1054800098F0C530D10530F3CE0104978617970701
:1054900008F3C61BD70B2297C193D1936D937C93CE
:1054A000CF010E949429D6CF5B01AC1ABD0A4C01F2
:1054B0008C0E9D1EA0913303B0913403512C412CCE
:1054C000F12CE12C109731F580913103909132034A
:1054D0008815990509F05CC04616570608F058C0B3
:1054E0008091020190910301009741F48DB79EB71E
:1054F0004091060150910701841B950BE817F907AD
:1055000008F055C0F0933203E0933103F901718341
:105510006083A0CF8D919C91119712966C901297F9
:1055200013967C901397A815B90559F56C0142E0C4
:10553000C40ED11CCA14DB0420F1AC014A195B096A
:10554000DA011296159780F062827382518340834C
:10555000D9016D937C93E114F10471F0D701139696
:10556000FC93EE93129776CF22968C0F9D1FF90134
:1055700091838083F301EFCFF0933403E0933303FF
:1055800069CF4816590608F42C017D01D3019ACF42
:10559000CB010E94F8287C01009749F0AE01B801C8
:1055A0000E94DA2AC8010E949429870153CF10E093
:1055B00000E050CFFB01DC0102C001900D92415090
:1055C0005040D8F70895FB01DC018D9101908019BE
:1055D0000110D9F3990B0895FB01DC0101900D92A4
:1055E0000020E1F70895FB0151915523A9F0BF0177
:1055F000DC014D9145174111E1F759F4CD010190BE
:10560000002049F04D9140154111C9F3FB014111B2
:10561000EFCF81E090E00197089510E0C9ECD0E071
:1056200004C0FE010E94F2282196CA3CD107C9F7A6
:04563000F894FFCF1C
:0656340000000000000070
:10563A000C0100003503800000000000440B7D0BC4
:10564A00E8127E0072006800A500960088005601E4
:10565A00CC00C400BB00B300DD0000000000B403AE
:10566A001403410301047203500364035365702059
:10567A00313320323032362031333A31323A333014
:10568A00002F2F272722225C5C6208660C6E0A72A2
:10569A000D7409005C7530303030006E756C6C002A
:1056AA00747275650066616C736500617070617211
:1056BA006174757300626F6479526573706F6E738B
:1056CA00650072657175657374006765744163740A
:1056DA00696F6E73006170706172617475734944A9
:1056EA0000616374696F6E00656C656D656E740048
:1056FA006C6F636F6D6F74696F6E0074656D705354
:10570A00656E736F7200616E6F7468657254656D51
:10571A007053656E736F720074656D706572617433
:10572A00757265006D7367006765745065726365AD
:10573A007074730070657263657074007479706553
:10574A0000737461747573006172677300676574BE
:10575A004B6E6F77486F7700736B696C6C00636F81
:0C576A006E7465787400706C616E000055
:00000001FF
