:100000000C94CA000C94F2000C94F2000C94F200D0
:100010000C94F2000C94F2000C94F2000C94F20098
:100020000C94F2000C94F2000C94F2000C94F20088
:100030000C94F2000C94F2000C94F2000C94F20078
:100040000C9461190C94F2000C942F190C9409195A
:100050000C94F2000C94F2000C94F2000C94F20058
:100060000C94F2000C94F200756E6368616E676523
:100070006400756E617661696C61626C65007065C3
:10008000726365707465640065787465726F63652A
:100090007074696F6E0070726F7072696F636570F3
:1000A00074696F6E00696E7465726F6365707469F0
:1000B0006F6E00696E76616C69640072656A656373
:1000C00074656400616C726561647900756E61626B
:1000D0006C650000000000250028002B00000000D7
:1000E00000240027002A00756E6B6E6F776E00701B
:1000F00065726365707465640070726F7072696FA9
:1001000063657074696F6E000000000023002600B4
:10011000290004040404040404040202020202028A
:1001200003030303030301020408102040800102BB
:10013000040810200102040810200000000800023A
:100140000100000304070000000000000000756EBD
:100150006B6E6F776E00657865637574656400CD4E
:10016000CCCC3D0AD7233C17B7D13877CC2B32956E
:1001700095E6241FB14F0A000020410000C842004C
:10018000401C4620BCBE4CCA1B0E5AAEC59D740016
:10019000AB19F22411241FBECFEFD8E0DEBFCDBFD4
:1001A00023E0A2E1B2E001C01D92A83CB207E1F752
:1001B00012E0A0E0B1E0E6E8F3E502C005900D92A0
:1001C000A231B107D9F710E0C9ECD0E004C0219703
:1001D000FE010E949727C83CD107C9F70E947C1AEC
:1001E0000C94B2290C940000CF93C82F8091BC02CC
:1001F0009091BD02DC01ED91FC910084F185E02D30
:100200000995181619067CF48091BC029091BD02E4
:10021000DC01ED91FC910284F385E02D099521E04C
:10022000C817190609F020E0822FCF910895809118
:10023000C90281110FC08091BC029091BD02DC0106
:10024000ED91FC910190F081E02D60EC099581E049
:100250008093C90208958091C9028823C9F08091D2
:10026000BC029091BD02DC01ED91FC910190F08106
:10027000E02D60EC09958091BC029091BD02DC01FB
:10028000ED91FC910680F781E02D09951092C9024D
:100290000895FF920F931F93CF93DF938C01F12C5E
:1002A0006091DF027091E0028091E102F816C8F4DB
:1002B00084E0F89EE0011124C60FD71F6A817B817C
:1002C0006115710541F0D801ED91FC910280F38137
:1002D000E02DC80109951B821A8218821982F394B5
:1002E000DFCF1092E1028FEF8093E302B2E06F3C28
:1002F0007B0789F0D801ED91FC910280F381E02D1C
:10030000C80109958FEC92E09093E0028093DF02A0
:1003100084E08093E202DF91CF911F910F91FF90D3
:1003200008952F923F924F925F926F927F928F9299
:100330009F92AF92BF92CF92DF92EF92FF920F9374
:100340001F93CF93DF9300D000D000D01F92CDB782
:10035000DEB79A8389834A015B0120E836E948E1E8
:100360005BE4CB01B4010E944C2787FD89C004E106
:1003700010E080E290E09C838B83312C212CF801EB
:10038000E958FE4F2591359145915491C501B4012D
:100390000E944C2787FD11C0F801E15AFE4F2591BC
:1003A000359145915491C501B4010E94A1254B019D
:1003B0005C01AB81BC812A0E3B1EEB81FC81F59573
:1003C000E795FC83EB83045011090C3FFFEF1F07F7
:1003D000B1F677247A9420E030E0A901C501B40198
:1003E0000E944C2718160CF054C02CEA35EC47E25A
:1003F00057E3C501B4010E943B2518160CF449C00F
:10040000972DA4E09A0280011124F12CE12CF8012F
:10041000E15AFE4F6F0109581E4FFFEF7F1609F496
:1004200038C0F601EE0DFF1D65917591859194918F
:1004300020E030E040E251E40E94A125A5019401B2
:100440000E944C2718168CF4F801EE0DFF1D259123
:10045000359145915491C501B4010E94A1254B01EC
:100460005C018B819C81281A390AAB81BC81B595CE
:10047000A795BC83AB837A94B4E0EB1AF108CDCF97
:1004800080E290E09C838B8335E0732E312C212C0D
:10049000A2CFC501B4010E941D276B017C012B0175
:1004A0003C0180E492E4AFE0B0E08B839C83AD83B9
:1004B000BE8396E09F83AAE04A165104610471044A
:1004C000E0F06B817C818D819E812AE030E040E00C
:1004D00050E00E9475272B833C834D835E83BF8150
:1004E000B150BF83C301B2012AE030E040E050E0E8
:1004F0000E94752729013A01DECFC701B6010E948B
:1005000040259B01AC01C501B4010E94B0264B01FE
:100510005C016B817C818D819E810E9440259B01C5
:10052000AC01C501B4010E94A1252B013C010E9430
:100530001D274B015C010E9440259B01AC01C301BA
:10054000B2010E94B0269B01AC010E94B1260E941C
:100550001D27860E971EA81EB91E8B819C81AD811A
:10056000BE8188169906AA06BB06C0F09FEFC91A7D
:10057000D90AE90AF90A2114310439F1AAE0CA16A4
:10058000D104E104F10408F1BFEF2B1A3B0A812CDE
:10059000912C5401C12CD12C7601C3948AE0482EB1
:1005A000512C612C712CC501B401A30192010E9450
:1005B0007527672B682B692B61F4EF811E164CF4AD
:1005C00049015A01E150EF83EECF812C912C540167
:1005D000E5CFA981BA81CD92DD92ED92FC9213977D
:1005E000FD0184829582A682B782318620868F8122
:1005F0008287CD0127960FB6F894DEBF0FBECDBF20
:10060000DF91CF911F910F91FF90EF90DF90CF90EE
:10061000BF90AF909F908F907F906F905F904F9022
:100620003F902F9008950895AF92BF92CF92DF929E
:10063000EF92FF920F931F93CF93DF936C017B0197
:100640008B01040F151FEB015E01AE18BF08C01728
:10065000D10759F06991D601ED91FC910190F0819B
:10066000E02DC6010995892B79F7C501DF91CF915E
:100670001F910F91FF90EF90DF90CF90BF90AF90C0
:100680000895FC01538D448D252F30E0842F90E098
:10069000821B930B541710F0CF960895019708957D
:1006A000FC01918D828D981761F0A28DAE0FBF2F46
:1006B000B11D5D968C91928D9F5F9F73928F90E09C
:1006C00008958FEF9FEF0895FC01918D828D98170B
:1006D00031F0828DE80FF11D858D90E008958FEF48
:1006E0009FEF0895FC01918D228D892F90E0805C11
:1006F0009F4F821B91098F73992708958FE192E094
:100700000E94720321E0892B09F420E0822F0895D2
:1007100080E090E0892B29F00E947E0381110C94E7
:1007200000000895FC01A48DA80FB92FB11DA35A94
:10073000BF4F2C91848D90E001968F739927848F01
:10074000A689B7892C93A089B1898C918370806424
:100750008C93938D848D981306C00288F389E02DC5
:1007600080818F7D80830895EF92FF920F931F9376
:10077000CF93DF93EC0181E0888F9B8D8C8D981354
:100780001AC0E889F989808185FF15C09FB7F89460
:10079000EE89FF896083E889F989808183708064AC
:1007A00080839FBF81E090E0DF91CF911F910F91F7
:1007B000FF90EF900895F62E0B8D10E00F5F1F4F06
:1007C0000F731127E02E8C8D8E110CC00FB607FC15
:1007D000FACFE889F989808185FFF5CFCE010E94A3
:1007E0009203F1CFEB8DEC0FFD2FF11DE35AFF4F7C
:1007F000F0829FB7F8940B8FEA89FB898081806231
:10080000CFCFCF93DF93EC01888D8823B9F0AA89ED
:10081000BB89E889F9898C9185FD03C0808186FDBB
:100820000DC00FB607FCF7CF8C9185FFF2CF80810A
:1008300085FFEDCFCE010E949203E9CFDF91CF91EA
:100840000895833081F028F4813099F08230A9F046
:1008500008958730A9F08830C9F08430B1F48091D0
:1008600080008F7D03C0809180008F77809380000F
:10087000089584B58F7784BD089584B58F7DFBCFAF
:100880008091B0008F778093B00008958091B00080
:100890008F7DF9CF1F93CF93DF93282F30E0F9019D
:1008A000E65CFE4F8491F901EA5DFE4FD491F901B7
:1008B000EE5EFE4FC491CC23A9F0162F81110E9449
:1008C0002104EC2FF0E0EE0FFF1FED52FF4FA5913A
:1008D000B4918FB7F894EC91111108C0D095DE2334
:1008E000DC938FBFDF91CF911F910895DE2BF8CF5E
:1008F0002FB7F89460911702709118028091190235
:1009000090911A022FBF08950F931F93CF93DF93F7
:10091000EC010E947804688779878A879B87E88141
:10092000F9810284F385E02DCE01099597FF15C06A
:100930000E947804088519852A853B85601B710B08
:10094000820B930B0C811D812E813F8160177107F3
:100950008207930720F38FEF9FEFDF91CF911F91D5
:100960000F9108956F3FA9F0E62FE295EF7044E0F4
:10097000E49F90011124DC01ED91FC91E20FF31F43
:100980006F7082819381B6E06B9F800D911D112461
:10099000089590E080E00895CF93C82FCB016C2F8D
:1009A00045960E94B2042FEF009711F0FC012581BB
:1009B000BC018C2F922FCF910895982F80336CF02B
:1009C0008A3324F08F3524F08B3724F481E00895A6
:1009D00081341CF081E09B350CF080E00895CF93CA
:1009E000DF93EC0188819981DC01ED91FC9101900C
:1009F000F081E02D09952A813B81820F931F9B8313
:100A00008A83DF91CF910895CF93DF93EC018881A2
:100A10009981DC01ED91FC910280F381E02D099533
:100A20002A813B81820F931F9B838A83DF91CF9121
:100A300008958F929F92AF92BF92CF92DF92EF92E2
:100A4000FF920F931F93CF93DF93CDB7DEB76697D7
:100A50000FB6F894DEBF0FBECDBF6C018E01095EEC
:100A60001F4F78018AE0882E912CA12CB12CCB014C
:100A7000BA01A50194010E947527942F852F605D0E
:100A8000F80162938F01A901692F782F4115510553
:100A90006105710561F7A7014E1B5F0BBF01C60120
:100AA0000E94040566960FB6F894DEBF0FBECDBF58
:100AB000DF91CF911F910F91FF90EF90DF90CF903A
:100AC000BF90AF909F908F900895FC018485811115
:100AD00014C0A781B085818592852FEF3FEFA817BD
:100AE000B90730F4CD010196908787832C9130E0CF
:100AF00037FD20E0238781E08487838508951F9355
:100B0000CF93DF93EC01162F0E946505811306C079
:100B10001C8681E0DF91CF911F91089580E0FACF8C
:100B20000F931F93CF93DF938C01EB01899188235F
:100B300069F0C8010E946505882379F0FE013197AC
:100B4000908198130DC0F8011486F0CF90E080E0FA
:100B5000DF91CF911F910F91089582E090E0F8CF3F
:100B600083E090E0F5CFCF93DF93EC01CE010E94BC
:100B700065058B304CF489305CF4882359F081E0B2
:100B80008E8390E080E00BC08D3011F08032B9F799
:100B90001C86ECCF8E81811105C081E090E0DF9151
:100BA000CF91089582E090E0FACFCF93DF93DB01FD
:100BB000FC01808191810097E1F012962C911297AF
:100BC00013964C911397342F3F77FC0143814217C2
:100BD000130671F7ED91FC911197EC0124962E0FFD
:100BE0003F1FE217F30729F0519149915417C9F3B8
:100BF000DFCFDF91CF910895DC0152969C915297FF
:100C0000915084E0989F900111245096ED91FC91B1
:100C1000E20FF31F228133812115310579F04181E3
:100C20008081481758F481E0840F818386E0489FD3
:100C3000200D311D11242115310521F460E070E0F3
:100C40008FEF0895B901892F8295807F840F0895D1
:100C50004F925F926F927F928F929F92AF92BF92CC
:100C6000CF92DF92EF92FF920F931F93CF93DF9378
:100C700000D000D01F92CDB7DEB7DC012C912B3213
:100C8000E1F12D32D9F50196EE24E394FC012081A7
:100C900030ED320F3A3010F02E3291F58C0160E0D9
:100CA00070E0CB01F801219130ED832E820E39E006
:100CB000381508F444C06A3949E97407840749E1E2
:100CC000940708F046C0AAE0B0E09B01AC010E9486
:100CD0005F26912CB12CA12C240135014094509415
:100CE00060947094461657066806790690F1680D70
:100CF000791D8A1D9B1D8F01D5CF0196E12CC6CF92
:100D0000198229813A814B815C816D8170E080E09C
:100D100090E00F900F900F900F900F90DF91CF9178
:100D20001F910F91FF90EF90DF90CF90BF90AF9009
:100D30009F908F907F906F905F904F9008952111BA
:100D400008C0EE2051F161307105810550E895072A
:100D5000A0F0F12CBAE08B2E912CA12CB12C6115B6
:100D6000710530E883079105F8F0A50194010E9410
:100D70007527CA01B901F394F2CF22E029839B01C0
:100D8000AC0188279927DC01821B930BA40BB50BC0
:100D90008A839B83AC83BD83B4CF23E029836A839A
:100DA0007B838C839D83ADCFF801D8012D918D017C
:100DB00030ED320F3A3010F4F394F6CF2E3201F5C5
:100DC0008F010F5F1F4FF8010F5F1F4F2081A0EDB4
:100DD000DA2ED20EB9E0BD1598F06C3CECEC7E0733
:100DE000ECE08E07910578F7AAE0B0E09B01AC013A
:100DF0000E945F266D0D711D811D911DFA94E3CF38
:100E000020812F7D10E000E0253409F050C02181C1
:100E10002D32B1F53296CC24C394DF0110E000E00E
:100E20002F2D0F2C000C330B5AE0B52EFD01DD9059
:100E300040ED4D0D4A30B0F5B09EA001B19E500D71
:100E400011240D2DDD0C110B00531109040F151F7A
:100E5000A801420F531F4732510544F3CC20B9F08B
:100E600080E090E0A0E0B0E8E11003C080E090E016
:100E7000DC0121E029838A839B83AC83BD8341CF3E
:100E80002B3219F03196C12CC8CF3296FCCF80E0BE
:100E900090E0A0E8BFEFE110ECCF80E090E0A0E8A8
:100EA000BFE7E7CFCC2019F01195019511092081FA
:100EB000211126CF0F0D111DF7FC1A950E94402518
:100EC00037E7C32E31E0D32E101611063CF01195F2
:100ED000019511094FE5C42E41E0D42EF12C0115E6
:100EE000110591F000FF0CC024E0F29EF0011124E6
:100EF000EC0DFD1D25913591459154910E94A12540
:100F000015950795F394EBCFE110905821E02983D4
:100F10006A837B838C839D83F4CECF93DF9300D051
:100F200000D01F92CDB7DEB7FC01A081B181109730
:100F300009F43DC01496EC911497E250ED3008F09E
:100F400036C0F0E0EA55F84F0C949727C607D7074C
:100F5000DB07DE07B307D707D707D707BA07D707D7
:100F6000BF07D707E2076C9170E090E080E00E9435
:100F700040252CC06D917D918D919C91F8CF6D9104
:100F80007D918D919C910E94422520C0CD010E94AF
:100F900028063A834B835C836D836A817B818C81D5
:100FA0009D81223081F3233011F3213079F060E00C
:100FB00070E0CB010BC08D919C91E9CF8D919C91FC
:100FC0000496E5CF6D917D918D919C910F900F903E
:100FD0000F900F900F90DF91CF9108951F93CF93B3
:100FE000DF93EC01CB011B81612F45960E94B20477
:100FF000998388831A83009719F0FC0185818B837C
:10100000DF91CF911F910895CF92DF92EF92FF92DF
:101010000F931F93CF93DF937C016B018A01FC0137
:10102000C081D1814F3F510509F0B0F4E881F981C9
:101030000480F581E02D4B5F5F4FCE01099500974D
:1010400059F0FC010383DF91CF911F910F91FF9025
:10105000EF90DF90CF900895E881F9810280F381CD
:10106000E02DB601CE01099581E0F701828390E081
:1010700080E0E9CF1F93CF93DF93EC01162F6A81B5
:101080007B816115710589F04C815D81FB01838154
:101090008417150651F4440F551F4F5F5F4F888129
:1010A00099810E9404089B838A838A819B8100978F
:1010B00059F02C813D81A9014F5F5F4F5D834C83C7
:1010C000820F931FFC011483DF91CF911F9108952C
:1010D0009F92AF92BF92CF92DF92EF92FF920F93C7
:1010E0001F93CF93DF9300D000D01F92CDB7DEB710
:1010F0008C010E946505D82EF8011486F12CE12C94
:1011000060EFC62EC8010E946505F8011486D81646
:1011100009F4B3C0811113C082E090E00F900F90EA
:101120000F900F900F90DF91CF911F910F91FF9033
:10113000EF90DF90CF90BF90AF909F9008958C3547
:1011400009F099C0C8010E946505882329F3E1E5EB
:10115000F1E0853709F083C0F801148654E0952E3C
:10116000B12CA12CC8010E9465058823A9F2813405
:1011700034F48053803130F083E090E0CFCF8F7D26
:101180008753F8CF44E0AA0CBB1C4A95E1F7A82A84
:10119000F80114869A949110E5CFC501985D8115E8
:1011A000944020F47501F3E0FF22ACCFC5019C5DB3
:1011B00081159440A8F483E0B822B701762F662702
:1011C000770F770F6A297B2990E080E001966038DD
:1011D00071058105910540F4C8010E943A0892CF3B
:1011E000B50190E080E0F3CF1982262F2F7320689D
:1011F0002A8326E096958795779567952A95D1F766
:101200006032710580F4606C6B835E01E4E0AE0EC9
:10121000B11CF50162915F01662309F473CFC80127
:101220000E943A08F6CF262F2F7320682B8386E082
:10123000769567958A95E1F76031710538F4606EAF
:101240006C835E01F5E0AF0EB11CE3CF60686C8388
:10125000CD825E0126E0A20EB11CDBCF32969081DA
:10126000992309F489CF8913F9CF8181882309F45F
:1012700083CFF8011486682FAFCF82819381892BA9
:1012800019F484E090E04ACF90E080E047CFAF923D
:10129000BF92CF92DF92EF92FF920F931F93CF9363
:1012A000DF9300D000D0CDB7DEB7DC0112962D91D0
:1012B0003C9113972C5F3F4F14964D915C914430B5
:1012C000510580F57901D901E0E0142F022FFA2FA2
:1012D000F21BF11730F4DD90F1E0D110F0E0EF2BCC
:1012E000F6CFE1111FC082E0FB0184838E2D801BAD
:1012F000811728F4D7018D917D018193F7CF640F79
:10130000751FFB0110820F900F900F900F90DF91CF
:10131000CF911F910F91FF90EF90DF90CF90BF90F2
:10132000AF9008957B018C01420F531FDA011C928C
:10133000FC01C080D180A480B5803A832983AB8230
:101340008B2D8F778C83BE016F5F7F4FC601039615
:101350000E94D5050097D9F4D80112966D917C9121
:10136000A501C6010E940408D801ED91FC912381DA
:101370003481DC012D933C9394838383F8011382A1
:10138000128225E0F701248391838083BCCFDC01A6
:1013900012962C9112972F5F12962C93F2CFDB01AD
:1013A000ED91FC9111970280F381E02DBC01CD01FC
:1013B0000994CF93DF938091CA029091CB020E944F
:1013C00049011092CC02C091CA02D091CB02809107
:1013D000CD029091CE02009759F0FC01208131811D
:1013E0003093CE022093CD02BE010E94CF09EFCFF1
:1013F0001092E802DF91CF910895AF92BF92CF9201
:10140000DF92EF92FF920F931F93CF93DF93EC0144
:101410008B018C8180FF24C0A881B981FB0183816D
:10142000948130E020E00097D9F0A817B907D1F5F2
:10143000F8016081718112968C91129781501296F9
:101440008C93129781110CC08D919C91119721154D
:10145000310529F1F90191838083CD010E94CF09E3
:101460008C81807631F1209721F1F8805801F5E1E7
:10147000AF0EB11C8FEFF816D1F06F2DC5010E9491
:10148000B2046C01FC01E580B8010E94FD09F8017D
:10149000818DF6018083F801F18EFE2CEBCF9483D1
:1014A0008383DBCF9C01FC0180819181BCCFF882DA
:1014B000F9821C82DF91CF911F910F91FF90EF90E5
:1014C000DF90CF90BF90AF900895CF93DF93EC0162
:1014D000CB01CF3FD10509F0B0F4BE016B5F7F4F68
:1014E0006C177D0780F0DC01ED91FC910190F0819B
:1014F000E02D0995009721F0FC01C38321E02283B0
:10150000DF91CF91089590E080E0FACF8F929F9283
:10151000AF92BF92CF92DF92EF92FF920F931F9301
:10152000CF93DF9300D000D0CDB7DEB7DC016901E7
:101530004A014115510509F456C077FF08C084E0FF
:1015400014968C9314974D935C9381E04DC07F77F4
:101550007B016430710518F5FA0190E0242F8E2F7D
:101560008819861730F4819131E0811130E0932B96
:10157000F6CF911114C082E014968C9314978D01CC
:10158000842F821B861738F4FA018191AF01F8018C
:1015900081938F01F5CFA60FB11D1C92D6CF8D017F
:1015A000F601A080B1809A8289826B837C83BE0120
:1015B0006F5F7F4FC60103960E94D505009751F0DB
:1015C000FC0122812F5F228325E0F801248391838F
:1015D0008083BBCFB501C7010E94650A0097A9F4BB
:1015E00081E0F601828380E00F900F900F900F90C2
:1015F000DF91CF911F910F91FF90EF90DF90CF90EF
:10160000BF90AF909F908F900895E981FA81DC019F
:101610001496A7014E0F5F1FE417F50719F02191EB
:101620002D93FACFFC01EE0DFF1D1482F6012381EC
:101630003481FC0131832083F60194838383C4CFFA
:10164000CF92DF92EF92FF920F931F93CF93DF938E
:101650000097A9F089016A017B01EC01B9010E94A0
:10166000FD099801B701A601CE01DF91CF911F912D
:101670000F91FF90EF90DF90CF900C94860ADF914E
:10168000CF911F910F91FF90EF90DF90CF90089531
:10169000EF92FF920F931F93CF93DF93009779F010
:1016A000EB018C016FE770E00E9430257C01AC01FA
:1016B000B801CE010E941E25CE0DDF1D1882DF91DC
:1016C000CF911F910F91FF90EF900895CF93DF93EB
:1016D000EC0188819981009711F00E9439281982C4
:1016E00018821D821C821B821A82DF91CF9108957D
:1016F000FC0180819181009711F00C9439280895A4
:10170000CB010C943928FB0101900020E9F73197B7
:10171000AF01461B570B0C940405CF92DF92EF925A
:10172000FF920F931F93CF93DF938C016B017A018C
:1017300062E20E94EF04E601EC0CFD1CEC16FD06D3
:1017400099F06991E1E5F1E0D480DD20C9F03296AD
:1017500083816813F9CF6CE5C8010E94EF046D2DF9
:10176000C8010E94EF04EACF62E2C801DF91CF9185
:101770001F910F91FF90EF90DF90CF900C94EF04AA
:101780006111EECF64E671E0C8010E94830BD6CFF1
:10179000FC0130E020E06115710549F0DB010D909E
:1017A0000020E9F79D0121503109261B370B718379
:1017B00060832283832F8F7793819078982B40FBCF
:1017C00097F9938308952F923F924F925F926F9271
:1017D0007F928F929F92AF92BF92CF92DF92EF92C1
:1017E000FF920F931F93CF93DF93CDB7DEB7A197EF
:1017F0000FB6F894DEBF0FBECDBF7C018B01DC01BC
:1018000014968C911497863009F471C1E0F48330FA
:1018100009F45DC158F440E0B701823009F42FC1EA
:101820006BE671E0C8010E94830BF3C0843009F4B9
:1018300023C18530A9F7ED91FC91438150E0BF01B0
:101840006C5F7F4F25C18E3009F443C0E0F48A30CD
:1018500009F448C18C3021F7CD90DD90ED90FC90DB
:10186000B701A601F7FE0BC06DE2C8010E94EF04AC
:1018700044275527BA014C195D096E097F09C80133
:101880000E94190508C1803209F4CDC0803441F6A8
:101890006BE5C8010E94EF04F701F080FFEFFF162F
:1018A00009F4BCC0D80114968D919C916F2D45967A
:1018B0000E94B2047C01B8010E94E30BF701F5809D
:1018C000FFEFFF1609F4AAC06CE2C8010E94EF0402
:1018D000E5CFF701C080D180E280F380A7019601B7
:1018E000C701B6010E943B2581119ACF20E030E06C
:1018F000A901C701B6010E943B25882379F0A70101
:101900009601C701B6010E94B1269B01AC01C70137
:10191000B6010E943B25882309F482CF20E030E005
:10192000A901C701B6010E943B2587FF08C06DE2EF
:10193000C8010E94EF04F7FAF094F7F8F0945E0102
:10194000F7E1AF0EB11CB701A601C5010E949101DC
:10195000EF8CF8A0D9A04F89588D698D7A8DC80178
:101960000E941905DD2091F16B8D7C8D8D8D9E8DF2
:101970003E0121E1620E711CCD2C43012AE0222E92
:10198000312C412C512CCA94AFEFCA1659F0A20148
:1019900091010E947527605DF30162933F01B901D7
:1019A000CA01F1CF8D2D90E0BC0160957095F401D6
:1019B000E81BF90B31978EE2808344275527461B9D
:1019C000570B680D791DC8010E940405E114F1044C
:1019D00001F165E6C8010E94EF04F7FE07C06DE261
:1019E000C8010E94EF04F194E194F108F5012AE0A6
:1019F00030E0C701B9010E946127805D82937B01BD
:101A0000672BB9F7A5014E1B5F0BBF01C8010E94F0
:101A10000405D80112968D919C9140C06DE5C801D6
:101A20000E94EF04F6CF6BE7C8010E94EF04F701B4
:101A3000F080EE24E394BB24B394FFEFFF16D1F0C3
:101A4000D80114968D919C916F2D45960E94B204F9
:101A50006C01B8010E94E30BF601F580FFEFFF1661
:101A600039F06AE3E11001C06CE2C8010E94EF04A2
:101A7000EB24E3CF6DE7D3CF6D917C9141E0CE01B4
:101A800001960E94C80B4B815C815F7769817A81E6
:101A9000C8010E948D0BF80182819381A1960FB637
:101AA000F894DEBF0FBECDBFDF91CF911F910F9194
:101AB000FF90EF90DF90CF90BF90AF909F908F906E
:101AC0007F906F905F904F903F902F900895ED9191
:101AD000FC91438150E0BF016C5F7F4FC8010E94C1
:101AE0000405D9CF4D915D916D917C91C8CE8C91BB
:101AF00060E771E0811102C065E771E0C8010E94F2
:101B0000830BC9CF0F931F93CF93DF9300D000D0E7
:101B100000D0CDB7DEB70CEB12E0D8018D919C91CF
:101B2000DC01ED91FC910190F081E02D6EE10995D1
:101B3000F801808191819A8389831C821B828AECBF
:101B400092E09E838D83BE016F5F7F4F84EE92E0B3
:101B50000E94E30BD8018D919C91DC01ED91FC91E9
:101B60000190F081E02D6AE0099526960FB6F89471
:101B7000DEBF0FBECDBFDF91CF911F910F910895B2
:101B8000CF93DF9300D000D0CDB7DEB7FC018481C6
:101B9000843061F08530E1F040E0BF01823049F0EF
:101BA00060E070E080E090E090680BC0608171813F
:101BB00041E0CE0101960E94C80B69817A818B8138
:101BC0009C810F900F900F900F90DF91CF9108950F
:101BD00080819181FC01238130E00496BC01C90120
:101BE0009F779F77EECF9F92AF92BF92CF92DF9277
:101BF000EF92FF920F931F93CF93DF9300D000D00B
:101C0000CDB7DEB77901C62EB72E8A01452B09F470
:101C100050C0B901FC0180810E94CC0469837A83A1
:101C20008B839C83DD24D3949924939489819A8116
:101C30000097F9F0DD20B1F00E94C00D2C2D3B2D56
:101C40003F77AC015F772417350761F4D801E62FA1
:101C5000F72F200F311FA217B30779F19D918191C2
:101C60009817C9F3D924B701CE0101960E94EE0757
:101C7000DDCF2FEF89839A832B83AC8289819A8170
:101C8000009739F0B701CE0101960E94EE078981D5
:101C90009A810F900F900F900F90DF91CF911F912D
:101CA0000F91FF90EF90DF90CF90BF90AF909F90FB
:101CB00008952FEF90E080E0DDCFAC8089819A819C
:101CC0002B81D8CFFC0120813181C9014A96428104
:101CD000538164817581009759F0D9015E96EC912A
:101CE000E03211F090E080E0009711F00C94F30DD9
:101CF00090E080E008950F931F93CF93DF93EC0162
:101D000088819981009759F02A813B8126173707EE
:101D100030F081E0DF91CF911F910F9108958B01F9
:101D20006F5F7F4F0E94C228009759F09983888384
:101D30001B830A832C813D81232B59F7FC011082E0
:101D4000E8CF80E0E7CFCF92DF92EF92FF920F9340
:101D50001F93CF93DF938C01DC019296ED91FC9160
:101D6000E80FF91F12826C01B2E0CB0ED11CC11436
:101D7000D10449F1F60101900020E9F73197EC19FF
:101D8000FD09F1F0DC01ED90FC90D7011496CD91A6
:101D9000DC91CE0FDF1FBE01C7010E947B0E88239E
:101DA00091F0F7012081318184819581B601820F04
:101DB000931F0E949129D7011596DC93CE93149717
:101DC000F80113A212A2D80192968D919C91DF91F5
:101DD000CF911F910F91FF90EF90DF90CF900895DA
:101DE0001F93CF93DF93EC01162F8AA19BA101963D
:101DF0008097B8F48AA19BA19C012F5F3F4F3BA322
:101E00002AA38C0F9D1FFC01128321E030E08CA1DE
:101E10009DA1820F931F9DA38CA3DF91CF911F9152
:101E20000895CE010E94A30E892B21F330E020E01B
:101E3000EECFBF92CF92DF92EF92FF920F931F935C
:101E4000CF93DF93EC016A018B017B01E40EF51E59
:101E5000E016F106D1F0F801B1908F018AA19BA1A3
:101E60000196809760F48AA19BA19C012F5F3F4F50
:101E70003BA32AA38C0F9D1FFC01B282E9CFCE01A8
:101E80000E94A30E892B79F3E3CF4CA15DA14C0DE9
:101E90005D1D5DA34CA3DF91CF911F910F91FF902A
:101EA000EF90DF90CF90BF9008958F929F92AF9266
:101EB000BF92CF92DF92EF92FF920F931F93CF9337
:101EC000DF93CDB7DEB766970FB6F894DEBF0FBECF
:101ED000CDBF6C018E01095E1F4F78018AE0882E0C
:101EE000912CA12CB12CCB01BA01A50194010E9427
:101EF0007527942F852F605DF80162938F01A901EA
:101F0000692F782F411551056105710561F7A7010A
:101F10004E1B5F0BBF01C6010E94190F66960FB6DC
:101F2000F894DEBF0FBECDBFDF91CF911F910F910F
:101F3000FF90EF90DF90CF90BF90AF909F908F90E9
:101F40000895FB0101900020E9F73197AF01461B8E
:101F5000570B0C94190FCF92DF92EF92FF920F93D1
:101F60001F93CF93DF938C016B017A0162E20E9491
:101F7000F00EE601EC0CFD1CEC16FD0699F06991E3
:101F8000E1E5F1E0D480DD20C9F032968381681369
:101F9000F9CF6CE5C8010E94F00E6D2DC8010E94BA
:101FA000F00EEACF62E2C801DF91CF911F910F914D
:101FB000FF90EF90DF90CF900C94F00E6111EECF78
:101FC00064E671E0C8010E94A10FD6CF2F923F9224
:101FD0004F925F926F927F928F929F92AF92BF9239
:101FE000CF92DF92EF92FF920F931F93CF93DF93E5
:101FF000CDB7DEB7A1970FB6F894DEBF0FBECDBF49
:102000007C018B01DC0114968C911497863009F4C5
:1020100071C1E0F4833009F45DC158F440E0B701C8
:10202000823009F42FC16BE671E0C8010E94A10F54
:10203000F3C0843009F423C18530A9F7ED91FC91F8
:10204000438150E0BF016C5F7F4F25C18E3009F4A2
:1020500043C0E0F48A3009F448C18C3021F7CD90B8
:10206000DD90ED90FC90B701A601F7FE0BC06DE28C
:10207000C8010E94F00E44275527BA014C195D098A
:102080006E097F09C8010E94550F08C1803209F40A
:10209000CDC0803441F66BE5C8010E94F00EF70117
:1020A000F080FFEFFF1609F4BCC0D80196968D9121
:1020B0009C916F2D45960E94B2047C01B8010E944C
:1020C000E60FF701F580FFEFFF1609F4AAC06CE2F6
:1020D000C8010E94F00EE5CFF701C080D180E280F8
:1020E000F380A7019601C701B6010E943B2581112B
:1020F0009ACF20E030E0A901C701B6010E943B253C
:10210000882379F0A7019601C701B6010E94B12684
:102110009B01AC01C701B6010E943B25882309F44D
:1021200082CF20E030E0A901C701B6010E943B2523
:1021300087FF08C06DE2C8010E94F00EF7FAF09424
:10214000F7F8F0945E01F7E1AF0EB11CB701A601FC
:10215000C5010E949101EF8CF8A0D9A04F89588D3C
:10216000698D7A8DC8010E94550FDD2091F16B8D2C
:102170007C8D8D8D9E8D3E0121E1620E711CCD2CDA
:1021800043012AE0222E312C412C512CCA94AFEF6E
:10219000CA1659F0A20191010E947527605DF301F2
:1021A00062933F01B901CA01F1CF8D2D90E0BC01CE
:1021B00060957095F401E81BF90B31978EE28083EE
:1021C00044275527461B570B680D791DC8010E94EF
:1021D000190FE114F10401F165E6C8010E94F00E47
:1021E000F7FE07C06DE2C8010E94F00EF194E19481
:1021F000F108F5012AE030E0C701B9010E9461272A
:10220000805D82937B01672BB9F7A5014E1B5F0BA5
:10221000BF01C8010E94190FD80194968D919C911D
:1022200040C06DE5C8010E94F00EF6CF6BE7C80113
:102230000E94F00EF701F080EE24E394BB24B394E7
:10224000FFEFFF16D1F0D80196968D919C916F2DDE
:1022500045960E94B2046C01B8010E94E60FF60197
:10226000F580FFEFFF1639F06AE3E11001C06CE280
:10227000C8010E94F00EEB24E3CF6DE7D3CF6D9140
:102280007C9141E0CE0101960E94C80B4B815C819C
:102290005F7769817A81C8010E94AB0FF80184A140
:1022A00095A1A1960FB6F894DEBF0FBECDBFDF910A
:1022B000CF911F910F91FF90EF90DF90CF90BF9043
:1022C000AF909F908F907F906F905F904F903F90D6
:1022D0002F900895ED91FC91438150E0BF016C5F18
:1022E0007F4FC8010E94190FD9CF4D915D916D911B
:1022F0007C91C8CE8C9160E771E0811102C065E7E6
:1023000071E0C8010E94A10FC9CFCF92DF92EF9276
:10231000FF920F931F93CF93DF93CDB7DEB7C85BC8
:10232000D1090FB6F894DEBF0FBECDBF6B017C01A3
:10233000CA01CB56DF4F59834883C559D040C95491
:10234000DF4F19821882C75BD0400E94660B84E27F
:10235000FE01EB56FF4FDE01AF58BF4F01900D92CB
:102360008A95E1F784E2FE01EF58FF4FDE01A35B9F
:10237000BF4F01900D928A95E1F784E2FE01E35B85
:10238000FF4FDE01999601900D928A95E1F784E264
:10239000FE01B996DE01119601900D928A95E1F742
:1023A0001EA21DA2CE0189960E94A30EF8A6EFA23E
:1023B000CE01835B9F4F0E94A30EC114D10431F163
:1023C000BE016F5F7F4FC6010E94E60F7C01CE0108
:1023D00001960E94A30ECE018F589F4F0E94A30E1C
:1023E000CE018B569F4F0E94A30EC701C854DF4FEA
:1023F0000FB6F894DEBF0FBECDBFDF91CF911F9116
:102400000F91FF90EF90DF90CF9008956BE671E011
:10241000CE0101960E94A10FEDA0FEA0D8CFEF92B1
:10242000FF920F931F93CF93DF93EC017B018A01FF
:10243000BA010E947B0E81110BC0CE010E94660B77
:10244000CE01DF91CF911F910F91FF90EF900895F2
:102450001D830C83B701888199810E949129F0CF57
:10246000FB0101900020E9F73197AF01461B570BA4
:102470000C940F12FC0111821082138212821582B9
:1024800014826115710551F0FB0101900020E9F7FC
:102490003197AF01461B570B0C940F120895EF9222
:1024A000FF920F931F93CF93DF93EC01CB01FB01BE
:1024B000E080F1800E94620E8C0163E671E0CE0143
:1024C0000E943A120115110589F0C8010E94C00D41
:1024D0006115710559F0CE010E943012CE01DF91D5
:1024E000CF911F910F91FF90EF900895B801C70110
:1024F000AE010E948511F2CFCB01BA010C94C22823
:10250000BF92CF92DF92EF92FF920F931F93CF93E0
:10251000DF93EC01198D1F3F81F0612F45960E94DA
:10252000B204FC018081898F309709F477C014824E
:102530008FEF8583BF01812F76C06C0135E0C30E1C
:10254000D11CE880F9808F89882341F0C6010E9460
:10255000FC05E62FF72F182F309749F71F89988D24
:10256000191324C0103109F459C0110F6D897E89E7
:10257000D701ED91FC91B4E01B9FA0011124C61678
:10258000D70609F044C00190F081E02DBA01C701DF
:102590000995009709F442C020E1F601DC010190A1
:1025A0000D922A95E1F79E8B8D8B188F0D891E89D0
:1025B0008F8921E0280F2F8BE4E08E9FC00111242A
:1025C000080F191F90E1B92E203111F48FE0B82EB9
:1025D000F6E0BF9EB0011124D701ED91FC9101906E
:1025E000F081E02DC7010995F80193838283892B3F
:1025F00009F4B12CD801BC9211961C92012B71F0F8
:10260000C6010E94FC05E62FF72F182F8DCF0480FE
:10261000F581E02DC7010995009729F681E08A83AD
:1026200060E070E08FEFDF91CF911F910F91FF90ED
:10263000EF90DF90CF90BF9008956F927F928F922E
:102640009F92AF92BF92CF92DF92EF92FF920F9341
:102650001F93CF93DF93EC014115510589F490E06E
:1026600080E0DF91CF911F910F91FF90EF90DF906D
:10267000CF90BF90AF909F908F907F906F90089574
:102680008C8181111AC080E28C83209741F38FEFF7
:102690008883898379014A015B01CE010E94F30D91
:1026A0000097F9F6C7010E948012682E6B01672B14
:1026B00049F410E000E0C801D4CF803281F62097C1
:1026C00049F7CDCFC7010E948012782E962F092F8F
:1026D000172F0115110569F39701B501A401C60172
:1026E0000E94860A882329F3F601758269816F3F6B
:1026F00041F0C70145960E94B204FC0165827982CF
:10270000DACF6882FCCFCF93DF93DC01CD91DC91EF
:102710001197FE017A9659F012964D915D916D9147
:102720007C9115979E01CF010E941D13FC01BF01F2
:10273000CE01DF91CF9108956F927F928F929F92F9
:10274000AF92BF92CF92DF92EF92FF920F931F93BF
:10275000CF93DF933C01EB010E9483134B015C019B
:10276000088119816B010115110501F1C8010E9451
:102770002725EC0181149104F9F07501B501C4011C
:102780000E94FD09C430D10508F044C090E080E00B
:1027900020E03C2F831740F5F801E80FF91FE49182
:1027A00041E0E11140E0242B0196F4CF672B21F0AA
:1027B000BC01C4010E94FD09D301ED91FC9180E0B0
:1027C000309719F0828191E08927DF91CF911F9195
:1027D0000F91FF90EF90DF90CF90BF90AF909F90C0
:1027E0008F907F906F900895211114C082E0D601E0
:1027F00014968C93D40190E080E0831738F4F801AC
:10280000E80FF91FE491ED930196F7CFC80DD91D9C
:102810001882D2CFF701A380B480A114B10471F162
:10282000D50113968C918C171D0641F4AE01B801A9
:10283000C50104960E941125892BD9F0F501A080CD
:10284000B180EBCFAE01B801C50104960E941E25F0
:10285000CA0DDB1D1C82F70183819481D5018D9304
:102860009C93B482A38285E0F6018483B182A08226
:10287000A3CFF50182818F5F8283F5CFD7016D9160
:102880007C91CE010E94650A5C01892BD9F681E01A
:10289000D70112968C9390CF0F931F93CF93DF9312
:1028A000EC018B010E948313DC01CB0170E07068A6
:1028B0009D01A8016AE00E94200BE881F98180E077
:1028C000309719F0828191E08927DF91CF911F9194
:1028D0000F910895CF92DF92EF92FF92CF93DF9303
:1028E0007B010E948313DC01CB01EB010097B1F067
:1028F000F701C080D180E280F380BD010E94FD0914
:102900008AE08C83C882D982EA82FB8281E0DF91EF
:10291000CF91FF90EF90DF90CF90089580E0F7CFB8
:102920000F931F93CF93DF938C01EB010E948313CE
:10293000DC01CB0170E060E0209749F0FE010190DE
:102940000020E9F7BF01615071096C1B7D0B7F7797
:102950007F779D01AE010E94200BD801ED91FC9183
:1029600080E0309719F0828191E08927DF91CF9143
:102970001F910F910895EF92FF920F931F93CF93A2
:10298000DF937C018B010E948313DC01CB01E80102
:10299000E881F98170E060E0309749F0EF0109903B
:1029A0000020E9F7BE01615071096E1B7F0B7F7734
:1029B0007F779D01AF010E94200BD701ED91FC9123
:1029C00080E0309719F0828191E08927DF91CF91E3
:1029D0001F910F91FF90EF9008956F927F928F92C9
:1029E0009F92AF92BF92CF92DF92EF92FF920F939E
:1029F0001F93CF93DF93CDB7DEB728970FB6F89428
:102A0000DEBF0FBECDBF7C010E9417010E94D90915
:102A10000AEC12E01A8309838BE791E09C838B8395
:102A200089E08D838E81807880688E836AEE72E083
:102A3000CE0101960E94BB1486E591E098878F83B2
:102A40001A83098385E891E09C838B838CE08D83D6
:102A50008E81807880688E83BE01695F7F4FCE0152
:102A600001960E949C131A83098382E991E09C835A
:102A70008B8387E08D838E81807880688E836AE97E
:102A800071E0CE0101960E944C141A83098385EAF5
:102A900091E09C838B838BE08D838E81807880682E
:102AA0008E8360EC73E0CE0101960E946A140E944E
:102AB000820D0091EF021091F0028AECC82E82E0A4
:102AC000D82E91EBA92E91E0B92E26E0722E38EB8C
:102AD000832E31E0932E47E0642E0115110589F114
:102AE000E114F10441F0B701F801808191810E9465
:102AF0008829892B11F50E94D909DA82C982BC8202
:102B0000AB827D828E81807880688E83B8016E5F13
:102B10007F4FCE0101960E94BB14DA82C9829C824B
:102B20008B826D828E81807880688E83B801CE0121
:102B300001960E94BB140E94820DF8010681178144
:102B4000CCCF0E942B0128960FB6F894DEBF0FBEA3
:102B5000CDBFDF91CF911F910F91FF90EF90DF904C
:102B6000CF90BF90AF909F908F907F906F9008957F
:102B7000FF920F931F93CF93DF93CDB7DEB72C97C0
:102B80000FB6F894DEBF0FBECDBF9A8789877C87CA
:102B90006B87142F0E94D9098AEC92E09A8389836B
:102BA0008BE791E09C838B8389E08D838E81807895
:102BB00080688E836AEE72E0CE0101960E94BB149B
:102BC0008EE491E0163040F4E12FF0E0EE0FFF1FAD
:102BD000E25EFE4F8081918198878F830AEC12E03C
:102BE0001A83098385E891E09C838B838CE08D8335
:102BF0008E81807880688E83BE01695F7F4FCE01B1
:102C000001960E949C131A83098382E991E09C83B8
:102C10008B8387E0F82EFD828E81807880688E839A
:102C2000BE01655F7F4FCE0101960E94BB141A83DF
:102C3000098385EA91E09C838B838BE08D838E8171
:102C4000807880688E8360EC73E0CE0101960E94EC
:102C50006A141A83098388EB91E09C838B83FD823D
:102C60008E81807880688E83BE01675F7F4FCE0142
:102C700001960E94BB140E94820D2C960FB6F89408
:102C8000DEBF0FBECDBFDF91CF911F910F91FF909F
:102C90000895CF92DF92FF920F931F93CF93DF930C
:102CA0008C016B01CB010E948012F82EEB01209762
:102CB00061F0F80161816F3F89F0C60145960E947D
:102CC000B204FC01F582F801F182CE01DF91CF91CF
:102CD0001F910F91FF90DF90CF9008958083F4CFE4
:102CE0003F924F925F926F927F928F929F92AF929C
:102CF000BF92CF92DF92EF92FF920F931F93CF93E9
:102D0000DF9300D000D01F92CDB7DEB78C016B01EE
:102D1000B42E0E94B3057C01892B09F050C0C80174
:102D20000E946505863609F4AEC164F5873229F044
:102D30008B35A1F1823209F0AFC1F80115821482FE
:102D400082819381892B99F4E080F180D7016D9184
:102D50007C918FE190E00E94650A009719F421E0D0
:102D6000F7012283D80113969C938E931297C80182
:102D70000E9468087C01892B11F5B601C8010E94E8
:102D800047091DC0843709F45EC18B3709F466C05A
:102D90008E3609F081C16BE671E05CC180E4D6013A
:102DA00014968C931497C114D10421F08FEF8C9357
:102DB00011968C93B1101BC025E0E22EF12CC701B7
:102DC0000F900F900F900F900F90DF91CF911F9168
:102DD0000F91FF90EF90DF90CF90BF90AF909F90BA
:102DE0008F907F906F905F904F903F900895F80183
:102DF0001486C8010E94B305009709F09DC16DE5D6
:102E0000C8010E947F058111DACFBA94D8011D96BE
:102E10006D917C91C6010E944916009709F47BC010
:102E20004B2DBC01C8010E947016009709F084C1A7
:102E3000C8010E94B305009709F07EC16DE5C80185
:102E40000E947F058111BBCF6CE2C8010E947F0503
:102E50008111DCCF93E0E92EF12CB1CF80E2F601B5
:102E60008483C114D10419F08FEF80838183BB2048
:102E700009F4A2CFD8011C961C92C8010E94B30588
:102E8000009709F059C16DE7C8010E947F058111C3
:102E900096CF5524539477247A947B0CF8011582AD
:102EA000148282819381892B91F4E080F180D70193
:102EB0006D917C918FE190E00E94650A009711F47A
:102EC000F7015282D80113969C938E931297C801F2
:102ED0000E946505873219F1823209F1C8010E940A
:102EE0006505F82E0E94DD04882309F4B3CFF801AC
:102EF00014866F2DC8010E943A08C8010E9465051A
:102F0000F82E0E94DD048111F2CFD80112968D9126
:102F10009C91892B59F484E0E82EF12C50CFC80104
:102F20000E9468087C01892B09F049CFC8010E94E2
:102F3000B3057C01892B09F042CF6AE3C8010E94E6
:102F40007F05882309F486CFD8011296ED91FC9174
:102F5000139714968D919C911597E80FF91F148281
:102F600014966D917C9115977F771D962D913C91CC
:102F70001E9712968D919C910496472F4F77B62DF0
:102F8000B0786B2E642AE89467F8AC01762DC60100
:102F90000E94F30D7C01F80185849684009759F511
:102FA000C4010E948012382E5B01672B09F4B3CF55
:102FB000C4010E948012482E962FE92EF72EE114AC
:102FC000F10409F4A8CFD50115964C92F601618160
:102FD0006F3F71F0C40145960E94B204DC01159662
:102FE0003C92F6014182B501C8010E94470906C022
:102FF00030824182F8CFB4010E94FD09472DB7010C
:10300000C8010E9470167C01892B09F0D8CEC80136
:103010000E94B3057C01892B09F0D1CE6DE7C80170
:103020000E947F058111CBCE6CE2C8010E947F0512
:10303000882309F40FCFC8010E94B3057C01892BB6
:1030400009F42CCFBCCE86E0F601848381E0808336
:1030500060E771E0C8010F900F900F900F900F90F4
:10306000DF91CF911F910F91FF90EF90DF90CF9064
:10307000BF90AF909F908F907F906F905F904F9098
:103080003F900C94900586E0D60114968C9314978B
:103090001C9265E771E0DECFC8010E94650548011A
:1030A000BFE08B0E911CB12C782CA92C803384F0BE
:1030B0008A3384F4EFE3BE16A9F0D8011C961C9263
:1030C000B394F40181934F01C8010E946505EECFCE
:1030D0008B3281F393ED980F923060F3982F9F7DA0
:1030E000953441F30B0D111DD8011F961C92872DAD
:1030F0009A2D0E9428063A834B835C836D838A81D4
:103100009B81AC81BD812230A9F0233059F0213060
:1031100009F0A0CE2EE0F601248380839183A28360
:10312000B3834DCE2AE0F601248380839183A2836A
:10313000B38345CE2CE0F7CF7C0141CECF92DF9216
:10314000EF92FF920F931F93CF93DF9300D000D0A5
:10315000CDB7DEB7FC01DC01119621813281C901B6
:103160004A9679F490E080E00F900F900F900F90C6
:10317000DF91CF911F910F91FF90EF90DF90CF9053
:1031800008957F0112964D915D916D917C911597F7
:103190000E941D138C01009729F3F701C180D28092
:1031A000E780F084FC01848181111EC080E4848367
:1031B0008FEF80838183B601F80180810E94CC0467
:1031C00069837A838B839C8389819A81009779F0C4
:1031D000E114F10449F2B601CE0101960E94EE0716
:1031E000F1E0EF1AF108F0CF803429F3BBCF2FEFD5
:1031F000E216F20609F4B8CFB601C8010E944916DA
:10320000E1E0EE1AF108009791F7AECFCB010C94F4
:103210009D271F920F920FB60F9211242F933F9369
:103220004F935F936F937F938F939F93AF93BF93CE
:10323000EF93FF938FE192E00E949203FF91EF9151
:10324000BF91AF919F918F917F916F915F914F91BE
:103250003F912F910F900FBE0F901F9018951F92C6
:103260000F920FB60F9211242F938F939F93EF938A
:10327000FF93E0912F02F09130028081E0913502BE
:10328000F091360282FD1BC09081809138028F5FE1
:103290008F7320913902821741F0E0913802F0E0FB
:1032A000E15EFD4F958F80933802FF91EF919F91E2
:1032B0008F912F910F900FBE0F901F9018958081C6
:1032C000F4CF1F920F920FB60F9211242F933F93BA
:1032D0008F939F93AF93BF938091170290911802A1
:1032E000A0911902B0911A023091160223E0230F27
:1032F0002D3758F50196A11DB11D2093160280931C
:10330000170290931802A0931902B0931A028091A9
:10331000120290911302A0911402B091150201962D
:10332000A11DB11D8093120290931302A093140269
:10333000B0931502BF91AF919F918F913F912F91C3
:103340000F900FBE0F901F90189526E8230F02963E
:10335000A11DB11DD2CFEF92FF920F931F93109238
:1033600022021092210288EE93E0A0E0B0E0809368
:10337000230290932402A0932502B09326028EE2AA
:1033800091E09093200280931F0285EC90E090934F
:103390002C0280932B0284EC90E090932E02809379
:1033A0002D0280EC90E09093300280932F0281EC0C
:1033B00090E0909332028093310282EC90E09093FF
:1033C00034028093330286EC90E09093360280932F
:1033D0003502109238021092390210923A0210927D
:1033E0003B0288E998E0A0E0B0E08093C0029093AF
:1033F000C102A093C202B093C3021092C402109201
:10340000C5021092C6021092C7021092C802109212
:10341000C9028FE192E09093BD028093BC0280E0EC
:1034200091E09093CB028093CA021092CC0210924A
:10343000CE021092CD028FEC92E09093E002809346
:10344000DF021092E10284E08093E2028FEF80932A
:10345000E3021092E8028093E90280EC91E09093FD
:10346000EB028093EA021092EC021092EE021092AC
:10347000ED021092F0021092EF021092F2021092FE
:10348000F1021092F3021092F4021092F5021092DF
:10349000F6021092BF03ECE3F1E065EC7DE98CE10C
:1034A00091E82191222359F07B01E226AC0197019A
:1034B00063E971E080E091E00E945127F2CFE0ECF7
:1034C000F1E02191222359F07B01E226AC01970122
:1034D00063E971E080E091E00E945127F2CF6093B0
:1034E000C0037093C1038093C2039093C3031F91E1
:1034F0000F91FF90EF900895CF93DF93CDB7DEB794
:10350000CF5BD1090FB6F894DEBF0FBECDBF789464
:1035100084B5826084BD84B5816084BD85B58260D8
:1035200085BD85B5816085BD80916E008160809389
:103530006E001092810080918100826080938100F2
:103540008091810081608093810080918000816002
:10355000809380008091B10084608093B10080915D
:10356000B00081608093B00080917A008460809385
:103570007A0080917A00826080937A0080917A004C
:10358000816080937A0080917A00806880937A00CD
:103590001092C100E3E3F1E02491EFE1F1E08491C6
:1035A000882399F090E0880F991FFC01E352FF4FA8
:1035B000A591B491FC01ED52FF4F859194918FB785
:1035C000F8949C91292B2C938FBF0E9478046093D0
:1035D0001B0270931C0280931D0290931E0286E8CA
:1035E00093E58E5793459C0143E0369527954A9580
:1035F000E1F7C254DF4F39832883CE5BD0401E01F0
:1036000039E5230E311C8091EC02811138C0E09124
:103610002F02F091300282E08083E0912B02F09142
:103620002C021082E0912D02F0912E0280E1808325
:1036300010923702E0913302F091340286E08083E9
:10364000E0913102F0913202808180618083E091CB
:103650003102F0913202808188608083E0913102F2
:10366000F0913202808180688083E0913102F09194
:10367000320280818F7D808381E08093EC02809193
:10368000C80281116DC080EC0E94F400882309F407
:1036900087C081E08093C8020E9478046093C402CE
:1036A0007093C5028093C6029093C7028091C802AE
:1036B000882311F40C94D8238EE10E94F400A82EE4
:1036C000882311F40C94D8230E94D9090E9478040D
:1036D0006093C4027093C5028093C6029093C702A0
:1036E000E090BC02F090BD0263E671E0CE018F571E
:1036F0009F4F0E943A12C7010E948404CB57DF4FAC
:1037000008811981C558D04097FDC9C08A309105FC
:1037100009F4C5C089831A820F5F1F4FB801CE011B
:103720008F579F4F0E947B0E882329F3CF57DF4F7F
:1037300028813981C158D040CB57DF4F888199818A
:10374000C558D040BE016F5F7F4F820F931F0E940C
:103750009129CB57DF4F19830883C558D040CBCF71
:103760000E947804AB01BC018091C4029091C50213
:10377000A091C602B091C7020091C0021091C1028F
:103780002091C2023091C302800F911FA21FB31F6C
:10379000481759076A077B0708F453C01092C802FC
:1037A0004091F3025091F4026091F5027091F6029B
:1037B00080911B0290911C02A0911D02B0911E02EB
:1037C00084179507A607B70778F5E7E4F1E0849139
:1037D000E3E3F1E00491EFE1F1E0149170E060E0E7
:1037E000112399F081110E942104E12FF0E0EE0FE6
:1037F000FF1FE85FFE4FA591B4918C91082391E0E3
:1038000080E009F490E0692F782FF1E06F278DE0D8
:103810000E944A040E94780460931B0270931C0269
:1038200080931D0290931E0280E090E0892B09F4A2
:10383000EACE0E947E03882309F4E5CE0E940000B0
:10384000DECE8091BC029091BD02DC01ED91FC9135
:103850000084F185E02D0995181619060CF026CF85
:103860008091BC029091BD02DC01ED91FC91048439
:10387000F585E02D0995803C910509F017CF8091E1
:10388000BC029091BD02DC01ED91FC910284F385B4
:10389000E02D0995803C910509F008CF7FCFCF57E7
:1038A000DF4FE880F980C158D0400E0D1F1D0E94E7
:1038B000D9098AEC92E09A8389831C821B821E823A
:1038C0001D821F82F986E8861B870A871D869F87CF
:1038D0008E874AE064EE72E0CE0101960E94701677
:1038E0008C01892B49F48C85882331F08091E80282
:1038F00083FF02C003E010E08B819C81009731F0D0
:10390000E981FA81608171810E94CF091093BF0221
:103910000093BE02CE018F579F4F0E94780B80917B
:10392000BE029091BF02892B09F042C70AEC12E057
:103930001A8309838BEC91E09C838B8383E08D83D6
:103940008E81807880688E83CE0101960E94620EFF
:10395000009709F425CF0E94C00D6B01FB01309741
:1039600009F41ECF8081882309F41ACF6FEC71E02F
:10397000C6010E949829892B09F4ADC20E94170143
:103980000E94D9091A8309838BE791E09C838B837A
:1039900089E08D838E81807880688E836AEE72E004
:1039A000CE0101960E94BB1486E591E0CF57DF4F10
:1039B00099838883C158D0401A83098385E891E0B0
:1039C0009C838B838CE08D838E81807880688E834E
:1039D000BE016F577F4FCE0101960E949C131A8340
:1039E000098382E991E09C838B8387E08D838E81BC
:1039F000807880688E83CE0101960E948313DC015B
:103A0000CB01EFECF1E0C854DF4FF983E883C85BEA
:103A1000D040FBE0C654DF4FF883CA5BD040C554AA
:103A2000DF4F2881CB5BD0402078322F3068C554DF
:103A3000DF4F3883CB5BD0409D01C854DF4F4881B6
:103A400059816A817B81C85BD0400E94200B1A8318
:103A5000098385EA91E09C838B838BE08D838E8143
:103A6000807880688E8360EC73E0CE0101960E94BE
:103A70006A140E94820D4090F1025090F2029FEE73
:103A8000692E91E0792EAE014D5F5F4FCA54DF4F32
:103A900059834883C65BD0404114510409F418C2CD
:103AA000D2011596ED91FC91CE01019609950E94E7
:103AB000D909CF57DF4F19830883C158D040EBEDA8
:103AC000F1E0CD57DF4FF983E883C358D04087E05A
:103AD000F82ECB57DF4FF882C558D040CA57DF4F7A
:103AE0008881C658D04080788068CA57DF4F888365
:103AF000C658D040B2016E5F7F4FCE018F579F4FA7
:103B00000E94BB14CF57DF4F19830883C158D040A0
:103B100028EB31E0CD57DF4F39832883C358D0409D
:103B2000CB57DF4FF882C558D040CA57DF4F888146
:103B3000C658D04080788068CA57DF4F8883C658FF
:103B4000D040B201CE018F579F4F0E94BB14D201CB
:103B50001496EC9189EF90E0E33038F4F0E0EE0F4A
:103B6000FF1FE85EFE4F80819181CA56DF4F998327
:103B70008883C659D040CF57DF4F19830883C15877
:103B8000D04083EE91E0CD57DF4F99838883C358AF
:103B9000D04084E0CB57DF4F8883C558D040CA5708
:103BA000DF4F8881C658D04080788068CA57DF4F81
:103BB0008883C658D040BE016A567F4FCE018F57CA
:103BC0009F4F0E949C13E9818FEE90E0E33038F420
:103BD000F0E0EE0FFF1FEE5EFE4F80819181CA562E
:103BE000DF4F99838883C659D040CF57DF4F198361
:103BF0000883C158D04088EE91E0CD57DF4F9983BC
:103C00008883C358D04086E0CB57DF4F8883C558A0
:103C1000D040CA57DF4F8881C658D040807880682E
:103C2000CA57DF4F8883C658D040BE016A567F4FBF
:103C3000CE018F579F4F0E949C138A81882309F4DD
:103C40002CC1F12C74E0E72E6C968FAD6C97F816B2
:103C500008F023C18F2D90E0AA24A394B12CAC0EC0
:103C6000BD1EBBE0BF9DA00CB11C1124F50122813B
:103C7000213009F440C040F0223009F47BC02330E9
:103C800009F4B4C0F394E0CFCE57DF4F1983088313
:103C9000C258D040CC57DF4F79826882C458D04098
:103CA000CA57DF4FE882C658D040C957DF4F288136
:103CB000C758D04020782068C957DF4F2883C7589D
:103CC000D040C857DF4F99838883C858D040CE0171
:103CD0008F579F4F0E949E186C01009799F2D50153
:103CE0001396BC906AEC72E00E94FD0926E0F60192
:103CF0002483B082C7CFCE57DF4F19830883C258C1
:103D0000D040CC57DF4F79826882C458D040CA5720
:103D1000DF4FE882C658D040C957DF4F2881C758C7
:103D2000D04020782068C957DF4F2883C758D0403B
:103D3000C857DF4F99838883C858D040CE018F572A
:103D40009F4F0E949E186C01009709F49BCFD501EC
:103D500013968D909D90AD90BC9016976AEC72E092
:103D60000E94FD092CE0F601248380829182A282C8
:103D7000B38288CFCE57DF4F19830883C258D04013
:103D8000CC57DF4F79826882C458D040CA57DF4F82
:103D9000E882C658D040C957DF4F2881C758D04065
:103DA00020782068C957DF4F2883C758D040C857AC
:103DB000DF4F99838883C858D040CE018F579F4FDB
:103DC0000E949E186C01009709F45CCF6AEC72E0C7
:103DD0000E94FD092CE0F601248386E090E0A0E03B
:103DE000B0E080839183A283B3834CCF21E030E0A5
:103DF0002C0F3D1FFBE0FF9E200D311D1124A9015A
:103E0000495F5F4F6A01CE57DF4F19830883C2585D
:103E1000D040CC57DF4F79826882C458D040CA570F
:103E2000DF4FE882C658D040C957DF4F2881C758B6
:103E3000D04020782068C957DF4F2883C758D0402A
:103E4000C857DF4F99838883C858D040CE018F5719
:103E50009F4F0E949E18D60114966D917C911597E4
:103E60007F774C9111965C91272F2F77C354DF4FAA
:103E70003881CD5BD0403078322B3F77C354DF4F51
:103E80003883CD5BD0402AEC32E0C354DF4F7881D9
:103E9000CD5BD0400E94200BF5CE0E94820D7E01AA
:103EA000BBE5EB0EF11CEBE0EE1AF108C70105963D
:103EB0000E94780BCA54DF4F28813981C65BD040FD
:103EC000E216F30681F7D20117964D905C90E4CD8F
:103ED0000E942B0165CC64EF71E0C6010E94982915
:103EE000892B09F42CC10E9417010E94D9091A8359
:103EF00009838BE791E09C838B8389E08D838E819E
:103F0000807880688E836AEE72E0CE0101960E940E
:103F1000BB1486E591E0CF57DF4F99838883C15862
:103F2000D0401A83098385E891E09C838B838CE0E1
:103F30008D838E81807880688E83BE016F577F4F1E
:103F4000CE0101960E949C131A83098382E991E0B5
:103F50009C838B8387E08D838E81807880688E83BD
:103F600064EF71E0CE0101960E944C141A8309831C
:103F700085EA91E09C838B838BE08D838E818078B2
:103F800080688E8360EC73E0CE0101960E946A1413
:103F90000E94820DEEE7F3E523E5E638F20708F02C
:103FA00097CF7F01512C412C8E010F5F1F4F5AEC90
:103FB000652E52E0752EC254DF4F48815981CE5B89
:103FC000D0404415550509F483CFF70185919491AC
:103FD000F701329685909490F7013496A590B490AD
:103FE000F7013696C590D490009709F4A1C08114CA
:103FF000910409F49DC0C114D10409F499C0A091A1
:10400000EA02B091EB02109709F492C08A1B9B0B55
:10401000FC01EA0FFB1FE4912D91E21389C0E1112D
:10402000F7CF0E94D909B801C4010E94480BCF57AD
:10403000DF4F79826882C158D0408FEF91E0CD5731
:10404000DF4F99838883C358D04095E0CB57DF4F2B
:104050009883C558D040CA57DF4F8881C658D04092
:1040600080788068CA57DF4F8883C658D040B8012F
:10407000CE018F579F4F0E94901460E070E0A11412
:10408000B10429F0B801C5010E94480BB801CF570F
:10409000DF4F79826882C158D040A5E0B2E0CD57A9
:1040A000DF4FB983A883C358D040B7E0CB57DF4F69
:1040B000B883C558D040CA57DF4F8881C658D04012
:1040C00080788068CA57DF4F8883C658D040CE01B9
:1040D0008F579F4F0E949014B801C6010E94480B51
:1040E000CF57DF4F79826882C158D040EDE0F2E0CF
:1040F000CD57DF4FF983E883C358D040F4E0CB5766
:10410000DF4FF883C558D040CA57DF4F8881C65863
:10411000D04080788068CA57DF4F8883C658D04027
:10412000B801CE018F579F4F0E9490140E94820DBC
:104130002FEF421A520A38E0E30EF11C3CCF6AE935
:1041400071E0C6010E949829892BA9F11A8309837D
:1041500088EB91E09C838B8387E08D838E818078D0
:1041600080688E83BE016F5F7F4FCE018F579F4F58
:104170000E944F12CB57DF4F88819981C558D0409C
:10418000892B69F0CF57DF4F08811981C158D04082
:104190006BE671E0C8010E948829892B51F490E0F8
:1041A00080E00E94ED14CE018F579F4F0E94780B44
:1041B000F7CAC801F6CFC255DF4F19830883CE5A1C
:1041C000D0408FEE91E0C055DF4F99838883C05B6C
:1041D000D04084E0CE54DF4F8883C25BD040CD54C2
:1041E000DF4F8881C35BD04080788068CD54DF4F3B
:1041F0008883C35BD040CE0182559F4F0E94620EE0
:104200007C018E010F5F1F4FDD24D394D801DC9217
:1042100063E671E0C80105960E943A12F801118226
:10422000128213821482055F1F4F0215130571F766
:10423000D1011C92E114F10409F4F2C1F701848167
:10424000803409F0EDC16AEC72E080810E94CC04F8
:10425000CF57DF4F688379838A839B83C158D040CF
:104260002AEC32E0CB57DF4F39832883C558D04042
:1042700086E0FE01EF57FF4FDE01A657BF4F0190CA
:104280000D928A95E1F7CF57DF4F48815981C15888
:10429000D040CD57DF4F8881C358D040C657DF4F3D
:1042A00059834883CA58D040C457DF4F8883CC58BD
:1042B000D040C257DF4F39832883CE58D04086E0A4
:1042C000FE01E657FF4FDE01A057BF4F01900D9250
:1042D0008A95E1F78E010A561F4F86E0FE01E057EE
:1042E000FF4FD80101900D928A95E1F72BE0B22E95
:1042F0009924939433E0832E42E0742ED801ED91FB
:10430000FC911197309709F48BC114968D919C9173
:10431000C456DF4FF983E883CC59D040C256DF4FF3
:1043200099838883CE59D0408481863009F18A30C0
:10433000D1F18C3009F46EC083FF93C0CE01845656
:104340009F4F0E948D07F1012081283008F05BC04B
:10435000B29E90011124E1E0F0E0EC0FFD1FE20FAE
:10436000F31F70826183728383839483C90111C0B8
:104370002081F1018081883008F045C0B89EC001DD
:104380001124E1E0F0E0EC0FFD1FE80FF91F1082AF
:104390002183059663E671E021E030E02C0F3D1F9C
:1043A000820F931F2AC04081518162817381411520
:1043B000B0E85B076105710508F050C0D1018C9130
:1043C000883008F5B89EC0011124E1E0F0E0EC0F60
:1043D000FD1FE80FF91F9082052E000C660B770B6E
:1043E0004183528363837483059663E671E0E1E061
:1043F000F0E0EC0FFD1F8E0F9F1F0E943012D101C5
:104400008C918F5F8C93F80164817581C8010E9443
:10441000EE0774CF4081518162817381DB01CA0153
:104420009058AF4FBF4F0097A140B10538F2342FDD
:10443000252F962FF1014081483028F7B49EA00126
:104440001124E1E0F0E0EC0FFD1FE40FF51F908276
:104450003183228393837483CA019BCF77FFE7CF95
:104460006BCF9CEF980F923008F05DC0CF010E9497
:10447000C00DF1012081283030F6E1E0F0E0EC0FD2
:10448000FD1FB29EE00DF11D1124808261157105A2
:1044900011F463E671E0CE018F579F4F0E943A12EC
:1044A000F1018081C82ED12CEE24E394F12CEC0E86
:1044B000FD1EB89EE00CF11C1124D70115968D91BC
:1044C0009C911697009709F478C0CF57DF4F688109
:1044D0007981C158D0406115710509F46CC01796F7
:1044E0004D915C91CB57DF4F28813981C558D04021
:1044F0004217530708F45FC00E949129CB57DF4F42
:1045000088819981C558D040F70192878187CB5720
:10451000DF4F19821882C558D040CE018F579F4F68
:104520000E94780B6CCF823009F4A0CF63E671E073
:10453000CE018F579F4F0E943A12C456DF4F6881B9
:1045400079818A819B81CC59D040AE014F575F4F12
:104550000E948511D1018C91883038F5B89EC00138
:104560001124E1E0F0E0EC0FFD1FE80FF91F80825D
:104570000596E1E0F0E0EC0FFD1F8E0F9F1FCF5777
:10458000DF4F68817981C158D0406115710509F408
:1045900044C0CB57DF4F48815981C558D0400E9455
:1045A0000F12D1018C918F5F8C93CE018F579F4F4B
:1045B0000E94780B28CF0E943928BC9CF001BD9C3A
:1045C000F00D112421E030E02C0F3D1FE20FF31F0E
:1045D000CF57DF4F88819981C158D040968385831A
:1045E000CD57DF4F88819981C358D040908787830A
:1045F000CB57DF4F88819981C558D04092878187FA
:10460000CF57DF4F19821882C158D040CD57DF4FA6
:1046100019821882C358D0407ACF0E94660BC1CF4E
:104620000AEC12E0CE55DF4F19830883C25AD040FE
:1046300088EB91E0CC55DF4F99838883C45AD040F2
:1046400087E0CA55DF4F8883C65AD040C955DF4F2F
:104650008881C75AD04080788068C955DF4F8883E9
:10466000C75AD040BE016E557F4FCE0188559F4F2F
:104670000E944F12CA56DF4F19830883C659D04093
:104680008BEC91E0C856DF4F99838883C859D0409E
:1046900083E0C656DF4F8883CA59D040C556DF4FE6
:1046A0008881CB59D04080788068C556DF4F888399
:1046B000CB59D040BE016A567F4FCE0184569F4FE2
:1046C0000E944F120E941701C056DF4F88819981C6
:1046D000C05AD040892B09F450C0C455DF4F88819F
:1046E0009981CC5AD040892B09F474C0C855DF4F4A
:1046F000E880F980C85AD0406BE671E0C7010E949B
:104700008829892B09F466C0C456DF4FC880D98038
:10471000CC59D0400091EF021091F0020115110523
:1047200009F456C0B701D8018D919C910E94882947
:10473000892B09F049C0B601F801828193810E945A
:104740008829892B09F040C0D8011496ED91FC917D
:1047500081E0309719F0CE0101960995C456DF4FDC
:1047600068817981CC59D040482FC855DF4F888166
:104770009981C85AD0400E94B8150E942B01CE01E1
:1047800084569F4F0E94780BCE0188559F4F0E9400
:10479000780B8E01075A1F4FFE0131967F010B5097
:1047A0001109C80105960E94780BE016F106B9F7C9
:1047B0000E9478046093F3027093F4028093F502F0
:1047C0009093F6020C94D01BF80106811781A6CFB6
:1047D00085E0C4CF61E08CE00E944A04C456DF4FFC
:1047E000E880F980CC59D0400091EF021091F0029E
:1047F000D12C0115110501F1B701D80112968D9147
:104800009C910E948829892B91F4D8011496ED91EE
:10481000FC9181E0309719F0CE0101960995482F5F
:10482000B701F801808191810E94B815DA2CD80176
:1048300016960D911C91DDCFD1109FCF0E94D90902
:104840000AEC12E0CF57DF4F19830883C158D040DC
:104850008BE791E0CD57DF4F99838883C358D040D1
:1048600089E0CB57DF4F8883C558D040CA57DF4F08
:104870008881C658D04080788068CA57DF4F8883C7
:10488000C658D0406AEE72E0CE018F579F4F0E940B
:10489000BB1487EE90E0CC54DF4F99838883C45BD0
:1048A000D040CF57DF4F19830883C158D04085E8E7
:1048B00091E0CD57DF4F99838883C358D0408CE077
:1048C000CB57DF4F8883C558D040CA57DF4F888108
:1048D000C658D04080788068CA57DF4F8883C65852
:1048E000D040BE016C547F4FCE018F579F4F0E9426
:1048F0009C13CF57DF4F19830883C158D04082E9FA
:1049000091E0CD57DF4F99838883C358D04087E02B
:10491000CB57DF4F8883C558D040CA57DF4F8881B7
:10492000C658D04080788068CA57DF4F8883C65801
:10493000D040CE018F579F4F0E948313DC01CB01E3
:10494000C056DF4F68817981C05AD0407F77C45606
:10495000DF4F4881CC59D040C356DF4F5881CD59E5
:10496000D040272F2F77C454DF4F3881CC5BD04005
:104970003078322B3F77C454DF4F3883CC5BD04044
:104980009D01C454DF4F7881CC5BD0400E94200B46
:10499000CF57DF4F19830883C158D04085EA91E093
:1049A000CD57DF4F99838883C358D0408BE0CB57D6
:1049B000DF4F8883C558D040CA57DF4F8881C6581B
:1049C000D04080788068CA57DF4F8883C658D0406F
:1049D00060EC73E0CE018F579F4F0E946A140E94D3
:1049E000820DCBCECF93DF93C091CA02D091CB0280
:1049F0008091CD029091CE02009759F0FC01208168
:104A000031813093CE022093CD02BE010E94CF09A6
:104A1000EFCF8091CA029091CB02DF91CF910C949D
:104A20004901FB01DC0104C08D910590801921F43E
:104A300041505040C8F7881B990B0895FB01DC01D9
:104A400002C005900D9241505040D8F70895FC01E6
:104A500005900020E9F7809590958E0F9F1F08958F
:104A6000FC010590615070400110D8F78095909539
:104A70008E0F9F1F08950E947D2508F481E0089500
:104A8000E89409C097FB3EF49095809570956195E8
:104A90007F4F8F4F9F4F9923A9F0F92F96E9BB279E
:104AA0009395F695879577956795B795F111F8CF1A
:104AB000FAF4BB0F11F460FF1BC06F5F7F4F8F4F85
:104AC0009F4F16C0882311F096E911C0772321F07B
:104AD0009EE8872F762F05C0662371F096E8862F13
:104AE00070E060E02AF09A95660F771F881FDAF76A
:104AF000880F9695879597F90895990F0008550F97
:104B0000AA0BE0E8FEEF16161706E807F907C0F053
:104B100012161306E407F50798F0621B730B840B5B
:104B2000950B39F40A2661F0232B242B252B21F435
:104B300008950A2609F4A140A6958FEF811D811DD5
:104B400008950E94B4250C9425260E94172638F05B
:104B50000E941E2620F0952311F00C940E260C9432
:104B6000142611240C9459260E94362670F3959F22
:104B7000C1F3950F50E0551F629FF001729FBB2754
:104B8000F00DB11D639FAA27F00DB11DAA1F649FF0
:104B90006627B00DA11D661F829F2227B00DA11DA3
:104BA000621F739FB00DA11D621F839FA00D611D29
:104BB000221F749F3327A00D611D231F849F600D4A
:104BC000211D822F762F6A2F11249F5750409AF073
:104BD000F1F088234AF0EE0FFF1FBB1F661F771FFF
:104BE000881F91505040A9F79E3F510580F00C94CA
:104BF0000E260C9459265F3FE4F3983ED4F3869535
:104C000077956795B795F795E7959F5FC1F7FE2B69
:104C1000880F911D9695879597F9089597F99F6745
:104C200080E870E060E008959FEF80EC0895002434
:104C30000A941616170618060906089500240A9401
:104C400012161306140605060895092E0394000C87
:104C500011F4882352F0BB0F40F4BF2B11F460FF16
:104C600004C06F5F7F4F8F4F9F4F089557FD90583F
:104C7000440F551F59F05F3F71F04795880F97FB20
:104C8000991F61F09F3F79F08795089512161306DA
:104C90001406551FF2CF4695F1DF08C01616170609
:104CA0001806991FF1CF869571056105089408953E
:104CB000E894BB2766277727CB0197F908950E94D0
:104CC000A126A59F900DB49F900DA49F800D911DCE
:104CD000112408952F923F924F925F926F927F928C
:104CE0008F929F92AF92BF92CF92DF92EF92FF92FC
:104CF0000F931F93CF93DF93CDB7DEB7CA1BDB0BA8
:104D00000FB6F894DEBF0FBECDBF09942A8839884C
:104D100048885F846E847D848C849B84AA84B98453
:104D2000C884DF80EE80FD800C811B81AA81B9815F
:104D3000CE0FD11D0FB6F894DEBF0FBECDBFED0173
:104D40000895A29FB001B39FC001A39F700D811D64
:104D50001124911DB29F700D811D1124911D089584
:104D60005058BB27AA270E94C8260C9425260E94CB
:104D7000172638F00E941E2620F039F49F3F19F4C0
:104D800026F40C9414260EF4E095E7FB0C940E2602
:104D9000E92F0E94362658F3BA1762077307840773
:104DA000950720F079F4A6F50C9458260EF4E095BA
:104DB0000B2EBA2FA02D0B01B90190010C01CA01D5
:104DC000A0011124FF27591B99F0593F50F4503E80
:104DD00068F11A16F040A22F232F342F4427585F72
:104DE000F3CF469537952795A795F0405395C9F78A
:104DF0007EF41F16BA0B620B730B840BBAF0915042
:104E0000A1F0FF0FBB1F661F771F881FC2F70EC0E0
:104E1000BA0F621F731F841F48F4879577956795B3
:104E2000B795F7959E3F08F0B0CF9395880F08F09F
:104E30009927EE0F9795879508950E943E2688F052
:104E40009F5798F0B92F9927B751B0F0E1F0660F4E
:104E5000771F881F991F1AF0BA95C9F714C0B1308F
:104E600091F00E945826B1E008950C945826672FBF
:104E7000782F8827B85F39F0B93FCCF386957795BE
:104E80006795B395D9F73EF49095809570956195A7
:104E90007F4F8F4F9F4F08950E947D2508F48FEF1D
:104EA0000895DB018F939F930E945F26BF91AF917E
:104EB000A29F800D911DA39F900DB29F900D112474
:104EC0000895AA1BBB1B51E107C0AA1FBB1FA61751
:104ED000B70710F0A61BB70B881F991F5A95A9F7A3
:104EE00080959095BC01CD010895A1E21A2EAA1BD0
:104EF000BB1BFD010DC0AA1FBB1FEE1FFF1FA2178A
:104F0000B307E407F50720F0A21BB30BE40BF50B86
:104F1000661F771F881F991F1A9469F7609570950F
:104F2000809590959B01AC01BD01CF010895EE0FD6
:104F3000FF1F0590F491E02D09940F931F93CF93D9
:104F4000DF938230910510F482E090E0E091C60397
:104F5000F091C70330E020E0B0E0A0E0309799F492
:104F60002115310509F44AC0281B390B24303105BD
:104F7000D8F58A819B816115710589F1FB019383C5
:104F80008283FE0111C04081518102811381481743
:104F90005907E0F04817590799F4109761F01296F5
:104FA0000C93129713961C933296CF01DF91CF91F9
:104FB0001F910F9108950093C6031093C703F4CF78
:104FC0002115310551F04217530738F0A901DB01D3
:104FD0009A01BD01DF01F801C1CFEF01F9CF909334
:104FE000C7038093C603CDCFFE01E20FF31F819369
:104FF00091932250310939832883D7CF2091C4035C
:105000003091C503232B41F4209104013091050117
:105010003093C5032093C403209102013091030112
:105020002115310541F42DB73EB74091060150914D
:105030000701241B350BE091C403F091C503E2176F
:10504000F307A0F42E1B3F0B2817390778F0AC01AB
:105050004E5F5F4F2417350748F04E0F5F1F509388
:10506000C5034093C403819391939FCFF0E0E0E0A8
:105070009CCFCF93DF930097E9F0FC013297138226
:105080001282A091C603B091C703ED0130E020E089
:105090001097A1F420813181820F931F2091C403C6
:1050A0003091C5032817390709F061C0F093C50393
:1050B000E093C403DF91CF910895EA01CE17DF0793
:1050C000E8F54A815B819E0141155105B1F7E9017F
:1050D000FB83EA8349915991C40FD51FEC17FD0753
:1050E00061F4808191810296840F951FE901998373
:1050F0008883828193819B838A83F0E0E0E012962B
:105100008D919C9113970097B9F52D913C91119732
:10511000CD010296820F931F2091C4033091C503E5
:105120002817390739F6309751F51092C7031092B6
:10513000C603B093C503A093C403BCCFD383C2837B
:1051400040815181840F951FC817D90761F44E5FC4
:105150005F4F88819981480F591F518340838A810D
:105160009B81938382832115310509F0B0CFF093A1
:10517000C703E093C6039ECFFD01DC01C0CF1382BD
:105180001282D7CFB0E0A0E0E8ECF8E20C946C26F5
:105190008C01009751F4CB010E949D278C01C8011E
:1051A000CDB7DEB7E0E10C948826FC01E60FF71FCF
:1051B0009C0122503109E217F30708F49DC0D90180
:1051C000CD91DC911197C617D70798F0C530D1055E
:1051D00030F3CE0104978617970708F3C61BD70B49
:1051E0002297C193D1936D937C93CF010E9439286C
:1051F000D6CF5B01AC1ABD0A4C018C0E9D1EA0914E
:10520000C603B091C703512C412CF12CE12C10970F
:1052100031F58091C4039091C5038815990509F073
:105220005CC04616570608F058C080910201909164
:105230000301009741F48DB79EB74091060150914C
:105240000701841B950BE817F90708F055C0F09388
:10525000C503E093C403F90171836083A0CF8D91EE
:105260009C91119712966C90129713967C901397BD
:10527000A815B90559F56C0142E0C40ED11CCA1439
:10528000DB0420F1AC014A195B09DA01129615978B
:1052900080F06282738251834083D9016D937C9345
:1052A000E114F10471F0D7011396FC93EE93129779
:1052B00076CF22968C0F9D1FF90191838083F30195
:1052C000EFCFF093C703E093C60369CF48165906A2
:1052D00008F42C017D01D3019ACFCB010E949D27B8
:1052E0007C01009749F0AE01B8010E947F29C801F6
:1052F0000E943928870153CF10E000E050CFFB0116
:10530000DC0102C001900D9241505040D8F7089541
:10531000FB01DC018D91019080190110D9F3990BEB
:105320000895FB01DC0101900D920020E1F7089542
:10533000FB0151915523A9F0BF01DC014D914517A7
:105340004111E1F759F4CD010190002049F04D9150
:1053500040154111C9F3FB014111EFCF81E090E00D
:105360000197089510E0C9ECD0E004C0FE010E944E
:0E53700097272196CA3CD107C9F7F894FFCFC2
:08537E00000000000000000027
:105386000C010000C8038000000000000619800B15
:105396007C127E0072006800A50096008800560107
:1053A600CC00C400BB00B300E70000000000B4035B
:1053B6001403410301047203500364034A756C200D
:1053C600323720323032362031373A35383A3439AE
:1053D600002F2F272722225C5C6208660C6E0A7259
:1053E6000D7409005C7530303030006E756C6C00E1
:1053F600747275650066616C7365006170706172C8
:105406006174757300626F6479526573706F6E7341
:1054160065007265717565737400676574416374C0
:10542600696F6E730061707061726174757349445F
:1054360000616374696F6E00656C656D656E7400FE
:105446006C6F636F6D6F74696F6E006D7367006765
:105456006574506572636570747300706572636518
:10546600707400747970650073746174757300618B
:10547600726773006765744B6E6F77486F7700735A
:105486006B696C6C00636F6E7465787400706C6128
:025496006E00A6
:00000001FF
