:100000000C9461000C947E000C947E000C947E0095
:100010000C947E000C947E000C947E000C947E0068
:100020000C947E000C947E000C947E000C947E0058
:100030000C947E000C947E000C947E000C947E0048
:100040000C945F010C947E000C947E000C947E0056
:100050000C947E000C947E000C947E000C947E0028
:100060000C947E000C947E00000000002400270009
:100070002A0000000000250028002B0000000000DE
:1000800023002600290004040404040404040202DA
:100090000202020203030303030301020408102007
:1000A0004080010204081020010204081020000012
:1000B0000008000201000003040700000000000027
:1000C000000011241FBECFEFD8E0DEBFCDBF11E08E
:1000D000A0E0B1E0EAE3F6E002C005900D92A030A6
:1000E000B107D9F721E0A0E0B1E001C01D92AB302B
:1000F000B207E1F70E94A9010C941B030C940000C5
:10010000833081F028F4813099F08230A9F008958D
:100110008730A9F08830C9F08430B1F48091800034
:100120008F7D03C0809180008F7780938000089539
:1001300084B58F7784BD089584B58F7DFBCF809182
:10014000B0008F778093B00008958091B0008F7DCC
:10015000F9CF1F93CF93DF93282F30E0F901E255B9
:10016000FF4F8491F901E656FF4FD491F901EA5708
:10017000FF4FC491CC23A9F0162F81110E9480005B
:10018000EC2FF0E0EE0FFF1FEE58FF4FA591B4915A
:100190008FB7F894EC91111108C0D095DE23DC9351
:1001A0008FBFDF91CF911F910895DE2BF8CFCF93B2
:1001B000DF9390E0FC01E656FF4F24918A579F4F52
:1001C000FC0184918823D1F090E0880F991FFC01F5
:1001D000E859FF4FA591B491FC01EE58FF4FC5912E
:1001E000D49161110EC09FB7F8948C91E22FE095E5
:1001F0008E238C932881E223E8839FBFDF91CF91E8
:1002000008958FB7F894EC91E22BEC938FBFF6CF63
:100210003FB7F8948091050190910601A0910701E4
:10022000B091080126B5A89B05C02F3F19F0019693
:10023000A11DB11D3FBFBA2FA92F982F8827BC0140
:10024000CD01620F711D811D911D42E0660F771F68
:10025000881F991F4A95D1F708958F929F92AF9268
:10026000BF92CF92DF92EF92FF924B015C010E940E
:1002700008016B017C010E9408016C197D098E093F
:100280009F09683E734081059105A8F321E0821A19
:100290009108A108B10888EEC80E83E0D81EE11CC1
:1002A000F11C81149104A104B10429F7FF90EF908F
:1002B000DF90CF90BF90AF909F908F9008951F9246
:1002C0000F920FB60F9211242F933F938F939F930A
:1002D000AF93BF938091010190910201A09103011E
:1002E000B09104013091000123E0230F2D3758F520
:1002F0000196A11DB11D20930001809301019093EF
:100300000201A0930301B093040180910501909133
:100310000601A0910701B09108010196A11DB11D30
:100320008093050190930601A0930701B093080103
:10033000BF91AF919F918F913F912F910F900FBEE1
:100340000F901F90189526E8230F0296A11DB11D4E
:10035000D2CF789484B5826084BD84B5816084BD39
:1003600085B5826085BD85B5816085BD80916E0053
:10037000816080936E001092810080918100826084
:1003800080938100809181008160809381008091C1
:1003900080008160809380008091B10084608093B0
:1003A000B1008091B00081608093B00080917A00AC
:1003B000846080937A0080917A00826080937A00D2
:1003C00080917A00816080937A0080917A008068C1
:1003D00080937A001092C10060E082E00E94D70012
:1003E00061E08DE00E94D70061E08BE00E94D700C1
:1003F00090EB492E90E0592E2CE9622E20E0722ECF
:1004000008E810E034E6832E912CA12CB12C49EBA6
:10041000C42E40E0D42E50E0E52E50E0F52EF2013F
:100420008491F301C491F801D491DD2309F451C002
:1004300081110E948000ED2FF0E0EE0FFF1FE458C5
:10044000FF4FA591B4918C91C82309F442C0C0918B
:100450000901D0910A01C436D1059CF42196D093AC
:100460000A01C093090168EC70E080E090E00E940E
:100470002D01C0910901D0910A0160E0C436D10577
:100480000CF061E08DE00E94A9002FEF30E0DE016A
:100490000E941403A50194010E94C402322E232E4F
:1004A000C22FD32F61E08BE00E94D700209711F577
:1004B00060E08BE00E94A90064E670E080E090E0DC
:1004C0000E942D01E114F10409F4A9CF0E9400005B
:1004D000A6CF8091090190910A01181619064CF6D1
:1004E000019790930A01809309016EE571E080E025
:1004F00090E0BDCFCF3FD10511F461E0DACFF60136
:100500008491833029F140F48130C1F08230D9F0F8
:10051000C038D10594F7CCCF873031F1883061F104
:100520008430B1F780918000806280938000832DB9
:10053000922D90938B0080938A00BECF84B5806803
:1005400084BD37BCB9CF84B5806284BD38BCB4CF1C
:1005500080918000806880938000832D922D9093FD
:10056000890080938800A8CF8091B0008068809334
:10057000B0003092B300A0CF8091B0008062809331
:10058000B0003092B40098CF052E97FB1EF4009473
:100590000E94DB0257FD07D00E94E30207FC03D054
:1005A0004EF40C94DB0250954095309521953F4FC9
:1005B0004F4F5F4F089590958095709561957F4F4F
:1005C0008F4F9F4F0895A1E21A2EAA1BBB1BFD015E
:1005D0000DC0AA1FBB1FEE1FFF1FA217B307E40722
:1005E000F50720F0A21BB30BE40BF50B661F771F7A
:1005F000881F991F1A9469F760957095809590955A
:100600009B01AC01BD01CF010895A29FB001B39F32
:10061000C001A39F700D811D1124911DB29F700D0B
:10062000811D1124911D08950E940503B7FF0895AF
:0A063000821B930B0895F894FFCF8E
:00000001FF
