:100000000C94E0000C9408010C9408010C94080175
:100010000C9408010C9408010C9408010C9408013C
:100020000C9408010C9408010C9408010C9422060D
:100030000C9408010C9408010C9408010C9408011C
:100040000C94D8050C9408010C94A6050C9480051A
:100050000C9408010C9408010C9408010C940801FC
:100060000C9408010C94080100407A10F35A00A087
:10007000724E18090010A5D4E80000E87648170071
:1000800000E40B54020000CA9A3B000000E1F505B1
:10009000000080969800000040420F000000A086FB
:1000A00001000000102700000000E803000000002D
:1000B0006400000000000A000000000001000000D1
:1000C00000002C76D888DC674F0823DFC1DFAE59EB
:1000D000E1B1B796E5E3E453C63AE651997696E87E
:1000E000E6C28426EB898C9B62ED407C6FFCEFBC02
:1000F0009C9F40F2BAA56FA5F490055A2AF75C932D
:100100006B6CF9676DC11BFCE0E40D47FEF520E662
:10011000B500D0ED902E0300943577050080841E45
:10012000080000204E0A000000C80C333333330FA0
:10013000986E12831141EF8D2114893BE65516CF3D
:10014000FEE6DB18D1844B381BF77C1D901DA4BB49
:10015000E424203284725E228100C9F124ECA1E5FE
:100160003D270000000023002600290000000008B1
:10017000000201000003040700000000000000006E
:1001800000000000250028002B00000000002400D3
:1001900027002A00040404040404040402020202E6
:1001A000020203030303030301020408102040803A
:1001B000010204081020010204081020DE06DB09F9
:1001C00011241FBECFEFD8E0DEBFCDBF11E0A0E00D
:1001D000B1E0E4E5FAE202C005900D92AA34B1075D
:1001E000D9F722E0AAE4B1E001C01D92AF34B20712
:1001F000E1F710E0CFEDD0E004C02197FE010E94AE
:100200006E10CE3DD107C9F70E946A070C941D15E8
:100210000C9400008F929F92AF92BF92FF920F9327
:100220001F93CF93DF93F0901F022BE02F1508F45C
:1002300051C02091210208E512E0021B110927FD9F
:100240001395000F111F000F111F20912002C8E805
:10025000D0E0C21BD10927FDD395CC0FDD1FCC0FF9
:10026000DD1F4E010D2E000CAA08BB08DC01853BEA
:10027000910514F0A4EBB0E09801012E000C440BA2
:10028000550B281939094A095B090E94300F24EBE4
:1002900030E040E050E00E94060F820E931EA41E44
:1002A000B51E8C169D062CF0E801801691060CF404
:1002B000E4012297CC0FDD1F2FB7F8948F2D90E02B
:1002C000FC01EE0FFF1FE80FF91FE650FE4FD2832F
:1002D000C1832FBFDF91CF911F910F91FF90BF90EE
:1002E000AF909F908F90089590E0FC01E855FE4FED
:1002F00024918C569E4FFC018491882399F090E0C4
:10030000880F991FFC01E657FE4FA591B491FC019F
:10031000E058FE4F859194918FB7F894EC91E22BC1
:10032000EC938FBF0895AF92BF92CF92DF92EF927E
:10033000FF920F931F93CF93DF936C017B018B018F
:10034000040F151FEB015E01AE18BF08C017D107DF
:1003500059F06991D601ED91FC910190F081E02D69
:10036000C6010995892B79F7C501DF91CF911F91BE
:100370000F91FF90EF90DF90CF90BF90AF900895D6
:10038000FC01538D448D252F30E0842F90E0821B9B
:10039000930B541710F0CF96089501970895FC0120
:1003A000918D828D981761F0A28DAE0FBF2FB11D78
:1003B0005D968C91928D9F5F9F73928F90E00895D0
:1003C0008FEF9FEF0895FC01918D828D981731F08A
:1003D000828DE80FF11D858D90E008958FEF9FEFDE
:1003E0000895FC01918D228D892F90E0805C9F4FB4
:1003F000821B91098F73992708958DE591E00E94E2
:10040000F10121E0892B09F420E0822F0895FC01FD
:10041000A48DA80FB92FB11DA35ABF4F2C91848D65
:1004200090E001968F739927848FA689B7892C93C2
:10043000A089B1898C91837080648C93938D848D15
:10044000981306C00288F389E02D80818F7D808318
:100450000895EF92FF920F931F93CF93DF93EC01D8
:1004600081E0888F9B8D8C8D98131AC0E889F9895B
:10047000808185FF15C09FB7F894EE89FF8960835E
:10048000E889F98980818370806480839FBF81E0DF
:1004900090E0DF91CF911F910F91FF90EF90089521
:1004A000F62E0B8D10E00F5F1F4F0F731127E02EFC
:1004B0008C8D8E110CC00FB607FCFACFE889F98934
:1004C000808185FFF5CFCE010E940702F1CFEB8D31
:1004D000EC0FFD2FF11DE35AFF4FF0829FB7F89408
:1004E0000B8FEA89FB8980818062CFCFCF93DF9326
:1004F000EC01888D8823B9F0AA89BB89E889F9893C
:100500008C9185FD03C0808186FD0DC00FB607FC70
:10051000F7CF8C9185FFF2CF808185FFEDCFCE01A3
:100520000E940702E9CFDF91CF910895833081F0D7
:1005300028F4813099F08230A9F008958730A9F02D
:100540008830C9F08430B1F4809180008F7D03C081
:10055000809180008F7780938000089584B58F7795
:1005600084BD089584B58F7DFBCF8091B0008F77D7
:100570008093B00008958091B0008F7DF9CFCF9324
:10058000DF93282F30E0F901E459FE4F8491F901FF
:10059000E855FE4FD491F901EC56FE4FC491CC239F
:1005A000A1F081110E949602EC2FF0E0EE0FFF1FE8
:1005B000EE59FE4FA591B491EC91ED2381E090E0CE
:1005C00009F480E0DF91CF91089580E090E0FACFC8
:1005D0001F93CF93DF93282F30E0F901E459FE4FAA
:1005E0008491F901E855FE4FD491F901EC56FE4F84
:1005F000C491CC23A9F0162F81110E949602EC2FF2
:10060000F0E0EE0FFF1FE058FE4FA591B4918FB7B9
:10061000F894EC91111108C0D095DE23DC938FBFC4
:10062000DF91CF911F910895DE2BF8CF0F931F9389
:10063000CF93DF93EC0188819981009759F02A814B
:100640003B812617370730F081E0DF91CF911F9172
:100650000F9108958B016F5F7F4F0E949911009752
:1006600059F0998388831B830A832C813D81232B36
:1006700059F7FC011082E8CF80E0E7CFEF92FF92BC
:100680000F931F93CF93DF9300D0CDB7DEB78C01CC
:1006900069831A82FC01E480F580FFEFEF1AFF0AFC
:1006A000B7010E941603882381F0F801208131816F
:1006B00084819581BE016F5F7F4F820F931F0E94DF
:1006C0006812F801F582E48281E00F900F90DF91CB
:1006D000CF911F910F91FF90EF900895CF93DF93EB
:1006E000EC0188819981009711F00E941011198204
:1006F00018821D821C821B821A82DF91CF9108957D
:10070000EF92FF920F931F93CF93DF93EC01FB01C6
:10071000E080F180E114F10411F1048115810115EB
:100720001105A9F08C819D81080F191FB801CE0118
:100730000E941603882399F0288139818C819D813C
:10074000B701820F931F0E9468121D830C83CE0194
:10075000DF91CF911F910F91FF90EF900895CE01FF
:100760000E946E03F4CFEF92FF920F931F93CF93EB
:10077000DF93EC017B018A01BA010E94160381110B
:100780000BC0CE010E946E03CE01DF91CF911F916D
:100790000F91FF90EF9008951D830C83B70188811E
:1007A00099810E946812F0CFFB0101900020E9F7C7
:1007B0003197AF01461B570B0C94B303CF93DF93D4
:1007C000EC01FB018617970749F060817181611583
:1007D000710541F0448155810E94B303CE01DF9140
:1007E000CF9108950E946E03F9CFCF93DF93EC0170
:1007F000198218821B821A821D821C820E94DE03CB
:10080000CE01DF91CF910895FC01118210821382F5
:10081000128215821482FB0101900020E9F73197C2
:10082000AF01461B570B0C94B303FC0180819181EF
:10083000009711F00C9410110895EF92FF920F930E
:100840001F93CF93DF93CDB7DEB72F970FB6F894F2
:10085000DEBF0FBECDBF8C01FC0185818F938481EB
:100860008F9389E191E09F938F931F9283E08F9301
:100870007E01FDE0EF0EF11CFF92EF920E946F12DD
:10088000B701CE0107960E9404046EE171E0CE012B
:1008900001960E940404BE01695F7F4FCE0101965C
:1008A0000E948003B8010E948003FC0144815581AD
:1008B000608171818DE591E00E949301CE010196E6
:1008C0000E941504CE0107960E9415040FB6F894F5
:1008D000DEBF0FBECDBF2F960FB6F894DEBF0FBEA2
:1008E000CDBFDF91CF911F910F91FF90EF900895B1
:1008F000CF93C1E08DE591E00E94F101892B09F4CD
:10090000F7C080912C0290912D02892B09F054C0E0
:100910002FB7F8948091500190915101A09152010C
:10092000B09153012FBF8093430290934402A09350
:100930004502B093460267E371E081E392E00E94D2
:10094000D4038DE591E00E94CF01682F80912C02A5
:1009500090912D029C012F5F3F4F30932D022093E9
:100960002C028330910508F0BDC051E0663609F4D1
:1009700050E02430310519F441E0653609F440E0D7
:10098000511103C0442309F45EC010922D0210924D
:100990002C0210922F0210922E0267E371E081E385
:1009A00092E00E94D40367E371E087E392E00E9443
:1009B000D403109230029ECF809143029091440262
:1009C000A0914502B0914602845D9E4FAF4FBF4F4C
:1009D0002FB7F8944091500150915101609152010C
:1009E000709153012FBF84179507A607B70708F02A
:1009F000A8CF67E371E087E392E00E94D4031092EE
:100A00002D0210922C0210922F0210922E0267E3F8
:100A100071E081E392E00E94D403109230022FB77C
:100A2000F8948091500190915101A0915201B091A0
:100A300053012FBF8093430290934402A093450239
:100A4000B09346027ECF0497029720F510923002B1
:100A500087E392E00E943E0380912C0290912D0248
:100A6000069709F047CF40E150E070E060E08091E8
:100A70003702909138020E94560A6A5F7F4F709346
:100A80002F0260932E0267E371E087E392E00E94F9
:100A9000D40330CF2730310508F42CCF80912E02BB
:100AA00090912F022817390738F41092300281E311
:100AB00092E00E943E031ECF90932D0280932C0261
:100AC000892B09F417CF81E392E00E943E03109234
:100AD0002D0210922C0210922F0210922E02C0931F
:100AE000300208CF2430310509F0ADCF50E044CFBB
:100AF000CF9108950E94FD0181110C94780408950E
:100B00001F920F920FB60F9211242F933F934F9382
:100B10005F936F937F938F939F93AF93BF93EF9365
:100B2000FF938DE591E00E940702FF91EF91BF9145
:100B3000AF919F918F917F916F915F914F913F9175
:100B40002F910F900FBE0F901F9018951F920F922C
:100B50000FB60F9211242F938F939F93EF93FF93D0
:100B6000E0916D01F0916E018081E0917301F0914F
:100B7000740182FD1BC09081809176018F5F8F731D
:100B800020917701821741F0E0917601F0E0E35A7D
:100B9000FE4F958F80937601FF91EF919F918F91FA
:100BA0002F910F900FBE0F901F9018958081F4CF5A
:100BB0001F920F920FB60F9211242F933F938F9392
:100BC0009F93AF93BF938091500190915101A09159
:100BD0005201B091530130914F0123E0230F2D3783
:100BE00058F50196A11DB11D20934F01809350012E
:100BF00090935101A0935201B093530180914B0106
:100C000090914C01A0914D01B0914E010196A11D12
:100C1000B11D80934B0190934C01A0934D01B09373
:100C20004E01BF91AF919F918F913F912F910F9066
:100C30000FBE0F901F90189526E8230F0296A11D56
:100C4000B11DD2CF1F920F920FB60F9211242F9386
:100C50003F934F935F936F937F938F939F93AF9344
:100C6000BF93CF93DF93EF93FF9380914A01C0919D
:100C70001E02D0E087FF24C01092850010928400ED
:100C800080914A018F5F80934A0180914A01082E2A
:100C9000000C990B8C179D0724F480914A018C302D
:100CA000C4F18091840090918500049680349C4921
:100CB00008F47AC08091840090918500049676C0F3
:100CC00080914A01082E000C990B8C179D07C4F6E1
:100CD000E0914A018E2FEE0F990BFC01EE0FFF1FE2
:100CE000E80FF91FE650FE4F808186FFC9CFE091E3
:100CF0004A018E2FEE0F990BFC01EE0FFF1FE80F3C
:100D0000F91FE650FE4F808160E08F730E94E80279
:100D1000B7CF2091840030918500E0914A018E2F59
:100D2000EE0F990BFC01EE0FFF1FE80FF91FE650C5
:100D3000FE4F81819281820F931F9093890080934F
:100D40008800E0914A018E2FEE0F990BFC01EE0F07
:100D5000FF1FE80FF91FE650FE4F808186FF11C08C
:100D6000E0914A018E2FEE0F990BFC01EE0FFF1F51
:100D7000E80FF91FE650FE4F808161E08F730E94FB
:100D8000E802FF91EF91DF91CF91BF91AF919F91D9
:100D90008F917F916F915F914F913F912F910F9024
:100DA0000FBE0F901F90189580E49CE990938900E6
:100DB000809388008FEF80934A01E3CF1092600107
:100DC00010925F0188EE93E0A0E0B0E080936101B3
:100DD00090936201A0936301B09364018BE091E072
:100DE00090935E0180935D0185EC90E090936A01A1
:100DF0008093690184EC90E090936C0180936B0187
:100E000080EC90E090936E0180936D0181EC90E016
:100E10009093700180936F0182EC90E09093720147
:100E20008093710186EC90E090937401809373013C
:100E30001092760110927701109278011092790148
:100E4000109228021092270286E090E00E9474100F
:100E5000FC011182108213821282158214829093F7
:100E6000240280932302909326028093250285EF2B
:100E700093E090932B0280932A0267E371E081E371
:100E800092E00E94040467E371E087E392E00E942D
:100E9000040467E371E08DE392E00E940404809112
:100EA0001E028C3098F491E0980F90931E0280936C
:100EB0001F0290E0FC01EE0FFF1FE80FF91FE65044
:100EC000FE4F88EB9BE09283818308958FEF8093A0
:100ED0001F020895CF93DF93CDB7DEB7AD970FB65E
:100EE000F894DEBF0FBECDBF789484B5826084BD18
:100EF00084B5816084BD85B5826085BD85B581601E
:100F000085BD80916E00816080936E00109281009B
:100F10008091810082608093810080918100816056
:100F20008093810080918000816080938000809117
:100F3000B10084608093B1008091B00081608093A3
:100F4000B00080917A00846080937A0080917A006A
:100F5000826080937A0080917A00816080937A0029
:100F600080917A00806880937A001092C1008DE0B1
:100F70000E9474018AE00E9474018BE00E94740157
:100F80008CE00E94740183E00E94740180911F0232
:100F90008C3008F050C083E00E94740180911F02E1
:100FA000282F30E0F901EE0FFF1FE20FF31FE6508C
:100FB000FE4F9081907C936090831092200210925B
:100FC00021022CE0622F0E946210829FB001112446
:100FD00030E020E0AB01420F531FFA01EE0FFF1F7C
:100FE000E40FF51FE650FE4F908196FD16C02F5F6F
:100FF0003F4F2C30310571F781110FC010928000E6
:1010000082E0809381001092850010928400B19A52
:1010100080916F00826080936F00E0911F028E2F9D
:1010200090E0FC01EE0FFF1FE80FF91FE650FE4FA6
:101030008081806480838AE590E00E940A016FEFDE
:1010400070E081E392E00E94160367E371E087E3BA
:1010500092E00E94D40367E371E081E392E00E9492
:10106000D40367E371E08DE392E00E94D403109211
:10107000300210922F0210922E0210922D02109226
:101080002C021092430210924402109245021092D8
:101090004602E0916D01F0916E0182E08083E09163
:1010A0006901F0916A011082E0916B01F0916C018D
:1010B0008FEC808310927501E0917101F0917201C3
:1010C00086E08083E0916F01F09170018081806102
:1010D0008083E0916F01F09170018081886080834E
:1010E000E0916F01F0917001808180688083E091D0
:1010F0006F01F091700180818F7D808380E4B82E34
:101100008091300210923002882371F119A618A63E
:101110001BA61AA61DA61CA661E372E0CE01889646
:101120000E94DE038CA59DA5892BD1F0E8A4F9A42B
:1011300063E271E0C7010E945F12892B09F0BCC015
:101140008DE00E94BF02892B09F4ACC060E08DE005
:101150000E94E80210925C018AE590E00E940A0178
:10116000CE0188960E941504B0927C0080917A008E
:10117000806480937A0080917A0086FDFCCF809114
:10118000780060917900762F682F072E000C880B6D
:10119000990B0E94B70D20E030EC4FE754E40E9419
:1011A000EB0F20E030E048EC52E40E94160E20E005
:1011B00030E040EA51E40E947F0F6B017C01C09255
:1011C0005801D0925901E0925A01F0925B018CE0F3
:1011D0000E94BF028C0120E030E048EC52E4C701DD
:1011E000B6010E945D1018160CF0B3C0012B09F077
:1011F000B0C060E08AE00E94E80260E08BE00E94FC
:10120000E80261E08CE00E94E80280915C018823A2
:1012100009F440C020E030E04CED52E4C701B601D3
:101220000E94B00D87FF36C02FB7F894809150010F
:1012300090915101A0915201B09153012FBF409163
:1012400054015091550160915601709157018C01E4
:101250009D01041B150B260B370BB901A801483C57
:10126000510561057105B0F08093540190935501CB
:10127000A0935601B0935701F090000184E190E0F3
:10128000F11002C08CED90E00E940A0181E0F82686
:10129000F09200010E94FD01882309F431CF0E94E1
:1012A00078042ECF61E08DE00E94E80281E0809317
:1012B0005C0184E190E052CF6FE271E0C7010E94CF
:1012C0005F12892B51F560915801709159018091FD
:1012D0005A0190915B011BA21AA21DA21CA21FA27F
:1012E0001EA28E010F5F1F4F22E044E00E94380AC9
:1012F000009771F0BC01CE0182960E94D403CE010A
:1013000082960E941D04CE0182960E94150428CF69
:10131000CE0182960E946E03F2CF68E371E0C701AE
:101320000E945F12892B09F01BCF8DE00E94BF0243
:1013300062E471E0892B11F465E471E0CE0101965D
:101340000E940404CE0101960E941D04CE01019664
:10135000DCCF8BE00E94BF028C0120E030E04CE843
:1013600052E4C701B6010E945D10181664F4012B07
:1013700051F460E08AE00E94E80261E08BE00E94A4
:10138000E80260E03FCF8AE00E94BF028C0120E0CB
:1013900030E04CE852E4C701B6010E94B00D1816C7
:1013A0000CF433CF012B09F030CF61E08AE00E94CA
:1013B000E80260E0E3CFCF93DF938DE392E00E94F9
:1013C000150487E392E00E94150481E392E00E94F5
:1013D0001504E0912302F09124028091270290915C
:1013E0002802892B71F10280F381E02DF093240211
:1013F000E09323020190F081E02DC481D5812097F4
:1014000031F0CE010E941504CE010E941011E0912E
:101410002302F091240280819181009711F00E94B3
:101420001011E0912302F091240211821082809128
:101430002702909128020197909328028093270217
:10144000C8CFC481D581209731F0CE010E94150408
:10145000CE010E94101180912302909124020097E6
:1014600021F0DF91CF910C941011DF91CF9108956D
:10147000EF920F931F93CF93DF93E80134E047FD82
:1014800034E1042E000C550B57FF03C051954195D4
:101490005109E32E022F242FAE010E94760BCE01BC
:1014A000DF91CF911F910F91EF900895B0E0A0E0F0
:1014B000ECE5FAE00C94390F5C016B017A016115DF
:1014C000710519F0FB0191838083E114F10451F05F
:1014D000C7010297839730F040E030E020E090E0D1
:1014E00072C05E01E5012196F5011081812F90E027
:1014F0000E946D0B892BA9F71D3201F52196F5018C
:10150000118101E0E114F10409F4DAC0F0E1EF1611
:10151000F10409F082C0103359F488818F7D883539
:1015200009F076C0198122960260F0E1EF2EF12CCD
:10153000812C912CA12C88E0B82E8CC01B3221F478
:10154000E5012296F501118100E0DCCFEAE0EE161C
:10155000F10409F4BBC0F0E1EF16F10409F06DC02D
:10156000E7CF78E0E72EF12C812C912CA12C60E1C3
:10157000B62E70C03FE9310F3A3128F439EA332EE4
:1015800080C021E09AC0302F3170C114D10431F0F5
:10159000222309F12197F601D183C08327FF21C0BF
:1015A00060E070E080E090E8311104C06FEF7FEF01
:1015B0008FEF9FE722E230E030934A022093490206
:1015C000462F372F282F642F732F822FCDB7DEB7EA
:1015D000E1E10C94550F01FF04C02297F601D1837D
:1015E000C083332341F090958095709561957F4F2E
:1015F0008F4F9F4FE5CF97FFE3CF82E290E090932C
:101600004A02809349026FEF7FEF8FEF9FE7D8CFB9
:1016100010E3E114F10409F4A4CF28E0E216F10488
:1016200009F4A2CF0CF092CF812C912CA12CE0E4F4
:10163000BE2E82E0E816F10469F060E070E080E020
:1016400090E897010F2C000C440B550B0E94E40E00
:1016500049015A0120E060E070E0CB0127010F2C26
:10166000000C66087708FE0150ED352E310E39E08A
:10167000331540F43FEB310F3A3108F07BCF49ECA2
:10168000342E310E3E141F040CF07DCF27FD15C003
:1016900086169706A806B90678F0A30192010E9463
:1016A000D40E630D711D811D911D61307105810581
:1016B00020E8920708F465CF2FEF21961081D3CF51
:1016C000103309F42ACF2AE0E22EF12C9CEC892E6B
:1016D000982CA82C9CE0B92EBDCF91110C94AD0D87
:1016E000803219F089508550C8F70895A9E0B0E01C
:1016F000ECE7FBE00C943E0F6A01F22EB02E102FA7
:10170000FBE3AF2EA01608F41BE31F5F012F27E0B9
:10171000AE014F5F5F4F0E94D50CBC018981982FAD
:101720009970913009F43FC09BE2E1FC04C09E2D0A
:101730009170E0FC3AC05E2D5071E82FE87083FF95
:1017400046C084E0911101C083E0EF2DE81B8F15A6
:1017500008F0E0E0D6018E2F20E2552351F19923C5
:1017600029F0D6019C93C60101966C0196012D5F6C
:101770003F4FE2FE24C08EE4D6018C9391E4119693
:101780009C93119712968C93D9018E2F90E2811120
:101790001BC0E20FF32FF11D10828EEF9FEF2996F1
:1017A000ECE00C945A0F9DE2C6CF90E2C4CF2D938B
:1017B00081508111FCCFCE0ED11CE0E0D0CF8EE65F
:1017C000D6018C9391E6DBCF9D938150E0CF482FDB
:1017D000447082FF3DC084E0911101C083E08F1509
:1017E00010F4EF2DE81BD6018E2F20E2552309F1CE
:1017F000992329F0D6019C93C60101966C019601AC
:101800002D5F3F4FE2FE1BC089E4D6018C938EE42E
:1018100011968C93119786E412968C93D9018E2F92
:1018200090E2882309F4B5CF9D938150FACF2D9390
:1018300081508111FCCFCE0ED11CE0E0D9CF89E6DA
:10184000D6018C938EE611968C93119786E6E4CFA1
:101850009B0177FF02C030E020E0A1E0B0E09111F1
:1018600002C0B0E0A0E0F9013196AE0FBF1F8B2C93
:10187000912CBB2009F461C05401EFEFAE1ABE0AEF
:10188000AA0DBB1DFA161B0619F014F04F2D4A1BAA
:10189000511188C0E3FC59C07601A42FB0E2A11118
:1018A0004FC0C40ED11C992309F45BC040E0D6019F
:1018B0001196F60190836D01552309F448C0012F5C
:1018C000060F9A81582F507184FF03C0913309F499
:1018D000015010160CF047C0093008F008E0EEE2A5
:1018E000FE2E5B01A01AB1088501919481949108A4
:1018F0002F3F320729F4D601FC92F60131966F0191
:101900006217730794F1021713077CF5DB01A21B22
:10191000B30BAA24A394B12CAC0EBD1EAA0DBB1D03
:1019200011968C9121503109D6011196281539054F
:10193000F4F0F60180836D01DBCFB12CA12CA0CF98
:10194000F701B1937F01A150AACF9111B0CFD60179
:10195000942F50E302C05D9391509111FCCFC40EBF
:10196000D11C40E0ACCF01E0BACF80E3DBCF6217FF
:10197000730731F4963388F4953311F4552369F0E5
:10198000F6018083FD01842F90E2811108C0A40F2D
:10199000B11D1C9290E080E002CF81E3F1CF9193E2
:1019A0008150F3CF911183CF8ACF283008F027E000
:1019B0003327DA01990F311D87FD9160009661058B
:1019C000710539F432602E5F3D9330E32A95E1F7DB
:1019D00008959F3F30F080387105610509F03C5F44
:1019E0003C5F3D93913008F08068911DDF93CF9369
:1019F0001F930F93FF92EF92192F987F9695E92FDF
:101A000096959695E90FFF27EE53FF4F99273327B9
:101A1000EE24FF24A701E70105900894079428F419
:101A2000360FE71EF81E491F511D660F771F881FCE
:101A3000991F0694A1F70590079428F4E70EF81E65
:101A4000491F561FC11D770F881F991F661F0694D7
:101A5000A1F70590079428F4F80E491F561FC71FD9
:101A6000D11D880F991F661F771F0694A1F7059057
:101A7000079420F4490F561FC71FD81F990F661FE0
:101A8000771F881F0694A9F784911095177041F06D
:101A9000D695C79557954795F794E7941A95C1F74A
:101AA000E8E6F0E06894159015913591659195916F
:101AB00005907FE27395E118F10A430B560BC90BB1
:101AC000D009C0F7E10CF11E431F561FC91FD01DDE
:101AD0007EF4703311F48A95E6CFE894015030F02B
:101AE000080F0AF40027021708F4202F2395022F6D
:101AF0007A3328F079E37D932A95E9F710C07D9336
:101B00002A9589F6069497956795379517951794B2
:101B1000E118F10A430B560BC90BD00998F0239535
:101B20007E9173957A3308F070E37C932013B8F7B5
:101B30007E9170617D9330F0839571E37D9370E3C6
:101B40002A95E1F71124EF90FF900F911F91CF910B
:101B5000DF91992787FD9095089599278827089503
:101B60000E94F20D08F481E00895E89409C097FB03
:101B70003EF490958095709561957F4F8F4F9F4F64
:101B80009923A9F0F92F96E9BB279395F6958795A8
:101B900077956795B795F111F8CFFAF4BB0F11F46B
:101BA00060FF1BC06F5F7F4F8F4F9F4F16C0882312
:101BB00011F096E911C0772321F09EE8872F762F48
:101BC00005C0662371F096E8862F70E060E02AF089
:101BD0009A95660F771F881FDAF7880F9695879575
:101BE00097F90895990F0008550FAA0BE0E8FEEF4A
:101BF00016161706E807F907C0F012161306E407D1
:101C0000F50798F0621B730B840B950B39F40A26C9
:101C100061F0232B242B252B21F408950A2609F4A7
:101C2000A140A6958FEF811D811D08950E94290E68
:101C30000C949A0E0E948C0E38F00E94930E20F0A5
:101C4000952311F00C94830E0C94890E11240C949E
:101C5000CE0E0E94AB0E70F3959FC1F3950F50E02E
:101C6000551F629FF001729FBB27F00DB11D639F4E
:101C7000AA27F00DB11DAA1F649F6627B00DA11DF4
:101C8000661F829F2227B00DA11D621F739FB00D9A
:101C9000A11D621F839FA00D611D221F749F33270A
:101CA000A00D611D231F849F600D211D822F762FA3
:101CB0006A2F11249F5750409AF0F1F088234AF080
:101CC000EE0FFF1FBB1F661F771F881F91505040EC
:101CD000A9F79E3F510580F00C94830E0C94CE0E14
:101CE0005F3FE4F3983ED4F3869577956795B79573
:101CF000F795E7959F5FC1F7FE2B880F911D96958D
:101D0000879597F9089597F99F6780E870E060E0FC
:101D100008959FEF80EC089500240A941616170684
:101D200018060906089500240A94121613061406CC
:101D300005060895092E0394000C11F4882352F02F
:101D4000BB0F40F4BF2B11F460FF04C06F5F7F4FE7
:101D50008F4F9F4F089557FD9058440F551F59F0CE
:101D60005F3F71F04795880F97FB991F61F09F3F88
:101D700079F087950895121613061406551FF2CFB1
:101D80004695F1DF08C0161617061806991FF1CF01
:101D900086957105610508940895E894BB27662728
:101DA0007727CB0197F90895DB018F939F930E94CA
:101DB000250FBF91AF91A29F800D911DA39F900D04
:101DC000B29F900D11240895A1E21A2EAA1BBB1BED
:101DD000FD010DC0AA1FBB1FEE1FFF1FA217B307F7
:101DE000E407F50720F0A21BB30BE40BF50B661F0D
:101DF000771F881F991F1A9469F7609570958095D1
:101E000090959B01AC01BD01CF010895052E97FB74
:101E10001EF400940E941D0F57FD07D00E94E40E8F
:101E200007FC03D04EF40C941D0F5095409530954F
:101E300021953F4F4F4F5F4F089590958095709536
:101E400061957F4F8F4F9F4F08950E946F0FA59F01
:101E5000900DB49F900DA49F800D911D11240895A5
:101E6000B7FF0C94250F0E94250F821B930B08953A
:101E70002F923F924F925F926F927F928F929F929A
:101E8000AF92BF92CF92DF92EF92FF920F931F9388
:101E9000CF93DF93CDB7DEB7CA1BDB0B0FB6F89439
:101EA000DEBF0FBECDBF09942A88398848885F8479
:101EB0006E847D848C849B84AA84B984C884DF80EA
:101EC000EE80FD800C811B81AA81B981CE0FD11DCE
:101ED0000FB6F894DEBF0FBECDBFED010895A29FEF
:101EE000B001B39FC001A39F700D811D1124911DEE
:101EF000B29F700D811D1124911D08955058BB276C
:101F0000AA270E94960F0C949A0E0E948C0E38F00D
:101F10000E94930E20F039F49F3F19F426F40C949C
:101F2000890E0EF4E095E7FB0C94830EE92F0E94D6
:101F3000AB0E58F3BA17620773078407950720F0B2
:101F400079F4A6F50C94CD0E0EF4E0950B2EBA2F75
:101F5000A02D0B01B90190010C01CA01A0011124AF
:101F6000FF27591B99F0593F50F4503E68F11A165B
:101F7000F040A22F232F342F4427585FF3CF4695EC
:101F800037952795A795F0405395C9F77EF41F160E
:101F9000BA0B620B730B840BBAF09150A1F0FF0FD8
:101FA000BB1F661F771F881FC2F70EC0BA0F621FC4
:101FB000731F841F48F4879577956795B795F795B4
:101FC0009E3F08F0B0CF9395880F08F09927EE0F49
:101FD0009795879508950E94FF0F0C949A0E0E9482
:101FE000930E58F00E948C0E40F029F45F3F29F0C8
:101FF0000C94830E51110C94CE0E0C94890E0E94F9
:10200000AB0E68F39923B1F3552391F3951B550B50
:10201000BB27AA2762177307840738F09F5F5F4FBB
:10202000220F331F441FAA1FA9F335D00E2E3AF0FA
:10203000E0E832D091505040E695001CCAF72BD012
:10204000FE2F29D0660F771F881FBB1F2617370763
:102050004807AB07B0E809F0BB0B802DBF01FF2795
:1020600093585F4F3AF09E3F510578F00C94830EE1
:102070000C94CE0E5F3FE4F3983ED4F386957795AB
:102080006795B795F7959F5FC9F7880F911D96954E
:10209000879597F90895E1E0660F771F881FBB1FAA
:1020A000621773078407BA0720F0621B730B840B57
:1020B000BA0BEE1F88F7E09508950E94F20D08F420
:1020C0008FEF0895991B79E004C0991F961708F0C7
:1020D000961B881F7A95C9F780950895EE0FFF1F0C
:1020E0000590F491E02D09940F931F93CF93DF9304
:1020F0008230910510F482E090E0E0914D02F09181
:102100004E0230E020E0B0E0A0E0309799F42115D5
:10211000310509F44AC0281B390B24303105D8F5A4
:102120008A819B816115710589F1FB01938382830B
:10213000FE0111C040815181028113814817590766
:10214000E0F04817590799F4109761F012960C9334
:10215000129713961C933296CF01DF91CF911F9166
:102160000F91089500934D0210934E02F4CF211564
:10217000310551F04217530738F0A901DB019A01EC
:10218000BD01DF01F801C1CFEF01F9CF90934E02FD
:1021900080934D02CDCFFE01E20FF31F8193919307
:1021A0002250310939832883D7CF20914B023091B7
:1021B0004C02232B41F42091030130910401309310
:1021C0004C0220934B022091010130910201211514
:1021D000310541F42DB73EB74091050150910601FC
:1021E000241B350BE0914B02F0914C02E217F307F0
:1021F000A0F42E1B3F0B2817390778F0AC014E5F77
:102200005F4F2417350748F04E0F5F1F50934C0265
:1022100040934B02819391939FCFF0E0E0E09CCFFD
:10222000CF93DF930097E9F0FC013297138212827B
:10223000A0914D02B0914E02ED0130E020E01097E8
:10224000A1F420813181820F931F20914B023091A4
:102250004C022817390709F061C0F0934C02E09353
:102260004B02DF91CF910895EA01CE17DF07E8F521
:102270004A815B819E0141155105B1F7E901FB835C
:10228000EA8349915991C40FD51FEC17FD0761F4FA
:10229000808191810296840F951FE901998388833B
:1022A000828193819B838A83F0E0E0E012968D9196
:1022B0009C9113970097B9F52D913C911197CD0101
:1022C0000296820F931F20914B0230914C022817E7
:1022D000390739F6309751F510924E0210924D029F
:1022E000B0934C02A0934B02BCCFD383C2834081F6
:1022F0005181840F951FC817D90761F44E5F5F4F56
:1023000088819981480F591F518340838A819B811D
:10231000938382832115310509F0B0CFF0934E02EB
:10232000E0934D029ECFFD01DC01C0CF13821282EB
:10233000D7CFB0E0A0E0EFE9F1E10C943A0F8C01C7
:10234000009751F4CB010E9474108C01C801CDB7E5
:10235000DEB7E0E10C94560FFC01E60FF71F9C017D
:1023600022503109E217F30708F49DC0D901CD913D
:10237000DC911197C617D70798F0C530D10530F317
:10238000CE0104978617970708F3C61BD70B229731
:10239000C193D1936D937C93CF010E941011D6CF3E
:1023A0005B01AC1ABD0A4C018C0E9D1EA0914D0222
:1023B000B0914E02512C412CF12CE12C109731F5AB
:1023C00080914B0290914C028815990509F05CC0F0
:1023D0004616570608F058C08091010190910201FD
:1023E000009741F48DB79EB74091050150910601C9
:1023F000841B950BE817F90708F055C0F0934C02C1
:10240000E0934B02F90171836083A0CF8D919C9181
:10241000119712966C90129713967C901397A815AB
:10242000B90559F56C0142E0C40ED11CCA14DB0495
:1024300020F1AC014A195B09DA011296159780F078
:102440006282738251834083D9016D937C93E1143E
:10245000F10471F0D7011396FC93EE93129776CFA7
:1024600022968C0F9D1FF90191838083F301EFCF9A
:10247000F0934E02E0934D0269CF4816590608F4D6
:102480002C017D01D3019ACFCB010E9474107C01F5
:10249000009749F0AE01B8010E945612C8010E948F
:1024A0001011870153CF10E000E050CFFB01DC0199
:1024B00002C001900D9241505040D8F70895FB01A1
:1024C000DC018D91019080190110D9F3990B0895C9
:1024D000FB01DC0101900D920020E1F70895AEE0D0
:1024E000B0E0E5E7F2E10C94460F0D891E898F8973
:1024F000988D26E02C831A83098397FF02C080E021
:1025000090E801979E838D83AE01455E5F4F698D94
:102510007A8DCE0101960E949F124D815E8157FDFA
:102520000AC02F813885421753070CF49A01020F15
:10253000131FF80110822E96E4E00C94620FABE0BA
:10254000B0E0E5EAF2E10C94380F7C013B018A012E
:10255000FC0117821682838181FFC8C1CE010196DA
:102560005C01F7019381F30193FD859193FF8191C4
:102570003F01882309F453C1853239F493FD8591D5
:1025800093FF81913F01853229F4B70190E00E94C9
:102590008F14E7CF912C212C312CFFE1F31538F06B
:1025A0008B3211F190F4803209F1833229F137FC3A
:1025B0003CC020ED280F2A3050F536FE20C08AE0BE
:1025C000989E200D1124922E06C08D3291F08033FA
:1025D00071F7689430F8F30193FD859193FF819131
:1025E0003F018111DACF21C0689431F8689432F844
:1025F000F2CF689433F8EFCF689434F8ECCFEAE088
:102600002E9E200D1124222E689435F8E4CF8E32B0
:1026100029F436FC04C1689436F8DDCF8C3619F401
:10262000689437F8D8CF8836B1F2982F9F7D9554AB
:102630009330E0F08336A1F18337C1F1833509F09F
:1026400063C02801F2E04F0E511CF801C080D18018
:10265000692D70E036FC02C06FEF7FEFC6010E946B
:1026600079144C01689437F882010AC00C5F1F4F3F
:10267000FFE3F98388248394912C6501E89437F86B
:1026800033FE2DC0522C8114910471F5552009F4AC
:1026900068CFB70180E290E00E948F145A94F6CF81
:1026A000F801808189830E5F1F4FE4CF2801F2E09B
:1026B0004F0E511CF801C080D180692D70E036FCAE
:1026C00002C06FEF7FEFC6010E9484144C018201AB
:1026D000D5CFB70180E290E00E948F142A9428148D
:1026E000190409F0B0F7CECFF60137FC859137FE1B
:1026F00081916F01B70190E00E948F1451105A949C
:10270000F1E08F1A9108BFCF843619F0893609F0AD
:1027100077C0F80137FE6BC060817181828193813F
:102720000C5F1F4FF32DFF763F2E97FF09C090954A
:102730008095709561957F4F8F4F9F4F689437F8C4
:102740002AE030E0A5010E94BF14C82ECA188C2CC4
:10275000432C36FE0CC0E89440F8C91440F434FE13
:1027600005C032FC03C0F32DFE7E4F2E892C44FEA3
:1027700095C0FE01EC0DF11D8081803309F087C00A
:10278000242D297E422E842D8870582E43FC95C01E
:1027900040FE8FC09C2C821418F42C0C922C98189C
:1027A00044FE91C0B70180E390E00E948F1442FE86
:1027B00009C088E790E041FE02C088E590E0B701DB
:1027C0000E948F14C91408F48AC0CA94D12C9FEFB8
:1027D000C91AD90ACA0CDB1CF60182916F01B70134
:1027E00090E00E948F14AC14BD04B1F74FCF60810C
:1027F0007181072E000C880B990B0E5F1F4F92CF33
:10280000D32CE894D4F82AE030E0853739F1232D31
:10281000297FD22E8F3601F148F48835A9F0F701CF
:10282000868197812B96E2E10C94540F803749F012
:102830008837A9F7D4FE02C06894D2F820E130E0CE
:102840000DC06894D4F8F6CF34FE03C0822F8660A2
:10285000D82E20E132E002C028E030E0F801D7FEB7
:102860000FC060817181828193810C5F1F4FA50130
:102870000E94BF14C82ECA183D2CE89437F867CFC1
:102880006081718190E080E00E5F1F4FF0CF42FCCD
:1028900002C0839478CF8394839475CF842D8678F7
:1028A00009F471CFF6CFB70180E290E00E948F1457
:1028B00083948214C0F3512C73CF522C5818821475
:1028C00008F46ECFF8CF842D867809F47BCF8BE2A5
:1028D00041FE80E247FC8DE2B70190E071CFB70185
:1028E00080E390E00E948F149A946CCF8FEF9FEF5B
:1028F00099CFFC010590615070400110D8F7809588
:1029000090958E0F9F1F0895FC01615070400190BB
:102910000110D8F7809590958E0F9F1F08950F9303
:102920001F93CF93DF93182F092FEB018B8181FD2C
:1029300009C01FEF0FEF812F902FDF91CF911F91D3
:102940000F91089582FF14C02E813F818C819D815B
:10295000281739073CF4E881F981CF010196998362
:10296000888310838E819F8101969F838E83E3CF1E
:10297000E885F985812F0995892BA1F3DACFFA0132
:10298000AA27283051F1203181F1E8946F936E7FAE
:102990006E5F7F4F8F4F9F4FAF4FB1E03ED0B4E09F
:1029A0003CD0670F781F891F9A1FA11D680F791FE0
:1029B0008A1F911DA11D6A0F711D811D911DA11DF1
:1029C00020D009F468943F912AE0269F1124301901
:1029D000305D3193DEF6CF010895462F4770405D9C
:1029E0004193B3E00FD0C9F7F6CF462F4F70405D4B
:1029F0004A3318F0495D31FD4052419302D0A9F7A6
:102A0000EACFB4E0A6959795879577956795BA959F
:102A1000C9F700976105710508959B01AC010A2E65
:102A200006945795479537952795BA95C9F7620F3C
:102A3000731F841F951FA01D089510E0CFEDD0E0F7
:102A400004C0FE010E946E102196C03ED107C9F756
:042A5000F894FFCF28
:102A54000100004F0280000000000029029301C021
:102A6400017602F101CF01E3012530325800666698
:102A7400666500746F67676C65506F7765720054A4
:102A8400454D50494E464F00504F574552494E46CA
:0A2A94004F004F6E004F6666000011
:00000001FF
