:100000000C9463000C948B000C948B000C948B006C
:100010000C948B000C948B000C948B000C948B0034
:100020000C948B000C948B000C948B000C948B0024
:100030000C948B000C948B000C948B000C948B0014
:100040000C94BE030C948B000C948C030C946603EC
:100050000C948B000C948B000C948B000C948B00F4
:100060000C948B000C948B000000000024002700EF
:100070002A0000000000250028002B0000000000DE
:1000800023002600290004040404040404040202DA
:100090000202020203030303030301020408102007
:1000A0004080010204081020010204081020000012
:1000B0000008000201000003040700000000000027
:1000C00000000804AA0511241FBECFEFD8E0DEBF50
:1000D000CDBF21E0A4E2B1E001C01D92A73FB2076D
:1000E000E1F711E0A0E0B1E0E6E7F3E102C005903E
:1000F0000D92A432B107D9F710E0C2E6D0E004C0F7
:100100002197FE010E94AD07C136D107C9F70E94B1
:100110006D040C94AE090C940000AF92BF92CF9284
:10012000DF92EF92FF920F931F93CF93DF936C01B7
:100130007B018B01040F151FEB015E01AE18BF0898
:10014000C017D10759F06991D601ED91FC9101904A
:10015000F081E02DC6010995892B79F7C501DF9162
:10016000CF911F910F91FF90EF90DF90CF90BF90B4
:10017000AF900895FC01538D448D252F30E0842FDE
:1001800090E0821B930B541710F0CF9608950197BF
:100190000895FC01918D828D981761F0A28DAE0FAC
:1001A000BF2FB11D5D968C91928D9F5F9F73928F33
:1001B00090E008958FEF9FEF0895FC01918D828D5F
:1001C000981731F0828DE80FF11D858D90E008952C
:1001D0008FEF9FEF0895FC01918D228D892F90E084
:1001E000805C9F4F821B91098F73992708958DE240
:1001F00091E00E94EB0021E0892B09F420E0822F9E
:100200000895FC01A48DA80FB92FB11DA35ABF4FAB
:100210002C91848D90E001968F739927848FA68905
:10022000B7892C93A089B1898C91837080648C9359
:10023000938D848D981306C00288F389E02D808108
:100240008F7D80830895EF92FF920F931F93CF933A
:10025000DF93EC0181E0888F9B8D8C8D98131AC001
:10026000E889F989808185FF15C09FB7F894EE89E8
:10027000FF896083E889F989808183708064808345
:100280009FBF81E090E0DF91CF911F910F91FF9090
:10029000EF900895F62E0B8D10E00F5F1F4F0F7338
:1002A0001127E02E8C8D8E110CC00FB607FCFACFF3
:1002B000E889F989808185FFF5CFCE010E9401018F
:1002C000F1CFEB8DEC0FFD2FF11DE35AFF4FF082C4
:1002D0009FB7F8940B8FEA89FB8980818062CFCF2A
:1002E000CF93DF93EC01888D8823B9F0AA89BB896D
:1002F000E889F9898C9185FD03C0808186FD0DC058
:100300000FB607FCF7CF8C9185FFF2CF808185FF78
:10031000EDCFCE010E940101E9CFDF91CF91089589
:10032000833081F028F4813099F08230A9F008956B
:100330008730A9F08830C9F08430B1F48091800012
:100340008F7D03C0809180008F7780938000089517
:1003500084B58F7784BD089584B58F7DFBCF809160
:10036000B0008F778093B00008958091B0008F7DAA
:10037000F9CFFC0180819181009711F00C944F0816
:1003800008950F931F93CF93DF93EC018881998198
:10039000009759F02A813B812617370730F081E01A
:1003A000DF91CF911F910F9108958B016F5F7F4F68
:1003B0000E94D808009759F0998388831B830A8389
:1003C0002C813D81232B59F7FC011082E8CF80E07E
:1003D000E7CFEF92FF920F931F93CF93DF9300D05D
:1003E000CDB7DEB78C0169831A82FC01E480F58009
:1003F000FFEFEF1AFF0AB7010E94C101882381F0C5
:10040000F8012081318184819581BE016F5F7F4F2A
:10041000820F931F0E94A709F801F582E48281E010
:100420000F900F90DF91CF911F910F91FF90EF9060
:100430000895EF92FF920F931F93CF93DF93EC01F8
:100440007B018A01BA010E94C10128813981811191
:1004500014C02115310519F0C9010E944F081982F5
:1004600018821D821C821B821A82CE01DF91CF91DD
:100470001F910F91FF90EF9008951D830C83B7019A
:10048000C9010E94A709F1CF50E040E063E271E0AA
:100490000C94190250E040E063E271E00C94190200
:1004A000CF93DF93EC01FB01198218821B821A8221
:1004B0001D821C826817790749F06081718161157E
:1004C000710521F0448155810E941902CE01DF910E
:1004D000CF910895CF93C1E08DE291E00E94EB00AF
:1004E000892B09F4EBC08091D4019091D501892B1F
:1004F00009F04EC02FB7F8948091290190912A01FC
:10050000A0912B01B0912C012FBF8093EB01909310
:10051000EC01A093ED01B093EE0189ED91E00E9412
:1005200044028DE291E00E94C900682F8091D401BD
:100530009091D5019C012F5F3F4F3093D5012093BF
:10054000D4018330910508F0B3C051E0663609F458
:1005500050E02430310519F441E0653609F440E0FB
:10056000511103C0442309F456C01092D5011092D2
:10057000D4011092D7011092D60189ED91E00E942A
:1005800044028FED91E00E9444021092D801A4CF62
:100590008091EB019091EC01A091ED01B091EE0101
:1005A000845D9E4FAF4FBF4F2FB7F8944091290104
:1005B00050912A0160912B0170912C012FBF84175B
:1005C0009507A607B70708F0ACCF8FED91E00E9422
:1005D00044021092D5011092D4011092D7011092CA
:1005E000D60189ED91E00E9444021092D8012FB704
:1005F000F8948091290190912A01A0912B01B0914A
:100600002C012FBF8093EB019093EC01A093ED019F
:10061000B093EE0186CF0497029710F51092D8019F
:100620008FED91E00E94E9018091D4019091D50174
:10063000069709F051CF40E150E070E060E0809112
:10064000DF019091E0010E9407066A5F7F4F70937F
:10065000D7016093D6018FED91E00E9444023CCF18
:100660002730310508F438CF8091D6019091D70119
:100670002817390738F41092D80189ED91E00E94CB
:10068000E9012ACF9093D5018093D401892B09F4F5
:1006900023CF89ED91E00E94E9011092D5011092DB
:1006A000D4011092D7011092D601C093D80114CF73
:1006B0002430310509F0AFCF50E04ECFCF910895EF
:1006C0000E94F70081110C946A0208951F920F9204
:1006D0000FB60F9211242F933F934F935F936F9315
:1006E0007F938F939F93AF93BF93EF93FF938DE28D
:1006F00091E00E940101FF91EF91BF91AF919F9115
:100700008F917F916F915F914F913F912F910F90BA
:100710000FBE0F901F9018951F920F920FB60F9259
:1007200011242F938F939F93EF93FF93E0913D01BB
:10073000F0913E018081E0914301F091440182FDFE
:100740001BC09081809146018F5F8F73209147017C
:10075000821741F0E0914601F0E0E35DFE4F958F96
:1007600080934601FF91EF919F918F912F910F9070
:100770000FBE0F901F9018958081F4CF1F920F929B
:100780000FB60F9211242F933F938F939F93AF93A4
:10079000BF938091290190912A01A0912B01B091E2
:1007A0002C013091280123E0230F2D3758F50196B5
:1007B000A11DB11D209328018093290190932A0146
:1007C000A0932B01B0932C018091240190912501DD
:1007D000A0912601B09127010196A11DB11D809322
:1007E000240190932501A0932601B0932701BF9186
:1007F000AF919F918F913F912F910F900FBE0F90CE
:100800001F90189526E8230F0296A11DB11DD2CF87
:10081000CF93DF93EDE2F1E01382128288EE93E052
:10082000A0E0B0E084839583A683B7838AE091E05B
:100830009183808385EC90E09587848784EC90E0B9
:100840009787868780EC90E0918B808B81EC90E09D
:10085000938B828B82EC90E0958B848B86EC90E07E
:10086000978B868B118E128E138E148ECAECD1E06C
:100870001E821D8286E090E00E94B307FC01118277
:10088000108213821282158214829A8389839C8338
:100890008B8380E592E099878887188A1F861A8A59
:1008A000198A1C8A1B8A89ED91E00E944A021E8ADD
:1008B0001D8A188E1F8A1A8E198E8FED91E00E9464
:1008C0004A021C8E1B8E1E8E1D8E18A21F8E85EE58
:1008D00091E0DF91CF910C944A02CF93DF9300D047
:1008E00000D000D0CDB7DEB7789484B5826084BDE7
:1008F00084B5816084BD85B5826085BD85B5816024
:1009000085BD80916E00816080936E0010928100A1
:10091000809181008260809381008091810081605C
:10092000809381008091800081608093800080911D
:10093000B10084608093B1008091B00081608093A9
:10094000B00080917A00846080937A0080917A0070
:10095000826080937A0080917A00816080937A002F
:1009600080917A00806880937A001092C10007EA33
:1009700010E0F801249143E9E42E40E0F42EF70161
:100980008491882399F090E0880F991FFC01E85921
:10099000FF4FA591B491FC01EE58FF4F85919491C2
:1009A0008FB7F8949C91292B2C938FBF6FEF70E039
:1009B00089ED91E00E94C1018FED91E00E94440217
:1009C00089ED91E00E94440285EE91E00E9444028C
:1009D0001092D8011092D7011092D6011092D50131
:1009E0001092D4011092EB011092EC011092ED01E3
:1009F0001092EE01E0913D01F0913E0182E0808392
:100A0000E0913901F0913A011082E0913B01F091BF
:100A10003C018FEC808310924501E0914101F091FF
:100A2000420186E08083E0913F01F09140018081A6
:100A300080618083E0913F01F09140018081886076
:100A40008083E0913F01F091400180818068808344
:100A5000E0913F01F091400180818F7D80832BEBFD
:100A6000A22E20E0B22E8091D8011092D8018823C6
:100A700009F463C01A8219821C821B821E821D82A5
:100A80006091D9017091DA016115710541F04091D1
:100A9000DD015091DE01CE0101960E9419028D8187
:100AA0009E81892B51F068E171E089819A810E94D1
:100AB0009E09DD24D394892B09F0D12CCE01019617
:100AC0000E94B901DD2009F438C0F5018491F801D4
:100AD000C490F701D490DD2009F437C081110E9441
:100AE0009001ED2DF0E0EE0FFF1FE458FF4FA591B0
:100AF000B4918C91C82291E080E009F490E0C92E75
:100B0000D82EF5018491F8019490F7018490882003
:100B1000A1F081110E949001E82DF0E0EE0FFF1F7F
:100B2000EE58FF4FA591B4918FB7F8949C91CD28C2
:100B300079F0909499229C928FBF0E94F7008823AD
:100B400009F491CF0E946A028ECFD12CC12CD9CF4B
:100B5000992AF1CFCF93DF9385EE91E00E94B901FE
:100B60008FED91E00E94B90189ED91E00E94B901F9
:100B7000E091CB01F091CC018091CF019091D00117
:100B8000892B71F10280F381E02DF093CC01E09389
:100B9000CB010190F081E02DC481D581209731F007
:100BA000CE010E94B901CE010E944F08E091CB0115
:100BB000F091CC0180819181009711F00E944F0843
:100BC000E091CB01F091CC01118210828091CF0194
:100BD0009091D00101979093D0018093CF01C8CF1D
:100BE000C481D581209731F0CE010E94B901CE0198
:100BF0000E944F088091CB019091CC01009721F089
:100C0000DF91CF910C944F08DF91CF910895B0E020
:100C1000A0E0EDE0F6E00C9468075C016B017A015E
:100C20006115710519F0FB0191838083E114F104D2
:100C300051F0C7010297839730F040E030E020E0A8
:100C400090E072C05E01E5012196F5011081812FCF
:100C500090E00E941E07892BA9F71D3201F521960D
:100C6000F501118101E0E114F10409F4DAC0F0E1C9
:100C7000EF16F10409F082C0103359F488818F7D9A
:100C8000883509F076C0198122960260F0E1EF2ED6
:100C9000F12C812C912CA12C88E0B82E8CC01B3219
:100CA00021F4E5012296F501118100E0DCCFEAE0B4
:100CB000EE16F10409F4BBC0F0E1EF16F10409F0FF
:100CC0006DC0E7CF78E0E72EF12C812C912CA12C80
:100CD00060E1B62E70C03FE9310F3A3128F439EAAD
:100CE000332E80C021E09AC0302F3170C114D1045E
:100CF00031F0222309F12197F601D183C08327FF28
:100D000021C060E070E080E090E8311104C06FEF36
:100D10007FEF8FEF9FE722E230E03093F2012093E4
:100D2000F101462F372F282F642F732F822FCDB735
:100D3000DEB7E1E10C94840701FF04C02297F601BD
:100D4000D183C083332341F0909580957095619550
:100D50007F4F8F4F9F4FE5CF97FFE3CF82E290E029
:100D60009093F2018093F1016FEF7FEF8FEF9FE798
:100D7000D8CF10E3E114F10409F4A4CF28E0E2167F
:100D8000F10409F4A2CF0CF092CF812C912CA12C6C
:100D9000E0E4BE2E82E0E816F10469F060E070E065
:100DA00080E090E897010F2C000C440B550B0E943B
:100DB0003A0749015A0120E060E070E0CB012701C9
:100DC0000F2C000C66087708FE0150ED352E310E11
:100DD00039E0331540F43FEB310F3A3108F07BCF67
:100DE00049EC342E310E3E141F040CF07DCF27FD4C
:100DF00015C086169706A806B90678F0A3019201D9
:100E00000E942A07630D711D811D911D61307105BE
:100E1000810520E8920708F465CF2FEF2196108115
:100E2000D3CF103309F42ACF2AE0E22EF12C9CEC28
:100E3000892E982CA82C9CE0B92EBDCF91110C9432
:100E40002707803219F089508550C8F708959927EF
:100E500088270895DB018F939F930E945C07BF91C1
:100E6000AF91A29F800D911DA39F900DB29F900DF9
:100E700011240895A1E21A2EAA1BBB1BFD010DC06F
:100E8000AA1FBB1FEE1FFF1FA217B307E407F5073A
:100E900020F0A21BB30BE40BF50B661F771F881F16
:100EA000991F1A9469F760957095809590959B01AC
:100EB000AC01BD01CF0108950E949E07A59F900D32
:100EC000B49F900DA49F800D911D112408952F9221
:100ED0003F924F925F926F927F928F929F92AF92CA
:100EE000BF92CF92DF92EF92FF920F931F93CF9317
:100EF000DF93CDB7DEB7CA1BDB0B0FB6F894DEBFAE
:100F00000FBECDBF09942A88398848885F846E84D3
:100F10007D848C849B84AA84B984C884DF80EE801D
:100F2000FD800C811B81AA81B981CE0FD11D0FB626
:100F3000F894DEBF0FBECDBFED010895A29FB001B2
:100F4000B39FC001A39F700D811D1124911DB29FFD
:100F5000700D811D1124911D0895EE0FFF1F059046
:100F6000F491E02D09940F931F93CF93DF93823078
:100F7000910510F482E090E0E091F501F091F60126
:100F800030E020E0B0E0A0E0309799F42115310581
:100F900009F44AC0281B390B24303105D8F58A8161
:100FA0009B816115710589F1FB0193838283FE01A9
:100FB00011C0408151810281138148175907E0F027
:100FC0004817590799F4109761F012960C931297ED
:100FD00013961C933296CF01DF91CF911F910F9101
:100FE00008950093F5011093F601F4CF2115310512
:100FF00051F04217530738F0A901DB019A01BD01F6
:10100000DF01F801C1CFEF01F9CF9093F601809392
:10101000F501CDCFFE01E20FF31F81939193225092
:10102000310939832883D7CF2091F3013091F4011E
:10103000232B41F420910201309103013093F401FC
:101040002093F30120910001309101012115310518
:1010500041F42DB73EB74091040150910501241B86
:10106000350BE091F301F091F401E217F307A0F4DE
:101070002E1B3F0B2817390778F0AC014E5F5F4FEE
:101080002417350748F04E0F5F1F5093F40140932B
:10109000F301819391939FCFF0E0E0E09CCFCF9359
:1010A000DF930097E9F0FC01329713821282A0913E
:1010B000F501B091F601ED0130E020E01097A1F4C8
:1010C00020813181820F931F2091F3013091F4012F
:1010D0002817390709F061C0F093F401E093F30198
:1010E000DF91CF910895EA01CE17DF07E8F54A8135
:1010F0005B819E0141155105B1F7E901FB83EA834C
:1011000049915991C40FD51FEC17FD0761F48081F7
:1011100091810296840F951FE901998388838281CA
:1011200093819B838A83F0E0E0E012968D919C91FD
:1011300013970097B9F52D913C911197CD01029627
:10114000820F931F2091F3013091F4012817390782
:1011500039F6309751F51092F6011092F501B093DF
:10116000F401A093F301BCCFD383C28340815181AA
:10117000840F951FC817D90761F44E5F5F4F8881B0
:101180009981480F591F518340838A819B819383A2
:1011900082832115310509F0B0CFF093F601E09379
:1011A000F5019ECFFD01DC01C0CF13821282D7CFA3
:1011B000B0E0A0E0EEEDF8E00C9469078C01009738
:1011C00051F4CB010E94B3078C01C801CDB7DEB743
:1011D000E0E10C948507FC01E60FF71F9C0122500B
:1011E0003109E217F30708F49DC0D901CD91DC91D4
:1011F0001197C617D70798F0C530D10530F3CE0147
:1012000004978617970708F3C61BD70B2297C1933D
:10121000D1936D937C93CF010E944F08D6CF5B0191
:10122000AC1ABD0A4C018C0E9D1EA091F501B09127
:10123000F601512C412CF12CE12C109731F58091C5
:10124000F3019091F4018815990509F05CC04616E8
:10125000570608F058C08091000190910101009755
:1012600041F48DB79EB74091040150910501841B54
:10127000950BE817F90708F055C0F093F401E093D7
:10128000F301F90171836083A0CF8D919C91119737
:1012900012966C90129713967C901397A815B90527
:1012A00059F56C0142E0C40ED11CCA14DB0420F1D4
:1012B000AC014A195B09DA011296159780F0628237
:1012C000738251834083D9016D937C93E114F104BF
:1012D00071F0D7011396FC93EE93129776CF229676
:1012E0008C0F9D1FF90191838083F301EFCFF09361
:1012F000F601E093F50169CF4816590608F42C0170
:101300007D01D3019ACFCB010E94B3077C010097E6
:1013100049F0AE01B8010E949509C8010E944F082A
:10132000870153CF10E000E050CFFB01DC0102C089
:1013300001900D9241505040D8F70895FB01DC0117
:101340008D91019080190110D9F3990B0895FB013B
:10135000DC0101900D920020E1F7089510E0C2E653
:10136000D0E004C0FE010E94AD072196C336D1072C
:06137000C9F7F894FFCF5D
:101376000000F70180000000000023018D00BA0084
:101386007001EB00C900DD00676574506572636526
:0413960070747300FC
:00000001FF
